{
  "_format": "hh-sol-artifact-1",
  "contractName": "pMintyMultiSale",
  "sourceName": "contracts/sale2M/pMintyMultiSale.sol",
  "abi": [
    {
      "inputs": [
        {
          "internalType": "address",
          "name": "wallet",
          "type": "address"
        },
        {
          "internalType": "contract IERC20",
          "name": "_weth",
          "type": "address"
        },
        {
          "internalType": "uint256",
          "name": "_divisor",
          "type": "uint256"
        }
      ],
      "stateMutability": "nonpayable",
      "type": "constructor"
    },
    {
      "anonymous": false,
      "inputs": [
        {
          "indexed": false,
          "internalType": "address",
          "name": "bidder",
          "type": "address"
        },
        {
          "indexed": false,
          "internalType": "contract IMintyMultiToken",
          "name": "token",
          "type": "address"
        },
        {
          "indexed": false,
          "internalType": "uint256",
          "name": "tokenId",
          "type": "uint256"
        },
        {
          "indexed": false,
          "internalType": "uint256",
          "name": "previous_bid",
          "type": "uint256"
        },
        {
          "indexed": false,
          "internalType": "uint256",
          "name": "this_bid",
          "type": "uint256"
        }
      ],
      "name": "BidIncreased",
      "type": "event"
    },
    {
      "anonymous": false,
      "inputs": [
        {
          "indexed": false,
          "internalType": "address",
          "name": "bidder",
          "type": "address"
        },
        {
          "indexed": false,
          "internalType": "contract IMintyMultiToken",
          "name": "token",
          "type": "address"
        },
        {
          "indexed": false,
          "internalType": "uint256",
          "name": "tokenId",
          "type": "uint256"
        },
        {
          "indexed": false,
          "internalType": "uint256",
          "name": "bid",
          "type": "uint256"
        }
      ],
      "name": "BidReceived",
      "type": "event"
    },
    {
      "anonymous": false,
      "inputs": [
        {
          "indexed": false,
          "internalType": "contract IMintyMultiToken",
          "name": "token",
          "type": "address"
        },
        {
          "indexed": false,
          "internalType": "uint256",
          "name": "tokenId",
          "type": "uint256"
        }
      ],
      "name": "BidWithdrawn",
      "type": "event"
    },
    {
      "anonymous": false,
      "inputs": [
        {
          "indexed": false,
          "internalType": "uint256",
          "name": "divisor",
          "type": "uint256"
        }
      ],
      "name": "FeeUpdated",
      "type": "event"
    },
    {
      "anonymous": false,
      "inputs": [
        {
          "indexed": false,
          "internalType": "contract IMintyMultiToken",
          "name": "token",
          "type": "address"
        },
        {
          "indexed": false,
          "internalType": "uint256",
          "name": "tokenId",
          "type": "uint256"
        },
        {
          "indexed": false,
          "internalType": "address",
          "name": "owner",
          "type": "address"
        },
        {
          "indexed": false,
          "internalType": "uint256",
          "name": "quantity",
          "type": "uint256"
        },
        {
          "indexed": false,
          "internalType": "uint256",
          "name": "price",
          "type": "uint256"
        },
        {
          "indexed": false,
          "internalType": "string",
          "name": "hash",
          "type": "string"
        }
      ],
      "name": "NewOffer",
      "type": "event"
    },
    {
      "anonymous": false,
      "inputs": [
        {
          "indexed": false,
          "internalType": "address",
          "name": "buyer",
          "type": "address"
        },
        {
          "indexed": false,
          "internalType": "contract IMintyMultiToken",
          "name": "token",
          "type": "address"
        },
        {
          "indexed": false,
          "internalType": "uint256",
          "name": "tokenId",
          "type": "uint256"
        },
        {
          "indexed": false,
          "internalType": "uint256",
          "name": "pos",
          "type": "uint256"
        },
        {
          "indexed": false,
          "internalType": "uint256",
          "name": "quantity",
          "type": "uint256"
        },
        {
          "indexed": false,
          "internalType": "uint256",
          "name": "price",
          "type": "uint256"
        }
      ],
      "name": "OfferAccepted",
      "type": "event"
    },
    {
      "anonymous": false,
      "inputs": [
        {
          "indexed": false,
          "internalType": "contract IMintyMultiToken",
          "name": "token",
          "type": "address"
        },
        {
          "indexed": false,
          "internalType": "uint256",
          "name": "tokenId",
          "type": "uint256"
        }
      ],
      "name": "OfferWithdrawn",
      "type": "event"
    },
    {
      "anonymous": false,
      "inputs": [
        {
          "indexed": true,
          "internalType": "address",
          "name": "previousOwner",
          "type": "address"
        },
        {
          "indexed": true,
          "internalType": "address",
          "name": "newOwner",
          "type": "address"
        }
      ],
      "name": "OwnershipTransferred",
      "type": "event"
    },
    {
      "anonymous": false,
      "inputs": [
        {
          "indexed": false,
          "internalType": "address",
          "name": "wallet",
          "type": "address"
        },
        {
          "indexed": false,
          "internalType": "address",
          "name": "creator",
          "type": "address"
        },
        {
          "indexed": false,
          "internalType": "address",
          "name": "_owner",
          "type": "address"
        },
        {
          "indexed": false,
          "internalType": "uint256",
          "name": "amount",
          "type": "uint256"
        }
      ],
      "name": "Payment",
      "type": "event"
    },
    {
      "anonymous": false,
      "inputs": [
        {
          "indexed": false,
          "internalType": "contract IMintyMultiToken",
          "name": "token",
          "type": "address"
        },
        {
          "indexed": false,
          "internalType": "uint256",
          "name": "tokenId",
          "type": "uint256"
        },
        {
          "indexed": false,
          "internalType": "uint256",
          "name": "quantity",
          "type": "uint256"
        },
        {
          "indexed": false,
          "internalType": "address",
          "name": "owner",
          "type": "address"
        },
        {
          "indexed": false,
          "internalType": "uint256",
          "name": "price",
          "type": "uint256"
        },
        {
          "indexed": false,
          "internalType": "uint256",
          "name": "position",
          "type": "uint256"
        }
      ],
      "name": "ResaleOffer",
      "type": "event"
    },
    {
      "anonymous": false,
      "inputs": [
        {
          "indexed": false,
          "internalType": "contract IMintyMultiToken",
          "name": "token",
          "type": "address"
        },
        {
          "indexed": false,
          "internalType": "uint256",
          "name": "tokenId",
          "type": "uint256"
        },
        {
          "indexed": false,
          "internalType": "uint256",
          "name": "pos",
          "type": "uint256"
        },
        {
          "indexed": false,
          "internalType": "uint256",
          "name": "price",
          "type": "uint256"
        },
        {
          "indexed": false,
          "internalType": "address",
          "name": "owner",
          "type": "address"
        }
      ],
      "name": "SaleRepriced",
      "type": "event"
    },
    {
      "anonymous": false,
      "inputs": [
        {
          "indexed": false,
          "internalType": "contract IMintyMultiToken",
          "name": "token",
          "type": "address"
        },
        {
          "indexed": false,
          "internalType": "uint256",
          "name": "tokenId",
          "type": "uint256"
        },
        {
          "indexed": false,
          "internalType": "uint256",
          "name": "pos",
          "type": "uint256"
        },
        {
          "indexed": false,
          "internalType": "address",
          "name": "owner",
          "type": "address"
        }
      ],
      "name": "SaleRetracted",
      "type": "event"
    },
    {
      "anonymous": false,
      "inputs": [
        {
          "indexed": true,
          "internalType": "address",
          "name": "previousWallet",
          "type": "address"
        },
        {
          "indexed": true,
          "internalType": "address",
          "name": "newWallet",
          "type": "address"
        }
      ],
      "name": "WalletTransferred",
      "type": "event"
    },
    {
      "inputs": [
        {
          "internalType": "contract IMintyMultiToken",
          "name": "token",
          "type": "address"
        },
        {
          "internalType": "uint256",
          "name": "tokenId",
          "type": "uint256"
        },
        {
          "internalType": "uint256",
          "name": "pos",
          "type": "uint256"
        },
        {
          "internalType": "uint256",
          "name": "quantity",
          "type": "uint256"
        }
      ],
      "name": "acceptOffer",
      "outputs": [],
      "stateMutability": "nonpayable",
      "type": "function"
    },
    {
      "inputs": [
        {
          "internalType": "contract IMintyMultiToken",
          "name": "token",
          "type": "address"
        },
        {
          "internalType": "uint256",
          "name": "tokenId",
          "type": "uint256"
        },
        {
          "internalType": "uint256",
          "name": "offerId",
          "type": "uint256"
        }
      ],
      "name": "available",
      "outputs": [
        {
          "internalType": "uint256",
          "name": "",
          "type": "uint256"
        }
      ],
      "stateMutability": "view",
      "type": "function"
    },
    {
      "inputs": [
        {
          "internalType": "address",
          "name": "newWallet",
          "type": "address"
        }
      ],
      "name": "changeWallet",
      "outputs": [],
      "stateMutability": "nonpayable",
      "type": "function"
    },
    {
      "inputs": [],
      "name": "divisor",
      "outputs": [
        {
          "internalType": "uint256",
          "name": "",
          "type": "uint256"
        }
      ],
      "stateMutability": "view",
      "type": "function"
    },
    {
      "inputs": [
        {
          "internalType": "contract IMintyMultiToken",
          "name": "",
          "type": "address"
        },
        {
          "internalType": "uint256",
          "name": "",
          "type": "uint256"
        },
        {
          "internalType": "uint256",
          "name": "",
          "type": "uint256"
        }
      ],
      "name": "items",
      "outputs": [
        {
          "internalType": "address",
          "name": "creator",
          "type": "address"
        },
        {
          "internalType": "uint256",
          "name": "quantity",
          "type": "uint256"
        },
        {
          "internalType": "string",
          "name": "itemHash",
          "type": "string"
        },
        {
          "internalType": "uint256",
          "name": "unitPrice",
          "type": "uint256"
        }
      ],
      "stateMutability": "view",
      "type": "function"
    },
    {
      "inputs": [],
      "name": "minty",
      "outputs": [
        {
          "internalType": "address",
          "name": "",
          "type": "address"
        }
      ],
      "stateMutability": "view",
      "type": "function"
    },
    {
      "inputs": [
        {
          "internalType": "contract IMintyMultiToken",
          "name": "",
          "type": "address"
        }
      ],
      "name": "multiTokenOwners",
      "outputs": [
        {
          "internalType": "address",
          "name": "",
          "type": "address"
        }
      ],
      "stateMutability": "view",
      "type": "function"
    },
    {
      "inputs": [
        {
          "internalType": "contract IMintyMultiToken",
          "name": "token",
          "type": "address"
        },
        {
          "internalType": "uint256",
          "name": "tokenId",
          "type": "uint256"
        }
      ],
      "name": "numberOfOffers",
      "outputs": [
        {
          "internalType": "uint256",
          "name": "",
          "type": "uint256"
        }
      ],
      "stateMutability": "view",
      "type": "function"
    },
    {
      "inputs": [
        {
          "internalType": "contract IMintyMultiToken",
          "name": "token",
          "type": "address"
        },
        {
          "internalType": "uint256",
          "name": "tokenId",
          "type": "uint256"
        },
        {
          "internalType": "string",
          "name": "ipfsString",
          "type": "string"
        },
        {
          "internalType": "uint256",
          "name": "quantity",
          "type": "uint256"
        },
        {
          "internalType": "uint256",
          "name": "price",
          "type": "uint256"
        }
      ],
      "name": "offerNew",
      "outputs": [],
      "stateMutability": "nonpayable",
      "type": "function"
    },
    {
      "inputs": [
        {
          "internalType": "contract IMintyMultiToken",
          "name": "token",
          "type": "address"
        },
        {
          "internalType": "uint256[]",
          "name": "tokenIds",
          "type": "uint256[]"
        },
        {
          "internalType": "string[]",
          "name": "ipfsStrings",
          "type": "string[]"
        },
        {
          "internalType": "uint256[]",
          "name": "quantities",
          "type": "uint256[]"
        },
        {
          "internalType": "uint256[]",
          "name": "prices",
          "type": "uint256[]"
        }
      ],
      "name": "offerNewBatch",
      "outputs": [],
      "stateMutability": "nonpayable",
      "type": "function"
    },
    {
      "inputs": [
        {
          "internalType": "contract IMintyMultiToken",
          "name": "token",
          "type": "address"
        },
        {
          "internalType": "uint256",
          "name": "tokenId",
          "type": "uint256"
        },
        {
          "internalType": "uint256",
          "name": "quantity",
          "type": "uint256"
        },
        {
          "internalType": "uint256",
          "name": "price",
          "type": "uint256"
        }
      ],
      "name": "offerResale",
      "outputs": [],
      "stateMutability": "nonpayable",
      "type": "function"
    },
    {
      "inputs": [],
      "name": "owner",
      "outputs": [
        {
          "internalType": "address",
          "name": "",
          "type": "address"
        }
      ],
      "stateMutability": "view",
      "type": "function"
    },
    {
      "inputs": [
        {
          "internalType": "contract IMintyMultiToken",
          "name": "token",
          "type": "address"
        },
        {
          "internalType": "uint256",
          "name": "tokenId",
          "type": "uint256"
        },
        {
          "internalType": "uint256",
          "name": "offerId",
          "type": "uint256"
        }
      ],
      "name": "price",
      "outputs": [
        {
          "internalType": "uint256",
          "name": "",
          "type": "uint256"
        }
      ],
      "stateMutability": "view",
      "type": "function"
    },
    {
      "inputs": [
        {
          "internalType": "contract IMintyMultiToken",
          "name": "token",
          "type": "address"
        },
        {
          "internalType": "uint256",
          "name": "tokenId",
          "type": "uint256"
        },
        {
          "internalType": "uint256",
          "name": "pos",
          "type": "uint256"
        },
        {
          "internalType": "uint256",
          "name": "price",
          "type": "uint256"
        }
      ],
      "name": "reSubmitOffer",
      "outputs": [],
      "stateMutability": "nonpayable",
      "type": "function"
    },
    {
      "inputs": [
        {
          "internalType": "contract IMintyMultiToken",
          "name": "token",
          "type": "address"
        },
        {
          "internalType": "uint256",
          "name": "tokenId",
          "type": "uint256"
        },
        {
          "internalType": "uint256",
          "name": "pos",
          "type": "uint256"
        }
      ],
      "name": "retractRemainingOffer",
      "outputs": [],
      "stateMutability": "nonpayable",
      "type": "function"
    },
    {
      "inputs": [
        {
          "internalType": "address",
          "name": "newOwner",
          "type": "address"
        }
      ],
      "name": "transferOwnership",
      "outputs": [],
      "stateMutability": "nonpayable",
      "type": "function"
    },
    {
      "inputs": [
        {
          "internalType": "uint256",
          "name": "_divisor",
          "type": "uint256"
        }
      ],
      "name": "updateShares",
      "outputs": [],
      "stateMutability": "nonpayable",
      "type": "function"
    },
    {
      "inputs": [],
      "name": "weth",
      "outputs": [
        {
          "internalType": "contract IERC20",
          "name": "",
          "type": "address"
        }
      ],
      "stateMutability": "view",
      "type": "function"
    }
  ],
  "bytecode": "0x6080604052600280546001600160a01b031916331790553480156200002357600080fd5b5060405162002f7438038062002f748339810160408190526200004691620000ec565b6103e8811015620000745760405162461bcd60e51b81526004016200006b9062000133565b60405180910390fd5b600580546001600160a01b038086166001600160a01b031992831617909255600380549285169290911691909117905560048190556040517f8c4d35e54a3f2ef1134138fd8ea3daee6a3c89e10d2665996babdf70261e2c7690620000db9083906200016a565b60405180910390a15050506200018c565b60008060006060848603121562000101578283fd5b83516200010e8162000173565b6020850151909350620001218162000173565b80925050604084015190509250925092565b60208082526017908201527f44697669736f72206d757374206265203e3d2031303030000000000000000000604082015260600190565b90815260200190565b6001600160a01b03811681146200018957600080fd5b50565b612dd8806200019c6000396000f3fe608060405234801561001057600080fd5b50600436106101165760003560e01c80638da5cb5b116100a2578063c319b7ba11610071578063c319b7ba14610226578063cbfcab1d14610239578063eac54d9814610241578063ecf13ef414610254578063f2fde38b1461026757610116565b80638da5cb5b146101e557806398b9a2dc146101ed578063a3f7a5f814610200578063b66084671461021357610116565b80633fc8cef3116100e95780633fc8cef3146101815780634e900c02146101895780636d873c5d1461019c5780636dd043d7146101bf5780637d5c7217146101d257610116565b80631f2dc5ef1461011b5780632e2ce2471461013957806335b4511a1461014e5780633a06daa21461016e575b600080fd5b61012361027a565b6040516101309190612cce565b60405180910390f35b61014c610147366004612402565b610280565b005b61016161015c3660046122d9565b6106fe565b6040516101309190612719565b61012361017c3660046125a2565b610719565b610161610902565b61014c6101973660046125d6565b610911565b6101af6101aa3660046125a2565b610b72565b604051610130949392919061281e565b61014c6101cd3660046125d6565b610c60565b61014c6101e03660046125d6565b61109b565b610161611339565b61014c6101fb3660046122d9565b611348565b61012361020e36600461250e565b6113f4565b61014c610221366004612683565b61141d565b61014c610234366004612539565b6114a9565b6101616117ef565b61012361024f3660046125a2565b6117fe565b61014c6102623660046125a2565b611a74565b61014c6102753660046122d9565b611cd0565b60045481565b60405163e985e9c560e01b81526001600160a01b0386169063e985e9c5906102ae903390309060040161272d565b60206040518083038186803b1580156102c657600080fd5b505afa1580156102da573d6000803e3d6000fd5b505050506040513d601f19601f820116820180604052508101906102fe91906123e2565b6103235760405162461bcd60e51b815260040161031a90612c2e565b60405180910390fd5b336001600160a01b0316856001600160a01b0316638da5cb5b6040518163ffffffff1660e01b815260040160206040518083038186803b15801561036657600080fd5b505afa15801561037a573d6000803e3d6000fd5b505050506040513d601f19601f8201168201806040525081019061039e91906122f5565b6001600160a01b0316146103c45760405162461bcd60e51b815260040161031a90612b3b565b60005b845181101561069457856001600160a01b0316637dc0bf3f8683815181106103eb57fe5b60200260200101516040518263ffffffff1660e01b815260040161040f9190612cce565b60206040518083038186803b15801561042757600080fd5b505afa15801561043b573d6000803e3d6000fd5b505050506040513d601f19601f8201168201806040525081019061045f91906123e2565b1561047c5760405162461bcd60e51b815260040161031a90612ac3565b600080876001600160a01b03166001600160a01b0316815260200190815260200160002060008683815181106104ae57fe5b60200260200101518152602001908152602001600020805490506000146104e75760405162461bcd60e51b815260040161031a90612a70565b600080876001600160a01b03166001600160a01b03168152602001908152602001600020600086838151811061051957fe5b602002602001015181526020019081526020016000206040518060800160405280336001600160a01b0316815260200185848151811061055557fe5b6020026020010151815260200186848151811061056e57fe5b6020026020010151815260200184848151811061058757fe5b602090810291909101810151909152825460018082018555600094855293829020835160049092020180546001600160a01b0319166001600160a01b039092169190911781558282015193810193909355604082015180519293926105f2926002850192019061214b565b506060820151816003015550507f10575dae8255319b2807b08ada1038743fd34f2a06f1fba49e9407e7aa91f8f68686838151811061062d57fe5b60200260200101513386858151811061064257fe5b602002602001015186868151811061065657fe5b602002602001015189878151811061066a57fe5b6020026020010151604051610684969594939291906128da565b60405180910390a16001016103c7565b50604051633146edb760e21b81526001600160a01b0386169063c51bb6dc906106c590879086908890600401612856565b600060405180830381600087803b1580156106df57600080fd5b505af11580156106f3573d6000803e3d6000fd5b505050505050505050565b6001602052600090815260409020546001600160a01b031681565b6001600160a01b03831660009081526020818152604080832085845290915281205482106107595760405162461bcd60e51b815260040161031a906129b8565b6107616121d7565b6001600160a01b038516600090815260208181526040808320878452909152902080548490811061078e57fe5b60009182526020918290206040805160808101825260049390930290910180546001600160a01b03168352600180820154848601526002808301805485516101009482161594909402600019011691909104601f81018790048702830187018552808352949592949386019391929091908301828280156108505780601f1061082557610100808354040283529160200191610850565b820191906000526020600020905b81548152906001019060200180831161083357829003601f168201915b505050918352505060039190910154602090910152805160405163e985e9c560e01b81529192506001600160a01b0387169163e985e9c59161089691309060040161272d565b60206040518083038186803b1580156108ae57600080fd5b505afa1580156108c2573d6000803e3d6000fd5b505050506040513d601f19601f820116820180604052508101906108e691906123e2565b6108f45760009150506108fb565b6060015190505b9392505050565b6003546001600160a01b031681565b6001600160a01b03841660009081526020818152604080832086845290915290205482106109515760405162461bcd60e51b815260040161031a90612b98565b6109596121d7565b6001600160a01b038516600090815260208181526040808320878452909152902080548490811061098657fe5b60009182526020918290206040805160808101825260049390930290910180546001600160a01b03168352600180820154848601526002808301805485516101009482161594909402600019011691909104601f8101879004870283018701855280835294959294938601939192909190830182828015610a485780601f10610a1d57610100808354040283529160200191610a48565b820191906000526020600020905b815481529060010190602001808311610a2b57829003601f168201915b50505050508152602001600382015481525050905080600001516001600160a01b0316336001600160a01b031614610a925760405162461bcd60e51b815260040161031a90612a11565b606081018290526001600160a01b0385166000908152602081815260408083208784529091529020805482919085908110610ac957fe5b600091825260209182902083516004929092020180546001600160a01b0319166001600160a01b03909216919091178155828201516001820155604083015180519192610b1e9260028501929091019061214b565b50606082015181600301559050507f0365ed613ce46864c2596157898bfc904a905c87c70c265de1473f51eedb1b778585858533604051610b63959493929190612988565b60405180910390a15050505050565b60006020528260005260406000206020528160005260406000208181548110610b9a57600080fd5b6000918252602091829020600491909102018054600180830154600280850180546040805161010096831615969096026000190190911692909204601f81018890048802850188019092528184526001600160a01b03909416985090965092945092909190830182828015610c505780601f10610c2557610100808354040283529160200191610c50565b820191906000526020600020905b815481529060010190602001808311610c3357829003601f168201915b5050505050908060030154905084565b600354600160a01b900460ff1615610c8a5760405162461bcd60e51b815260040161031a906129e3565b81610cee57604051635773bd0760e01b81526001600160a01b03851690635773bd0790610cbb903390600401612719565b600060405180830381600087803b158015610cd557600080fd5b505af1158015610ce9573d6000803e3d6000fd5b505050505b6003805460ff60a01b1916600160a01b1790556060610d0b6121d7565b6001600160a01b0386166000908152602081815260408083208884529091529020805485908110610d3857fe5b60009182526020918290206040805160808101825260049390930290910180546001600160a01b03168352600180820154848601526002808301805485516101009482161594909402600019011691909104601f8101879004870283018701855280835294959294938601939192909190830182828015610dfa5780601f10610dcf57610100808354040283529160200191610dfa565b820191906000526020600020905b815481529060010190602001808311610ddd57829003601f168201915b5050505050815260200160038201548152505090506000816000015190508382602001511015610e3c5760405162461bcd60e51b815260040161031a90612a39565b6000610e4c836060015186611d7c565b905084886001600160a01b031662fdd58e848a6040518363ffffffff1660e01b8152600401610e7c9291906127a1565b60206040518083038186803b158015610e9457600080fd5b505afa158015610ea8573d6000803e3d6000fd5b505050506040513d601f19601f82011682018060405250810190610ecc919061269b565b1015610eea5760405162461bcd60e51b815260040161031a90612afa565b604051637921219560e11b81526001600160a01b0389169063f242432a90610f1e90859033908c908b908b906004016127ba565b600060405180830381600087803b158015610f3857600080fd5b505af1158015610f4c573d6000803e3d6000fd5b5050506020808501805188900390526001600160a01b038a16600090815280825260408082208b835290925220805485925088908110610f8857fe5b600091825260209182902083516004929092020180546001600160a01b0319166001600160a01b03909216919091178155828201516001820155604083015180519192610fdd9260028501929091019061214b565b506060919091015160039091015560055483516040517f0913aa4718e76655dbdbde41862a88aba8459d8721849484c97f53af3b5028e69261102e926001600160a01b0390911691869086906127f4565b60405180910390a161104288878484611da1565b6003805460ff60a01b191690556040517faf47c9ab14ff5ce679b4cb416be29684283e7b30fcfe405bfdebcc135f4b1e6f906110899033908b908b908b908b90889061276b565b60405180910390a15050505050505050565b604051627eeac760e11b81526001600160a01b0385169062fdd58e906110c790339087906004016127a1565b60206040518083038186803b1580156110df57600080fd5b505afa1580156110f3573d6000803e3d6000fd5b505050506040513d601f19601f82011682018060405250810190611117919061269b565b82111580156111265750600082115b6111425760405162461bcd60e51b815260040161031a90612c8b565b60405163e985e9c560e01b81526001600160a01b0385169063e985e9c590611170903390309060040161272d565b60206040518083038186803b15801561118857600080fd5b505afa15801561119c573d6000803e3d6000fd5b505050506040513d601f19601f820116820180604052508101906111c091906123e2565b6111dc5760405162461bcd60e51b815260040161031a90612c2e565b6001600160a01b0384166000818152602081815260408083208784528252918290208054835160808101855233815292830187905283516303a24d0760e21b81529094919383019190630e89341c90611239908a90600401612cce565b60006040518083038186803b15801561125157600080fd5b505afa158015611265573d6000803e3d6000fd5b505050506040513d6000823e601f3d908101601f1916820160405261128d9190810190612610565b81526020908101859052825460018082018555600094855293829020835160049092020180546001600160a01b0319166001600160a01b039092169190911781558282015193810193909355604082015180519293926112f3926002850192019061214b565b506060820151816003015550507f0df75d277ebbb180db8152f8c392e8bf6ba2720b35f9f98456eca3557b91182e858585338686604051610b639695949392919061294e565b6002546001600160a01b031681565b6002546001600160a01b031633146113725760405162461bcd60e51b815260040161031a90612a9d565b6001600160a01b0381166113985760405162461bcd60e51b815260040161031a90612b61565b6005546040516001600160a01b038084169216907ff404d79dbd5d19bc2bf99a74f0e5affb6502b3d6012140f1d908ce3fcd0716d890600090a3600580546001600160a01b0319166001600160a01b0392909216919091179055565b6001600160a01b0382166000908152602081815260408083208484529091529020545b92915050565b6002546001600160a01b031633146114475760405162461bcd60e51b815260040161031a90612a9d565b6103e88110156114695760405162461bcd60e51b815260040161031a90612bc8565b60048190556040517f8c4d35e54a3f2ef1134138fd8ea3daee6a3c89e10d2665996babdf70261e2c769061149e908390612cce565b60405180910390a150565b60405163e985e9c560e01b81526001600160a01b0386169063e985e9c5906114d7903390309060040161272d565b60206040518083038186803b1580156114ef57600080fd5b505afa158015611503573d6000803e3d6000fd5b505050506040513d601f19601f8201168201806040525081019061152791906123e2565b6115435760405162461bcd60e51b815260040161031a90612c2e565b604051637dc0bf3f60e01b81526001600160a01b03861690637dc0bf3f9061156f908790600401612cce565b60206040518083038186803b15801561158757600080fd5b505afa15801561159b573d6000803e3d6000fd5b505050506040513d601f19601f820116820180604052508101906115bf91906123e2565b156115dc5760405162461bcd60e51b815260040161031a90612ac3565b336001600160a01b0316856001600160a01b0316638da5cb5b6040518163ffffffff1660e01b815260040160206040518083038186803b15801561161f57600080fd5b505afa158015611633573d6000803e3d6000fd5b505050506040513d601f19601f8201168201806040525081019061165791906122f5565b6001600160a01b03161461167d5760405162461bcd60e51b815260040161031a90612b3b565b6001600160a01b038516600090815260208181526040808320878452909152902054156116bc5760405162461bcd60e51b815260040161031a90612a70565b60405163c6e64e5360e01b81526001600160a01b0386169063c6e64e53906116ec90879086908890600401612cd7565b600060405180830381600087803b15801561170657600080fd5b505af115801561171a573d6000803e3d6000fd5b505050506001600160a01b03858116600090815260208181526040808320888452825280832081516080810183523381528084018881529281018981526060820188905282546001808201855593875295859020825160049097020180546001600160a01b03191696909716959095178655915190850155915180519293926117a9926002850192019061214b565b506060820151816003015550507f10575dae8255319b2807b08ada1038743fd34f2a06f1fba49e9407e7aa91f8f6858533858588604051610b63969594939291906128da565b6005546001600160a01b031681565b6001600160a01b038316600090815260208181526040808320858452909152812054821061183e5760405162461bcd60e51b815260040161031a906129b8565b6118466121d7565b6001600160a01b038516600090815260208181526040808320878452909152902080548490811061187357fe5b60009182526020918290206040805160808101825260049390930290910180546001600160a01b03168352600180820154848601526002808301805485516101009482161594909402600019011691909104601f81018790048702830187018552808352949592949386019391929091908301828280156119355780601f1061190a57610100808354040283529160200191611935565b820191906000526020600020905b81548152906001019060200180831161191857829003601f168201915b505050918352505060039190910154602090910152805160405163e985e9c560e01b81529192506001600160a01b0387169163e985e9c59161197b91309060040161272d565b60206040518083038186803b15801561199357600080fd5b505afa1580156119a7573d6000803e3d6000fd5b505050506040513d601f19601f820116820180604052508101906119cb91906123e2565b6119d95760009150506108fb565b60208101518151604051627eeac760e11b81526000916001600160a01b0389169162fdd58e91611a0d918a906004016127a1565b60206040518083038186803b158015611a2557600080fd5b505afa158015611a39573d6000803e3d6000fd5b505050506040513d601f19601f82011682018060405250810190611a5d919061269b565b9050611a698282612134565b979650505050505050565b6001600160a01b0383166000908152602081815260408083208584529091529020548110611ab45760405162461bcd60e51b815260040161031a90612b98565b611abc6121d7565b6001600160a01b0384166000908152602081815260408083208684529091529020805483908110611ae957fe5b60009182526020918290206040805160808101825260049390930290910180546001600160a01b03168352600180820154848601526002808301805485516101009482161594909402600019011691909104601f8101879004870283018701855280835294959294938601939192909190830182828015611bab5780601f10611b8057610100808354040283529160200191611bab565b820191906000526020600020905b815481529060010190602001808311611b8e57829003601f168201915b50505050508152602001600382015481525050905080600001516001600160a01b0316336001600160a01b031614611bf55760405162461bcd60e51b815260040161031a90612a11565b600060208083018290526001600160a01b038616825281815260408083208684529091529020805482919084908110611c2a57fe5b600091825260209182902083516004929092020180546001600160a01b0319166001600160a01b03909216919091178155828201516001820155604083015180519192611c7f9260028501929091019061214b565b50606082015181600301559050507f74ee16c30acdc0986deebeda1b36d871a7ebf1dc7e2fd327dc7628617c37726d84848433604051611cc29493929190612923565b60405180910390a150505050565b6002546001600160a01b03163314611cfa5760405162461bcd60e51b815260040161031a90612a9d565b6001600160a01b038116611d205760405162461bcd60e51b815260040161031a90612b61565b6002546040516001600160a01b038084169216907f8be0079c531659141344cd1fd0a4f28419497f9722a3daafe3b4186f6b6457e090600090a3600280546001600160a01b0319166001600160a01b0392909216919091179055565b600082611d8b57506000611417565b5081810281838281611d9957fe5b041461141757fe5b6000846001600160a01b031663e8f3359f6040518163ffffffff1660e01b815260040160206040518083038186803b158015611ddc57600080fd5b505afa158015611df0573d6000803e3d6000fd5b505050506040513d601f19601f82011682018060405250810190611e14919061269b565b90506000600454611e258484611d7c565b81611e2c57fe5b0490506000600454611e4285856103e803611d7c565b81611e4957fe5b6003546040516323b872dd60e01b81529290910492506001600160a01b0316906323b872dd90611e8190339089908690600401612747565b602060405180830381600087803b158015611e9b57600080fd5b505af1158015611eaf573d6000803e3d6000fd5b505050506040513d601f19601f82011682018060405250810190611ed391906123e2565b611eef5760405162461bcd60e51b815260040161031a90612bff565b604051635d9dd7eb60e11b815281906060906001600160a01b038a169063bb3bafd690611f20908b90600401612cce565b60006040518083038186803b158015611f3857600080fd5b505afa158015611f4c573d6000803e3d6000fd5b505050506040513d6000823e601f3d908101601f19168201604052611f749190810190612311565b905060005b815181101561207e5760006103e8611fa887858581518110611f9757fe5b602002602001015160200151611d7c565b81611faf57fe5b60035485519290910492506001600160a01b0316906323b872dd903390869086908110611fd857fe5b602002602001015160000151846040518463ffffffff1660e01b815260040161200393929190612747565b602060405180830381600087803b15801561201d57600080fd5b505af1158015612031573d6000803e3d6000fd5b505050506040513d601f19601f8201168201806040525081019061205591906123e2565b6120715760405162461bcd60e51b815260040161031a90612bff565b9290920191600101611f79565b506003546005546040516323b872dd60e01b8152848903926001600160a01b03908116926323b872dd926120ba92339216908690600401612747565b602060405180830381600087803b1580156120d457600080fd5b505af11580156120e8573d6000803e3d6000fd5b505050506040513d601f19601f8201168201806040525081019061210c91906123e2565b6121285760405162461bcd60e51b815260040161031a90612bff565b50505050505050505050565b600081831015612145575081611417565b50919050565b828054600181600116156101000203166002900490600052602060002090601f01602090048101928261218157600085556121c7565b82601f1061219a57805160ff19168380011785556121c7565b828001600101855582156121c7579182015b828111156121c75782518255916020019190600101906121ac565b506121d3929150612208565b5090565b604051806080016040528060006001600160a01b031681526020016000815260200160608152602001600081525090565b5b808211156121d35760008155600101612209565b600082601f83011261222d578081fd5b813561224061223b82612d1a565b612cf6565b81815291506020808301908481018184028601820187101561226157600080fd5b60005b8481101561228057813584529282019290820190600101612264565b505050505092915050565b600082601f83011261229b578081fd5b81356122a961223b82612d38565b91508082528360208285010111156122c057600080fd5b8060208401602084013760009082016020015292915050565b6000602082840312156122ea578081fd5b81356108fb81612d8a565b600060208284031215612306578081fd5b81516108fb81612d8a565b60006020808385031215612323578182fd5b825167ffffffffffffffff8082111561233a578384fd5b818501915085601f83011261234d578384fd5b815161235b61223b82612d1a565b818152848101908486016040808502870188018b1015612379578889fd5b8896505b848710156123d35780828c031215612393578889fd5b805181810181811088821117156123a657fe5b825282516123b381612d8a565b81528289015189820152845260019690960195928701929081019061237d565b50909998505050505050505050565b6000602082840312156123f3578081fd5b815180151581146108fb578182fd5b600080600080600060a08688031215612419578081fd5b853561242481612d8a565b945060208681013567ffffffffffffffff80821115612441578384fd5b61244d8a838b0161221d565b96506040890135915080821115612462578384fd5b818901915089601f830112612475578384fd5b813561248361223b82612d1a565b81815284810190848601875b848110156124b8576124a68f8984358a010161228b565b8452928701929087019060010161248f565b5090985050505060608901359250808311156124d2578384fd5b6124de8a848b0161221d565b945060808901359250808311156124f3578384fd5b50506125018882890161221d565b9150509295509295909350565b60008060408385031215612520578182fd5b823561252b81612d8a565b946020939093013593505050565b600080600080600060a08688031215612550578081fd5b853561255b81612d8a565b945060208601359350604086013567ffffffffffffffff81111561257d578182fd5b6125898882890161228b565b9598949750949560608101359550608001359392505050565b6000806000606084860312156125b6578283fd5b83356125c181612d8a565b95602085013595506040909401359392505050565b600080600080608085870312156125eb578182fd5b84356125f681612d8a565b966020860135965060408601359560600135945092505050565b600060208284031215612621578081fd5b815167ffffffffffffffff811115612637578182fd5b8201601f81018413612647578182fd5b805161265561223b82612d38565b818152856020838501011115612669578384fd5b61267a826020830160208601612d5a565b95945050505050565b600060208284031215612694578081fd5b5035919050565b6000602082840312156126ac578081fd5b5051919050565b6000815180845260208085019450808401835b838110156126e2578151875295820195908201906001016126c6565b509495945050505050565b60008151808452612705816020860160208601612d5a565b601f01601f19169290920160200192915050565b6001600160a01b0391909116815260200190565b6001600160a01b0392831681529116602082015260400190565b6001600160a01b039384168152919092166020820152604081019190915260600190565b6001600160a01b03968716815294909516602085015260408401929092526060830152608082015260a081019190915260c00190565b6001600160a01b03929092168252602082015260400190565b6001600160a01b03868116825285166020820152604081018490526060810183905260a060808201819052600090611a69908301846126ed565b6001600160a01b039485168152928416602084015292166040820152606081019190915260800190565b600060018060a01b03861682528460208301526080604083015261284560808301856126ed565b905082606083015295945050505050565b60006060825261286960608301866126b3565b60208382038185015261287c82876126b3565b848103604086015285518082529092508183019082810284018301838801865b838110156128ca57601f198784030185526128b88383516126ed565b9486019492509085019060010161289c565b50909a9950505050505050505050565b600060018060a01b03808916835287602084015280871660408401525084606083015283608083015260c060a083015261291760c08301846126ed565b98975050505050505050565b6001600160a01b03948516815260208101939093526040830191909152909116606082015260800190565b6001600160a01b0396871681526020810195909552604085019390935293166060830152608082019290925260a081019190915260c00190565b6001600160a01b039586168152602081019490945260408401929092526060830152909116608082015260a00190565b60208082526011908201527013d999995c9251081b9bdd081d985b1a59607a1b604082015260600190565b6020808252601490820152734e6f207265656e7472616e637920706c6561736560601b604082015260600190565b6020808252600e908201526d3737ba103cb7bab91037b33332b960911b604082015260600190565b6020808252601a908201527f6e6f7420656e6f756768206974656d7320617661696c61626c65000000000000604082015260600190565b602080825260139082015272556e61626c6520746f206f66666572206e657760681b604082015260600190565b6020808252600c908201526b1d5b985d5d1a1bdc9a5cd95960a21b604082015260600190565b60208082526017908201527f546f6b656e20494420616c7265616479206d696e746564000000000000000000604082015260600190565b60208082526021908201527f6e6f7420656e6f756768206974656d73206f776e6564206279206f66666572656040820152603960f91b606082015260800190565b6020808252600c908201526b155b985d5d1a1bdc9a5cd95960a21b604082015260600190565b6020808252601a908201527f446f206e6f742073657420746f2061646472657373207a65726f000000000000604082015260600190565b60208082526016908201527534b73b30b634b21037b33332b9103837b9b4ba34b7b760511b604082015260600190565b60208082526017908201527f44697669736f72206d757374206265203e3d2031303030000000000000000000604082015260600190565b60208082526015908201527463616e6e6f74207472616e736665722066756e647360581b604082015260600190565b60208082526037908201527f596f752068617665206e6f7420617070726f766564207468697320636f6e747260408201527f61637420746f2073656c6c20796f757220746f6b656e73000000000000000000606082015260800190565b60208082526023908201527f596f7520646f206e6f74206f776e20656e6f756768206f66207468697320746f60408201526235b2b760e91b606082015260800190565b90815260200190565b60008482528360208301526060604083015261267a60608301846126ed565b60405181810167ffffffffffffffff81118282101715612d1257fe5b604052919050565b600067ffffffffffffffff821115612d2e57fe5b5060209081020190565b600067ffffffffffffffff821115612d4c57fe5b50601f01601f191660200190565b60005b83811015612d75578181015183820152602001612d5d565b83811115612d84576000848401525b50505050565b6001600160a01b0381168114612d9f57600080fd5b5056fea26469706673582212204d8ea7db9dbbe7019fa0ac76f560dfbdc1a1419b8abdcdb12192d53ee25aa74764736f6c63430007050033",
  "linkReferences": {},
  "deployedLinkReferences": {}
}