{
  "_format": "hh-sol-artifact-1",
  "contractName": "pMintyMultiSale",
  "sourceName": "contracts/sale2M/pMintyMultiSale.sol",
  "abi": [
    {
      "inputs": [
        {
          "internalType": "address",
          "name": "wallet",
          "type": "address"
        },
        {
          "internalType": "contract IERC20",
          "name": "_weth",
          "type": "address"
        },
        {
          "internalType": "uint256",
          "name": "_divisor",
          "type": "uint256"
        }
      ],
      "stateMutability": "nonpayable",
      "type": "constructor"
    },
    {
      "anonymous": false,
      "inputs": [
        {
          "indexed": false,
          "internalType": "address",
          "name": "bidder",
          "type": "address"
        },
        {
          "indexed": false,
          "internalType": "contract IMintyMultiToken",
          "name": "token",
          "type": "address"
        },
        {
          "indexed": false,
          "internalType": "uint256",
          "name": "tokenId",
          "type": "uint256"
        },
        {
          "indexed": false,
          "internalType": "uint256",
          "name": "previous_bid",
          "type": "uint256"
        },
        {
          "indexed": false,
          "internalType": "uint256",
          "name": "this_bid",
          "type": "uint256"
        }
      ],
      "name": "BidIncreased",
      "type": "event"
    },
    {
      "anonymous": false,
      "inputs": [
        {
          "indexed": false,
          "internalType": "address",
          "name": "bidder",
          "type": "address"
        },
        {
          "indexed": false,
          "internalType": "contract IMintyMultiToken",
          "name": "token",
          "type": "address"
        },
        {
          "indexed": false,
          "internalType": "uint256",
          "name": "tokenId",
          "type": "uint256"
        },
        {
          "indexed": false,
          "internalType": "uint256",
          "name": "bid",
          "type": "uint256"
        }
      ],
      "name": "BidReceived",
      "type": "event"
    },
    {
      "anonymous": false,
      "inputs": [
        {
          "indexed": false,
          "internalType": "contract IMintyMultiToken",
          "name": "token",
          "type": "address"
        },
        {
          "indexed": false,
          "internalType": "uint256",
          "name": "tokenId",
          "type": "uint256"
        }
      ],
      "name": "BidWithdrawn",
      "type": "event"
    },
    {
      "anonymous": false,
      "inputs": [
        {
          "indexed": false,
          "internalType": "uint256",
          "name": "divisor",
          "type": "uint256"
        }
      ],
      "name": "FeeUpdated",
      "type": "event"
    },
    {
      "anonymous": false,
      "inputs": [
        {
          "indexed": false,
          "internalType": "contract IMintyMultiToken",
          "name": "token",
          "type": "address"
        },
        {
          "indexed": false,
          "internalType": "uint256",
          "name": "tokenId",
          "type": "uint256"
        },
        {
          "indexed": false,
          "internalType": "address",
          "name": "owner",
          "type": "address"
        },
        {
          "indexed": false,
          "internalType": "uint256",
          "name": "quantity",
          "type": "uint256"
        },
        {
          "indexed": false,
          "internalType": "uint256",
          "name": "price",
          "type": "uint256"
        },
        {
          "indexed": false,
          "internalType": "string",
          "name": "hash",
          "type": "string"
        },
        {
          "indexed": false,
          "internalType": "uint256",
          "name": "poolId",
          "type": "uint256"
        }
      ],
      "name": "NewOffer",
      "type": "event"
    },
    {
      "anonymous": false,
      "inputs": [
        {
          "indexed": false,
          "internalType": "address",
          "name": "buyer",
          "type": "address"
        },
        {
          "indexed": false,
          "internalType": "contract IMintyMultiToken",
          "name": "token",
          "type": "address"
        },
        {
          "indexed": false,
          "internalType": "uint256",
          "name": "tokenId",
          "type": "uint256"
        },
        {
          "indexed": false,
          "internalType": "uint256",
          "name": "pos",
          "type": "uint256"
        },
        {
          "indexed": false,
          "internalType": "uint256",
          "name": "quantity",
          "type": "uint256"
        },
        {
          "indexed": false,
          "internalType": "uint256",
          "name": "price",
          "type": "uint256"
        }
      ],
      "name": "OfferAccepted",
      "type": "event"
    },
    {
      "anonymous": false,
      "inputs": [
        {
          "indexed": false,
          "internalType": "contract IMintyMultiToken",
          "name": "token",
          "type": "address"
        },
        {
          "indexed": false,
          "internalType": "uint256",
          "name": "tokenId",
          "type": "uint256"
        }
      ],
      "name": "OfferWithdrawn",
      "type": "event"
    },
    {
      "anonymous": false,
      "inputs": [
        {
          "indexed": true,
          "internalType": "address",
          "name": "previousOwner",
          "type": "address"
        },
        {
          "indexed": true,
          "internalType": "address",
          "name": "newOwner",
          "type": "address"
        }
      ],
      "name": "OwnershipTransferred",
      "type": "event"
    },
    {
      "anonymous": false,
      "inputs": [
        {
          "indexed": false,
          "internalType": "bool",
          "name": "isPaused",
          "type": "bool"
        }
      ],
      "name": "Paused",
      "type": "event"
    },
    {
      "anonymous": false,
      "inputs": [
        {
          "indexed": false,
          "internalType": "address",
          "name": "wallet",
          "type": "address"
        },
        {
          "indexed": false,
          "internalType": "address",
          "name": "creator",
          "type": "address"
        },
        {
          "indexed": false,
          "internalType": "address",
          "name": "_owner",
          "type": "address"
        },
        {
          "indexed": false,
          "internalType": "uint256",
          "name": "amount",
          "type": "uint256"
        }
      ],
      "name": "Payment",
      "type": "event"
    },
    {
      "anonymous": false,
      "inputs": [
        {
          "indexed": false,
          "internalType": "contract IMintyMultiToken",
          "name": "token",
          "type": "address"
        },
        {
          "indexed": false,
          "internalType": "uint256",
          "name": "tokenId",
          "type": "uint256"
        },
        {
          "indexed": false,
          "internalType": "uint256",
          "name": "quantity",
          "type": "uint256"
        },
        {
          "indexed": false,
          "internalType": "address",
          "name": "owner",
          "type": "address"
        },
        {
          "indexed": false,
          "internalType": "uint256",
          "name": "price",
          "type": "uint256"
        },
        {
          "indexed": false,
          "internalType": "uint256",
          "name": "position",
          "type": "uint256"
        }
      ],
      "name": "ResaleOffer",
      "type": "event"
    },
    {
      "anonymous": false,
      "inputs": [
        {
          "indexed": false,
          "internalType": "contract IMintyMultiToken",
          "name": "token",
          "type": "address"
        },
        {
          "indexed": false,
          "internalType": "uint256",
          "name": "tokenId",
          "type": "uint256"
        },
        {
          "indexed": false,
          "internalType": "uint256",
          "name": "pos",
          "type": "uint256"
        },
        {
          "indexed": false,
          "internalType": "uint256",
          "name": "price",
          "type": "uint256"
        },
        {
          "indexed": false,
          "internalType": "address",
          "name": "owner",
          "type": "address"
        }
      ],
      "name": "SaleRepriced",
      "type": "event"
    },
    {
      "anonymous": false,
      "inputs": [
        {
          "indexed": false,
          "internalType": "contract IMintyMultiToken",
          "name": "token",
          "type": "address"
        },
        {
          "indexed": false,
          "internalType": "uint256",
          "name": "tokenId",
          "type": "uint256"
        },
        {
          "indexed": false,
          "internalType": "uint256",
          "name": "pos",
          "type": "uint256"
        },
        {
          "indexed": false,
          "internalType": "address",
          "name": "owner",
          "type": "address"
        }
      ],
      "name": "SaleRetracted",
      "type": "event"
    },
    {
      "anonymous": false,
      "inputs": [
        {
          "indexed": true,
          "internalType": "address",
          "name": "previousWallet",
          "type": "address"
        },
        {
          "indexed": true,
          "internalType": "address",
          "name": "newWallet",
          "type": "address"
        }
      ],
      "name": "WalletTransferred",
      "type": "event"
    },
    {
      "inputs": [
        {
          "internalType": "bool",
          "name": "putOnHold",
          "type": "bool"
        }
      ],
      "name": "PauseSale",
      "outputs": [],
      "stateMutability": "nonpayable",
      "type": "function"
    },
    {
      "inputs": [
        {
          "internalType": "contract IMintyMultiToken",
          "name": "token",
          "type": "address"
        },
        {
          "internalType": "uint256",
          "name": "tokenId",
          "type": "uint256"
        },
        {
          "internalType": "uint256",
          "name": "pos",
          "type": "uint256"
        },
        {
          "internalType": "uint256",
          "name": "quantity",
          "type": "uint256"
        }
      ],
      "name": "acceptOffer",
      "outputs": [],
      "stateMutability": "nonpayable",
      "type": "function"
    },
    {
      "inputs": [
        {
          "internalType": "contract IMintyMultiToken",
          "name": "token",
          "type": "address"
        },
        {
          "internalType": "uint256",
          "name": "tokenId",
          "type": "uint256"
        },
        {
          "internalType": "uint256",
          "name": "offerId",
          "type": "uint256"
        }
      ],
      "name": "available",
      "outputs": [
        {
          "internalType": "uint256",
          "name": "",
          "type": "uint256"
        }
      ],
      "stateMutability": "view",
      "type": "function"
    },
    {
      "inputs": [
        {
          "internalType": "address",
          "name": "newWallet",
          "type": "address"
        }
      ],
      "name": "changeWallet",
      "outputs": [],
      "stateMutability": "nonpayable",
      "type": "function"
    },
    {
      "inputs": [],
      "name": "divisor",
      "outputs": [
        {
          "internalType": "uint256",
          "name": "",
          "type": "uint256"
        }
      ],
      "stateMutability": "view",
      "type": "function"
    },
    {
      "inputs": [
        {
          "internalType": "contract IMintyMultiToken",
          "name": "",
          "type": "address"
        },
        {
          "internalType": "uint256",
          "name": "",
          "type": "uint256"
        },
        {
          "internalType": "uint256",
          "name": "",
          "type": "uint256"
        }
      ],
      "name": "items",
      "outputs": [
        {
          "internalType": "address",
          "name": "creator",
          "type": "address"
        },
        {
          "internalType": "uint256",
          "name": "quantity",
          "type": "uint256"
        },
        {
          "internalType": "string",
          "name": "itemHash",
          "type": "string"
        },
        {
          "internalType": "uint256",
          "name": "unitPrice",
          "type": "uint256"
        }
      ],
      "stateMutability": "view",
      "type": "function"
    },
    {
      "inputs": [],
      "name": "minty",
      "outputs": [
        {
          "internalType": "address",
          "name": "",
          "type": "address"
        }
      ],
      "stateMutability": "view",
      "type": "function"
    },
    {
      "inputs": [
        {
          "internalType": "contract IMintyMultiToken",
          "name": "",
          "type": "address"
        }
      ],
      "name": "multiTokenOwners",
      "outputs": [
        {
          "internalType": "address",
          "name": "",
          "type": "address"
        }
      ],
      "stateMutability": "view",
      "type": "function"
    },
    {
      "inputs": [
        {
          "internalType": "contract IMintyMultiToken",
          "name": "token",
          "type": "address"
        },
        {
          "internalType": "uint256",
          "name": "tokenId",
          "type": "uint256"
        }
      ],
      "name": "numberOfOffers",
      "outputs": [
        {
          "internalType": "uint256",
          "name": "",
          "type": "uint256"
        }
      ],
      "stateMutability": "view",
      "type": "function"
    },
    {
      "inputs": [
        {
          "internalType": "contract IMintyMultiToken",
          "name": "token",
          "type": "address"
        },
        {
          "internalType": "uint256",
          "name": "tokenId",
          "type": "uint256"
        },
        {
          "internalType": "string",
          "name": "ipfsString",
          "type": "string"
        },
        {
          "internalType": "uint256",
          "name": "quantity",
          "type": "uint256"
        },
        {
          "internalType": "uint256",
          "name": "price",
          "type": "uint256"
        },
        {
          "internalType": "uint256",
          "name": "poolId",
          "type": "uint256"
        }
      ],
      "name": "offerNew",
      "outputs": [],
      "stateMutability": "nonpayable",
      "type": "function"
    },
    {
      "inputs": [
        {
          "internalType": "contract IMintyMultiToken",
          "name": "token",
          "type": "address"
        },
        {
          "internalType": "uint256[]",
          "name": "tokenIds",
          "type": "uint256[]"
        },
        {
          "internalType": "string[]",
          "name": "ipfsStrings",
          "type": "string[]"
        },
        {
          "internalType": "uint256[]",
          "name": "quantities",
          "type": "uint256[]"
        },
        {
          "internalType": "uint256[]",
          "name": "prices",
          "type": "uint256[]"
        },
        {
          "internalType": "uint256",
          "name": "poolId",
          "type": "uint256"
        }
      ],
      "name": "offerNewBatch",
      "outputs": [],
      "stateMutability": "nonpayable",
      "type": "function"
    },
    {
      "inputs": [
        {
          "internalType": "contract IMintyMultiToken",
          "name": "token",
          "type": "address"
        },
        {
          "internalType": "uint256",
          "name": "tokenId",
          "type": "uint256"
        },
        {
          "internalType": "uint256",
          "name": "quantity",
          "type": "uint256"
        },
        {
          "internalType": "uint256",
          "name": "price",
          "type": "uint256"
        }
      ],
      "name": "offerResale",
      "outputs": [],
      "stateMutability": "nonpayable",
      "type": "function"
    },
    {
      "inputs": [],
      "name": "owner",
      "outputs": [
        {
          "internalType": "address",
          "name": "",
          "type": "address"
        }
      ],
      "stateMutability": "view",
      "type": "function"
    },
    {
      "inputs": [],
      "name": "paused",
      "outputs": [
        {
          "internalType": "bool",
          "name": "",
          "type": "bool"
        }
      ],
      "stateMutability": "view",
      "type": "function"
    },
    {
      "inputs": [
        {
          "internalType": "contract IMintyMultiToken",
          "name": "token",
          "type": "address"
        },
        {
          "internalType": "uint256",
          "name": "tokenId",
          "type": "uint256"
        },
        {
          "internalType": "uint256",
          "name": "offerId",
          "type": "uint256"
        }
      ],
      "name": "price",
      "outputs": [
        {
          "internalType": "uint256",
          "name": "",
          "type": "uint256"
        }
      ],
      "stateMutability": "view",
      "type": "function"
    },
    {
      "inputs": [
        {
          "internalType": "contract IMintyMultiToken",
          "name": "token",
          "type": "address"
        },
        {
          "internalType": "uint256",
          "name": "tokenId",
          "type": "uint256"
        },
        {
          "internalType": "uint256",
          "name": "pos",
          "type": "uint256"
        },
        {
          "internalType": "uint256",
          "name": "price",
          "type": "uint256"
        }
      ],
      "name": "reSubmitOffer",
      "outputs": [],
      "stateMutability": "nonpayable",
      "type": "function"
    },
    {
      "inputs": [
        {
          "internalType": "contract IMintyMultiToken",
          "name": "token",
          "type": "address"
        },
        {
          "internalType": "uint256",
          "name": "tokenId",
          "type": "uint256"
        },
        {
          "internalType": "uint256",
          "name": "pos",
          "type": "uint256"
        }
      ],
      "name": "retractRemainingOffer",
      "outputs": [],
      "stateMutability": "nonpayable",
      "type": "function"
    },
    {
      "inputs": [
        {
          "internalType": "contract oldContract",
          "name": "old",
          "type": "address"
        },
        {
          "internalType": "contract IMintyMultiToken",
          "name": "token",
          "type": "address"
        },
        {
          "internalType": "uint256",
          "name": "tokenId",
          "type": "uint256"
        }
      ],
      "name": "transferItems",
      "outputs": [],
      "stateMutability": "nonpayable",
      "type": "function"
    },
    {
      "inputs": [
        {
          "internalType": "address",
          "name": "newOwner",
          "type": "address"
        }
      ],
      "name": "transferOwnership",
      "outputs": [],
      "stateMutability": "nonpayable",
      "type": "function"
    },
    {
      "inputs": [
        {
          "internalType": "uint256",
          "name": "_divisor",
          "type": "uint256"
        }
      ],
      "name": "updateShares",
      "outputs": [],
      "stateMutability": "nonpayable",
      "type": "function"
    },
    {
      "inputs": [],
      "name": "weth",
      "outputs": [
        {
          "internalType": "contract IERC20",
          "name": "",
          "type": "address"
        }
      ],
      "stateMutability": "view",
      "type": "function"
    }
  ],
  "bytecode": "0x6080604052600280546001600160a01b031916331790553480156200002357600080fd5b5060405162003503380380620035038339810160408190526200004691620000ec565b6103e8811015620000745760405162461bcd60e51b81526004016200006b9062000133565b60405180910390fd5b600580546001600160a01b038086166001600160a01b031992831617909255600380549285169290911691909117905560048190556040517f8c4d35e54a3f2ef1134138fd8ea3daee6a3c89e10d2665996babdf70261e2c7690620000db9083906200016a565b60405180910390a15050506200018c565b60008060006060848603121562000101578283fd5b83516200010e8162000173565b6020850151909350620001218162000173565b80925050604084015190509250925092565b60208082526017908201527f44697669736f72206d757374206265203e3d2031303030000000000000000000604082015260600190565b90815260200190565b6001600160a01b03811681146200018957600080fd5b50565b613367806200019c6000396000f3fe608060405234801561001057600080fd5b50600436106101375760003560e01c80636dd043d7116100b8578063a3f7a5f81161007c578063a3f7a5f81461026f578063b660846714610282578063cbfcab1d14610295578063eac54d981461029d578063ecf13ef4146102b0578063f2fde38b146102c357610137565b80636dd043d71461021b5780637d5c72171461022e5780638bc844c7146102415780638da5cb5b1461025457806398b9a2dc1461025c57610137565b80633fc8cef3116100ff5780633fc8cef3146101b55780634e900c02146101bd5780635af9c479146101d05780635c975abb146101e35780636d873c5d146101f857610137565b80631f2dc5ef1461013c5780631f7b58b41461015a57806335b4511a1461016f5780633a06daa21461018f5780633a2204b4146101a2575b600080fd5b6101446102d6565b6040516101519190613241565b60405180910390f35b61016d610168366004612ab2565b6102dc565b005b61018261017d366004612744565b6104cf565b6040516101519190612bc3565b61014461019d366004612a44565b6104ea565b61016d6101b03660046128ad565b6106d3565b61018261074f565b61016d6101cb366004612a78565b61075e565b61016d6101de3660046128e5565b6109e9565b6101eb610e8d565b6040516101519190612d8d565b61020b610206366004612a44565b610e9d565b6040516101519493929190612cc8565b61016d610229366004612a78565b610f8b565b61016d61023c366004612a78565b6113f1565b61016d61024f3660046129d1565b6116b9565b610182611a3d565b61016d61026a366004612744565b611a4c565b61014461027d3660046129a6565b611af8565b61016d610290366004612b2d565b611b21565b610182611ba2565b6101446102ab366004612a44565b611bb1565b61016d6102be366004612a44565b611e27565b61016d6102d1366004612744565b612083565b60045481565b6002546001600160a01b0316331461030f5760405162461bcd60e51b815260040161030690612f84565b60405180910390fd5b60405163147ef4bf60e31b81526001600160a01b0384169063a3f7a5f89061033d9085908590600401612c4b565b60206040518083038186803b15801561035557600080fd5b505afa158015610369573d6000803e3d6000fd5b505050506040513d601f19601f8201168201806040525081019061038d9190612b45565b6001146103ac5760405162461bcd60e51b815260040161030690613022565b6103b4612501565b604051636d873c5d60e01b81526001600160a01b03851690636d873c5d906103e59086908690600090600401612de9565b60006040518083038186803b1580156103fd57600080fd5b505afa158015610411573d6000803e3d6000fd5b505050506040513d6000823e601f3d908101601f19168201604052610439919081019061277c565b6060850152604080850191825260208086019384526001600160a01b0394851686528785166000908152808252828120888252825291822080546001808201835591845292829020875160049094020180546001600160a01b031916939096169290921785559251908401555180518493926104bc926002850192910190612532565b5060608201518160030155505050505050565b6001602052600090815260409020546001600160a01b031681565b6001600160a01b038316600090815260208181526040808320858452909152812054821061052a5760405162461bcd60e51b815260040161030690612e9f565b610532612501565b6001600160a01b038516600090815260208181526040808320878452909152902080548490811061055f57fe5b60009182526020918290206040805160808101825260049390930290910180546001600160a01b03168352600180820154848601526002808301805485516101009482161594909402600019011691909104601f81018790048702830187018552808352949592949386019391929091908301828280156106215780601f106105f657610100808354040283529160200191610621565b820191906000526020600020905b81548152906001019060200180831161060457829003601f168201915b505050918352505060039190910154602090910152805160405163e985e9c560e01b81529192506001600160a01b0387169163e985e9c591610667913090600401612bd7565b60206040518083038186803b15801561067f57600080fd5b505afa158015610693573d6000803e3d6000fd5b505050506040513d601f19601f820116820180604052508101906106b791906128c9565b6106c55760009150506106cc565b6060015190505b9392505050565b6002546001600160a01b031633146106fd5760405162461bcd60e51b815260040161030690612f84565b6005805460ff60a01b1916600160a01b831515021790556040517f0e2fb031ee032dc02d8011dc50b816eb450cf856abd8261680dac74f72165bd290610744908390612d8d565b60405180910390a150565b6003546001600160a01b031681565b600554600160a01b900460ff16156107885760405162461bcd60e51b815260040161030690613127565b6001600160a01b03841660009081526020818152604080832086845290915290205482106107c85760405162461bcd60e51b8152600401610306906130c0565b6107d0612501565b6001600160a01b03851660009081526020818152604080832087845290915290208054849081106107fd57fe5b60009182526020918290206040805160808101825260049390930290910180546001600160a01b03168352600180820154848601526002808301805485516101009482161594909402600019011691909104601f81018790048702830187018552808352949592949386019391929091908301828280156108bf5780601f10610894576101008083540402835291602001916108bf565b820191906000526020600020905b8154815290600101906020018083116108a257829003601f168201915b50505050508152602001600382015481525050905080600001516001600160a01b0316336001600160a01b0316146109095760405162461bcd60e51b815260040161030690612ef8565b606081018290526001600160a01b038516600090815260208181526040808320878452909152902080548291908590811061094057fe5b600091825260209182902083516004929092020180546001600160a01b0319166001600160a01b0390921691909117815582820151600182015560408301518051919261099592600285019290910190612532565b50606082015181600301559050507f0365ed613ce46864c2596157898bfc904a905c87c70c265de1473f51eedb1b7785858585336040516109da959493929190612e6f565b60405180910390a15050505050565b600554600160a01b900460ff1615610a135760405162461bcd60e51b815260040161030690613127565b60405163e985e9c560e01b81526001600160a01b0387169063e985e9c590610a419033903090600401612bd7565b60206040518083038186803b158015610a5957600080fd5b505afa158015610a6d573d6000803e3d6000fd5b505050506040513d601f19601f82011682018060405250810190610a9191906128c9565b610aad5760405162461bcd60e51b8152600401610306906131a1565b336001600160a01b0316866001600160a01b0316638da5cb5b6040518163ffffffff1660e01b815260040160206040518083038186803b158015610af057600080fd5b505afa158015610b04573d6000803e3d6000fd5b505050506040513d601f19601f82011682018060405250810190610b289190612760565b6001600160a01b031614610b4e5760405162461bcd60e51b815260040161030690613063565b60005b8551811015610e2057866001600160a01b0316637dc0bf3f878381518110610b7557fe5b60200260200101516040518263ffffffff1660e01b8152600401610b999190613241565b60206040518083038186803b158015610bb157600080fd5b505afa158015610bc5573d6000803e3d6000fd5b505050506040513d601f19601f82011682018060405250810190610be991906128c9565b15610c065760405162461bcd60e51b815260040161030690612faa565b600080886001600160a01b03166001600160a01b031681526020019081526020016000206000878381518110610c3857fe5b6020026020010151815260200190815260200160002080549050600014610c715760405162461bcd60e51b815260040161030690612f57565b600080886001600160a01b03166001600160a01b031681526020019081526020016000206000878381518110610ca357fe5b602002602001015181526020019081526020016000206040518060800160405280336001600160a01b03168152602001868481518110610cdf57fe5b60200260200101518152602001878481518110610cf857fe5b60200260200101518152602001858481518110610d1157fe5b602090810291909101810151909152825460018082018555600094855293829020835160049092020180546001600160a01b0319166001600160a01b03909216919091178155828201519381019390935560408201518051929392610d7c9260028501920190612532565b506060820151816003015550507f1acc1ff85319876ad0cd5086eb5b44884b08ea51bca3665095d8606356c057f087878381518110610db757fe5b602002602001015133878581518110610dcc57fe5b6020026020010151878681518110610de057fe5b60200260200101518a8781518110610df457fe5b602002602001015188604051610e109796959493929190612d98565b60405180910390a1600101610b51565b50604051630a98df5760e21b81526001600160a01b03871690632a637d5c90610e53908890879089908790600401612d00565b600060405180830381600087803b158015610e6d57600080fd5b505af1158015610e81573d6000803e3d6000fd5b50505050505050505050565b600554600160a01b900460ff1681565b60006020528260005260406000206020528160005260406000208181548110610ec557600080fd5b6000918252602091829020600491909102018054600180830154600280850180546040805161010096831615969096026000190190911692909204601f81018890048802850188019092528184526001600160a01b03909416985090965092945092909190830182828015610f7b5780601f10610f5057610100808354040283529160200191610f7b565b820191906000526020600020905b815481529060010190602001808311610f5e57829003601f168201915b5050505050908060030154905084565b600554600160a01b900460ff1615610fb55760405162461bcd60e51b815260040161030690613127565b600354600160a01b900460ff1615610fdf5760405162461bcd60e51b815260040161030690612eca565b8161104357604051635773bd0760e01b81526001600160a01b03851690635773bd0790611010903390600401612bc3565b600060405180830381600087803b15801561102a57600080fd5b505af115801561103e573d6000803e3d6000fd5b505050505b6003805460ff60a01b1916600160a01b1790556060611060612501565b6001600160a01b038616600090815260208181526040808320888452909152902080548590811061108d57fe5b60009182526020918290206040805160808101825260049390930290910180546001600160a01b03168352600180820154848601526002808301805485516101009482161594909402600019011691909104601f810187900487028301870185528083529495929493860193919290919083018282801561114f5780601f106111245761010080835404028352916020019161114f565b820191906000526020600020905b81548152906001019060200180831161113257829003601f168201915b50505050508152602001600382015481525050905060008160000151905083826020015110156111915760405162461bcd60e51b815260040161030690612f20565b60006111a183606001518661212f565b905084886001600160a01b031662fdd58e848a6040518363ffffffff1660e01b81526004016111d1929190612c4b565b60206040518083038186803b1580156111e957600080fd5b505afa1580156111fd573d6000803e3d6000fd5b505050506040513d601f19601f820116820180604052508101906112219190612b45565b101561123f5760405162461bcd60e51b815260040161030690612fe1565b604051637921219560e11b81526001600160a01b0389169063f242432a9061127390859033908c908b908b90600401612c64565b600060405180830381600087803b15801561128d57600080fd5b505af11580156112a1573d6000803e3d6000fd5b5050506020808501805188900390526001600160a01b038a16600090815280825260408082208b8352909252208054859250889081106112dd57fe5b600091825260209182902083516004929092020180546001600160a01b0319166001600160a01b0390921691909117815582820151600182015560408301518051919261133292600285019290910190612532565b506060919091015160039091015560055483516040517f0913aa4718e76655dbdbde41862a88aba8459d8721849484c97f53af3b5028e692611383926001600160a01b039091169186908690612c9e565b60405180910390a16113988888888585612154565b6003805460ff60a01b191690556040517faf47c9ab14ff5ce679b4cb416be29684283e7b30fcfe405bfdebcc135f4b1e6f906113df9033908b908b908b908b908890612c15565b60405180910390a15050505050505050565b600554600160a01b900460ff161561141b5760405162461bcd60e51b815260040161030690613127565b604051627eeac760e11b81526001600160a01b0385169062fdd58e906114479033908790600401612c4b565b60206040518083038186803b15801561145f57600080fd5b505afa158015611473573d6000803e3d6000fd5b505050506040513d601f19601f820116820180604052508101906114979190612b45565b82111580156114a65750600082115b6114c25760405162461bcd60e51b8152600401610306906131fe565b60405163e985e9c560e01b81526001600160a01b0385169063e985e9c5906114f09033903090600401612bd7565b60206040518083038186803b15801561150857600080fd5b505afa15801561151c573d6000803e3d6000fd5b505050506040513d601f19601f8201168201806040525081019061154091906128c9565b61155c5760405162461bcd60e51b8152600401610306906131a1565b6001600160a01b0384166000818152602081815260408083208784528252918290208054835160808101855233815292830187905283516303a24d0760e21b81529094919383019190630e89341c906115b9908a90600401613241565b60006040518083038186803b1580156115d157600080fd5b505afa1580156115e5573d6000803e3d6000fd5b505050506040513d6000823e601f3d908101601f1916820160405261160d9190810190612af2565b81526020908101859052825460018082018555600094855293829020835160049092020180546001600160a01b0319166001600160a01b039092169190911781558282015193810193909355604082015180519293926116739260028501920190612532565b506060820151816003015550507f0df75d277ebbb180db8152f8c392e8bf6ba2720b35f9f98456eca3557b91182e8585853386866040516109da96959493929190612e35565b600554600160a01b900460ff16156116e35760405162461bcd60e51b815260040161030690613127565b60405163e985e9c560e01b81526001600160a01b0387169063e985e9c5906117119033903090600401612bd7565b60206040518083038186803b15801561172957600080fd5b505afa15801561173d573d6000803e3d6000fd5b505050506040513d601f19601f8201168201806040525081019061176191906128c9565b61177d5760405162461bcd60e51b8152600401610306906131a1565b604051637dc0bf3f60e01b81526001600160a01b03871690637dc0bf3f906117a9908890600401613241565b60206040518083038186803b1580156117c157600080fd5b505afa1580156117d5573d6000803e3d6000fd5b505050506040513d601f19601f820116820180604052508101906117f991906128c9565b156118165760405162461bcd60e51b815260040161030690612faa565b336001600160a01b0316866001600160a01b0316638da5cb5b6040518163ffffffff1660e01b815260040160206040518083038186803b15801561185957600080fd5b505afa15801561186d573d6000803e3d6000fd5b505050506040513d601f19601f820116820180604052508101906118919190612760565b6001600160a01b0316146118b75760405162461bcd60e51b815260040161030690613063565b6001600160a01b038616600090815260208181526040808320888452909152902054156118f65760405162461bcd60e51b815260040161030690612f57565b604051636797699760e11b81526001600160a01b0387169063cf2ed32e90611928908890879089908790600401613258565b600060405180830381600087803b15801561194257600080fd5b505af1158015611956573d6000803e3d6000fd5b505050506001600160a01b03868116600090815260208181526040808320898452825280832081516080810183523381528084018981529281018a81526060820189905282546001808201855593875295859020825160049097020180546001600160a01b03191696909716959095178655915190850155915180519293926119e59260028501920190612532565b506060820151816003015550507f1acc1ff85319876ad0cd5086eb5b44884b08ea51bca3665095d8606356c057f086863386868987604051611a2d9796959493929190612d98565b60405180910390a1505050505050565b6002546001600160a01b031681565b6002546001600160a01b03163314611a765760405162461bcd60e51b815260040161030690612f84565b6001600160a01b038116611a9c5760405162461bcd60e51b815260040161030690613089565b6005546040516001600160a01b038084169216907ff404d79dbd5d19bc2bf99a74f0e5affb6502b3d6012140f1d908ce3fcd0716d890600090a3600580546001600160a01b0319166001600160a01b0392909216919091179055565b6001600160a01b0382166000908152602081815260408083208484529091529020545b92915050565b6002546001600160a01b03163314611b4b5760405162461bcd60e51b815260040161030690612f84565b6103e8811015611b6d5760405162461bcd60e51b8152600401610306906130f0565b60048190556040517f8c4d35e54a3f2ef1134138fd8ea3daee6a3c89e10d2665996babdf70261e2c7690610744908390613241565b6005546001600160a01b031681565b6001600160a01b0383166000908152602081815260408083208584529091528120548210611bf15760405162461bcd60e51b815260040161030690612e9f565b611bf9612501565b6001600160a01b0385166000908152602081815260408083208784529091529020805484908110611c2657fe5b60009182526020918290206040805160808101825260049390930290910180546001600160a01b03168352600180820154848601526002808301805485516101009482161594909402600019011691909104601f8101879004870283018701855280835294959294938601939192909190830182828015611ce85780601f10611cbd57610100808354040283529160200191611ce8565b820191906000526020600020905b815481529060010190602001808311611ccb57829003601f168201915b505050918352505060039190910154602090910152805160405163e985e9c560e01b81529192506001600160a01b0387169163e985e9c591611d2e913090600401612bd7565b60206040518083038186803b158015611d4657600080fd5b505afa158015611d5a573d6000803e3d6000fd5b505050506040513d601f19601f82011682018060405250810190611d7e91906128c9565b611d8c5760009150506106cc565b60208101518151604051627eeac760e11b81526000916001600160a01b0389169162fdd58e91611dc0918a90600401612c4b565b60206040518083038186803b158015611dd857600080fd5b505afa158015611dec573d6000803e3d6000fd5b505050506040513d601f19601f82011682018060405250810190611e109190612b45565b9050611e1c82826124ea565b979650505050505050565b6001600160a01b0383166000908152602081815260408083208584529091529020548110611e675760405162461bcd60e51b8152600401610306906130c0565b611e6f612501565b6001600160a01b0384166000908152602081815260408083208684529091529020805483908110611e9c57fe5b60009182526020918290206040805160808101825260049390930290910180546001600160a01b03168352600180820154848601526002808301805485516101009482161594909402600019011691909104601f8101879004870283018701855280835294959294938601939192909190830182828015611f5e5780601f10611f3357610100808354040283529160200191611f5e565b820191906000526020600020905b815481529060010190602001808311611f4157829003601f168201915b50505050508152602001600382015481525050905080600001516001600160a01b0316336001600160a01b031614611fa85760405162461bcd60e51b815260040161030690612ef8565b600060208083018290526001600160a01b038616825281815260408083208684529091529020805482919084908110611fdd57fe5b600091825260209182902083516004929092020180546001600160a01b0319166001600160a01b0390921691909117815582820151600182015560408301518051919261203292600285019290910190612532565b50606082015181600301559050507f74ee16c30acdc0986deebeda1b36d871a7ebf1dc7e2fd327dc7628617c37726d848484336040516120759493929190612e0a565b60405180910390a150505050565b6002546001600160a01b031633146120ad5760405162461bcd60e51b815260040161030690612f84565b6001600160a01b0381166120d35760405162461bcd60e51b815260040161030690613089565b6002546040516001600160a01b038084169216907f8be0079c531659141344cd1fd0a4f28419497f9722a3daafe3b4186f6b6457e090600090a3600280546001600160a01b0319166001600160a01b0392909216919091179055565b60008261213e57506000611b1b565b508181028183828161214c57fe5b0414611b1b57fe5b6000856001600160a01b031663e8f3359f6040518163ffffffff1660e01b815260040160206040518083038186803b15801561218f57600080fd5b505afa1580156121a3573d6000803e3d6000fd5b505050506040513d601f19601f820116820180604052508101906121c79190612b45565b905060006004546121d8848461212f565b816121df57fe5b04905060006004546121f585856103e80361212f565b816121fc57fe5b6003546040516323b872dd60e01b81529290910492506001600160a01b0316906323b872dd9061223490339089908690600401612bf1565b602060405180830381600087803b15801561224e57600080fd5b505af1158015612262573d6000803e3d6000fd5b505050506040513d601f19601f8201168201806040525081019061228691906128c9565b6122a25760405162461bcd60e51b815260040161030690613172565b60405163e03650b960e01b815281906060906001600160a01b038b169063e03650b9906122d5908b908d9060040161324a565b60006040518083038186803b1580156122ed57600080fd5b505afa158015612301573d6000803e3d6000fd5b505050506040513d6000823e601f3d908101601f1916820160405261232991908101906127dc565b905060005b81518110156124335760006103e861235d8785858151811061234c57fe5b60200260200101516020015161212f565b8161236457fe5b60035485519290910492506001600160a01b0316906323b872dd90339086908690811061238d57fe5b602002602001015160000151846040518463ffffffff1660e01b81526004016123b893929190612bf1565b602060405180830381600087803b1580156123d257600080fd5b505af11580156123e6573d6000803e3d6000fd5b505050506040513d601f19601f8201168201806040525081019061240a91906128c9565b6124265760405162461bcd60e51b815260040161030690613172565b929092019160010161232e565b506003546005546040516323b872dd60e01b8152848903926001600160a01b03908116926323b872dd9261246f92339216908690600401612bf1565b602060405180830381600087803b15801561248957600080fd5b505af115801561249d573d6000803e3d6000fd5b505050506040513d601f19601f820116820180604052508101906124c191906128c9565b6124dd5760405162461bcd60e51b815260040161030690613172565b5050505050505050505050565b6000818310156124fb575081611b1b565b50919050565b604051806080016040528060006001600160a01b031681526020016000815260200160608152602001600081525090565b828054600181600116156101000203166002900490600052602060002090601f01602090048101928261256857600085556125ae565b82601f1061258157805160ff19168380011785556125ae565b828001600101855582156125ae579182015b828111156125ae578251825591602001919060010190612593565b506125ba9291506125be565b5090565b5b808211156125ba57600081556001016125bf565b600082601f8301126125e3578081fd5b81356125f66125f18261329b565b613277565b818152915060208083019084810160005b848110156126305761261e888484358a01016126a9565b84529282019290820190600101612607565b505050505092915050565b600082601f83011261264b578081fd5b81356126596125f18261329b565b81815291506020808301908481018184028601820187101561267a57600080fd5b60005b848110156126305781358452928201929082019060010161267d565b80356126a48161330b565b919050565b600082601f8301126126b9578081fd5b81356126c76125f1826132b9565b91508082528360208285010111156126de57600080fd5b8060208401602084013760009082016020015292915050565b600082601f830112612707578081fd5b81516127156125f1826132b9565b915080825283602082850101111561272c57600080fd5b61273d8160208401602086016132db565b5092915050565b600060208284031215612755578081fd5b81356106cc8161330b565b600060208284031215612771578081fd5b81516106cc8161330b565b60008060008060808587031215612791578283fd5b845161279c8161330b565b60208601516040870151919550935067ffffffffffffffff8111156127bf578283fd5b6127cb878288016126f7565b606096909601519497939650505050565b600060208083850312156127ee578182fd5b825167ffffffffffffffff80821115612805578384fd5b818501915085601f830112612818578384fd5b81516128266125f18261329b565b818152848101908486016040808502870188018b1015612844578889fd5b8896505b8487101561289e5780828c03121561285e578889fd5b8051818101818110888211171561287157fe5b8252825161287e8161330b565b815282890151898201528452600196909601959287019290810190612848565b50909998505050505050505050565b6000602082840312156128be578081fd5b81356106cc81613323565b6000602082840312156128da578081fd5b81516106cc81613323565b60008060008060008060c087890312156128fd578182fd5b61290687612699565b9550602087013567ffffffffffffffff80821115612922578384fd5b61292e8a838b0161263b565b96506040890135915080821115612943578384fd5b61294f8a838b016125d3565b95506060890135915080821115612964578384fd5b6129708a838b0161263b565b94506080890135915080821115612985578384fd5b5061299289828a0161263b565b92505060a087013590509295509295509295565b600080604083850312156129b8578081fd5b82356129c38161330b565b946020939093013593505050565b60008060008060008060c087890312156129e9578384fd5b86356129f48161330b565b955060208701359450604087013567ffffffffffffffff811115612a16578485fd5b612a2289828a016126a9565b945050606087013592506080870135915060a087013590509295509295509295565b600080600060608486031215612a58578081fd5b8335612a638161330b565b95602085013595506040909401359392505050565b60008060008060808587031215612a8d578182fd5b8435612a988161330b565b966020860135965060408601359560600135945092505050565b600080600060608486031215612ac6578081fd5b8335612ad18161330b565b92506020840135612ae18161330b565b929592945050506040919091013590565b600060208284031215612b03578081fd5b815167ffffffffffffffff811115612b19578182fd5b612b25848285016126f7565b949350505050565b600060208284031215612b3e578081fd5b5035919050565b600060208284031215612b56578081fd5b5051919050565b6000815180845260208085019450808401835b83811015612b8c57815187529582019590820190600101612b70565b509495945050505050565b60008151808452612baf8160208601602086016132db565b601f01601f19169290920160200192915050565b6001600160a01b0391909116815260200190565b6001600160a01b0392831681529116602082015260400190565b6001600160a01b039384168152919092166020820152604081019190915260600190565b6001600160a01b03968716815294909516602085015260408401929092526060830152608082015260a081019190915260c00190565b6001600160a01b03929092168252602082015260400190565b6001600160a01b03868116825285166020820152604081018490526060810183905260a060808201819052600090611e1c90830184612b97565b6001600160a01b039485168152928416602084015292166040820152606081019190915260800190565b600060018060a01b038616825284602083015260806040830152612cef6080830185612b97565b905082606083015295945050505050565b600060808252612d136080830187612b5d565b602083820381850152612d268288612b5d565b848103604086015286518082529092508183019082810284018301838901865b83811015612d7457601f19878403018552612d62838351612b97565b94860194925090850190600101612d46565b5050809550505050505082606083015295945050505050565b901515815260200190565b600060018060a01b03808a16835288602084015280881660408401525085606083015284608083015260e060a0830152612dd560e0830185612b97565b90508260c083015298975050505050505050565b6001600160a01b039390931683526020830191909152604082015260600190565b6001600160a01b03948516815260208101939093526040830191909152909116606082015260800190565b6001600160a01b0396871681526020810195909552604085019390935293166060830152608082019290925260a081019190915260c00190565b6001600160a01b039586168152602081019490945260408401929092526060830152909116608082015260a00190565b60208082526011908201527013d999995c9251081b9bdd081d985b1a59607a1b604082015260600190565b6020808252601490820152734e6f207265656e7472616e637920706c6561736560601b604082015260600190565b6020808252600e908201526d3737ba103cb7bab91037b33332b960911b604082015260600190565b6020808252601a908201527f6e6f7420656e6f756768206974656d7320617661696c61626c65000000000000604082015260600190565b602080825260139082015272556e61626c6520746f206f66666572206e657760681b604082015260600190565b6020808252600c908201526b1d5b985d5d1a1bdc9a5cd95960a21b604082015260600190565b60208082526017908201527f546f6b656e20494420616c7265616479206d696e746564000000000000000000604082015260600190565b60208082526021908201527f6e6f7420656e6f756768206974656d73206f776e6564206279206f66666572656040820152603960f91b606082015260800190565b60208082526021908201527f4f6e6c79207768656e20746865726520697320612073696e676c65206f6666656040820152603960f91b606082015260800190565b6020808252600c908201526b155b985d5d1a1bdc9a5cd95960a21b604082015260600190565b6020808252601a908201527f446f206e6f742073657420746f2061646472657373207a65726f000000000000604082015260600190565b60208082526016908201527534b73b30b634b21037b33332b9103837b9b4ba34b7b760511b604082015260600190565b60208082526017908201527f44697669736f72206d757374206265203e3d2031303030000000000000000000604082015260600190565b6020808252602b908201527f6f7065726174696f6e206e6f74207065726d6974746564207768656e2073616c60408201526a19481a5cc81c185d5cd95960aa1b606082015260800190565b60208082526015908201527463616e6e6f74207472616e736665722066756e647360581b604082015260600190565b60208082526037908201527f596f752068617665206e6f7420617070726f766564207468697320636f6e747260408201527f61637420746f2073656c6c20796f757220746f6b656e73000000000000000000606082015260800190565b60208082526023908201527f596f7520646f206e6f74206f776e20656e6f756768206f66207468697320746f60408201526235b2b760e91b606082015260800190565b90815260200190565b918252602082015260400190565b600085825284602083015260806040830152612cef6080830185612b97565b60405181810167ffffffffffffffff8111828210171561329357fe5b604052919050565b600067ffffffffffffffff8211156132af57fe5b5060209081020190565b600067ffffffffffffffff8211156132cd57fe5b50601f01601f191660200190565b60005b838110156132f65781810151838201526020016132de565b83811115613305576000848401525b50505050565b6001600160a01b038116811461332057600080fd5b50565b801515811461332057600080fdfea2646970667358221220660143065a5e9cf74acc91afde4ceaf8abc82d0ab6e45c9692a0362171f9f56264736f6c63430007050033",
  "linkReferences": {},
  "deployedLinkReferences": {}
}