{
  "_format": "hh-sol-artifact-1",
  "contractName": "pMintyMultiSale",
  "sourceName": "contracts/sale2M/pMintyMultiSale.sol",
  "abi": [
    {
      "inputs": [
        {
          "internalType": "address",
          "name": "wallet",
          "type": "address"
        },
        {
          "internalType": "contract IERC20",
          "name": "_weth",
          "type": "address"
        },
        {
          "internalType": "uint256",
          "name": "_divisor",
          "type": "uint256"
        }
      ],
      "stateMutability": "nonpayable",
      "type": "constructor"
    },
    {
      "anonymous": false,
      "inputs": [
        {
          "indexed": false,
          "internalType": "address",
          "name": "bidder",
          "type": "address"
        },
        {
          "indexed": false,
          "internalType": "contract IMintyMultiToken",
          "name": "token",
          "type": "address"
        },
        {
          "indexed": false,
          "internalType": "uint256",
          "name": "tokenId",
          "type": "uint256"
        },
        {
          "indexed": false,
          "internalType": "uint256",
          "name": "previous_bid",
          "type": "uint256"
        },
        {
          "indexed": false,
          "internalType": "uint256",
          "name": "this_bid",
          "type": "uint256"
        }
      ],
      "name": "BidIncreased",
      "type": "event"
    },
    {
      "anonymous": false,
      "inputs": [
        {
          "indexed": false,
          "internalType": "address",
          "name": "bidder",
          "type": "address"
        },
        {
          "indexed": false,
          "internalType": "contract IMintyMultiToken",
          "name": "token",
          "type": "address"
        },
        {
          "indexed": false,
          "internalType": "uint256",
          "name": "tokenId",
          "type": "uint256"
        },
        {
          "indexed": false,
          "internalType": "uint256",
          "name": "bid",
          "type": "uint256"
        }
      ],
      "name": "BidReceived",
      "type": "event"
    },
    {
      "anonymous": false,
      "inputs": [
        {
          "indexed": false,
          "internalType": "contract IMintyMultiToken",
          "name": "token",
          "type": "address"
        },
        {
          "indexed": false,
          "internalType": "uint256",
          "name": "tokenId",
          "type": "uint256"
        }
      ],
      "name": "BidWithdrawn",
      "type": "event"
    },
    {
      "anonymous": false,
      "inputs": [
        {
          "indexed": false,
          "internalType": "uint256",
          "name": "divisor",
          "type": "uint256"
        }
      ],
      "name": "FeeUpdated",
      "type": "event"
    },
    {
      "anonymous": false,
      "inputs": [
        {
          "indexed": false,
          "internalType": "contract IMintyMultiToken",
          "name": "token",
          "type": "address"
        },
        {
          "indexed": false,
          "internalType": "uint256",
          "name": "tokenId",
          "type": "uint256"
        },
        {
          "indexed": false,
          "internalType": "address",
          "name": "owner",
          "type": "address"
        },
        {
          "indexed": false,
          "internalType": "uint256",
          "name": "quantity",
          "type": "uint256"
        },
        {
          "indexed": false,
          "internalType": "uint256",
          "name": "price",
          "type": "uint256"
        },
        {
          "indexed": false,
          "internalType": "string",
          "name": "hash",
          "type": "string"
        },
        {
          "indexed": false,
          "internalType": "uint256",
          "name": "poolId",
          "type": "uint256"
        }
      ],
      "name": "NewOffer",
      "type": "event"
    },
    {
      "anonymous": false,
      "inputs": [
        {
          "indexed": false,
          "internalType": "address",
          "name": "buyer",
          "type": "address"
        },
        {
          "indexed": false,
          "internalType": "contract IMintyMultiToken",
          "name": "token",
          "type": "address"
        },
        {
          "indexed": false,
          "internalType": "uint256",
          "name": "tokenId",
          "type": "uint256"
        },
        {
          "indexed": false,
          "internalType": "uint256",
          "name": "pos",
          "type": "uint256"
        },
        {
          "indexed": false,
          "internalType": "uint256",
          "name": "quantity",
          "type": "uint256"
        },
        {
          "indexed": false,
          "internalType": "uint256",
          "name": "price",
          "type": "uint256"
        }
      ],
      "name": "OfferAccepted",
      "type": "event"
    },
    {
      "anonymous": false,
      "inputs": [
        {
          "indexed": false,
          "internalType": "contract IMintyMultiToken",
          "name": "token",
          "type": "address"
        },
        {
          "indexed": false,
          "internalType": "uint256",
          "name": "tokenId",
          "type": "uint256"
        }
      ],
      "name": "OfferWithdrawn",
      "type": "event"
    },
    {
      "anonymous": false,
      "inputs": [
        {
          "indexed": true,
          "internalType": "address",
          "name": "previousOwner",
          "type": "address"
        },
        {
          "indexed": true,
          "internalType": "address",
          "name": "newOwner",
          "type": "address"
        }
      ],
      "name": "OwnershipTransferred",
      "type": "event"
    },
    {
      "anonymous": false,
      "inputs": [
        {
          "indexed": false,
          "internalType": "address",
          "name": "wallet",
          "type": "address"
        },
        {
          "indexed": false,
          "internalType": "address",
          "name": "creator",
          "type": "address"
        },
        {
          "indexed": false,
          "internalType": "address",
          "name": "_owner",
          "type": "address"
        },
        {
          "indexed": false,
          "internalType": "uint256",
          "name": "amount",
          "type": "uint256"
        }
      ],
      "name": "Payment",
      "type": "event"
    },
    {
      "anonymous": false,
      "inputs": [
        {
          "indexed": false,
          "internalType": "contract IMintyMultiToken",
          "name": "token",
          "type": "address"
        },
        {
          "indexed": false,
          "internalType": "uint256",
          "name": "tokenId",
          "type": "uint256"
        },
        {
          "indexed": false,
          "internalType": "uint256",
          "name": "quantity",
          "type": "uint256"
        },
        {
          "indexed": false,
          "internalType": "address",
          "name": "owner",
          "type": "address"
        },
        {
          "indexed": false,
          "internalType": "uint256",
          "name": "price",
          "type": "uint256"
        },
        {
          "indexed": false,
          "internalType": "uint256",
          "name": "position",
          "type": "uint256"
        }
      ],
      "name": "ResaleOffer",
      "type": "event"
    },
    {
      "anonymous": false,
      "inputs": [
        {
          "indexed": false,
          "internalType": "contract IMintyMultiToken",
          "name": "token",
          "type": "address"
        },
        {
          "indexed": false,
          "internalType": "uint256",
          "name": "tokenId",
          "type": "uint256"
        },
        {
          "indexed": false,
          "internalType": "uint256",
          "name": "pos",
          "type": "uint256"
        },
        {
          "indexed": false,
          "internalType": "uint256",
          "name": "price",
          "type": "uint256"
        },
        {
          "indexed": false,
          "internalType": "address",
          "name": "owner",
          "type": "address"
        }
      ],
      "name": "SaleRepriced",
      "type": "event"
    },
    {
      "anonymous": false,
      "inputs": [
        {
          "indexed": false,
          "internalType": "contract IMintyMultiToken",
          "name": "token",
          "type": "address"
        },
        {
          "indexed": false,
          "internalType": "uint256",
          "name": "tokenId",
          "type": "uint256"
        },
        {
          "indexed": false,
          "internalType": "uint256",
          "name": "pos",
          "type": "uint256"
        },
        {
          "indexed": false,
          "internalType": "address",
          "name": "owner",
          "type": "address"
        }
      ],
      "name": "SaleRetracted",
      "type": "event"
    },
    {
      "anonymous": false,
      "inputs": [
        {
          "indexed": true,
          "internalType": "address",
          "name": "previousWallet",
          "type": "address"
        },
        {
          "indexed": true,
          "internalType": "address",
          "name": "newWallet",
          "type": "address"
        }
      ],
      "name": "WalletTransferred",
      "type": "event"
    },
    {
      "inputs": [
        {
          "internalType": "contract IMintyMultiToken",
          "name": "token",
          "type": "address"
        },
        {
          "internalType": "uint256",
          "name": "tokenId",
          "type": "uint256"
        },
        {
          "internalType": "uint256",
          "name": "pos",
          "type": "uint256"
        },
        {
          "internalType": "uint256",
          "name": "quantity",
          "type": "uint256"
        }
      ],
      "name": "acceptOffer",
      "outputs": [],
      "stateMutability": "nonpayable",
      "type": "function"
    },
    {
      "inputs": [
        {
          "internalType": "contract IMintyMultiToken",
          "name": "token",
          "type": "address"
        },
        {
          "internalType": "uint256",
          "name": "tokenId",
          "type": "uint256"
        },
        {
          "internalType": "uint256",
          "name": "offerId",
          "type": "uint256"
        }
      ],
      "name": "available",
      "outputs": [
        {
          "internalType": "uint256",
          "name": "",
          "type": "uint256"
        }
      ],
      "stateMutability": "view",
      "type": "function"
    },
    {
      "inputs": [
        {
          "internalType": "address",
          "name": "newWallet",
          "type": "address"
        }
      ],
      "name": "changeWallet",
      "outputs": [],
      "stateMutability": "nonpayable",
      "type": "function"
    },
    {
      "inputs": [],
      "name": "divisor",
      "outputs": [
        {
          "internalType": "uint256",
          "name": "",
          "type": "uint256"
        }
      ],
      "stateMutability": "view",
      "type": "function"
    },
    {
      "inputs": [
        {
          "internalType": "contract IMintyMultiToken",
          "name": "",
          "type": "address"
        },
        {
          "internalType": "uint256",
          "name": "",
          "type": "uint256"
        },
        {
          "internalType": "uint256",
          "name": "",
          "type": "uint256"
        }
      ],
      "name": "items",
      "outputs": [
        {
          "internalType": "address",
          "name": "creator",
          "type": "address"
        },
        {
          "internalType": "uint256",
          "name": "quantity",
          "type": "uint256"
        },
        {
          "internalType": "string",
          "name": "itemHash",
          "type": "string"
        },
        {
          "internalType": "uint256",
          "name": "unitPrice",
          "type": "uint256"
        }
      ],
      "stateMutability": "view",
      "type": "function"
    },
    {
      "inputs": [],
      "name": "minty",
      "outputs": [
        {
          "internalType": "address",
          "name": "",
          "type": "address"
        }
      ],
      "stateMutability": "view",
      "type": "function"
    },
    {
      "inputs": [
        {
          "internalType": "contract IMintyMultiToken",
          "name": "",
          "type": "address"
        }
      ],
      "name": "multiTokenOwners",
      "outputs": [
        {
          "internalType": "address",
          "name": "",
          "type": "address"
        }
      ],
      "stateMutability": "view",
      "type": "function"
    },
    {
      "inputs": [
        {
          "internalType": "contract IMintyMultiToken",
          "name": "token",
          "type": "address"
        },
        {
          "internalType": "uint256",
          "name": "tokenId",
          "type": "uint256"
        }
      ],
      "name": "numberOfOffers",
      "outputs": [
        {
          "internalType": "uint256",
          "name": "",
          "type": "uint256"
        }
      ],
      "stateMutability": "view",
      "type": "function"
    },
    {
      "inputs": [
        {
          "internalType": "contract IMintyMultiToken",
          "name": "token",
          "type": "address"
        },
        {
          "internalType": "uint256",
          "name": "tokenId",
          "type": "uint256"
        },
        {
          "internalType": "string",
          "name": "ipfsString",
          "type": "string"
        },
        {
          "internalType": "uint256",
          "name": "quantity",
          "type": "uint256"
        },
        {
          "internalType": "uint256",
          "name": "price",
          "type": "uint256"
        },
        {
          "internalType": "uint256",
          "name": "poolId",
          "type": "uint256"
        }
      ],
      "name": "offerNew",
      "outputs": [],
      "stateMutability": "nonpayable",
      "type": "function"
    },
    {
      "inputs": [
        {
          "internalType": "contract IMintyMultiToken",
          "name": "token",
          "type": "address"
        },
        {
          "internalType": "uint256[]",
          "name": "tokenIds",
          "type": "uint256[]"
        },
        {
          "internalType": "string[]",
          "name": "ipfsStrings",
          "type": "string[]"
        },
        {
          "internalType": "uint256[]",
          "name": "quantities",
          "type": "uint256[]"
        },
        {
          "internalType": "uint256[]",
          "name": "prices",
          "type": "uint256[]"
        },
        {
          "internalType": "uint256",
          "name": "poolId",
          "type": "uint256"
        }
      ],
      "name": "offerNewBatch",
      "outputs": [],
      "stateMutability": "nonpayable",
      "type": "function"
    },
    {
      "inputs": [
        {
          "internalType": "contract IMintyMultiToken",
          "name": "token",
          "type": "address"
        },
        {
          "internalType": "uint256",
          "name": "tokenId",
          "type": "uint256"
        },
        {
          "internalType": "uint256",
          "name": "quantity",
          "type": "uint256"
        },
        {
          "internalType": "uint256",
          "name": "price",
          "type": "uint256"
        }
      ],
      "name": "offerResale",
      "outputs": [],
      "stateMutability": "nonpayable",
      "type": "function"
    },
    {
      "inputs": [],
      "name": "owner",
      "outputs": [
        {
          "internalType": "address",
          "name": "",
          "type": "address"
        }
      ],
      "stateMutability": "view",
      "type": "function"
    },
    {
      "inputs": [
        {
          "internalType": "contract IMintyMultiToken",
          "name": "token",
          "type": "address"
        },
        {
          "internalType": "uint256",
          "name": "tokenId",
          "type": "uint256"
        },
        {
          "internalType": "uint256",
          "name": "offerId",
          "type": "uint256"
        }
      ],
      "name": "price",
      "outputs": [
        {
          "internalType": "uint256",
          "name": "",
          "type": "uint256"
        }
      ],
      "stateMutability": "view",
      "type": "function"
    },
    {
      "inputs": [
        {
          "internalType": "contract IMintyMultiToken",
          "name": "token",
          "type": "address"
        },
        {
          "internalType": "uint256",
          "name": "tokenId",
          "type": "uint256"
        },
        {
          "internalType": "uint256",
          "name": "pos",
          "type": "uint256"
        },
        {
          "internalType": "uint256",
          "name": "price",
          "type": "uint256"
        }
      ],
      "name": "reSubmitOffer",
      "outputs": [],
      "stateMutability": "nonpayable",
      "type": "function"
    },
    {
      "inputs": [
        {
          "internalType": "contract IMintyMultiToken",
          "name": "token",
          "type": "address"
        },
        {
          "internalType": "uint256",
          "name": "tokenId",
          "type": "uint256"
        },
        {
          "internalType": "uint256",
          "name": "pos",
          "type": "uint256"
        }
      ],
      "name": "retractRemainingOffer",
      "outputs": [],
      "stateMutability": "nonpayable",
      "type": "function"
    },
    {
      "inputs": [
        {
          "internalType": "address",
          "name": "newOwner",
          "type": "address"
        }
      ],
      "name": "transferOwnership",
      "outputs": [],
      "stateMutability": "nonpayable",
      "type": "function"
    },
    {
      "inputs": [
        {
          "internalType": "uint256",
          "name": "_divisor",
          "type": "uint256"
        }
      ],
      "name": "updateShares",
      "outputs": [],
      "stateMutability": "nonpayable",
      "type": "function"
    },
    {
      "inputs": [],
      "name": "weth",
      "outputs": [
        {
          "internalType": "contract IERC20",
          "name": "",
          "type": "address"
        }
      ],
      "stateMutability": "view",
      "type": "function"
    }
  ],
  "bytecode": "0x6080604052600280546001600160a01b031916331790553480156200002357600080fd5b5060405162002fd738038062002fd78339810160408190526200004691620000ec565b6103e8811015620000745760405162461bcd60e51b81526004016200006b9062000133565b60405180910390fd5b600580546001600160a01b038086166001600160a01b031992831617909255600380549285169290911691909117905560048190556040517f8c4d35e54a3f2ef1134138fd8ea3daee6a3c89e10d2665996babdf70261e2c7690620000db9083906200016a565b60405180910390a15050506200018c565b60008060006060848603121562000101578283fd5b83516200010e8162000173565b6020850151909350620001218162000173565b80925050604084015190509250925092565b60208082526017908201527f44697669736f72206d757374206265203e3d2031303030000000000000000000604082015260600190565b90815260200190565b6001600160a01b03811681146200018957600080fd5b50565b612e3b806200019c6000396000f3fe608060405234801561001057600080fd5b50600436106101165760003560e01c80638bc844c7116100a2578063b660846711610071578063b660846714610226578063cbfcab1d14610239578063eac54d9814610241578063ecf13ef414610254578063f2fde38b1461026757610116565b80638bc844c7146101e55780638da5cb5b146101f857806398b9a2dc14610200578063a3f7a5f81461021357610116565b80634e900c02116100e95780634e900c02146101745780635af9c479146101895780636d873c5d1461019c5780636dd043d7146101bf5780637d5c7217146101d257610116565b80631f2dc5ef1461011b57806335b4511a146101395780633a06daa2146101595780633fc8cef31461016c575b600080fd5b61012361027a565b6040516101309190612d23565b60405180910390f35b61014c61014736600461235e565b610280565b604051610130919061275d565b6101236101673660046125e6565b61029b565b61014c61048d565b61018761018236600461261a565b61049c565b005b610187610197366004612487565b6106fd565b6101af6101aa3660046125e6565b610b77565b6040516101309493929190612862565b6101876101cd36600461261a565b610c65565b6101876101e036600461261a565b6110a1565b6101876101f3366004612573565b61133f565b61014c611699565b61018761020e36600461235e565b6116a8565b610123610221366004612548565b611754565b6101876102343660046126c7565b61177d565b61014c611809565b61012361024f3660046125e6565b611818565b6101876102623660046125e6565b611a8e565b61018761027536600461235e565b611cea565b60045481565b6001602052600090815260409020546001600160a01b031681565b6001600160a01b03831660009081526020818152604080832085845290915281205482106102e45760405162461bcd60e51b81526004016102db90612a0d565b60405180910390fd5b6102ec612168565b6001600160a01b038516600090815260208181526040808320878452909152902080548490811061031957fe5b60009182526020918290206040805160808101825260049390930290910180546001600160a01b03168352600180820154848601526002808301805485516101009482161594909402600019011691909104601f81018790048702830187018552808352949592949386019391929091908301828280156103db5780601f106103b0576101008083540402835291602001916103db565b820191906000526020600020905b8154815290600101906020018083116103be57829003601f168201915b505050918352505060039190910154602090910152805160405163e985e9c560e01b81529192506001600160a01b0387169163e985e9c591610421913090600401612771565b60206040518083038186803b15801561043957600080fd5b505afa15801561044d573d6000803e3d6000fd5b505050506040513d601f19601f820116820180604052508101906104719190612467565b61047f576000915050610486565b6060015190505b9392505050565b6003546001600160a01b031681565b6001600160a01b03841660009081526020818152604080832086845290915290205482106104dc5760405162461bcd60e51b81526004016102db90612bed565b6104e4612168565b6001600160a01b038516600090815260208181526040808320878452909152902080548490811061051157fe5b60009182526020918290206040805160808101825260049390930290910180546001600160a01b03168352600180820154848601526002808301805485516101009482161594909402600019011691909104601f81018790048702830187018552808352949592949386019391929091908301828280156105d35780601f106105a8576101008083540402835291602001916105d3565b820191906000526020600020905b8154815290600101906020018083116105b657829003601f168201915b50505050508152602001600382015481525050905080600001516001600160a01b0316336001600160a01b03161461061d5760405162461bcd60e51b81526004016102db90612a66565b606081018290526001600160a01b038516600090815260208181526040808320878452909152902080548291908590811061065457fe5b600091825260209182902083516004929092020180546001600160a01b0319166001600160a01b039092169190911781558282015160018201556040830151805191926106a992600285019290910190612199565b50606082015181600301559050507f0365ed613ce46864c2596157898bfc904a905c87c70c265de1473f51eedb1b7785858585336040516106ee9594939291906129dd565b60405180910390a15050505050565b60405163e985e9c560e01b81526001600160a01b0387169063e985e9c59061072b9033903090600401612771565b60206040518083038186803b15801561074357600080fd5b505afa158015610757573d6000803e3d6000fd5b505050506040513d601f19601f8201168201806040525081019061077b9190612467565b6107975760405162461bcd60e51b81526004016102db90612c83565b336001600160a01b0316866001600160a01b0316638da5cb5b6040518163ffffffff1660e01b815260040160206040518083038186803b1580156107da57600080fd5b505afa1580156107ee573d6000803e3d6000fd5b505050506040513d601f19601f82011682018060405250810190610812919061237a565b6001600160a01b0316146108385760405162461bcd60e51b81526004016102db90612b90565b60005b8551811015610b0a57866001600160a01b0316637dc0bf3f87838151811061085f57fe5b60200260200101516040518263ffffffff1660e01b81526004016108839190612d23565b60206040518083038186803b15801561089b57600080fd5b505afa1580156108af573d6000803e3d6000fd5b505050506040513d601f19601f820116820180604052508101906108d39190612467565b156108f05760405162461bcd60e51b81526004016102db90612b18565b600080886001600160a01b03166001600160a01b03168152602001908152602001600020600087838151811061092257fe5b602002602001015181526020019081526020016000208054905060001461095b5760405162461bcd60e51b81526004016102db90612ac5565b600080886001600160a01b03166001600160a01b03168152602001908152602001600020600087838151811061098d57fe5b602002602001015181526020019081526020016000206040518060800160405280336001600160a01b031681526020018684815181106109c957fe5b602002602001015181526020018784815181106109e257fe5b602002602001015181526020018584815181106109fb57fe5b602090810291909101810151909152825460018082018555600094855293829020835160049092020180546001600160a01b0319166001600160a01b03909216919091178155828201519381019390935560408201518051929392610a669260028501920190612199565b506060820151816003015550507f1acc1ff85319876ad0cd5086eb5b44884b08ea51bca3665095d8606356c057f087878381518110610aa157fe5b602002602001015133878581518110610ab657fe5b6020026020010151878681518110610aca57fe5b60200260200101518a8781518110610ade57fe5b602002602001015188604051610afa9796959493929190612927565b60405180910390a160010161083b565b50604051630a98df5760e21b81526001600160a01b03871690632a637d5c90610b3d90889087908990879060040161289a565b600060405180830381600087803b158015610b5757600080fd5b505af1158015610b6b573d6000803e3d6000fd5b50505050505050505050565b60006020528260005260406000206020528160005260406000208181548110610b9f57600080fd5b6000918252602091829020600491909102018054600180830154600280850180546040805161010096831615969096026000190190911692909204601f81018890048802850188019092528184526001600160a01b03909416985090965092945092909190830182828015610c555780601f10610c2a57610100808354040283529160200191610c55565b820191906000526020600020905b815481529060010190602001808311610c3857829003601f168201915b5050505050908060030154905084565b600354600160a01b900460ff1615610c8f5760405162461bcd60e51b81526004016102db90612a38565b81610cf357604051635773bd0760e01b81526001600160a01b03851690635773bd0790610cc090339060040161275d565b600060405180830381600087803b158015610cda57600080fd5b505af1158015610cee573d6000803e3d6000fd5b505050505b6003805460ff60a01b1916600160a01b1790556060610d10612168565b6001600160a01b0386166000908152602081815260408083208884529091529020805485908110610d3d57fe5b60009182526020918290206040805160808101825260049390930290910180546001600160a01b03168352600180820154848601526002808301805485516101009482161594909402600019011691909104601f8101879004870283018701855280835294959294938601939192909190830182828015610dff5780601f10610dd457610100808354040283529160200191610dff565b820191906000526020600020905b815481529060010190602001808311610de257829003601f168201915b5050505050815260200160038201548152505090506000816000015190508382602001511015610e415760405162461bcd60e51b81526004016102db90612a8e565b6000610e51836060015186611d96565b905084886001600160a01b031662fdd58e848a6040518363ffffffff1660e01b8152600401610e819291906127e5565b60206040518083038186803b158015610e9957600080fd5b505afa158015610ead573d6000803e3d6000fd5b505050506040513d601f19601f82011682018060405250810190610ed191906126df565b1015610eef5760405162461bcd60e51b81526004016102db90612b4f565b604051637921219560e11b81526001600160a01b0389169063f242432a90610f2390859033908c908b908b906004016127fe565b600060405180830381600087803b158015610f3d57600080fd5b505af1158015610f51573d6000803e3d6000fd5b5050506020808501805188900390526001600160a01b038a16600090815280825260408082208b835290925220805485925088908110610f8d57fe5b600091825260209182902083516004929092020180546001600160a01b0319166001600160a01b03909216919091178155828201516001820155604083015180519192610fe292600285019290910190612199565b506060919091015160039091015560055483516040517f0913aa4718e76655dbdbde41862a88aba8459d8721849484c97f53af3b5028e692611033926001600160a01b039091169186908690612838565b60405180910390a16110488888888585611dbb565b6003805460ff60a01b191690556040517faf47c9ab14ff5ce679b4cb416be29684283e7b30fcfe405bfdebcc135f4b1e6f9061108f9033908b908b908b908b9088906127af565b60405180910390a15050505050505050565b604051627eeac760e11b81526001600160a01b0385169062fdd58e906110cd90339087906004016127e5565b60206040518083038186803b1580156110e557600080fd5b505afa1580156110f9573d6000803e3d6000fd5b505050506040513d601f19601f8201168201806040525081019061111d91906126df565b821115801561112c5750600082115b6111485760405162461bcd60e51b81526004016102db90612ce0565b60405163e985e9c560e01b81526001600160a01b0385169063e985e9c5906111769033903090600401612771565b60206040518083038186803b15801561118e57600080fd5b505afa1580156111a2573d6000803e3d6000fd5b505050506040513d601f19601f820116820180604052508101906111c69190612467565b6111e25760405162461bcd60e51b81526004016102db90612c83565b6001600160a01b0384166000818152602081815260408083208784528252918290208054835160808101855233815292830187905283516303a24d0760e21b81529094919383019190630e89341c9061123f908a90600401612d23565b60006040518083038186803b15801561125757600080fd5b505afa15801561126b573d6000803e3d6000fd5b505050506040513d6000823e601f3d908101601f191682016040526112939190810190612654565b81526020908101859052825460018082018555600094855293829020835160049092020180546001600160a01b0319166001600160a01b039092169190911781558282015193810193909355604082015180519293926112f99260028501920190612199565b506060820151816003015550507f0df75d277ebbb180db8152f8c392e8bf6ba2720b35f9f98456eca3557b91182e8585853386866040516106ee969594939291906129a3565b60405163e985e9c560e01b81526001600160a01b0387169063e985e9c59061136d9033903090600401612771565b60206040518083038186803b15801561138557600080fd5b505afa158015611399573d6000803e3d6000fd5b505050506040513d601f19601f820116820180604052508101906113bd9190612467565b6113d95760405162461bcd60e51b81526004016102db90612c83565b604051637dc0bf3f60e01b81526001600160a01b03871690637dc0bf3f90611405908890600401612d23565b60206040518083038186803b15801561141d57600080fd5b505afa158015611431573d6000803e3d6000fd5b505050506040513d601f19601f820116820180604052508101906114559190612467565b156114725760405162461bcd60e51b81526004016102db90612b18565b336001600160a01b0316866001600160a01b0316638da5cb5b6040518163ffffffff1660e01b815260040160206040518083038186803b1580156114b557600080fd5b505afa1580156114c9573d6000803e3d6000fd5b505050506040513d601f19601f820116820180604052508101906114ed919061237a565b6001600160a01b0316146115135760405162461bcd60e51b81526004016102db90612b90565b6001600160a01b038616600090815260208181526040808320888452909152902054156115525760405162461bcd60e51b81526004016102db90612ac5565b604051636797699760e11b81526001600160a01b0387169063cf2ed32e90611584908890879089908790600401612d3a565b600060405180830381600087803b15801561159e57600080fd5b505af11580156115b2573d6000803e3d6000fd5b505050506001600160a01b03868116600090815260208181526040808320898452825280832081516080810183523381528084018981529281018a81526060820189905282546001808201855593875295859020825160049097020180546001600160a01b03191696909716959095178655915190850155915180519293926116419260028501920190612199565b506060820151816003015550507f1acc1ff85319876ad0cd5086eb5b44884b08ea51bca3665095d8606356c057f0868633868689876040516116899796959493929190612927565b60405180910390a1505050505050565b6002546001600160a01b031681565b6002546001600160a01b031633146116d25760405162461bcd60e51b81526004016102db90612af2565b6001600160a01b0381166116f85760405162461bcd60e51b81526004016102db90612bb6565b6005546040516001600160a01b038084169216907ff404d79dbd5d19bc2bf99a74f0e5affb6502b3d6012140f1d908ce3fcd0716d890600090a3600580546001600160a01b0319166001600160a01b0392909216919091179055565b6001600160a01b0382166000908152602081815260408083208484529091529020545b92915050565b6002546001600160a01b031633146117a75760405162461bcd60e51b81526004016102db90612af2565b6103e88110156117c95760405162461bcd60e51b81526004016102db90612c1d565b60048190556040517f8c4d35e54a3f2ef1134138fd8ea3daee6a3c89e10d2665996babdf70261e2c76906117fe908390612d23565b60405180910390a150565b6005546001600160a01b031681565b6001600160a01b03831660009081526020818152604080832085845290915281205482106118585760405162461bcd60e51b81526004016102db90612a0d565b611860612168565b6001600160a01b038516600090815260208181526040808320878452909152902080548490811061188d57fe5b60009182526020918290206040805160808101825260049390930290910180546001600160a01b03168352600180820154848601526002808301805485516101009482161594909402600019011691909104601f810187900487028301870185528083529495929493860193919290919083018282801561194f5780601f106119245761010080835404028352916020019161194f565b820191906000526020600020905b81548152906001019060200180831161193257829003601f168201915b505050918352505060039190910154602090910152805160405163e985e9c560e01b81529192506001600160a01b0387169163e985e9c591611995913090600401612771565b60206040518083038186803b1580156119ad57600080fd5b505afa1580156119c1573d6000803e3d6000fd5b505050506040513d601f19601f820116820180604052508101906119e59190612467565b6119f3576000915050610486565b60208101518151604051627eeac760e11b81526000916001600160a01b0389169162fdd58e91611a27918a906004016127e5565b60206040518083038186803b158015611a3f57600080fd5b505afa158015611a53573d6000803e3d6000fd5b505050506040513d601f19601f82011682018060405250810190611a7791906126df565b9050611a838282612151565b979650505050505050565b6001600160a01b0383166000908152602081815260408083208584529091529020548110611ace5760405162461bcd60e51b81526004016102db90612bed565b611ad6612168565b6001600160a01b0384166000908152602081815260408083208684529091529020805483908110611b0357fe5b60009182526020918290206040805160808101825260049390930290910180546001600160a01b03168352600180820154848601526002808301805485516101009482161594909402600019011691909104601f8101879004870283018701855280835294959294938601939192909190830182828015611bc55780601f10611b9a57610100808354040283529160200191611bc5565b820191906000526020600020905b815481529060010190602001808311611ba857829003601f168201915b50505050508152602001600382015481525050905080600001516001600160a01b0316336001600160a01b031614611c0f5760405162461bcd60e51b81526004016102db90612a66565b600060208083018290526001600160a01b038616825281815260408083208684529091529020805482919084908110611c4457fe5b600091825260209182902083516004929092020180546001600160a01b0319166001600160a01b03909216919091178155828201516001820155604083015180519192611c9992600285019290910190612199565b50606082015181600301559050507f74ee16c30acdc0986deebeda1b36d871a7ebf1dc7e2fd327dc7628617c37726d84848433604051611cdc9493929190612978565b60405180910390a150505050565b6002546001600160a01b03163314611d145760405162461bcd60e51b81526004016102db90612af2565b6001600160a01b038116611d3a5760405162461bcd60e51b81526004016102db90612bb6565b6002546040516001600160a01b038084169216907f8be0079c531659141344cd1fd0a4f28419497f9722a3daafe3b4186f6b6457e090600090a3600280546001600160a01b0319166001600160a01b0392909216919091179055565b600082611da557506000611777565b5081810281838281611db357fe5b041461177757fe5b6000856001600160a01b031663e8f3359f6040518163ffffffff1660e01b815260040160206040518083038186803b158015611df657600080fd5b505afa158015611e0a573d6000803e3d6000fd5b505050506040513d601f19601f82011682018060405250810190611e2e91906126df565b90506000600454611e3f8484611d96565b81611e4657fe5b0490506000600454611e5c85856103e803611d96565b81611e6357fe5b6003546040516323b872dd60e01b81529290910492506001600160a01b0316906323b872dd90611e9b9033908990869060040161278b565b602060405180830381600087803b158015611eb557600080fd5b505af1158015611ec9573d6000803e3d6000fd5b505050506040513d601f19601f82011682018060405250810190611eed9190612467565b611f095760405162461bcd60e51b81526004016102db90612c54565b60405163e03650b960e01b815281906060906001600160a01b038b169063e03650b990611f3c908b908d90600401612d2c565b60006040518083038186803b158015611f5457600080fd5b505afa158015611f68573d6000803e3d6000fd5b505050506040513d6000823e601f3d908101601f19168201604052611f909190810190612396565b905060005b815181101561209a5760006103e8611fc487858581518110611fb357fe5b602002602001015160200151611d96565b81611fcb57fe5b60035485519290910492506001600160a01b0316906323b872dd903390869086908110611ff457fe5b602002602001015160000151846040518463ffffffff1660e01b815260040161201f9392919061278b565b602060405180830381600087803b15801561203957600080fd5b505af115801561204d573d6000803e3d6000fd5b505050506040513d601f19601f820116820180604052508101906120719190612467565b61208d5760405162461bcd60e51b81526004016102db90612c54565b9290920191600101611f95565b506003546005546040516323b872dd60e01b8152848903926001600160a01b03908116926323b872dd926120d69233921690869060040161278b565b602060405180830381600087803b1580156120f057600080fd5b505af1158015612104573d6000803e3d6000fd5b505050506040513d601f19601f820116820180604052508101906121289190612467565b6121445760405162461bcd60e51b81526004016102db90612c54565b5050505050505050505050565b600081831015612162575081611777565b50919050565b604051806080016040528060006001600160a01b031681526020016000815260200160608152602001600081525090565b828054600181600116156101000203166002900490600052602060002090601f0160209004810192826121cf5760008555612215565b82601f106121e857805160ff1916838001178555612215565b82800160010185558215612215579182015b828111156122155782518255916020019190600101906121fa565b50612221929150612225565b5090565b5b808211156122215760008155600101612226565b600082601f83011261224a578081fd5b813561225d61225882612d7d565b612d59565b818152915060208083019084810160005b8481101561229757612285888484358a0101612310565b8452928201929082019060010161226e565b505050505092915050565b600082601f8301126122b2578081fd5b81356122c061225882612d7d565b8181529150602080830190848101818402860182018710156122e157600080fd5b60005b84811015612297578135845292820192908201906001016122e4565b803561230b81612ded565b919050565b600082601f830112612320578081fd5b813561232e61225882612d9b565b915080825283602082850101111561234557600080fd5b8060208401602084013760009082016020015292915050565b60006020828403121561236f578081fd5b813561048681612ded565b60006020828403121561238b578081fd5b815161048681612ded565b600060208083850312156123a8578182fd5b825167ffffffffffffffff808211156123bf578384fd5b818501915085601f8301126123d2578384fd5b81516123e061225882612d7d565b818152848101908486016040808502870188018b10156123fe578889fd5b8896505b848710156124585780828c031215612418578889fd5b8051818101818110888211171561242b57fe5b8252825161243881612ded565b815282890151898201528452600196909601959287019290810190612402565b50909998505050505050505050565b600060208284031215612478578081fd5b81518015158114610486578182fd5b60008060008060008060c0878903121561249f578182fd5b6124a887612300565b9550602087013567ffffffffffffffff808211156124c4578384fd5b6124d08a838b016122a2565b965060408901359150808211156124e5578384fd5b6124f18a838b0161223a565b95506060890135915080821115612506578384fd5b6125128a838b016122a2565b94506080890135915080821115612527578384fd5b5061253489828a016122a2565b92505060a087013590509295509295509295565b6000806040838503121561255a578182fd5b823561256581612ded565b946020939093013593505050565b60008060008060008060c0878903121561258b578182fd5b863561259681612ded565b955060208701359450604087013567ffffffffffffffff8111156125b8578283fd5b6125c489828a01612310565b945050606087013592506080870135915060a087013590509295509295509295565b6000806000606084860312156125fa578081fd5b833561260581612ded565b95602085013595506040909401359392505050565b6000806000806080858703121561262f578182fd5b843561263a81612ded565b966020860135965060408601359560600135945092505050565b600060208284031215612665578081fd5b815167ffffffffffffffff81111561267b578182fd5b8201601f8101841361268b578182fd5b805161269961225882612d9b565b8181528560208385010111156126ad578384fd5b6126be826020830160208601612dbd565b95945050505050565b6000602082840312156126d8578081fd5b5035919050565b6000602082840312156126f0578081fd5b5051919050565b6000815180845260208085019450808401835b838110156127265781518752958201959082019060010161270a565b509495945050505050565b60008151808452612749816020860160208601612dbd565b601f01601f19169290920160200192915050565b6001600160a01b0391909116815260200190565b6001600160a01b0392831681529116602082015260400190565b6001600160a01b039384168152919092166020820152604081019190915260600190565b6001600160a01b03968716815294909516602085015260408401929092526060830152608082015260a081019190915260c00190565b6001600160a01b03929092168252602082015260400190565b6001600160a01b03868116825285166020820152604081018490526060810183905260a060808201819052600090611a8390830184612731565b6001600160a01b039485168152928416602084015292166040820152606081019190915260800190565b600060018060a01b0386168252846020830152608060408301526128896080830185612731565b905082606083015295945050505050565b6000608082526128ad60808301876126f7565b6020838203818501526128c082886126f7565b848103604086015286518082529092508183019082810284018301838901865b8381101561290e57601f198784030185526128fc838351612731565b948601949250908501906001016128e0565b5050809550505050505082606083015295945050505050565b600060018060a01b03808a16835288602084015280881660408401525085606083015284608083015260e060a083015261296460e0830185612731565b90508260c083015298975050505050505050565b6001600160a01b03948516815260208101939093526040830191909152909116606082015260800190565b6001600160a01b0396871681526020810195909552604085019390935293166060830152608082019290925260a081019190915260c00190565b6001600160a01b039586168152602081019490945260408401929092526060830152909116608082015260a00190565b60208082526011908201527013d999995c9251081b9bdd081d985b1a59607a1b604082015260600190565b6020808252601490820152734e6f207265656e7472616e637920706c6561736560601b604082015260600190565b6020808252600e908201526d3737ba103cb7bab91037b33332b960911b604082015260600190565b6020808252601a908201527f6e6f7420656e6f756768206974656d7320617661696c61626c65000000000000604082015260600190565b602080825260139082015272556e61626c6520746f206f66666572206e657760681b604082015260600190565b6020808252600c908201526b1d5b985d5d1a1bdc9a5cd95960a21b604082015260600190565b60208082526017908201527f546f6b656e20494420616c7265616479206d696e746564000000000000000000604082015260600190565b60208082526021908201527f6e6f7420656e6f756768206974656d73206f776e6564206279206f66666572656040820152603960f91b606082015260800190565b6020808252600c908201526b155b985d5d1a1bdc9a5cd95960a21b604082015260600190565b6020808252601a908201527f446f206e6f742073657420746f2061646472657373207a65726f000000000000604082015260600190565b60208082526016908201527534b73b30b634b21037b33332b9103837b9b4ba34b7b760511b604082015260600190565b60208082526017908201527f44697669736f72206d757374206265203e3d2031303030000000000000000000604082015260600190565b60208082526015908201527463616e6e6f74207472616e736665722066756e647360581b604082015260600190565b60208082526037908201527f596f752068617665206e6f7420617070726f766564207468697320636f6e747260408201527f61637420746f2073656c6c20796f757220746f6b656e73000000000000000000606082015260800190565b60208082526023908201527f596f7520646f206e6f74206f776e20656e6f756768206f66207468697320746f60408201526235b2b760e91b606082015260800190565b90815260200190565b918252602082015260400190565b6000858252846020830152608060408301526128896080830185612731565b60405181810167ffffffffffffffff81118282101715612d7557fe5b604052919050565b600067ffffffffffffffff821115612d9157fe5b5060209081020190565b600067ffffffffffffffff821115612daf57fe5b50601f01601f191660200190565b60005b83811015612dd8578181015183820152602001612dc0565b83811115612de7576000848401525b50505050565b6001600160a01b0381168114612e0257600080fd5b5056fea264697066735822122083c3e8d6865f4bf7caa3775b57038b4d01965756250342c170e17cf248beff3f64736f6c63430007050033",
  "linkReferences": {},
  "deployedLinkReferences": {}
}