{
  "_format": "hh-sol-artifact-1",
  "contractName": "pMintyMultiSale",
  "sourceName": "contracts/sale2M/pMintyMultiSale.sol",
  "abi": [
    {
      "inputs": [
        {
          "internalType": "address",
          "name": "wallet",
          "type": "address"
        },
        {
          "internalType": "contract IERC20",
          "name": "_weth",
          "type": "address"
        },
        {
          "internalType": "uint256",
          "name": "_divisor",
          "type": "uint256"
        }
      ],
      "stateMutability": "nonpayable",
      "type": "constructor"
    },
    {
      "anonymous": false,
      "inputs": [
        {
          "indexed": false,
          "internalType": "address",
          "name": "bidder",
          "type": "address"
        },
        {
          "indexed": false,
          "internalType": "contract IMintyMultiToken",
          "name": "token",
          "type": "address"
        },
        {
          "indexed": false,
          "internalType": "uint256",
          "name": "tokenId",
          "type": "uint256"
        },
        {
          "indexed": false,
          "internalType": "uint256",
          "name": "previous_bid",
          "type": "uint256"
        },
        {
          "indexed": false,
          "internalType": "uint256",
          "name": "this_bid",
          "type": "uint256"
        }
      ],
      "name": "BidIncreased",
      "type": "event"
    },
    {
      "anonymous": false,
      "inputs": [
        {
          "indexed": false,
          "internalType": "address",
          "name": "bidder",
          "type": "address"
        },
        {
          "indexed": false,
          "internalType": "contract IMintyMultiToken",
          "name": "token",
          "type": "address"
        },
        {
          "indexed": false,
          "internalType": "uint256",
          "name": "tokenId",
          "type": "uint256"
        },
        {
          "indexed": false,
          "internalType": "uint256",
          "name": "bid",
          "type": "uint256"
        }
      ],
      "name": "BidReceived",
      "type": "event"
    },
    {
      "anonymous": false,
      "inputs": [
        {
          "indexed": false,
          "internalType": "contract IMintyMultiToken",
          "name": "token",
          "type": "address"
        },
        {
          "indexed": false,
          "internalType": "uint256",
          "name": "tokenId",
          "type": "uint256"
        }
      ],
      "name": "BidWithdrawn",
      "type": "event"
    },
    {
      "anonymous": false,
      "inputs": [
        {
          "indexed": false,
          "internalType": "uint256",
          "name": "divisor",
          "type": "uint256"
        }
      ],
      "name": "FeeUpdated",
      "type": "event"
    },
    {
      "anonymous": false,
      "inputs": [
        {
          "indexed": false,
          "internalType": "contract IMintyMultiToken",
          "name": "token",
          "type": "address"
        },
        {
          "indexed": false,
          "internalType": "uint256",
          "name": "tokenId",
          "type": "uint256"
        },
        {
          "indexed": false,
          "internalType": "address",
          "name": "owner",
          "type": "address"
        },
        {
          "indexed": false,
          "internalType": "uint256",
          "name": "quantity",
          "type": "uint256"
        },
        {
          "indexed": false,
          "internalType": "uint256",
          "name": "price",
          "type": "uint256"
        },
        {
          "indexed": false,
          "internalType": "string",
          "name": "hash",
          "type": "string"
        }
      ],
      "name": "NewOffer",
      "type": "event"
    },
    {
      "anonymous": false,
      "inputs": [
        {
          "indexed": false,
          "internalType": "address",
          "name": "buyer",
          "type": "address"
        },
        {
          "indexed": false,
          "internalType": "contract IMintyMultiToken",
          "name": "token",
          "type": "address"
        },
        {
          "indexed": false,
          "internalType": "uint256",
          "name": "tokenId",
          "type": "uint256"
        },
        {
          "indexed": false,
          "internalType": "uint256",
          "name": "pos",
          "type": "uint256"
        },
        {
          "indexed": false,
          "internalType": "uint256",
          "name": "quantity",
          "type": "uint256"
        },
        {
          "indexed": false,
          "internalType": "uint256",
          "name": "price",
          "type": "uint256"
        }
      ],
      "name": "OfferAccepted",
      "type": "event"
    },
    {
      "anonymous": false,
      "inputs": [
        {
          "indexed": false,
          "internalType": "contract IMintyMultiToken",
          "name": "token",
          "type": "address"
        },
        {
          "indexed": false,
          "internalType": "uint256",
          "name": "tokenId",
          "type": "uint256"
        }
      ],
      "name": "OfferWithdrawn",
      "type": "event"
    },
    {
      "anonymous": false,
      "inputs": [
        {
          "indexed": false,
          "internalType": "address",
          "name": "wallet",
          "type": "address"
        },
        {
          "indexed": false,
          "internalType": "address",
          "name": "creator",
          "type": "address"
        },
        {
          "indexed": false,
          "internalType": "address",
          "name": "_owner",
          "type": "address"
        },
        {
          "indexed": false,
          "internalType": "uint256",
          "name": "amount",
          "type": "uint256"
        }
      ],
      "name": "Payment",
      "type": "event"
    },
    {
      "anonymous": false,
      "inputs": [
        {
          "indexed": false,
          "internalType": "contract IMintyMultiToken",
          "name": "token",
          "type": "address"
        },
        {
          "indexed": false,
          "internalType": "uint256",
          "name": "tokenId",
          "type": "uint256"
        },
        {
          "indexed": false,
          "internalType": "uint256",
          "name": "quantity",
          "type": "uint256"
        },
        {
          "indexed": false,
          "internalType": "address",
          "name": "owner",
          "type": "address"
        },
        {
          "indexed": false,
          "internalType": "uint256",
          "name": "price",
          "type": "uint256"
        },
        {
          "indexed": false,
          "internalType": "uint256",
          "name": "position",
          "type": "uint256"
        }
      ],
      "name": "ResaleOffer",
      "type": "event"
    },
    {
      "anonymous": false,
      "inputs": [
        {
          "indexed": false,
          "internalType": "contract IMintyMultiToken",
          "name": "token",
          "type": "address"
        },
        {
          "indexed": false,
          "internalType": "uint256",
          "name": "tokenId",
          "type": "uint256"
        },
        {
          "indexed": false,
          "internalType": "uint256",
          "name": "pos",
          "type": "uint256"
        },
        {
          "indexed": false,
          "internalType": "uint256",
          "name": "price",
          "type": "uint256"
        },
        {
          "indexed": false,
          "internalType": "address",
          "name": "owner",
          "type": "address"
        }
      ],
      "name": "SaleRepriced",
      "type": "event"
    },
    {
      "anonymous": false,
      "inputs": [
        {
          "indexed": false,
          "internalType": "contract IMintyMultiToken",
          "name": "token",
          "type": "address"
        },
        {
          "indexed": false,
          "internalType": "uint256",
          "name": "tokenId",
          "type": "uint256"
        },
        {
          "indexed": false,
          "internalType": "uint256",
          "name": "pos",
          "type": "uint256"
        },
        {
          "indexed": false,
          "internalType": "address",
          "name": "owner",
          "type": "address"
        }
      ],
      "name": "SaleRetracted",
      "type": "event"
    },
    {
      "inputs": [
        {
          "internalType": "contract IMintyMultiToken",
          "name": "token",
          "type": "address"
        },
        {
          "internalType": "uint256",
          "name": "tokenId",
          "type": "uint256"
        },
        {
          "internalType": "uint256",
          "name": "pos",
          "type": "uint256"
        },
        {
          "internalType": "uint256",
          "name": "quantity",
          "type": "uint256"
        }
      ],
      "name": "acceptOffer",
      "outputs": [],
      "stateMutability": "nonpayable",
      "type": "function"
    },
    {
      "inputs": [
        {
          "internalType": "contract IMintyMultiToken",
          "name": "token",
          "type": "address"
        },
        {
          "internalType": "uint256",
          "name": "tokenId",
          "type": "uint256"
        },
        {
          "internalType": "uint256",
          "name": "offerId",
          "type": "uint256"
        }
      ],
      "name": "available",
      "outputs": [
        {
          "internalType": "uint256",
          "name": "",
          "type": "uint256"
        }
      ],
      "stateMutability": "view",
      "type": "function"
    },
    {
      "inputs": [],
      "name": "divisor",
      "outputs": [
        {
          "internalType": "uint256",
          "name": "",
          "type": "uint256"
        }
      ],
      "stateMutability": "view",
      "type": "function"
    },
    {
      "inputs": [
        {
          "internalType": "contract IMintyMultiToken",
          "name": "",
          "type": "address"
        },
        {
          "internalType": "uint256",
          "name": "",
          "type": "uint256"
        },
        {
          "internalType": "uint256",
          "name": "",
          "type": "uint256"
        }
      ],
      "name": "items",
      "outputs": [
        {
          "internalType": "address",
          "name": "creator",
          "type": "address"
        },
        {
          "internalType": "uint256",
          "name": "quantity",
          "type": "uint256"
        },
        {
          "internalType": "string",
          "name": "itemHash",
          "type": "string"
        },
        {
          "internalType": "uint256",
          "name": "unitPrice",
          "type": "uint256"
        }
      ],
      "stateMutability": "view",
      "type": "function"
    },
    {
      "inputs": [],
      "name": "minty",
      "outputs": [
        {
          "internalType": "address",
          "name": "",
          "type": "address"
        }
      ],
      "stateMutability": "view",
      "type": "function"
    },
    {
      "inputs": [
        {
          "internalType": "contract IMintyMultiToken",
          "name": "",
          "type": "address"
        }
      ],
      "name": "multiTokenOwners",
      "outputs": [
        {
          "internalType": "address",
          "name": "",
          "type": "address"
        }
      ],
      "stateMutability": "view",
      "type": "function"
    },
    {
      "inputs": [
        {
          "internalType": "contract IMintyMultiToken",
          "name": "token",
          "type": "address"
        },
        {
          "internalType": "uint256",
          "name": "tokenId",
          "type": "uint256"
        }
      ],
      "name": "numberOfOffers",
      "outputs": [
        {
          "internalType": "uint256",
          "name": "",
          "type": "uint256"
        }
      ],
      "stateMutability": "view",
      "type": "function"
    },
    {
      "inputs": [
        {
          "internalType": "contract IMintyMultiToken",
          "name": "token",
          "type": "address"
        },
        {
          "internalType": "uint256",
          "name": "tokenId",
          "type": "uint256"
        },
        {
          "internalType": "string",
          "name": "ipfsString",
          "type": "string"
        },
        {
          "internalType": "uint256",
          "name": "quantity",
          "type": "uint256"
        },
        {
          "internalType": "uint256",
          "name": "price",
          "type": "uint256"
        }
      ],
      "name": "offerNew",
      "outputs": [],
      "stateMutability": "nonpayable",
      "type": "function"
    },
    {
      "inputs": [
        {
          "internalType": "contract IMintyMultiToken",
          "name": "token",
          "type": "address"
        },
        {
          "internalType": "uint256[]",
          "name": "tokenIds",
          "type": "uint256[]"
        },
        {
          "internalType": "string[]",
          "name": "ipfsStrings",
          "type": "string[]"
        },
        {
          "internalType": "uint256[]",
          "name": "quantities",
          "type": "uint256[]"
        },
        {
          "internalType": "uint256[]",
          "name": "prices",
          "type": "uint256[]"
        }
      ],
      "name": "offerNewBatch",
      "outputs": [],
      "stateMutability": "nonpayable",
      "type": "function"
    },
    {
      "inputs": [
        {
          "internalType": "contract IMintyMultiToken",
          "name": "token",
          "type": "address"
        },
        {
          "internalType": "uint256",
          "name": "tokenId",
          "type": "uint256"
        },
        {
          "internalType": "uint256",
          "name": "quantity",
          "type": "uint256"
        },
        {
          "internalType": "uint256",
          "name": "price",
          "type": "uint256"
        }
      ],
      "name": "offerResale",
      "outputs": [],
      "stateMutability": "nonpayable",
      "type": "function"
    },
    {
      "inputs": [],
      "name": "owner",
      "outputs": [
        {
          "internalType": "address",
          "name": "",
          "type": "address"
        }
      ],
      "stateMutability": "view",
      "type": "function"
    },
    {
      "inputs": [
        {
          "internalType": "contract IMintyMultiToken",
          "name": "token",
          "type": "address"
        },
        {
          "internalType": "uint256",
          "name": "tokenId",
          "type": "uint256"
        },
        {
          "internalType": "uint256",
          "name": "offerId",
          "type": "uint256"
        }
      ],
      "name": "price",
      "outputs": [
        {
          "internalType": "uint256",
          "name": "",
          "type": "uint256"
        }
      ],
      "stateMutability": "view",
      "type": "function"
    },
    {
      "inputs": [
        {
          "internalType": "contract IMintyMultiToken",
          "name": "token",
          "type": "address"
        },
        {
          "internalType": "uint256",
          "name": "tokenId",
          "type": "uint256"
        },
        {
          "internalType": "uint256",
          "name": "pos",
          "type": "uint256"
        },
        {
          "internalType": "uint256",
          "name": "price",
          "type": "uint256"
        }
      ],
      "name": "reSubmitOffer",
      "outputs": [],
      "stateMutability": "nonpayable",
      "type": "function"
    },
    {
      "inputs": [
        {
          "internalType": "contract IMintyMultiToken",
          "name": "token",
          "type": "address"
        },
        {
          "internalType": "uint256",
          "name": "tokenId",
          "type": "uint256"
        },
        {
          "internalType": "uint256",
          "name": "pos",
          "type": "uint256"
        }
      ],
      "name": "retractRemainingOffer",
      "outputs": [],
      "stateMutability": "nonpayable",
      "type": "function"
    },
    {
      "inputs": [
        {
          "internalType": "uint256",
          "name": "_divisor",
          "type": "uint256"
        }
      ],
      "name": "updateShares",
      "outputs": [],
      "stateMutability": "nonpayable",
      "type": "function"
    },
    {
      "inputs": [],
      "name": "weth",
      "outputs": [
        {
          "internalType": "contract IERC20",
          "name": "",
          "type": "address"
        }
      ],
      "stateMutability": "view",
      "type": "function"
    }
  ],
  "bytecode": "0x6080604052600280546001600160a01b031916331790553480156200002357600080fd5b5060405162002f9338038062002f938339810160408190526200004691620000ec565b6103e8811015620000745760405162461bcd60e51b81526004016200006b9062000133565b60405180910390fd5b600580546001600160a01b038086166001600160a01b031992831617909255600380549285169290911691909117905560048190556040517f8c4d35e54a3f2ef1134138fd8ea3daee6a3c89e10d2665996babdf70261e2c7690620000db9083906200016a565b60405180910390a15050506200018c565b60008060006060848603121562000101578283fd5b83516200010e8162000173565b6020850151909350620001218162000173565b80925050604084015190509250925092565b60208082526017908201527f44697669736f72206d757374206265203e3d2031303030000000000000000000604082015260600190565b90815260200190565b6001600160a01b03811681146200018957600080fd5b50565b612df7806200019c6000396000f3fe608060405234801561001057600080fd5b50600436106101005760003560e01c80637d5c721711610097578063c319b7ba11610066578063c319b7ba146101fd578063cbfcab1d14610210578063eac54d9814610218578063ecf13ef41461022b57610100565b80637d5c7217146101bc5780638da5cb5b146101cf578063a3f7a5f8146101d7578063b6608467146101ea57610100565b80633fc8cef3116100d35780633fc8cef31461016b5780634e900c02146101735780636d873c5d146101865780636dd043d7146101a957610100565b80631f2dc5ef146101055780632e2ce2471461012357806335b4511a146101385780633a06daa214610158575b600080fd5b61010d61023e565b60405161011a9190612ced565b60405180910390f35b610136610131366004612458565b610244565b005b61014b61014636600461243c565b6106c2565b60405161011a919061276f565b61010d6101663660046125f8565b6106dd565b61014b6108c6565b61013661018136600461262c565b6108d5565b6101996101943660046125f8565b610b36565b60405161011a9493929190612874565b6101366101b736600461262c565b610c24565b6101366101ca36600461262c565b61105f565b61014b6112fd565b61010d6101e5366004612564565b61130c565b6101366101f83660046126d9565b611335565b61013661020b36600461258f565b6113c1565b61014b611707565b61010d6102263660046125f8565b611716565b6101366102393660046125f8565b61198c565b60045481565b60405163e985e9c560e01b81526001600160a01b0386169063e985e9c5906102729033903090600401612783565b60206040518083038186803b15801561028a57600080fd5b505afa15801561029e573d6000803e3d6000fd5b505050506040513d601f19601f820116820180604052508101906102c2919061241c565b6102e75760405162461bcd60e51b81526004016102de90612c4d565b60405180910390fd5b336001600160a01b0316856001600160a01b0316638da5cb5b6040518163ffffffff1660e01b815260040160206040518083038186803b15801561032a57600080fd5b505afa15801561033e573d6000803e3d6000fd5b505050506040513d601f19601f82011682018060405250810190610362919061232f565b6001600160a01b0316146103885760405162461bcd60e51b81526004016102de90612b91565b60005b845181101561065857856001600160a01b0316637dc0bf3f8683815181106103af57fe5b60200260200101516040518263ffffffff1660e01b81526004016103d39190612ced565b60206040518083038186803b1580156103eb57600080fd5b505afa1580156103ff573d6000803e3d6000fd5b505050506040513d601f19601f82011682018060405250810190610423919061241c565b156104405760405162461bcd60e51b81526004016102de90612b19565b600080876001600160a01b03166001600160a01b03168152602001908152602001600020600086838151811061047257fe5b60200260200101518152602001908152602001600020805490506000146104ab5760405162461bcd60e51b81526004016102de90612ac6565b600080876001600160a01b03166001600160a01b0316815260200190815260200160002060008683815181106104dd57fe5b602002602001015181526020019081526020016000206040518060800160405280336001600160a01b0316815260200185848151811061051957fe5b6020026020010151815260200186848151811061053257fe5b6020026020010151815260200184848151811061054b57fe5b602090810291909101810151909152825460018082018555600094855293829020835160049092020180546001600160a01b0319166001600160a01b039092169190911781558282015193810193909355604082015180519293926105b692600285019201906121a1565b506060820151816003015550507f10575dae8255319b2807b08ada1038743fd34f2a06f1fba49e9407e7aa91f8f6868683815181106105f157fe5b60200260200101513386858151811061060657fe5b602002602001015186868151811061061a57fe5b602002602001015189878151811061062e57fe5b602002602001015160405161064896959493929190612930565b60405180910390a160010161038b565b50604051633146edb760e21b81526001600160a01b0386169063c51bb6dc90610689908790869088906004016128ac565b600060405180830381600087803b1580156106a357600080fd5b505af11580156106b7573d6000803e3d6000fd5b505050505050505050565b6001602052600090815260409020546001600160a01b031681565b6001600160a01b038316600090815260208181526040808320858452909152812054821061071d5760405162461bcd60e51b81526004016102de90612a0e565b61072561222d565b6001600160a01b038516600090815260208181526040808320878452909152902080548490811061075257fe5b60009182526020918290206040805160808101825260049390930290910180546001600160a01b03168352600180820154848601526002808301805485516101009482161594909402600019011691909104601f81018790048702830187018552808352949592949386019391929091908301828280156108145780601f106107e957610100808354040283529160200191610814565b820191906000526020600020905b8154815290600101906020018083116107f757829003601f168201915b505050918352505060039190910154602090910152805160405163e985e9c560e01b81529192506001600160a01b0387169163e985e9c59161085a913090600401612783565b60206040518083038186803b15801561087257600080fd5b505afa158015610886573d6000803e3d6000fd5b505050506040513d601f19601f820116820180604052508101906108aa919061241c565b6108b85760009150506108bf565b6060015190505b9392505050565b6003546001600160a01b031681565b6001600160a01b03841660009081526020818152604080832086845290915290205482106109155760405162461bcd60e51b81526004016102de90612bb7565b61091d61222d565b6001600160a01b038516600090815260208181526040808320878452909152902080548490811061094a57fe5b60009182526020918290206040805160808101825260049390930290910180546001600160a01b03168352600180820154848601526002808301805485516101009482161594909402600019011691909104601f8101879004870283018701855280835294959294938601939192909190830182828015610a0c5780601f106109e157610100808354040283529160200191610a0c565b820191906000526020600020905b8154815290600101906020018083116109ef57829003601f168201915b50505050508152602001600382015481525050905080600001516001600160a01b0316336001600160a01b031614610a565760405162461bcd60e51b81526004016102de90612a67565b606081018290526001600160a01b0385166000908152602081815260408083208784529091529020805482919085908110610a8d57fe5b600091825260209182902083516004929092020180546001600160a01b0319166001600160a01b03909216919091178155828201516001820155604083015180519192610ae2926002850192909101906121a1565b50606082015181600301559050507f0365ed613ce46864c2596157898bfc904a905c87c70c265de1473f51eedb1b778585858533604051610b279594939291906129de565b60405180910390a15050505050565b60006020528260005260406000206020528160005260406000208181548110610b5e57600080fd5b6000918252602091829020600491909102018054600180830154600280850180546040805161010096831615969096026000190190911692909204601f81018890048802850188019092528184526001600160a01b03909416985090965092945092909190830182828015610c145780601f10610be957610100808354040283529160200191610c14565b820191906000526020600020905b815481529060010190602001808311610bf757829003601f168201915b5050505050908060030154905084565b600354600160a01b900460ff1615610c4e5760405162461bcd60e51b81526004016102de90612a39565b81610cb257604051635773bd0760e01b81526001600160a01b03851690635773bd0790610c7f90339060040161276f565b600060405180830381600087803b158015610c9957600080fd5b505af1158015610cad573d6000803e3d6000fd5b505050505b6003805460ff60a01b1916600160a01b1790556060610ccf61222d565b6001600160a01b0386166000908152602081815260408083208884529091529020805485908110610cfc57fe5b60009182526020918290206040805160808101825260049390930290910180546001600160a01b03168352600180820154848601526002808301805485516101009482161594909402600019011691909104601f8101879004870283018701855280835294959294938601939192909190830182828015610dbe5780601f10610d9357610100808354040283529160200191610dbe565b820191906000526020600020905b815481529060010190602001808311610da157829003601f168201915b5050505050815260200160038201548152505090506000816000015190508382602001511015610e005760405162461bcd60e51b81526004016102de90612a8f565b6000610e10836060015186611be8565b905084886001600160a01b031662fdd58e848a6040518363ffffffff1660e01b8152600401610e409291906127f7565b60206040518083038186803b158015610e5857600080fd5b505afa158015610e6c573d6000803e3d6000fd5b505050506040513d601f19601f82011682018060405250810190610e9091906126f1565b1015610eae5760405162461bcd60e51b81526004016102de90612b50565b604051637921219560e11b81526001600160a01b0389169063f242432a90610ee290859033908c908b908b90600401612810565b600060405180830381600087803b158015610efc57600080fd5b505af1158015610f10573d6000803e3d6000fd5b5050506020808501805188900390526001600160a01b038a16600090815280825260408082208b835290925220805485925088908110610f4c57fe5b600091825260209182902083516004929092020180546001600160a01b0319166001600160a01b03909216919091178155828201516001820155604083015180519192610fa1926002850192909101906121a1565b506060919091015160039091015560055483516040517f0913aa4718e76655dbdbde41862a88aba8459d8721849484c97f53af3b5028e692610ff2926001600160a01b03909116918690869061284a565b60405180910390a161100688878484611c0d565b6003805460ff60a01b191690556040517faf47c9ab14ff5ce679b4cb416be29684283e7b30fcfe405bfdebcc135f4b1e6f9061104d9033908b908b908b908b9088906127c1565b60405180910390a15050505050505050565b604051627eeac760e11b81526001600160a01b0385169062fdd58e9061108b90339087906004016127f7565b60206040518083038186803b1580156110a357600080fd5b505afa1580156110b7573d6000803e3d6000fd5b505050506040513d601f19601f820116820180604052508101906110db91906126f1565b82111580156110ea5750600082115b6111065760405162461bcd60e51b81526004016102de90612caa565b60405163e985e9c560e01b81526001600160a01b0385169063e985e9c5906111349033903090600401612783565b60206040518083038186803b15801561114c57600080fd5b505afa158015611160573d6000803e3d6000fd5b505050506040513d601f19601f82011682018060405250810190611184919061241c565b6111a05760405162461bcd60e51b81526004016102de90612c4d565b6001600160a01b0384166000818152602081815260408083208784528252918290208054835160808101855233815292830187905283516303a24d0760e21b81529094919383019190630e89341c906111fd908a90600401612ced565b60006040518083038186803b15801561121557600080fd5b505afa158015611229573d6000803e3d6000fd5b505050506040513d6000823e601f3d908101601f191682016040526112519190810190612666565b81526020908101859052825460018082018555600094855293829020835160049092020180546001600160a01b0319166001600160a01b039092169190911781558282015193810193909355604082015180519293926112b792600285019201906121a1565b506060820151816003015550507f0df75d277ebbb180db8152f8c392e8bf6ba2720b35f9f98456eca3557b91182e858585338686604051610b27969594939291906129a4565b6002546001600160a01b031681565b6001600160a01b0382166000908152602081815260408083208484529091529020545b92915050565b6002546001600160a01b0316331461135f5760405162461bcd60e51b81526004016102de90612af3565b6103e88110156113815760405162461bcd60e51b81526004016102de90612be7565b60048190556040517f8c4d35e54a3f2ef1134138fd8ea3daee6a3c89e10d2665996babdf70261e2c76906113b6908390612ced565b60405180910390a150565b60405163e985e9c560e01b81526001600160a01b0386169063e985e9c5906113ef9033903090600401612783565b60206040518083038186803b15801561140757600080fd5b505afa15801561141b573d6000803e3d6000fd5b505050506040513d601f19601f8201168201806040525081019061143f919061241c565b61145b5760405162461bcd60e51b81526004016102de90612c4d565b604051637dc0bf3f60e01b81526001600160a01b03861690637dc0bf3f90611487908790600401612ced565b60206040518083038186803b15801561149f57600080fd5b505afa1580156114b3573d6000803e3d6000fd5b505050506040513d601f19601f820116820180604052508101906114d7919061241c565b156114f45760405162461bcd60e51b81526004016102de90612b19565b336001600160a01b0316856001600160a01b0316638da5cb5b6040518163ffffffff1660e01b815260040160206040518083038186803b15801561153757600080fd5b505afa15801561154b573d6000803e3d6000fd5b505050506040513d601f19601f8201168201806040525081019061156f919061232f565b6001600160a01b0316146115955760405162461bcd60e51b81526004016102de90612b91565b6001600160a01b038516600090815260208181526040808320878452909152902054156115d45760405162461bcd60e51b81526004016102de90612ac6565b60405163c6e64e5360e01b81526001600160a01b0386169063c6e64e539061160490879086908890600401612cf6565b600060405180830381600087803b15801561161e57600080fd5b505af1158015611632573d6000803e3d6000fd5b505050506001600160a01b03858116600090815260208181526040808320888452825280832081516080810183523381528084018881529281018981526060820188905282546001808201855593875295859020825160049097020180546001600160a01b03191696909716959095178655915190850155915180519293926116c192600285019201906121a1565b506060820151816003015550507f10575dae8255319b2807b08ada1038743fd34f2a06f1fba49e9407e7aa91f8f6858533858588604051610b2796959493929190612930565b6005546001600160a01b031681565b6001600160a01b03831660009081526020818152604080832085845290915281205482106117565760405162461bcd60e51b81526004016102de90612a0e565b61175e61222d565b6001600160a01b038516600090815260208181526040808320878452909152902080548490811061178b57fe5b60009182526020918290206040805160808101825260049390930290910180546001600160a01b03168352600180820154848601526002808301805485516101009482161594909402600019011691909104601f810187900487028301870185528083529495929493860193919290919083018282801561184d5780601f106118225761010080835404028352916020019161184d565b820191906000526020600020905b81548152906001019060200180831161183057829003601f168201915b505050918352505060039190910154602090910152805160405163e985e9c560e01b81529192506001600160a01b0387169163e985e9c591611893913090600401612783565b60206040518083038186803b1580156118ab57600080fd5b505afa1580156118bf573d6000803e3d6000fd5b505050506040513d601f19601f820116820180604052508101906118e3919061241c565b6118f15760009150506108bf565b60208101518151604051627eeac760e11b81526000916001600160a01b0389169162fdd58e91611925918a906004016127f7565b60206040518083038186803b15801561193d57600080fd5b505afa158015611951573d6000803e3d6000fd5b505050506040513d601f19601f8201168201806040525081019061197591906126f1565b9050611981828261205b565b979650505050505050565b6001600160a01b03831660009081526020818152604080832085845290915290205481106119cc5760405162461bcd60e51b81526004016102de90612bb7565b6119d461222d565b6001600160a01b0384166000908152602081815260408083208684529091529020805483908110611a0157fe5b60009182526020918290206040805160808101825260049390930290910180546001600160a01b03168352600180820154848601526002808301805485516101009482161594909402600019011691909104601f8101879004870283018701855280835294959294938601939192909190830182828015611ac35780601f10611a9857610100808354040283529160200191611ac3565b820191906000526020600020905b815481529060010190602001808311611aa657829003601f168201915b50505050508152602001600382015481525050905080600001516001600160a01b0316336001600160a01b031614611b0d5760405162461bcd60e51b81526004016102de90612a67565b600060208083018290526001600160a01b038616825281815260408083208684529091529020805482919084908110611b4257fe5b600091825260209182902083516004929092020180546001600160a01b0319166001600160a01b03909216919091178155828201516001820155604083015180519192611b97926002850192909101906121a1565b50606082015181600301559050507f74ee16c30acdc0986deebeda1b36d871a7ebf1dc7e2fd327dc7628617c37726d84848433604051611bda9493929190612979565b60405180910390a150505050565b600082611bf75750600061132f565b5081810281838281611c0557fe5b041461132f57fe5b6000846001600160a01b031663e8f3359f6040518163ffffffff1660e01b815260040160206040518083038186803b158015611c4857600080fd5b505afa158015611c5c573d6000803e3d6000fd5b505050506040513d601f19601f82011682018060405250810190611c8091906126f1565b90506000600454611c918484611be8565b81611c9857fe5b0490506000600454611cae85856103e803611be8565b81611cb557fe5b6003546040516323b872dd60e01b81529290910492506001600160a01b0316906323b872dd90611ced9033908990869060040161279d565b602060405180830381600087803b158015611d0757600080fd5b505af1158015611d1b573d6000803e3d6000fd5b505050506040513d601f19601f82011682018060405250810190611d3f919061241c565b611d5b5760405162461bcd60e51b81526004016102de90612c1e565b611d8460405180604001604052806007815260200166039b2b63632b9160cd1b81525082612072565b604080518082019091526009815268726f79616c7469657360b81b60208201528190611db09084612072565b604051635d9dd7eb60e11b81526060906001600160a01b038a169063bb3bafd690611ddf908b90600401612ced565b60006040518083038186803b158015611df757600080fd5b505afa158015611e0b573d6000803e3d6000fd5b505050506040513d6000823e601f3d908101601f19168201604052611e33919081019061234b565b905060005b8151811015611f775760006103e8611e6787858581518110611e5657fe5b602002602001015160200151611be8565b81611e6e57fe5b60035485519290910492506001600160a01b0316906323b872dd903390869086908110611e9757fe5b602002602001015160000151846040518463ffffffff1660e01b8152600401611ec29392919061279d565b602060405180830381600087803b158015611edc57600080fd5b505af1158015611ef0573d6000803e3d6000fd5b505050506040513d601f19601f82011682018060405250810190611f14919061241c565b611f305760405162461bcd60e51b81526004016102de90612c1e565b8084019350611f6e838381518110611f4457fe5b602002602001015160000151848481518110611f5c57fe5b60200260200101516020015183612124565b50600101611e38565b5060408051808201909152600b81526a036b4b73a3c9033b2ba39960ad1b602082015282870390611fa89082612072565b6003546005546040516323b872dd60e01b81526001600160a01b03928316926323b872dd92611fe192339290911690869060040161279d565b602060405180830381600087803b158015611ffb57600080fd5b505af115801561200f573d6000803e3d6000fd5b505050506040513d601f19601f82011682018060405250810190612033919061241c565b61204f5760405162461bcd60e51b81526004016102de90612c1e565b50505050505050505050565b60008183101561206c57508161132f565b50919050565b61212082826040516024018080602001838152602001828103825284818151815260200191508051906020019080838360005b838110156120bd5781810151838201526020016120a5565b50505050905090810190601f1680156120ea5780820380516001836020036101000a031916815260200191505b5060408051601f198184030181529190526020810180516001600160e01b03166309710a9d60e41b179052935061218092505050565b5050565b604080516001600160a01b03851660248201526044810184905260648082018490528251808303909101815260849091019091526020810180516001600160e01b03166343c309af60e11b17905261217b90612180565b505050565b80516a636f6e736f6c652e6c6f67602083016000808483855afa5050505050565b828054600181600116156101000203166002900490600052602060002090601f0160209004810192826121d7576000855561221d565b82601f106121f057805160ff191683800117855561221d565b8280016001018555821561221d579182015b8281111561221d578251825591602001919060010190612202565b5061222992915061225e565b5090565b604051806080016040528060006001600160a01b031681526020016000815260200160608152602001600081525090565b5b80821115612229576000815560010161225f565b600082601f830112612283578081fd5b813561229661229182612d39565b612d15565b8181529150602080830190848101818402860182018710156122b757600080fd5b60005b848110156122d6578135845292820192908201906001016122ba565b505050505092915050565b600082601f8301126122f1578081fd5b81356122ff61229182612d57565b915080825283602082850101111561231657600080fd5b8060208401602084013760009082016020015292915050565b600060208284031215612340578081fd5b81516108bf81612da9565b6000602080838503121561235d578182fd5b825167ffffffffffffffff80821115612374578384fd5b818501915085601f830112612387578384fd5b815161239561229182612d39565b818152848101908486016040808502870188018b10156123b3578889fd5b8896505b8487101561240d5780828c0312156123cd578889fd5b805181810181811088821117156123e057fe5b825282516123ed81612da9565b8152828901518982015284526001969096019592870192908101906123b7565b50909998505050505050505050565b60006020828403121561242d578081fd5b815180151581146108bf578182fd5b60006020828403121561244d578081fd5b81356108bf81612da9565b600080600080600060a0868803121561246f578081fd5b853561247a81612da9565b945060208681013567ffffffffffffffff80821115612497578384fd5b6124a38a838b01612273565b965060408901359150808211156124b8578384fd5b818901915089601f8301126124cb578384fd5b81356124d961229182612d39565b81815284810190848601875b8481101561250e576124fc8f8984358a01016122e1565b845292870192908701906001016124e5565b509098505050506060890135925080831115612528578384fd5b6125348a848b01612273565b94506080890135925080831115612549578384fd5b505061255788828901612273565b9150509295509295909350565b60008060408385031215612576578182fd5b823561258181612da9565b946020939093013593505050565b600080600080600060a086880312156125a6578081fd5b85356125b181612da9565b945060208601359350604086013567ffffffffffffffff8111156125d3578182fd5b6125df888289016122e1565b9598949750949560608101359550608001359392505050565b60008060006060848603121561260c578283fd5b833561261781612da9565b95602085013595506040909401359392505050565b60008060008060808587031215612641578081fd5b843561264c81612da9565b966020860135965060408601359560600135945092505050565b600060208284031215612677578081fd5b815167ffffffffffffffff81111561268d578182fd5b8201601f8101841361269d578182fd5b80516126ab61229182612d57565b8181528560208385010111156126bf578384fd5b6126d0826020830160208601612d79565b95945050505050565b6000602082840312156126ea578081fd5b5035919050565b600060208284031215612702578081fd5b5051919050565b6000815180845260208085019450808401835b838110156127385781518752958201959082019060010161271c565b509495945050505050565b6000815180845261275b816020860160208601612d79565b601f01601f19169290920160200192915050565b6001600160a01b0391909116815260200190565b6001600160a01b0392831681529116602082015260400190565b6001600160a01b039384168152919092166020820152604081019190915260600190565b6001600160a01b03968716815294909516602085015260408401929092526060830152608082015260a081019190915260c00190565b6001600160a01b03929092168252602082015260400190565b6001600160a01b03868116825285166020820152604081018490526060810183905260a06080820181905260009061198190830184612743565b6001600160a01b039485168152928416602084015292166040820152606081019190915260800190565b600060018060a01b03861682528460208301526080604083015261289b6080830185612743565b905082606083015295945050505050565b6000606082526128bf6060830186612709565b6020838203818501526128d28287612709565b848103604086015285518082529092508183019082810284018301838801865b8381101561292057601f1987840301855261290e838351612743565b948601949250908501906001016128f2565b50909a9950505050505050505050565b600060018060a01b03808916835287602084015280871660408401525084606083015283608083015260c060a083015261296d60c0830184612743565b98975050505050505050565b6001600160a01b03948516815260208101939093526040830191909152909116606082015260800190565b6001600160a01b0396871681526020810195909552604085019390935293166060830152608082019290925260a081019190915260c00190565b6001600160a01b039586168152602081019490945260408401929092526060830152909116608082015260a00190565b60208082526011908201527013d999995c9251081b9bdd081d985b1a59607a1b604082015260600190565b6020808252601490820152734e6f207265656e7472616e637920706c6561736560601b604082015260600190565b6020808252600e908201526d3737ba103cb7bab91037b33332b960911b604082015260600190565b6020808252601a908201527f6e6f7420656e6f756768206974656d7320617661696c61626c65000000000000604082015260600190565b602080825260139082015272556e61626c6520746f206f66666572206e657760681b604082015260600190565b6020808252600c908201526b1d5b985d5d1a1bdc9a5cd95960a21b604082015260600190565b60208082526017908201527f546f6b656e20494420616c7265616479206d696e746564000000000000000000604082015260600190565b60208082526021908201527f6e6f7420656e6f756768206974656d73206f776e6564206279206f66666572656040820152603960f91b606082015260800190565b6020808252600c908201526b155b985d5d1a1bdc9a5cd95960a21b604082015260600190565b60208082526016908201527534b73b30b634b21037b33332b9103837b9b4ba34b7b760511b604082015260600190565b60208082526017908201527f44697669736f72206d757374206265203e3d2031303030000000000000000000604082015260600190565b60208082526015908201527463616e6e6f74207472616e736665722066756e647360581b604082015260600190565b60208082526037908201527f596f752068617665206e6f7420617070726f766564207468697320636f6e747260408201527f61637420746f2073656c6c20796f757220746f6b656e73000000000000000000606082015260800190565b60208082526023908201527f596f7520646f206e6f74206f776e20656e6f756768206f66207468697320746f60408201526235b2b760e91b606082015260800190565b90815260200190565b6000848252836020830152606060408301526126d06060830184612743565b60405181810167ffffffffffffffff81118282101715612d3157fe5b604052919050565b600067ffffffffffffffff821115612d4d57fe5b5060209081020190565b600067ffffffffffffffff821115612d6b57fe5b50601f01601f191660200190565b60005b83811015612d94578181015183820152602001612d7c565b83811115612da3576000848401525b50505050565b6001600160a01b0381168114612dbe57600080fd5b5056fea26469706673582212208ad7d0397ad9bfadc1b01a89c5fcc534c557cd6c9491ce9986ae93a29a6d195264736f6c63430007050033",
  "linkReferences": {},
  "deployedLinkReferences": {}
}