{
  "_format": "hh-sol-artifact-1",
  "contractName": "mintyMultiToken",
  "sourceName": "contracts/mintyMultiToken/mintyMultiToken.sol",
  "abi": [
    {
      "inputs": [
        {
          "internalType": "address",
          "name": "_owner",
          "type": "address"
        },
        {
          "internalType": "contract locking[]",
          "name": "_locs",
          "type": "address[]"
        },
        {
          "internalType": "string",
          "name": "_lockError",
          "type": "string"
        }
      ],
      "stateMutability": "nonpayable",
      "type": "constructor"
    },
    {
      "anonymous": false,
      "inputs": [
        {
          "indexed": true,
          "internalType": "address",
          "name": "account",
          "type": "address"
        },
        {
          "indexed": true,
          "internalType": "address",
          "name": "operator",
          "type": "address"
        },
        {
          "indexed": false,
          "internalType": "bool",
          "name": "approved",
          "type": "bool"
        }
      ],
      "name": "ApprovalForAll",
      "type": "event"
    },
    {
      "anonymous": false,
      "inputs": [
        {
          "indexed": true,
          "internalType": "address",
          "name": "operator",
          "type": "address"
        },
        {
          "indexed": true,
          "internalType": "address",
          "name": "from",
          "type": "address"
        },
        {
          "indexed": true,
          "internalType": "address",
          "name": "to",
          "type": "address"
        },
        {
          "indexed": false,
          "internalType": "uint256[]",
          "name": "ids",
          "type": "uint256[]"
        },
        {
          "indexed": false,
          "internalType": "uint256[]",
          "name": "values",
          "type": "uint256[]"
        }
      ],
      "name": "TransferBatch",
      "type": "event"
    },
    {
      "anonymous": false,
      "inputs": [
        {
          "indexed": true,
          "internalType": "address",
          "name": "operator",
          "type": "address"
        },
        {
          "indexed": true,
          "internalType": "address",
          "name": "from",
          "type": "address"
        },
        {
          "indexed": true,
          "internalType": "address",
          "name": "to",
          "type": "address"
        },
        {
          "indexed": false,
          "internalType": "uint256",
          "name": "id",
          "type": "uint256"
        },
        {
          "indexed": false,
          "internalType": "uint256",
          "name": "value",
          "type": "uint256"
        }
      ],
      "name": "TransferSingle",
      "type": "event"
    },
    {
      "anonymous": false,
      "inputs": [
        {
          "indexed": false,
          "internalType": "string",
          "name": "value",
          "type": "string"
        },
        {
          "indexed": true,
          "internalType": "uint256",
          "name": "id",
          "type": "uint256"
        }
      ],
      "name": "URI",
      "type": "event"
    },
    {
      "inputs": [
        {
          "internalType": "address",
          "name": "account",
          "type": "address"
        },
        {
          "internalType": "uint256",
          "name": "id",
          "type": "uint256"
        }
      ],
      "name": "balanceOf",
      "outputs": [
        {
          "internalType": "uint256",
          "name": "",
          "type": "uint256"
        }
      ],
      "stateMutability": "view",
      "type": "function"
    },
    {
      "inputs": [
        {
          "internalType": "address[]",
          "name": "accounts",
          "type": "address[]"
        },
        {
          "internalType": "uint256[]",
          "name": "ids",
          "type": "uint256[]"
        }
      ],
      "name": "balanceOfBatch",
      "outputs": [
        {
          "internalType": "uint256[]",
          "name": "",
          "type": "uint256[]"
        }
      ],
      "stateMutability": "view",
      "type": "function"
    },
    {
      "inputs": [],
      "name": "contractURI",
      "outputs": [
        {
          "internalType": "string",
          "name": "",
          "type": "string"
        }
      ],
      "stateMutability": "view",
      "type": "function"
    },
    {
      "inputs": [
        {
          "internalType": "address",
          "name": "account",
          "type": "address"
        },
        {
          "internalType": "address",
          "name": "operator",
          "type": "address"
        }
      ],
      "name": "isApprovedForAll",
      "outputs": [
        {
          "internalType": "bool",
          "name": "",
          "type": "bool"
        }
      ],
      "stateMutability": "view",
      "type": "function"
    },
    {
      "inputs": [],
      "name": "lockError",
      "outputs": [
        {
          "internalType": "string",
          "name": "",
          "type": "string"
        }
      ],
      "stateMutability": "view",
      "type": "function"
    },
    {
      "inputs": [
        {
          "internalType": "uint256",
          "name": "",
          "type": "uint256"
        }
      ],
      "name": "locs",
      "outputs": [
        {
          "internalType": "contract locking",
          "name": "",
          "type": "address"
        }
      ],
      "stateMutability": "view",
      "type": "function"
    },
    {
      "inputs": [
        {
          "internalType": "uint256",
          "name": "tokenId",
          "type": "uint256"
        },
        {
          "internalType": "uint256",
          "name": "quantity",
          "type": "uint256"
        },
        {
          "internalType": "string",
          "name": "hash",
          "type": "string"
        }
      ],
      "name": "mint",
      "outputs": [],
      "stateMutability": "nonpayable",
      "type": "function"
    },
    {
      "inputs": [
        {
          "internalType": "uint256[]",
          "name": "tokenIds",
          "type": "uint256[]"
        },
        {
          "internalType": "uint256[]",
          "name": "quantities",
          "type": "uint256[]"
        },
        {
          "internalType": "string[]",
          "name": "hashes",
          "type": "string[]"
        }
      ],
      "name": "mintBatch",
      "outputs": [],
      "stateMutability": "nonpayable",
      "type": "function"
    },
    {
      "inputs": [
        {
          "internalType": "uint256",
          "name": "",
          "type": "uint256"
        }
      ],
      "name": "minted",
      "outputs": [
        {
          "internalType": "bool",
          "name": "",
          "type": "bool"
        }
      ],
      "stateMutability": "view",
      "type": "function"
    },
    {
      "inputs": [],
      "name": "owner",
      "outputs": [
        {
          "internalType": "address",
          "name": "",
          "type": "address"
        }
      ],
      "stateMutability": "view",
      "type": "function"
    },
    {
      "inputs": [
        {
          "internalType": "address",
          "name": "from",
          "type": "address"
        },
        {
          "internalType": "address",
          "name": "to",
          "type": "address"
        },
        {
          "internalType": "uint256[]",
          "name": "ids",
          "type": "uint256[]"
        },
        {
          "internalType": "uint256[]",
          "name": "amounts",
          "type": "uint256[]"
        },
        {
          "internalType": "bytes",
          "name": "data",
          "type": "bytes"
        }
      ],
      "name": "safeBatchTransferFrom",
      "outputs": [],
      "stateMutability": "nonpayable",
      "type": "function"
    },
    {
      "inputs": [
        {
          "internalType": "address",
          "name": "from",
          "type": "address"
        },
        {
          "internalType": "address",
          "name": "to",
          "type": "address"
        },
        {
          "internalType": "uint256",
          "name": "id",
          "type": "uint256"
        },
        {
          "internalType": "uint256",
          "name": "amount",
          "type": "uint256"
        },
        {
          "internalType": "bytes",
          "name": "data",
          "type": "bytes"
        }
      ],
      "name": "safeTransferFrom",
      "outputs": [],
      "stateMutability": "nonpayable",
      "type": "function"
    },
    {
      "inputs": [
        {
          "internalType": "address",
          "name": "operator",
          "type": "address"
        },
        {
          "internalType": "bool",
          "name": "approved",
          "type": "bool"
        }
      ],
      "name": "setApprovalForAll",
      "outputs": [],
      "stateMutability": "nonpayable",
      "type": "function"
    },
    {
      "inputs": [
        {
          "internalType": "address",
          "name": "operator",
          "type": "address"
        },
        {
          "internalType": "bool",
          "name": "state",
          "type": "bool"
        }
      ],
      "name": "setAuth",
      "outputs": [],
      "stateMutability": "nonpayable",
      "type": "function"
    },
    {
      "inputs": [
        {
          "internalType": "string",
          "name": "_base",
          "type": "string"
        }
      ],
      "name": "setBase",
      "outputs": [],
      "stateMutability": "nonpayable",
      "type": "function"
    },
    {
      "inputs": [
        {
          "internalType": "string",
          "name": "_uri",
          "type": "string"
        }
      ],
      "name": "setContractURI",
      "outputs": [],
      "stateMutability": "nonpayable",
      "type": "function"
    },
    {
      "inputs": [
        {
          "internalType": "bytes4",
          "name": "interfaceId",
          "type": "bytes4"
        }
      ],
      "name": "supportsInterface",
      "outputs": [
        {
          "internalType": "bool",
          "name": "",
          "type": "bool"
        }
      ],
      "stateMutability": "view",
      "type": "function"
    },
    {
      "inputs": [
        {
          "internalType": "uint256",
          "name": "tokenId",
          "type": "uint256"
        }
      ],
      "name": "uri",
      "outputs": [
        {
          "internalType": "string",
          "name": "",
          "type": "string"
        }
      ],
      "stateMutability": "view",
      "type": "function"
    },
    {
      "inputs": [
        {
          "internalType": "address",
          "name": "buyer",
          "type": "address"
        }
      ],
      "name": "validateBuyer",
      "outputs": [],
      "stateMutability": "nonpayable",
      "type": "function"
    }
  ],
  "bytecode": "0x60806040523480156200001157600080fd5b506040516200280b3803806200280b833981016040819052620000349162000347565b604080516020810190915260008152620000556301ffc9a760e01b62000106565b62000060816200018b565b62000072636cdb3d1360e11b62000106565b620000846303a24d0760e21b62000106565b50600780546001600160a01b0319166001600160a01b0385161790558151620000b590600a906020850190620001a4565b508051620000cb90600b9060208401906200020e565b50604051806060016040528060228152602001620027e9602291398051620000fc916006916020909101906200020e565b5050505062000473565b6001600160e01b0319808216141562000166576040805162461bcd60e51b815260206004820152601c60248201527f4552433136353a20696e76616c696420696e7465726661636520696400000000604482015290519081900360640190fd5b6001600160e01b0319166000908152602081905260409020805460ff19166001179055565b8051620001a09060039060208401906200020e565b5050565b828054828255906000526020600020908101928215620001fc579160200282015b82811115620001fc57825182546001600160a01b0319166001600160a01b03909116178255602090920191600190910190620001c5565b506200020a92915062000291565b5090565b828054600181600116156101000203166002900490600052602060002090601f016020900481019282620002465760008555620001fc565b82601f106200026157805160ff1916838001178555620001fc565b82800160010185558215620001fc579182015b82811115620001fc57825182559160200191906001019062000274565b5b808211156200020a576000815560010162000292565b8051620002b5816200045a565b919050565b600082601f830112620002cb578081fd5b81516001600160401b03811115620002df57fe5b6020620002f5601f8301601f1916820162000436565b925081835284818386010111156200030c57600080fd5b60005b828110156200032c5784810182015184820183015281016200030f565b828111156200033e5760008284860101525b50505092915050565b6000806000606084860312156200035c578283fd5b835162000369816200045a565b602085810151919450906001600160401b038082111562000388578485fd5b818701915087601f8301126200039c578485fd5b815181811115620003a957fe5b838102620003b985820162000436565b8281528581019085870183870188018d1015620003d457898afd5b8996505b848710156200040157620003ec81620002a8565b835260019690960195918701918701620003d8565b5060408b01519098509550505050808311156200041c578384fd5b50506200042c86828701620002ba565b9150509250925092565b6040518181016001600160401b03811182821017156200045257fe5b604052919050565b6001600160a01b03811681146200047057600080fd5b50565b61236680620004836000396000f3fe608060405234801561001057600080fd5b50600436106101205760003560e01c80637dc0bf3f116100ad578063c51bb6dc11610071578063c51bb6dc14610265578063c6e64e5314610278578063e8a3d4851461028b578063e985e9c514610293578063f242432a146102a657610120565b80637dc0bf3f1461021c57806388e485c71461022f5780638da5cb5b14610237578063938e3d7b1461023f578063a22cb4651461025257610120565b80632eb2c2d6116100f45780632eb2c2d6146101a35780634e1273f4146101b65780635773bd07146101d6578063664aa26b146101e957806379f3ca18146101fc57610120565b8062fdd58e1461012557806301ffc9a71461014e5780630b44a2181461016e5780630e89341c14610183575b600080fd5b610138610133366004611b88565b6102b9565b6040516101459190612028565b60405180910390f35b61016161015c366004611d61565b610328565b6040516101459190611f03565b61018161017c366004611b52565b61034b565b005b610196610191366004611dc4565b6103c3565b6040516101459190611f0e565b6101816101b1366004611a49565b61048d565b6101c96101c4366004611bb1565b610786565b6040516101459190611ebf565b6101816101e43660046119fd565b610872565b6101816101f7366004611d89565b610959565b61020f61020a366004611dc4565b6109b0565b6040516101459190611eab565b61016161022a366004611dc4565b6109da565b6101966109ef565b61020f610a7d565b61018161024d366004611d89565b610a8c565b610181610260366004611b52565b610ae3565b610181610273366004611c72565b610bd2565b610181610286366004611ddc565b610cf5565b610196610d8f565b6101616102a1366004611a17565b610dea565b6101816102b4366004611aef565b610e18565b60006001600160a01b0383166103005760405162461bcd60e51b815260040180806020018281038252602b8152602001806121c1602b913960400191505060405180910390fd5b5060009081526001602090815260408083206001600160a01b03949094168352929052205490565b6001600160e01b0319811660009081526020819052604090205460ff165b919050565b3360009081526008602052604090205460ff168061037357506007546001600160a01b031633145b6103985760405162461bcd60e51b815260040161038f90611fcb565b60405180910390fd5b6001600160a01b03919091166000908152600860205260409020805460ff1916911515919091179055565b6000818152600560209081526040918290208054835160026001831615610100026000190190921691909104601f8101849004840282018401909452838152606093849391929183018282801561045b5780601f106104305761010080835404028352916020019161045b565b820191906000526020600020905b81548152906001019060200180831161043e57829003601f168201915b50505050509050600681604051602001610476929190611e2a565b604051602081830303815290604052915050919050565b81518351146104cd5760405162461bcd60e51b81526004018080602001828103825260288152602001806122e86028913960400191505060405180910390fd5b6001600160a01b0384166105125760405162461bcd60e51b81526004018080602001828103825260258152602001806122156025913960400191505060405180910390fd5b61051a610fe3565b6001600160a01b0316856001600160a01b031614806105405750610540856102a1610fe3565b61057b5760405162461bcd60e51b815260040180806020018281038252603281526020018061223a6032913960400191505060405180910390fd5b6000610585610fe3565b905061059581878787878761077e565b60005b84518110156106965760008582815181106105af57fe5b6020026020010151905060008583815181106105c757fe5b60200260200101519050610634816040518060600160405280602a815260200161226c602a91396001600086815260200190815260200160002060008d6001600160a01b03166001600160a01b0316815260200190815260200160002054610fe89092919063ffffffff16565b60008381526001602090815260408083206001600160a01b038e811685529252808320939093558a168152205461066b908261107f565b60009283526001602081815260408086206001600160a01b038d168752909152909320555001610598565b50846001600160a01b0316866001600160a01b0316826001600160a01b03167f4a39dc06d4c0dbc64b70af90fd698a233a518aa5d07e595d983b8c0526c8f7fb8787604051808060200180602001838103835285818151815260200191508051906020019060200280838360005b8381101561071c578181015183820152602001610704565b50505050905001838103825284818151815260200191508051906020019060200280838360005b8381101561075b578181015183820152602001610743565b5050505090500194505050505060405180910390a461077e8187878787876110e0565b505050505050565b606081518351146107c85760405162461bcd60e51b81526004018080602001828103825260298152602001806122bf6029913960400191505060405180910390fd5b6060835167ffffffffffffffff811180156107e257600080fd5b5060405190808252806020026020018201604052801561080c578160200160208202803683370190505b50905060005b845181101561086a5761084b85828151811061082a57fe5b602002602001015185838151811061083e57fe5b60200260200101516102b9565b82828151811061085757fe5b6020908102919091010152600101610812565b509392505050565b60005b600a5481101561092f576000600a828154811061088e57fe5b600091825260209091200154604051631293efbb60e21b81526001600160a01b0390911690634a4fbeec906108c7908690600401611eab565b60206040518083038186803b1580156108df57600080fd5b505afa1580156108f3573d6000803e3d6000fd5b505050506040513d601f19601f820116820180604052508101906109179190611d45565b90508015610926575050610956565b50600101610875565b50600a54600b90156109545760405162461bcd60e51b815260040161038f9190611f41565b505b50565b3360009081526008602052604090205460ff168061098157506007546001600160a01b031633145b61099d5760405162461bcd60e51b815260040161038f90611fcb565b8051610954906006906020840190611870565b600a81815481106109c057600080fd5b6000918252602090912001546001600160a01b0316905081565b60046020526000908152604090205460ff1681565b600b805460408051602060026001851615610100026000190190941693909304601f81018490048402820184019092528181529291830182828015610a755780601f10610a4a57610100808354040283529160200191610a75565b820191906000526020600020905b815481529060010190602001808311610a5857829003601f168201915b505050505081565b6007546001600160a01b031681565b3360009081526008602052604090205460ff1680610ab457506007546001600160a01b031633145b610ad05760405162461bcd60e51b815260040161038f90611fcb565b8051610954906009906020840190611870565b816001600160a01b0316610af5610fe3565b6001600160a01b03161415610b3b5760405162461bcd60e51b81526004018080602001828103825260298152602001806122966029913960400191505060405180910390fd5b8060026000610b48610fe3565b6001600160a01b03908116825260208083019390935260409182016000908120918716808252919093529120805460ff191692151592909217909155610b8c610fe3565b6001600160a01b03167f17307eab39ab6107e8899845ad3d59bd9653f200f220920489ca2b5937696c318360405180821515815260200191505060405180910390a35050565b3360009081526008602052604090205460ff1680610bfa57506007546001600160a01b031633145b610c165760405162461bcd60e51b815260040161038f90611fcb565b60608151845114610c395760405162461bcd60e51b815260040161038f90611ff1565b60005b8451811015610cd657828181518110610c5157fe5b602002602001015160056000878481518110610c6957fe5b602002602001015181526020019081526020016000209080519060200190610c92929190611870565b50600160046000878481518110610ca557fe5b6020908102919091018101518252810191909152604001600020805460ff1916911515919091179055600101610c3c565b50600754610cef906001600160a01b031685858461135f565b50505050565b3360009081526008602052604090205460ff1680610d1d57506007546001600160a01b031633145b610d395760405162461bcd60e51b815260040161038f90611fcb565b60008381526005602090815260409091208251606092610d5d929190850190611870565b506000848152600460205260409020805460ff19166001179055600754610cef906001600160a01b03168585846115b4565b6009805460408051602060026001851615610100026000190190941693909304601f81018490048402820184019092528181529291830182828015610a755780601f10610a4a57610100808354040283529160200191610a75565b6001600160a01b03918216600090815260026020908152604080832093909416825291909152205460ff1690565b6001600160a01b038416610e5d5760405162461bcd60e51b81526004018080602001828103825260258152602001806122156025913960400191505060405180910390fd5b610e65610fe3565b6001600160a01b0316856001600160a01b03161480610e8b5750610e8b856102a1610fe3565b610ec65760405162461bcd60e51b81526004018080602001828103825260298152602001806121ec6029913960400191505060405180910390fd5b6000610ed0610fe3565b9050610ef0818787610ee1886116b5565b610eea886116b5565b8761077e565b610f37836040518060600160405280602a815260200161226c602a913960008781526001602090815260408083206001600160a01b038d1684529091529020549190610fe8565b60008581526001602090815260408083206001600160a01b038b81168552925280832093909355871681522054610f6e908461107f565b60008581526001602090815260408083206001600160a01b03808b168086529184529382902094909455805188815291820187905280518a8416938616927fc3d58168c5ae7397731d063d5bbf3d657854427343f4c083240f7aacaa2d0f6292908290030190a461077e8187878787876116f9565b335b90565b600081848411156110775760405162461bcd60e51b81526004018080602001828103825283818151815260200191508051906020019080838360005b8381101561103c578181015183820152602001611024565b50505050905090810190601f1680156110695780820380516001836020036101000a031916815260200191505b509250505060405180910390fd5b505050900390565b6000828201838110156110d9576040805162461bcd60e51b815260206004820152601b60248201527f536166654d6174683a206164646974696f6e206f766572666c6f770000000000604482015290519081900360640190fd5b9392505050565b6110f2846001600160a01b031661186a565b1561077e57836001600160a01b031663bc197c8187878686866040518663ffffffff1660e01b815260040180866001600160a01b03168152602001856001600160a01b03168152602001806020018060200180602001848103845287818151815260200191508051906020019060200280838360005b83811015611180578181015183820152602001611168565b50505050905001848103835286818151815260200191508051906020019060200280838360005b838110156111bf5781810151838201526020016111a7565b50505050905001848103825285818151815260200191508051906020019080838360005b838110156111fb5781810151838201526020016111e3565b50505050905090810190601f1680156112285780820380516001836020036101000a031916815260200191505b5098505050505050505050602060405180830381600087803b15801561124d57600080fd5b505af192505050801561127257506040513d602081101561126d57600080fd5b505160015b6113075761127e6120b1565b8061128957506112d0565b60405162461bcd60e51b815260206004820181815283516024840152835184939192839260440191908501908083836000831561103c578181015183820152602001611024565b60405162461bcd60e51b81526004018080602001828103825260348152602001806121656034913960400191505060405180910390fd5b6001600160e01b0319811663bc197c8160e01b146113565760405162461bcd60e51b81526004018080602001828103825260288152602001806121996028913960400191505060405180910390fd5b50505050505050565b6001600160a01b0384166113a45760405162461bcd60e51b81526004018080602001828103825260218152602001806123106021913960400191505060405180910390fd5b81518351146113e45760405162461bcd60e51b81526004018080602001828103825260288152602001806122e86028913960400191505060405180910390fd5b60006113ee610fe3565b90506113ff8160008787878761077e565b60005b84518110156114c35761147a6001600087848151811061141e57fe5b602002602001015181526020019081526020016000206000886001600160a01b03166001600160a01b031681526020019081526020016000205485838151811061146457fe5b602002602001015161107f90919063ffffffff16565b6001600087848151811061148a57fe5b602090810291909101810151825281810192909252604090810160009081206001600160a01b038b168252909252902055600101611402565b50846001600160a01b031660006001600160a01b0316826001600160a01b03167f4a39dc06d4c0dbc64b70af90fd698a233a518aa5d07e595d983b8c0526c8f7fb8787604051808060200180602001838103835285818151815260200191508051906020019060200280838360005b8381101561154a578181015183820152602001611532565b50505050905001838103825284818151815260200191508051906020019060200280838360005b83811015611589578181015183820152602001611571565b5050505090500194505050505060405180910390a46115ad816000878787876110e0565b5050505050565b6001600160a01b0384166115f95760405162461bcd60e51b81526004018080602001828103825260218152602001806123106021913960400191505060405180910390fd5b6000611603610fe3565b905061161581600087610ee1886116b5565b60008481526001602090815260408083206001600160a01b0389168452909152902054611642908461107f565b60008581526001602090815260408083206001600160a01b03808b16808652918452828520959095558151898152928301889052815190948616927fc3d58168c5ae7397731d063d5bbf3d657854427343f4c083240f7aacaa2d0f6292908290030190a46115ad816000878787876116f9565b6040805160018082528183019092526060918291906020808301908036833701905050905082816000815181106116e857fe5b602090810291909101015292915050565b61170b846001600160a01b031661186a565b1561077e57836001600160a01b031663f23a6e6187878686866040518663ffffffff1660e01b815260040180866001600160a01b03168152602001856001600160a01b0316815260200184815260200183815260200180602001828103825283818151815260200191508051906020019080838360005b8381101561179a578181015183820152602001611782565b50505050905090810190601f1680156117c75780820380516001836020036101000a031916815260200191505b509650505050505050602060405180830381600087803b1580156117ea57600080fd5b505af192505050801561180f57506040513d602081101561180a57600080fd5b505160015b61181b5761127e6120b1565b6001600160e01b0319811663f23a6e6160e01b146113565760405162461bcd60e51b81526004018080602001828103825260288152602001806121996028913960400191505060405180910390fd5b3b151590565b828054600181600116156101000203166002900490600052602060002090601f0160209004810192826118a657600085556118ec565b82601f106118bf57805160ff19168380011785556118ec565b828001600101855582156118ec579182015b828111156118ec5782518255916020019190600101906118d1565b506118f89291506118fc565b5090565b5b808211156118f857600081556001016118fd565b80356001600160a01b038116811461034657600080fd5b600082601f830112611938578081fd5b813561194b61194682612055565b612031565b81815291506020808301908481018184028601820187101561196c57600080fd5b60005b8481101561198b5781358452928201929082019060010161196f565b505050505092915050565b600082601f8301126119a6578081fd5b813567ffffffffffffffff8111156119ba57fe5b6119cd601f8201601f1916602001612031565b91508082528360208285010111156119e457600080fd5b8060208401602084013760009082016020015292915050565b600060208284031215611a0e578081fd5b6110d982611911565b60008060408385031215611a29578081fd5b611a3283611911565b9150611a4060208401611911565b90509250929050565b600080600080600060a08688031215611a60578081fd5b611a6986611911565b9450611a7760208701611911565b9350604086013567ffffffffffffffff80821115611a93578283fd5b611a9f89838a01611928565b94506060880135915080821115611ab4578283fd5b611ac089838a01611928565b93506080880135915080821115611ad5578283fd5b50611ae288828901611996565b9150509295509295909350565b600080600080600060a08688031215611b06578081fd5b611b0f86611911565b9450611b1d60208701611911565b93506040860135925060608601359150608086013567ffffffffffffffff811115611b46578182fd5b611ae288828901611996565b60008060408385031215611b64578182fd5b611b6d83611911565b91506020830135611b7d81612156565b809150509250929050565b60008060408385031215611b9a578182fd5b611ba383611911565b946020939093013593505050565b60008060408385031215611bc3578182fd5b823567ffffffffffffffff80821115611bda578384fd5b818501915085601f830112611bed578384fd5b8135611bfb61194682612055565b80828252602080830192508086018a828387028901011115611c1b578889fd5b8896505b84871015611c4457611c3081611911565b845260019690960195928101928101611c1f565b509096508701359350505080821115611c5b578283fd5b50611c6885828601611928565b9150509250929050565b600080600060608486031215611c86578283fd5b833567ffffffffffffffff80821115611c9d578485fd5b611ca987838801611928565b9450602091508186013581811115611cbf578485fd5b611ccb88828901611928565b945050604086013581811115611cdf578384fd5b86019050601f81018713611cf1578283fd5b8035611cff61194682612055565b81815283810190838501865b84811015611d3457611d228c888435890101611996565b84529286019290860190600101611d0b565b505080955050505050509250925092565b600060208284031215611d56578081fd5b81516110d981612156565b600060208284031215611d72578081fd5b81356001600160e01b0319811681146110d9578182fd5b600060208284031215611d9a578081fd5b813567ffffffffffffffff811115611db0578182fd5b611dbc84828501611996565b949350505050565b600060208284031215611dd5578081fd5b5035919050565b600080600060608486031215611df0578081fd5b8335925060208401359150604084013567ffffffffffffffff811115611e14578182fd5b611e2086828701611996565b9150509250925092565b6000808454600180821660008114611e495760018114611e6057611e8f565b60ff198316865260028304607f1686019350611e8f565b600283048886526020808720875b83811015611e875781548a820152908501908201611e6e565b505050860193505b5050508351611ea281836020880161207f565b01949350505050565b6001600160a01b0391909116815260200190565b6020808252825182820181905260009190848201906040850190845b81811015611ef757835183529284019291840191600101611edb565b50909695505050505050565b901515815260200190565b6000602082528251806020840152611f2d81604085016020870161207f565b601f01601f19169190910160400192915050565b60006020808301818452828554600180821660008114611f685760018114611f8657611fbe565b60028304607f16855260ff1983166040890152606088019350611fbe565b60028304808652611f968a612073565b885b82811015611fb45781548b820160400152908401908801611f98565b8a01604001955050505b5091979650505050505050565b6020808252600c908201526b1d5b985d5d1a1bdc9a5cd95960a21b604082015260600190565b6020808252601a908201527f6172726179206c656e6774687320646f206e6f74206d61746368000000000000604082015260600190565b90815260200190565b60405181810167ffffffffffffffff8111828210171561204d57fe5b604052919050565b600067ffffffffffffffff82111561206957fe5b5060209081020190565b60009081526020902090565b60005b8381101561209a578181015183820152602001612082565b83811115610cef5750506000910152565b60e01c90565b600060443d10156120c157610fe5565b600481823e6308c379a06120d582516120ab565b146120df57610fe5565b6040513d600319016004823e80513d67ffffffffffffffff816024840111818411171561210f5750505050610fe5565b828401925082519150808211156121295750505050610fe5565b503d8301602082840101111561214157505050610fe5565b601f01601f1916810160200160405291505090565b801515811461095657600080fdfe455243313135353a207472616e7366657220746f206e6f6e2045524331313535526563656976657220696d706c656d656e746572455243313135353a204552433131353552656365697665722072656a656374656420746f6b656e73455243313135353a2062616c616e636520717565727920666f7220746865207a65726f2061646472657373455243313135353a2063616c6c6572206973206e6f74206f776e6572206e6f7220617070726f766564455243313135353a207472616e7366657220746f20746865207a65726f2061646472657373455243313135353a207472616e736665722063616c6c6572206973206e6f74206f776e6572206e6f7220617070726f766564455243313135353a20696e73756666696369656e742062616c616e636520666f72207472616e73666572455243313135353a2073657474696e6720617070726f76616c2073746174757320666f722073656c66455243313135353a206163636f756e747320616e6420696473206c656e677468206d69736d61746368455243313135353a2069647320616e6420616d6f756e7473206c656e677468206d69736d61746368455243313135353a206d696e7420746f20746865207a65726f2061646472657373a2646970667358221220a7508976277b89c53a6ccbb8986d6e7ad4456942a0f51fde92d91e7159fedecd64736f6c6343000705003368747470733a2f2f6d696e74792e6d7970696e6174612e636c6f75642f697066732f",
  "linkReferences": {},
  "deployedLinkReferences": {}
}