{
  "_format": "hh-sol-artifact-1",
  "contractName": "pMinty",
  "sourceName": "contracts/Minty/pminty.sol",
  "abi": [
    {
      "inputs": [
        {
          "internalType": "address",
          "name": "mintysig",
          "type": "address"
        }
      ],
      "stateMutability": "nonpayable",
      "type": "constructor"
    },
    {
      "anonymous": false,
      "inputs": [
        {
          "indexed": true,
          "internalType": "address",
          "name": "owner",
          "type": "address"
        },
        {
          "indexed": true,
          "internalType": "address",
          "name": "spender",
          "type": "address"
        },
        {
          "indexed": false,
          "internalType": "uint256",
          "name": "value",
          "type": "uint256"
        }
      ],
      "name": "Approval",
      "type": "event"
    },
    {
      "anonymous": false,
      "inputs": [
        {
          "indexed": true,
          "internalType": "address",
          "name": "from",
          "type": "address"
        },
        {
          "indexed": true,
          "internalType": "address",
          "name": "to",
          "type": "address"
        },
        {
          "indexed": false,
          "internalType": "uint256",
          "name": "value",
          "type": "uint256"
        },
        {
          "indexed": false,
          "internalType": "bytes",
          "name": "data",
          "type": "bytes"
        }
      ],
      "name": "ERC677Transfer",
      "type": "event"
    },
    {
      "anonymous": false,
      "inputs": [
        {
          "indexed": false,
          "internalType": "address",
          "name": "userAddress",
          "type": "address"
        },
        {
          "indexed": false,
          "internalType": "address payable",
          "name": "relayerAddress",
          "type": "address"
        },
        {
          "indexed": false,
          "internalType": "bytes",
          "name": "functionSignature",
          "type": "bytes"
        }
      ],
      "name": "MetaTransactionExecuted",
      "type": "event"
    },
    {
      "anonymous": false,
      "inputs": [
        {
          "indexed": true,
          "internalType": "bytes32",
          "name": "role",
          "type": "bytes32"
        },
        {
          "indexed": true,
          "internalType": "bytes32",
          "name": "previousAdminRole",
          "type": "bytes32"
        },
        {
          "indexed": true,
          "internalType": "bytes32",
          "name": "newAdminRole",
          "type": "bytes32"
        }
      ],
      "name": "RoleAdminChanged",
      "type": "event"
    },
    {
      "anonymous": false,
      "inputs": [
        {
          "indexed": true,
          "internalType": "bytes32",
          "name": "role",
          "type": "bytes32"
        },
        {
          "indexed": true,
          "internalType": "address",
          "name": "account",
          "type": "address"
        },
        {
          "indexed": true,
          "internalType": "address",
          "name": "sender",
          "type": "address"
        }
      ],
      "name": "RoleGranted",
      "type": "event"
    },
    {
      "anonymous": false,
      "inputs": [
        {
          "indexed": true,
          "internalType": "bytes32",
          "name": "role",
          "type": "bytes32"
        },
        {
          "indexed": true,
          "internalType": "address",
          "name": "account",
          "type": "address"
        },
        {
          "indexed": true,
          "internalType": "address",
          "name": "sender",
          "type": "address"
        }
      ],
      "name": "RoleRevoked",
      "type": "event"
    },
    {
      "anonymous": false,
      "inputs": [
        {
          "indexed": true,
          "internalType": "address",
          "name": "from",
          "type": "address"
        },
        {
          "indexed": true,
          "internalType": "address",
          "name": "to",
          "type": "address"
        },
        {
          "indexed": false,
          "internalType": "uint256",
          "name": "value",
          "type": "uint256"
        }
      ],
      "name": "Transfer",
      "type": "event"
    },
    {
      "inputs": [],
      "name": "DEFAULT_ADMIN_ROLE",
      "outputs": [
        {
          "internalType": "bytes32",
          "name": "",
          "type": "bytes32"
        }
      ],
      "stateMutability": "view",
      "type": "function"
    },
    {
      "inputs": [],
      "name": "DEPOSITOR_ROLE",
      "outputs": [
        {
          "internalType": "bytes32",
          "name": "",
          "type": "bytes32"
        }
      ],
      "stateMutability": "view",
      "type": "function"
    },
    {
      "inputs": [],
      "name": "ERC712_VERSION",
      "outputs": [
        {
          "internalType": "string",
          "name": "",
          "type": "string"
        }
      ],
      "stateMutability": "view",
      "type": "function"
    },
    {
      "inputs": [],
      "name": "MAX_SUPPLY",
      "outputs": [
        {
          "internalType": "uint256",
          "name": "",
          "type": "uint256"
        }
      ],
      "stateMutability": "view",
      "type": "function"
    },
    {
      "inputs": [
        {
          "internalType": "address",
          "name": "owner",
          "type": "address"
        },
        {
          "internalType": "address",
          "name": "spender",
          "type": "address"
        }
      ],
      "name": "allowance",
      "outputs": [
        {
          "internalType": "uint256",
          "name": "",
          "type": "uint256"
        }
      ],
      "stateMutability": "view",
      "type": "function"
    },
    {
      "inputs": [
        {
          "internalType": "address",
          "name": "spender",
          "type": "address"
        },
        {
          "internalType": "uint256",
          "name": "amount",
          "type": "uint256"
        }
      ],
      "name": "approve",
      "outputs": [
        {
          "internalType": "bool",
          "name": "",
          "type": "bool"
        }
      ],
      "stateMutability": "nonpayable",
      "type": "function"
    },
    {
      "inputs": [
        {
          "internalType": "address",
          "name": "account",
          "type": "address"
        }
      ],
      "name": "balanceOf",
      "outputs": [
        {
          "internalType": "uint256",
          "name": "",
          "type": "uint256"
        }
      ],
      "stateMutability": "view",
      "type": "function"
    },
    {
      "inputs": [],
      "name": "decimals",
      "outputs": [
        {
          "internalType": "uint8",
          "name": "",
          "type": "uint8"
        }
      ],
      "stateMutability": "view",
      "type": "function"
    },
    {
      "inputs": [
        {
          "internalType": "address",
          "name": "spender",
          "type": "address"
        },
        {
          "internalType": "uint256",
          "name": "subtractedValue",
          "type": "uint256"
        }
      ],
      "name": "decreaseAllowance",
      "outputs": [
        {
          "internalType": "bool",
          "name": "",
          "type": "bool"
        }
      ],
      "stateMutability": "nonpayable",
      "type": "function"
    },
    {
      "inputs": [
        {
          "internalType": "address",
          "name": "user",
          "type": "address"
        },
        {
          "internalType": "bytes",
          "name": "depositData",
          "type": "bytes"
        }
      ],
      "name": "deposit",
      "outputs": [],
      "stateMutability": "nonpayable",
      "type": "function"
    },
    {
      "inputs": [
        {
          "internalType": "address",
          "name": "userAddress",
          "type": "address"
        },
        {
          "internalType": "bytes",
          "name": "functionSignature",
          "type": "bytes"
        },
        {
          "internalType": "bytes32",
          "name": "sigR",
          "type": "bytes32"
        },
        {
          "internalType": "bytes32",
          "name": "sigS",
          "type": "bytes32"
        },
        {
          "internalType": "uint8",
          "name": "sigV",
          "type": "uint8"
        }
      ],
      "name": "executeMetaTransaction",
      "outputs": [
        {
          "internalType": "bytes",
          "name": "",
          "type": "bytes"
        }
      ],
      "stateMutability": "payable",
      "type": "function"
    },
    {
      "inputs": [],
      "name": "getChainId",
      "outputs": [
        {
          "internalType": "uint256",
          "name": "",
          "type": "uint256"
        }
      ],
      "stateMutability": "pure",
      "type": "function"
    },
    {
      "inputs": [],
      "name": "getDomainSeperator",
      "outputs": [
        {
          "internalType": "bytes32",
          "name": "",
          "type": "bytes32"
        }
      ],
      "stateMutability": "view",
      "type": "function"
    },
    {
      "inputs": [
        {
          "internalType": "address",
          "name": "user",
          "type": "address"
        }
      ],
      "name": "getNonce",
      "outputs": [
        {
          "internalType": "uint256",
          "name": "nonce",
          "type": "uint256"
        }
      ],
      "stateMutability": "view",
      "type": "function"
    },
    {
      "inputs": [
        {
          "internalType": "bytes32",
          "name": "role",
          "type": "bytes32"
        }
      ],
      "name": "getRoleAdmin",
      "outputs": [
        {
          "internalType": "bytes32",
          "name": "",
          "type": "bytes32"
        }
      ],
      "stateMutability": "view",
      "type": "function"
    },
    {
      "inputs": [
        {
          "internalType": "bytes32",
          "name": "role",
          "type": "bytes32"
        },
        {
          "internalType": "uint256",
          "name": "index",
          "type": "uint256"
        }
      ],
      "name": "getRoleMember",
      "outputs": [
        {
          "internalType": "address",
          "name": "",
          "type": "address"
        }
      ],
      "stateMutability": "view",
      "type": "function"
    },
    {
      "inputs": [
        {
          "internalType": "bytes32",
          "name": "role",
          "type": "bytes32"
        }
      ],
      "name": "getRoleMemberCount",
      "outputs": [
        {
          "internalType": "uint256",
          "name": "",
          "type": "uint256"
        }
      ],
      "stateMutability": "view",
      "type": "function"
    },
    {
      "inputs": [
        {
          "internalType": "bytes32",
          "name": "role",
          "type": "bytes32"
        },
        {
          "internalType": "address",
          "name": "account",
          "type": "address"
        }
      ],
      "name": "grantRole",
      "outputs": [],
      "stateMutability": "nonpayable",
      "type": "function"
    },
    {
      "inputs": [
        {
          "internalType": "bytes32",
          "name": "role",
          "type": "bytes32"
        },
        {
          "internalType": "address",
          "name": "account",
          "type": "address"
        }
      ],
      "name": "hasRole",
      "outputs": [
        {
          "internalType": "bool",
          "name": "",
          "type": "bool"
        }
      ],
      "stateMutability": "view",
      "type": "function"
    },
    {
      "inputs": [
        {
          "internalType": "address",
          "name": "spender",
          "type": "address"
        },
        {
          "internalType": "uint256",
          "name": "addedValue",
          "type": "uint256"
        }
      ],
      "name": "increaseAllowance",
      "outputs": [
        {
          "internalType": "bool",
          "name": "",
          "type": "bool"
        }
      ],
      "stateMutability": "nonpayable",
      "type": "function"
    },
    {
      "inputs": [],
      "name": "minting",
      "outputs": [
        {
          "internalType": "bool",
          "name": "",
          "type": "bool"
        }
      ],
      "stateMutability": "view",
      "type": "function"
    },
    {
      "inputs": [],
      "name": "name",
      "outputs": [
        {
          "internalType": "string",
          "name": "",
          "type": "string"
        }
      ],
      "stateMutability": "view",
      "type": "function"
    },
    {
      "inputs": [
        {
          "internalType": "address",
          "name": "",
          "type": "address"
        }
      ],
      "name": "operators",
      "outputs": [
        {
          "internalType": "bool",
          "name": "",
          "type": "bool"
        }
      ],
      "stateMutability": "view",
      "type": "function"
    },
    {
      "inputs": [
        {
          "internalType": "bytes32",
          "name": "role",
          "type": "bytes32"
        },
        {
          "internalType": "address",
          "name": "account",
          "type": "address"
        }
      ],
      "name": "renounceRole",
      "outputs": [],
      "stateMutability": "nonpayable",
      "type": "function"
    },
    {
      "inputs": [
        {
          "internalType": "bytes32",
          "name": "role",
          "type": "bytes32"
        },
        {
          "internalType": "address",
          "name": "account",
          "type": "address"
        }
      ],
      "name": "revokeRole",
      "outputs": [],
      "stateMutability": "nonpayable",
      "type": "function"
    },
    {
      "inputs": [],
      "name": "symbol",
      "outputs": [
        {
          "internalType": "string",
          "name": "",
          "type": "string"
        }
      ],
      "stateMutability": "view",
      "type": "function"
    },
    {
      "inputs": [],
      "name": "totalSupply",
      "outputs": [
        {
          "internalType": "uint256",
          "name": "",
          "type": "uint256"
        }
      ],
      "stateMutability": "view",
      "type": "function"
    },
    {
      "inputs": [
        {
          "internalType": "address",
          "name": "recipient",
          "type": "address"
        },
        {
          "internalType": "uint256",
          "name": "amount",
          "type": "uint256"
        }
      ],
      "name": "transfer",
      "outputs": [
        {
          "internalType": "bool",
          "name": "",
          "type": "bool"
        }
      ],
      "stateMutability": "nonpayable",
      "type": "function"
    },
    {
      "inputs": [
        {
          "internalType": "address",
          "name": "_to",
          "type": "address"
        },
        {
          "internalType": "uint256",
          "name": "_value",
          "type": "uint256"
        },
        {
          "internalType": "bytes",
          "name": "_data",
          "type": "bytes"
        }
      ],
      "name": "transferAndCall",
      "outputs": [
        {
          "internalType": "bool",
          "name": "success",
          "type": "bool"
        }
      ],
      "stateMutability": "nonpayable",
      "type": "function"
    },
    {
      "inputs": [
        {
          "internalType": "address",
          "name": "sender",
          "type": "address"
        },
        {
          "internalType": "address",
          "name": "recipient",
          "type": "address"
        },
        {
          "internalType": "uint256",
          "name": "amount",
          "type": "uint256"
        }
      ],
      "name": "transferFrom",
      "outputs": [
        {
          "internalType": "bool",
          "name": "",
          "type": "bool"
        }
      ],
      "stateMutability": "nonpayable",
      "type": "function"
    },
    {
      "inputs": [
        {
          "internalType": "uint256",
          "name": "amount",
          "type": "uint256"
        }
      ],
      "name": "withdraw",
      "outputs": [],
      "stateMutability": "nonpayable",
      "type": "function"
    }
  ],
  "bytecode": "0x60806040526008805460ff19908116909155600b805490911660011790553480156200002a57600080fd5b506040516200296238038062002962833981810160405260208110156200005057600080fd5b50516040805180820182526009815268135a5b9d1e48105c9d60ba1b6020828101918252835180850190945260058452644d494e545960d81b90840152815191929160129173b5505a6d998549090530911180f38ac5130101c69185918591620000bd91600391620006f7565b508051620000d3906004906020840190620006f7565b50506005805460ff191660121790555060408051808201909152600a81526904368696c6445524332360b41b602082015262000118906001600160e01b03620001db16565b6200012c826001600160e01b036200028116565b620001546000620001456001600160e01b036200029716565b6001600160e01b03620002b416565b604080516d4445504f5349544f525f524f4c4560901b8152905190819003600e0190206200018c90826001600160e01b03620002b416565b620001a0846001600160e01b03620002c916565b505050506001600160a01b03811615620001d457620001d4816a52b7d2dcc80cd2e40000006001600160e01b036200033716565b5062000799565b806040516020018082805190602001908083835b60208310620002105780518252601f199092019160209182019101620001ef565b51815160209384036101000a60001901801990921691161790527f3a20494e53554646494349454e545f5045524d495353494f4e530000000000009190930190815260408051808303600519018152601a909201905280516200027d9550600794509201919050620006f7565b5050565b6005805460ff191660ff92909216919091179055565b6000620002ae6200044f60201b62001b3b1760201c565b90505b90565b6200027d82826001600160e01b03620004ae16565b60085460ff161562000313576040805162461bcd60e51b815260206004820152600e60248201526d185b1c9958591e481a5b9a5d195960921b604482015290519081900360640190fd5b62000327816001600160e01b036200053216565b506008805460ff19166001179055565b6001600160a01b03821662000393576040805162461bcd60e51b815260206004820152601f60248201527f45524332303a206d696e7420746f20746865207a65726f206164647265737300604482015290519081900360640190fd5b620003aa600083836001600160e01b03620005fa16565b620003c681600254620005ff60201b620014f51790919060201c565b6002556001600160a01b03821660009081526020818152604090912054620003f9918390620014f5620005ff821b17901c565b6001600160a01b0383166000818152602081815260408083209490945583518581529351929391927fddf252ad1be2c89b69c2b068fc378daa952ba7f163c4a11628f55a4df523b3ef9281900390910190a35050565b600033301415620004a95760606000368080601f0160208091040260200160405190810160405280939291908181526020018383808284376000920191909152505050503601516001600160a01b03169150620002b19050565b503390565b6000828152600660209081526040909120620004d591839062001cd362000663821b17901c565b156200027d57620004ee6001600160e01b036200029716565b6001600160a01b0316816001600160a01b0316837f2f8788117e7eff1d82e926ec794901d17c78024a50270940304540a733656f0d60405160405180910390a45050565b6040518060800160405280604f815260200162002913604f913980516020918201208251838301206040805180820190915260018152603160f81b930192909252907fc89efdaa54c0f20c7adf612882df0950f5a951637e0307cdcb4c672f298b8bc630620005a96001600160e01b036200068316565b604080516020808201979097528082019590955260608501939093526001600160a01b03909116608084015260a0808401919091528151808403909101815260c09092019052805191012060095550565b505050565b6000828201838110156200065a576040805162461bcd60e51b815260206004820152601b60248201527f536166654d6174683a206164646974696f6e206f766572666c6f770000000000604482015290519081900360640190fd5b90505b92915050565b60006200065a836001600160a01b0384166001600160e01b036200068716565b4690565b60006200069e83836001600160e01b03620006df16565b620006d6575081546001818101845560008481526020808220909301849055845484825282860190935260409020919091556200065d565b5060006200065d565b60009081526001919091016020526040902054151590565b828054600181600116156101000203166002900490600052602060002090601f016020900481019282601f106200073a57805160ff19168380011785556200076a565b828001600101855582156200076a579182015b828111156200076a5782518255916020019190600101906200074d565b50620007789291506200077c565b5090565b620002b191905b8082111562000778576000815560010162000783565b61216a80620007a96000396000f3fe6080604052600436106101d85760003560e01c806336568abe11610102578063a217fddf11610095578063ca15c87311610064578063ca15c8731461080e578063cf2c52cb14610838578063d547741f146108c5578063dd62ed3e146108fe576101d8565b8063a217fddf14610772578063a3b0b5a314610787578063a457c2d71461079c578063a9059cbb146107d5576101d8565b80637dc2268c116100d15780637dc2268c146106c35780639010d07c146106d857806391d148541461072457806395d89b411461075d576101d8565b806336568abe14610556578063395093511461058f5780634000aea0146105c857806370a0823114610690576101d8565b806323b872dd1161017a5780632f2ff15d116101495780632f2ff15d146104c8578063313ce5671461050157806332cb6b0c1461052c5780633408e47014610541576101d8565b806323b872dd146103fc578063248a9ca31461043f5780632d0335ab146104695780632e1a7d4d1461049c576101d8565b80630f7e5970116101b65780630f7e59701461037857806313e7c9d81461038d57806318160ddd146103c057806320379ee5146103e7576101d8565b806306fdde03146101dd578063095ea7b3146102675780630c53c51c146102b4575b600080fd5b3480156101e957600080fd5b506101f2610939565b6040805160208082528351818301528351919283929083019185019080838360005b8381101561022c578181015183820152602001610214565b50505050905090810190601f1680156102595780820380516001836020036101000a031916815260200191505b509250505060405180910390f35b34801561027357600080fd5b506102a06004803603604081101561028a57600080fd5b506001600160a01b0381351690602001356109cf565b604080519115158252519081900360200190f35b6101f2600480360360a08110156102ca57600080fd5b6001600160a01b0382351691908101906040810160208201356401000000008111156102f557600080fd5b82018360208201111561030757600080fd5b8035906020019184600183028401116401000000008311171561032957600080fd5b91908080601f016020809104026020016040519081016040528093929190818152602001838380828437600092019190915250929550508235935050506020810135906040013560ff166109ed565b34801561038457600080fd5b506101f2610cf0565b34801561039957600080fd5b506102a0600480360360208110156103b057600080fd5b50356001600160a01b0316610d0d565b3480156103cc57600080fd5b506103d5610d22565b60408051918252519081900360200190f35b3480156103f357600080fd5b506103d5610d28565b34801561040857600080fd5b506102a06004803603606081101561041f57600080fd5b506001600160a01b03813581169160208101359091169060400135610d2e565b34801561044b57600080fd5b506103d56004803603602081101561046257600080fd5b5035610dbb565b34801561047557600080fd5b506103d56004803603602081101561048c57600080fd5b50356001600160a01b0316610dd0565b3480156104a857600080fd5b506104c6600480360360208110156104bf57600080fd5b5035610deb565b005b3480156104d457600080fd5b506104c6600480360360408110156104eb57600080fd5b50803590602001356001600160a01b0316610dff565b34801561050d57600080fd5b50610516610e6b565b6040805160ff9092168252519081900360200190f35b34801561053857600080fd5b506103d5610e74565b34801561054d57600080fd5b506103d5610e82565b34801561056257600080fd5b506104c66004803603604081101561057957600080fd5b50803590602001356001600160a01b0316610e86565b34801561059b57600080fd5b506102a0600480360360408110156105b257600080fd5b506001600160a01b038135169060200135610ee7565b3480156105d457600080fd5b506102a0600480360360608110156105eb57600080fd5b6001600160a01b038235169160208101359181019060608101604082013564010000000081111561061b57600080fd5b82018360208201111561062d57600080fd5b8035906020019184600183028401116401000000008311171561064f57600080fd5b91908080601f016020809104026020016040519081016040528093929190818152602001838380828437600092019190915250929550610f3b945050505050565b34801561069c57600080fd5b506103d5600480360360208110156106b357600080fd5b50356001600160a01b0316611016565b3480156106cf57600080fd5b506102a0611031565b3480156106e457600080fd5b50610708600480360360408110156106fb57600080fd5b508035906020013561103a565b604080516001600160a01b039092168252519081900360200190f35b34801561073057600080fd5b506102a06004803603604081101561074757600080fd5b50803590602001356001600160a01b031661105f565b34801561076957600080fd5b506101f261107d565b34801561077e57600080fd5b506103d56110de565b34801561079357600080fd5b506103d56110e3565b3480156107a857600080fd5b506102a0600480360360408110156107bf57600080fd5b506001600160a01b038135169060200135611109565b3480156107e157600080fd5b506102a0600480360360408110156107f857600080fd5b506001600160a01b038135169060200135611177565b34801561081a57600080fd5b506103d56004803603602081101561083157600080fd5b503561118b565b34801561084457600080fd5b506104c66004803603604081101561085b57600080fd5b6001600160a01b03823516919081019060408101602082013564010000000081111561088657600080fd5b82018360208201111561089857600080fd5b803590602001918460018302840111640100000000831117156108ba57600080fd5b5090925090506111a2565b3480156108d157600080fd5b506104c6600480360360408110156108e857600080fd5b50803590602001356001600160a01b0316611299565b34801561090a57600080fd5b506103d56004803603604081101561092157600080fd5b506001600160a01b03813581169160200135166112f2565b60038054604080516020601f60026000196101006001881615020190951694909404938401819004810282018101909252828152606093909290918301828280156109c55780601f1061099a576101008083540402835291602001916109c5565b820191906000526020600020905b8154815290600101906020018083116109a857829003601f168201915b5050505050905090565b60006109e36109dc61131d565b848461132c565b5060015b92915050565b60606109f7611e8d565b50604080516060810182526001600160a01b0388166000818152600a602090815290849020548352820152908101869052610a358782878787611418565b610a705760405162461bcd60e51b81526004018080602001828103825260218152602001806120566021913960400191505060405180910390fd5b6001600160a01b0387166000908152600a6020526040902054610a9a90600163ffffffff6114f516565b6001600160a01b0388166000818152600a602090815260408083209490945583519283523383820181905260609484018581528b51958501959095528a517f5845892132946850460bff5a0083f71031bc5bf9aadcd40f1de79423eac9b10b958d9592948d94919260808501928601918190849084905b83811015610b29578181015183820152602001610b11565b50505050905090810190601f168015610b565780820380516001836020036101000a031916815260200191505b5094505050505060405180910390a160006060306001600160a01b0316888a6040516020018083805190602001908083835b60208310610ba75780518252601f199092019160209182019101610b88565b6001836020036101000a038019825116818451168082178552505050505050905001826001600160a01b03166001600160a01b031660601b8152601401925050506040516020818303038152906040526040518082805190602001908083835b60208310610c265780518252601f199092019160209182019101610c07565b6001836020036101000a0380198251168184511680821785525050505050509050019150506000604051808303816000865af19150503d8060008114610c88576040519150601f19603f3d011682016040523d82523d6000602084013e610c8d565b606091505b509150915081610ce4576040805162461bcd60e51b815260206004820152601c60248201527f46756e6374696f6e2063616c6c206e6f74207375636365737366756c00000000604482015290519081900360640190fd5b98975050505050505050565b604051806040016040528060018152602001603160f81b81525081565b600c6020526000908152604090205460ff1681565b60025490565b60095490565b6000610d3b84848461154f565b610db184610d4761131d565b610dac8560405180606001604052806028815260200161202e602891396001600160a01b038a16600090815260016020526040812090610d8561131d565b6001600160a01b03168152602081019190915260400160002054919063ffffffff6116b616565b61132c565b5060019392505050565b60009081526006602052604090206002015490565b6001600160a01b03166000908152600a602052604090205490565b610dfc610df661131d565b8261174d565b50565b600082815260066020526040902060020154610e2290610e1d61131d565b61105f565b610e5d5760405162461bcd60e51b815260040180806020018281038252602f815260200180611efd602f913960400191505060405180910390fd5b610e678282611855565b5050565b60055460ff1690565b69d3c21bcecceda100000081565b4690565b610e8e61131d565b6001600160a01b0316816001600160a01b031614610edd5760405162461bcd60e51b815260040180806020018281038252602f815260200180612106602f913960400191505060405180910390fd5b610e6782826118c4565b60006109e3610ef461131d565b84610dac8560016000610f0561131d565b6001600160a01b03908116825260208083019390935260409182016000908120918c16815292529020549063ffffffff6114f516565b6000610f478484611177565b50836001600160a01b0316336001600160a01b03167f72db2339068fd324bbc28f2944e01064da539ac76064b6ce4a97a5f81de43dd685856040518083815260200180602001828103825283818151815260200191508051906020019080838360005b83811015610fc2578181015183820152602001610faa565b50505050905090810190601f168015610fef5780820380516001836020036101000a031916815260200191505b50935050505060405180910390a361100684611933565b15610db157610db1848484611939565b6001600160a01b031660009081526020819052604090205490565b600b5460ff1681565b6000828152600660205260408120611058908363ffffffff611a1316565b9392505050565b6000828152600660205260408120611058908363ffffffff611a1f16565b60048054604080516020601f60026000196101006001881615020190951694909404938401819004810282018101909252828152606093909290918301828280156109c55780601f1061099a576101008083540402835291602001916109c5565b600081565b604080516d4445504f5349544f525f524f4c4560901b8152905190819003600e01902081565b60006109e361111661131d565b84610dac856040518060600160405280602581526020016120e1602591396001600061114061131d565b6001600160a01b03908116825260208083019390935260409182016000908120918d1681529252902054919063ffffffff6116b616565b60006109e361118461131d565b848461154f565b60008181526006602052604081206109e790611a34565b604080516d4445504f5349544f525f524f4c4560901b8152905190819003600e0190206111d181610e1d61131d565b6007906112715760405162461bcd60e51b81526020600482019081528254600260001961010060018416150201909116046024830181905290918291604490910190849080156112625780601f1061123757610100808354040283529160200191611262565b820191906000526020600020905b81548152906001019060200180831161124557829003601f168201915b50509250505060405180910390fd5b5060008383602081101561128457600080fd5b503590506112928582611a3f565b5050505050565b6000828152600660205260409020600201546112b790610e1d61131d565b610edd5760405162461bcd60e51b8152600401808060200182810382526030815260200180611fd96030913960400191505060405180910390fd5b6001600160a01b03918216600090815260016020908152604080832093909416825291909152205490565b6000611327611b3b565b905090565b6001600160a01b0383166113715760405162461bcd60e51b81526004018080602001828103825260248152602001806120bd6024913960400191505060405180910390fd5b6001600160a01b0382166113b65760405162461bcd60e51b8152600401808060200182810382526022815260200180611f916022913960400191505060405180910390fd5b6001600160a01b03808416600081815260016020908152604080832094871680845294825291829020859055815185815291517f8c5be1e5ebec7d5bd14f71427d1e84f3dd0314c0f7b2291e5b200ac8c7c3b9259281900390910190a3505050565b60006001600160a01b03861661145f5760405162461bcd60e51b81526004018080602001828103825260258152602001806120096025913960400191505060405180910390fd5b600161147261146d87611b99565b611c25565b83868660405160008152602001604052604051808581526020018460ff1660ff1681526020018381526020018281526020019450505050506020604051602081039080840390855afa1580156114cc573d6000803e3d6000fd5b505050602060405103516001600160a01b0316866001600160a01b031614905095945050505050565b600082820183811015611058576040805162461bcd60e51b815260206004820152601b60248201527f536166654d6174683a206164646974696f6e206f766572666c6f770000000000604482015290519081900360640190fd5b6001600160a01b0383166115945760405162461bcd60e51b81526004018080602001828103825260258152602001806120986025913960400191505060405180910390fd5b6001600160a01b0382166115d95760405162461bcd60e51b8152600401808060200182810382526023815260200180611eda6023913960400191505060405180910390fd5b6115e4838383611c71565b61162781604051806060016040528060268152602001611fb3602691396001600160a01b038616600090815260208190526040902054919063ffffffff6116b616565b6001600160a01b03808516600090815260208190526040808220939093559084168152205461165c908263ffffffff6114f516565b6001600160a01b038084166000818152602081815260409182902094909455805185815290519193928716927fddf252ad1be2c89b69c2b068fc378daa952ba7f163c4a11628f55a4df523b3ef92918290030190a3505050565b600081848411156117455760405162461bcd60e51b81526004018080602001828103825283818151815260200191508051906020019080838360005b8381101561170a5781810151838201526020016116f2565b50505050905090810190601f1680156117375780820380516001836020036101000a031916815260200191505b509250505060405180910390fd5b505050900390565b6001600160a01b0382166117925760405162461bcd60e51b81526004018080602001828103825260218152602001806120776021913960400191505060405180910390fd5b61179e82600083611c71565b6117e181604051806060016040528060228152602001611f2c602291396001600160a01b038516600090815260208190526040902054919063ffffffff6116b616565b6001600160a01b03831660009081526020819052604090205560025461180d908263ffffffff611c7616565b6002556040805182815290516000916001600160a01b038516917fddf252ad1be2c89b69c2b068fc378daa952ba7f163c4a11628f55a4df523b3ef9181900360200190a35050565b6000828152600660205260409020611873908263ffffffff611cd316565b15610e675761188061131d565b6001600160a01b0316816001600160a01b0316837f2f8788117e7eff1d82e926ec794901d17c78024a50270940304540a733656f0d60405160405180910390a45050565b60008281526006602052604090206118e2908263ffffffff611ce816565b15610e67576118ef61131d565b6001600160a01b0316816001600160a01b0316837ff6391f5c32d9c69d2a47ea670b442974b53935d1edc7fd64eb21e047a839171b60405160405180910390a45050565b3b151590565b604051635260769b60e11b815233600482018181526024830185905260606044840190815284516064850152845187946001600160a01b0386169463a4c0ed369490938993899360840190602085019080838360005b838110156119a757818101518382015260200161198f565b50505050905090810190601f1680156119d45780820380516001836020036101000a031916815260200191505b50945050505050600060405180830381600087803b1580156119f557600080fd5b505af1158015611a09573d6000803e3d6000fd5b5050505050505050565b60006110588383611cfd565b6000611058836001600160a01b038416611d61565b60006109e782611d79565b6001600160a01b038216611a9a576040805162461bcd60e51b815260206004820152601f60248201527f45524332303a206d696e7420746f20746865207a65726f206164647265737300604482015290519081900360640190fd5b611aa660008383611c71565b600254611ab9908263ffffffff6114f516565b6002556001600160a01b038216600090815260208190526040902054611ae5908263ffffffff6114f516565b6001600160a01b0383166000818152602081815260408083209490945583518581529351929391927fddf252ad1be2c89b69c2b068fc378daa952ba7f163c4a11628f55a4df523b3ef9281900390910190a35050565b600033301415611b935760606000368080601f0160208091040260200160405190810160405280939291908181526020018383808284376000920191909152505050503601516001600160a01b03169150611b969050565b50335b90565b6000604051806080016040528060438152602001611f4e60439139805190602001208260000151836020015184604001518051906020012060405160200180858152602001848152602001836001600160a01b03166001600160a01b03168152602001828152602001945050505050604051602081830303815290604052805190602001209050919050565b6000611c2f610d28565b82604051602001808061190160f01b81525060020183815260200182815260200192505050604051602081830303815290604052805190602001209050919050565b505050565b600082821115611ccd576040805162461bcd60e51b815260206004820152601e60248201527f536166654d6174683a207375627472616374696f6e206f766572666c6f770000604482015290519081900360640190fd5b50900390565b6000611058836001600160a01b038416611d7d565b6000611058836001600160a01b038416611dc7565b81546000908210611d3f5760405162461bcd60e51b8152600401808060200182810382526022815260200180611eb86022913960400191505060405180910390fd5b826000018281548110611d4e57fe5b9060005260206000200154905092915050565b60009081526001919091016020526040902054151590565b5490565b6000611d898383611d61565b611dbf575081546001818101845560008481526020808220909301849055845484825282860190935260409020919091556109e7565b5060006109e7565b60008181526001830160205260408120548015611e835783546000198083019190810190600090879083908110611dfa57fe5b9060005260206000200154905080876000018481548110611e1757fe5b600091825260208083209091019290925582815260018981019092526040902090840190558654879080611e4757fe5b600190038181906000526020600020016000905590558660010160008781526020019081526020016000206000905560019450505050506109e7565b60009150506109e7565b60405180606001604052806000815260200160006001600160a01b0316815260200160608152509056fe456e756d657261626c655365743a20696e646578206f7574206f6620626f756e647345524332303a207472616e7366657220746f20746865207a65726f2061646472657373416363657373436f6e74726f6c3a2073656e646572206d75737420626520616e2061646d696e20746f206772616e7445524332303a206275726e20616d6f756e7420657863656564732062616c616e63654d6574615472616e73616374696f6e2875696e74323536206e6f6e63652c616464726573732066726f6d2c62797465732066756e6374696f6e5369676e61747572652945524332303a20617070726f766520746f20746865207a65726f206164647265737345524332303a207472616e7366657220616d6f756e7420657863656564732062616c616e6365416363657373436f6e74726f6c3a2073656e646572206d75737420626520616e2061646d696e20746f207265766f6b654e61746976654d6574615472616e73616374696f6e3a20494e56414c49445f5349474e455245524332303a207472616e7366657220616d6f756e74206578636565647320616c6c6f77616e63655369676e657220616e64207369676e617475726520646f206e6f74206d6174636845524332303a206275726e2066726f6d20746865207a65726f206164647265737345524332303a207472616e736665722066726f6d20746865207a65726f206164647265737345524332303a20617070726f76652066726f6d20746865207a65726f206164647265737345524332303a2064656372656173656420616c6c6f77616e63652062656c6f77207a65726f416363657373436f6e74726f6c3a2063616e206f6e6c792072656e6f756e636520726f6c657320666f722073656c66a2646970667358221220b7e14785d51bac1a5f5915820ca9ad0013e3d2e6ae1b8a0d450c87e85b711b0964736f6c63430006060033454950373132446f6d61696e28737472696e67206e616d652c737472696e672076657273696f6e2c6164647265737320766572696679696e67436f6e74726163742c627974657333322073616c7429",
  "linkReferences": {},
  "deployedLinkReferences": {}
}