{
  "_format": "hh-sol-artifact-1",
  "contractName": "pMinty",
  "sourceName": "contracts/Minty/pminty.sol",
  "abi": [
    {
      "inputs": [],
      "stateMutability": "nonpayable",
      "type": "constructor"
    },
    {
      "anonymous": false,
      "inputs": [
        {
          "indexed": true,
          "internalType": "address",
          "name": "owner",
          "type": "address"
        },
        {
          "indexed": true,
          "internalType": "address",
          "name": "spender",
          "type": "address"
        },
        {
          "indexed": false,
          "internalType": "uint256",
          "name": "value",
          "type": "uint256"
        }
      ],
      "name": "Approval",
      "type": "event"
    },
    {
      "anonymous": false,
      "inputs": [
        {
          "indexed": true,
          "internalType": "address",
          "name": "from",
          "type": "address"
        },
        {
          "indexed": true,
          "internalType": "address",
          "name": "to",
          "type": "address"
        },
        {
          "indexed": false,
          "internalType": "uint256",
          "name": "value",
          "type": "uint256"
        },
        {
          "indexed": false,
          "internalType": "bytes",
          "name": "data",
          "type": "bytes"
        }
      ],
      "name": "ERC677Transfer",
      "type": "event"
    },
    {
      "anonymous": false,
      "inputs": [
        {
          "indexed": false,
          "internalType": "address",
          "name": "userAddress",
          "type": "address"
        },
        {
          "indexed": false,
          "internalType": "address payable",
          "name": "relayerAddress",
          "type": "address"
        },
        {
          "indexed": false,
          "internalType": "bytes",
          "name": "functionSignature",
          "type": "bytes"
        }
      ],
      "name": "MetaTransactionExecuted",
      "type": "event"
    },
    {
      "anonymous": false,
      "inputs": [
        {
          "indexed": true,
          "internalType": "bytes32",
          "name": "role",
          "type": "bytes32"
        },
        {
          "indexed": true,
          "internalType": "bytes32",
          "name": "previousAdminRole",
          "type": "bytes32"
        },
        {
          "indexed": true,
          "internalType": "bytes32",
          "name": "newAdminRole",
          "type": "bytes32"
        }
      ],
      "name": "RoleAdminChanged",
      "type": "event"
    },
    {
      "anonymous": false,
      "inputs": [
        {
          "indexed": true,
          "internalType": "bytes32",
          "name": "role",
          "type": "bytes32"
        },
        {
          "indexed": true,
          "internalType": "address",
          "name": "account",
          "type": "address"
        },
        {
          "indexed": true,
          "internalType": "address",
          "name": "sender",
          "type": "address"
        }
      ],
      "name": "RoleGranted",
      "type": "event"
    },
    {
      "anonymous": false,
      "inputs": [
        {
          "indexed": true,
          "internalType": "bytes32",
          "name": "role",
          "type": "bytes32"
        },
        {
          "indexed": true,
          "internalType": "address",
          "name": "account",
          "type": "address"
        },
        {
          "indexed": true,
          "internalType": "address",
          "name": "sender",
          "type": "address"
        }
      ],
      "name": "RoleRevoked",
      "type": "event"
    },
    {
      "anonymous": false,
      "inputs": [
        {
          "indexed": true,
          "internalType": "address",
          "name": "from",
          "type": "address"
        },
        {
          "indexed": true,
          "internalType": "address",
          "name": "to",
          "type": "address"
        },
        {
          "indexed": false,
          "internalType": "uint256",
          "name": "value",
          "type": "uint256"
        }
      ],
      "name": "Transfer",
      "type": "event"
    },
    {
      "inputs": [],
      "name": "DEFAULT_ADMIN_ROLE",
      "outputs": [
        {
          "internalType": "bytes32",
          "name": "",
          "type": "bytes32"
        }
      ],
      "stateMutability": "view",
      "type": "function"
    },
    {
      "inputs": [],
      "name": "DEPOSITOR_ROLE",
      "outputs": [
        {
          "internalType": "bytes32",
          "name": "",
          "type": "bytes32"
        }
      ],
      "stateMutability": "view",
      "type": "function"
    },
    {
      "inputs": [],
      "name": "ERC712_VERSION",
      "outputs": [
        {
          "internalType": "string",
          "name": "",
          "type": "string"
        }
      ],
      "stateMutability": "view",
      "type": "function"
    },
    {
      "inputs": [],
      "name": "MAX_SUPPLY",
      "outputs": [
        {
          "internalType": "uint256",
          "name": "",
          "type": "uint256"
        }
      ],
      "stateMutability": "view",
      "type": "function"
    },
    {
      "inputs": [
        {
          "internalType": "address",
          "name": "owner",
          "type": "address"
        },
        {
          "internalType": "address",
          "name": "spender",
          "type": "address"
        }
      ],
      "name": "allowance",
      "outputs": [
        {
          "internalType": "uint256",
          "name": "",
          "type": "uint256"
        }
      ],
      "stateMutability": "view",
      "type": "function"
    },
    {
      "inputs": [
        {
          "internalType": "address",
          "name": "spender",
          "type": "address"
        },
        {
          "internalType": "uint256",
          "name": "amount",
          "type": "uint256"
        }
      ],
      "name": "approve",
      "outputs": [
        {
          "internalType": "bool",
          "name": "",
          "type": "bool"
        }
      ],
      "stateMutability": "nonpayable",
      "type": "function"
    },
    {
      "inputs": [
        {
          "internalType": "address",
          "name": "account",
          "type": "address"
        }
      ],
      "name": "balanceOf",
      "outputs": [
        {
          "internalType": "uint256",
          "name": "",
          "type": "uint256"
        }
      ],
      "stateMutability": "view",
      "type": "function"
    },
    {
      "inputs": [],
      "name": "decimals",
      "outputs": [
        {
          "internalType": "uint8",
          "name": "",
          "type": "uint8"
        }
      ],
      "stateMutability": "view",
      "type": "function"
    },
    {
      "inputs": [
        {
          "internalType": "address",
          "name": "spender",
          "type": "address"
        },
        {
          "internalType": "uint256",
          "name": "subtractedValue",
          "type": "uint256"
        }
      ],
      "name": "decreaseAllowance",
      "outputs": [
        {
          "internalType": "bool",
          "name": "",
          "type": "bool"
        }
      ],
      "stateMutability": "nonpayable",
      "type": "function"
    },
    {
      "inputs": [
        {
          "internalType": "address",
          "name": "user",
          "type": "address"
        },
        {
          "internalType": "bytes",
          "name": "depositData",
          "type": "bytes"
        }
      ],
      "name": "deposit",
      "outputs": [],
      "stateMutability": "nonpayable",
      "type": "function"
    },
    {
      "inputs": [
        {
          "internalType": "address",
          "name": "userAddress",
          "type": "address"
        },
        {
          "internalType": "bytes",
          "name": "functionSignature",
          "type": "bytes"
        },
        {
          "internalType": "bytes32",
          "name": "sigR",
          "type": "bytes32"
        },
        {
          "internalType": "bytes32",
          "name": "sigS",
          "type": "bytes32"
        },
        {
          "internalType": "uint8",
          "name": "sigV",
          "type": "uint8"
        }
      ],
      "name": "executeMetaTransaction",
      "outputs": [
        {
          "internalType": "bytes",
          "name": "",
          "type": "bytes"
        }
      ],
      "stateMutability": "payable",
      "type": "function"
    },
    {
      "inputs": [],
      "name": "getChainId",
      "outputs": [
        {
          "internalType": "uint256",
          "name": "",
          "type": "uint256"
        }
      ],
      "stateMutability": "pure",
      "type": "function"
    },
    {
      "inputs": [],
      "name": "getDomainSeperator",
      "outputs": [
        {
          "internalType": "bytes32",
          "name": "",
          "type": "bytes32"
        }
      ],
      "stateMutability": "view",
      "type": "function"
    },
    {
      "inputs": [
        {
          "internalType": "address",
          "name": "user",
          "type": "address"
        }
      ],
      "name": "getNonce",
      "outputs": [
        {
          "internalType": "uint256",
          "name": "nonce",
          "type": "uint256"
        }
      ],
      "stateMutability": "view",
      "type": "function"
    },
    {
      "inputs": [
        {
          "internalType": "bytes32",
          "name": "role",
          "type": "bytes32"
        }
      ],
      "name": "getRoleAdmin",
      "outputs": [
        {
          "internalType": "bytes32",
          "name": "",
          "type": "bytes32"
        }
      ],
      "stateMutability": "view",
      "type": "function"
    },
    {
      "inputs": [
        {
          "internalType": "bytes32",
          "name": "role",
          "type": "bytes32"
        },
        {
          "internalType": "uint256",
          "name": "index",
          "type": "uint256"
        }
      ],
      "name": "getRoleMember",
      "outputs": [
        {
          "internalType": "address",
          "name": "",
          "type": "address"
        }
      ],
      "stateMutability": "view",
      "type": "function"
    },
    {
      "inputs": [
        {
          "internalType": "bytes32",
          "name": "role",
          "type": "bytes32"
        }
      ],
      "name": "getRoleMemberCount",
      "outputs": [
        {
          "internalType": "uint256",
          "name": "",
          "type": "uint256"
        }
      ],
      "stateMutability": "view",
      "type": "function"
    },
    {
      "inputs": [
        {
          "internalType": "bytes32",
          "name": "role",
          "type": "bytes32"
        },
        {
          "internalType": "address",
          "name": "account",
          "type": "address"
        }
      ],
      "name": "grantRole",
      "outputs": [],
      "stateMutability": "nonpayable",
      "type": "function"
    },
    {
      "inputs": [
        {
          "internalType": "bytes32",
          "name": "role",
          "type": "bytes32"
        },
        {
          "internalType": "address",
          "name": "account",
          "type": "address"
        }
      ],
      "name": "hasRole",
      "outputs": [
        {
          "internalType": "bool",
          "name": "",
          "type": "bool"
        }
      ],
      "stateMutability": "view",
      "type": "function"
    },
    {
      "inputs": [
        {
          "internalType": "address",
          "name": "spender",
          "type": "address"
        },
        {
          "internalType": "uint256",
          "name": "addedValue",
          "type": "uint256"
        }
      ],
      "name": "increaseAllowance",
      "outputs": [
        {
          "internalType": "bool",
          "name": "",
          "type": "bool"
        }
      ],
      "stateMutability": "nonpayable",
      "type": "function"
    },
    {
      "inputs": [],
      "name": "name",
      "outputs": [
        {
          "internalType": "string",
          "name": "",
          "type": "string"
        }
      ],
      "stateMutability": "view",
      "type": "function"
    },
    {
      "inputs": [
        {
          "internalType": "bytes32",
          "name": "role",
          "type": "bytes32"
        },
        {
          "internalType": "address",
          "name": "account",
          "type": "address"
        }
      ],
      "name": "renounceRole",
      "outputs": [],
      "stateMutability": "nonpayable",
      "type": "function"
    },
    {
      "inputs": [
        {
          "internalType": "bytes32",
          "name": "role",
          "type": "bytes32"
        },
        {
          "internalType": "address",
          "name": "account",
          "type": "address"
        }
      ],
      "name": "revokeRole",
      "outputs": [],
      "stateMutability": "nonpayable",
      "type": "function"
    },
    {
      "inputs": [],
      "name": "symbol",
      "outputs": [
        {
          "internalType": "string",
          "name": "",
          "type": "string"
        }
      ],
      "stateMutability": "view",
      "type": "function"
    },
    {
      "inputs": [],
      "name": "totalSupply",
      "outputs": [
        {
          "internalType": "uint256",
          "name": "",
          "type": "uint256"
        }
      ],
      "stateMutability": "view",
      "type": "function"
    },
    {
      "inputs": [
        {
          "internalType": "address",
          "name": "recipient",
          "type": "address"
        },
        {
          "internalType": "uint256",
          "name": "amount",
          "type": "uint256"
        }
      ],
      "name": "transfer",
      "outputs": [
        {
          "internalType": "bool",
          "name": "",
          "type": "bool"
        }
      ],
      "stateMutability": "nonpayable",
      "type": "function"
    },
    {
      "inputs": [
        {
          "internalType": "address",
          "name": "_to",
          "type": "address"
        },
        {
          "internalType": "uint256",
          "name": "_value",
          "type": "uint256"
        },
        {
          "internalType": "bytes",
          "name": "_data",
          "type": "bytes"
        }
      ],
      "name": "transferAndCall",
      "outputs": [
        {
          "internalType": "bool",
          "name": "success",
          "type": "bool"
        }
      ],
      "stateMutability": "nonpayable",
      "type": "function"
    },
    {
      "inputs": [
        {
          "internalType": "address",
          "name": "sender",
          "type": "address"
        },
        {
          "internalType": "address",
          "name": "recipient",
          "type": "address"
        },
        {
          "internalType": "uint256",
          "name": "amount",
          "type": "uint256"
        }
      ],
      "name": "transferFrom",
      "outputs": [
        {
          "internalType": "bool",
          "name": "",
          "type": "bool"
        }
      ],
      "stateMutability": "nonpayable",
      "type": "function"
    },
    {
      "inputs": [
        {
          "internalType": "uint256",
          "name": "amount",
          "type": "uint256"
        }
      ],
      "name": "withdraw",
      "outputs": [],
      "stateMutability": "nonpayable",
      "type": "function"
    }
  ],
  "bytecode": "0x60806040526008805460ff191690553480156200001b57600080fd5b5060405180604001604052806009815260200168135a5b9d1e48105c9d60ba1b815250604051806040016040528060058152602001644d494e545960d81b815250601273a6fa4fb5f76172d178d61b04b0ecd319c5d1c0aa838381600390805190602001906200008d9291906200051e565b508051620000a39060049060208401906200051e565b50506005805460ff191660121790555060408051808201909152600a81526904368696c6445524332360b41b6020820152620000e8906001600160e01b036200017a16565b620000fc826001600160e01b036200022016565b620001246000620001156001600160e01b036200023616565b6001600160e01b036200025316565b604080516d4445504f5349544f525f524f4c4560901b8152905190819003600e0190206200015c90826001600160e01b036200025316565b62000170846001600160e01b036200026816565b50505050620005c0565b806040516020018082805190602001908083835b60208310620001af5780518252601f1990920191602091820191016200018e565b51815160209384036101000a60001901801990921691161790527f3a20494e53554646494349454e545f5045524d495353494f4e530000000000009190930190815260408051808303600519018152601a909201905280516200021c95506007945092019190506200051e565b5050565b6005805460ff191660ff92909216919091179055565b60006200024d620002d660201b62001ac01760201c565b90505b90565b6200021c82826001600160e01b036200033516565b60085460ff1615620002b2576040805162461bcd60e51b815260206004820152600e60248201526d185b1c9958591e481a5b9a5d195960921b604482015290519081900360640190fd5b620002c6816001600160e01b03620003b916565b506008805460ff19166001179055565b600033301415620003305760606000368080601f0160208091040260200160405190810160405280939291908181526020018383808284376000920191909152505050503601516001600160a01b03169150620002509050565b503390565b60008281526006602090815260409091206200035c91839062001c5862000481821b17901c565b156200021c57620003756001600160e01b036200023616565b6001600160a01b0316816001600160a01b0316837f2f8788117e7eff1d82e926ec794901d17c78024a50270940304540a733656f0d60405160405180910390a45050565b6040518060800160405280604f8152602001620026bf604f913980516020918201208251838301206040805180820190915260018152603160f81b930192909252907fc89efdaa54c0f20c7adf612882df0950f5a951637e0307cdcb4c672f298b8bc630620004306001600160e01b03620004aa16565b604080516020808201979097528082019590955260608501939093526001600160a01b03909116608084015260a0808401919091528151808403909101815260c09092019052805191012060095550565b6000620004a1836001600160a01b0384166001600160e01b03620004ae16565b90505b92915050565b4690565b6000620004c583836001600160e01b036200050616565b620004fd57508154600181810184556000848152602080822090930184905584548482528286019093526040902091909155620004a4565b506000620004a4565b60009081526001919091016020526040902054151590565b828054600181600116156101000203166002900490600052602060002090601f016020900481019282601f106200056157805160ff191683800117855562000591565b8280016001018555821562000591579182015b828111156200059157825182559160200191906001019062000574565b506200059f929150620005a3565b5090565b6200025091905b808211156200059f5760008155600101620005aa565b6120ef80620005d06000396000f3fe6080604052600436106101c25760003560e01c806336568abe116100f7578063a217fddf11610095578063ca15c87311610064578063ca15c873146107b0578063cf2c52cb146107da578063d547741f14610867578063dd62ed3e146108a0576101c2565b8063a217fddf14610714578063a3b0b5a314610729578063a457c2d71461073e578063a9059cbb14610777576101c2565b806370a08231116100d157806370a08231146106475780639010d07c1461067a57806391d14854146106c657806395d89b41146106ff576101c2565b806336568abe1461050d57806339509351146105465780634000aea01461057f576101c2565b8063248a9ca3116101645780632f2ff15d1161013e5780632f2ff15d1461047f578063313ce567146104b857806332cb6b0c146104e35780633408e470146104f8576101c2565b8063248a9ca3146103f65780632d0335ab146104205780632e1a7d4d14610453576101c2565b80630f7e5970116101a05780630f7e59701461036257806318160ddd1461037757806320379ee51461039e57806323b872dd146103b3576101c2565b806306fdde03146101c7578063095ea7b3146102515780630c53c51c1461029e575b600080fd5b3480156101d357600080fd5b506101dc6108db565b6040805160208082528351818301528351919283929083019185019080838360005b838110156102165781810151838201526020016101fe565b50505050905090810190601f1680156102435780820380516001836020036101000a031916815260200191505b509250505060405180910390f35b34801561025d57600080fd5b5061028a6004803603604081101561027457600080fd5b506001600160a01b038135169060200135610971565b604080519115158252519081900360200190f35b6101dc600480360360a08110156102b457600080fd5b6001600160a01b0382351691908101906040810160208201356401000000008111156102df57600080fd5b8201836020820111156102f157600080fd5b8035906020019184600183028401116401000000008311171561031357600080fd5b91908080601f016020809104026020016040519081016040528093929190818152602001838380828437600092019190915250929550508235935050506020810135906040013560ff1661098f565b34801561036e57600080fd5b506101dc610c92565b34801561038357600080fd5b5061038c610caf565b60408051918252519081900360200190f35b3480156103aa57600080fd5b5061038c610cb5565b3480156103bf57600080fd5b5061028a600480360360608110156103d657600080fd5b506001600160a01b03813581169160208101359091169060400135610cbb565b34801561040257600080fd5b5061038c6004803603602081101561041957600080fd5b5035610d48565b34801561042c57600080fd5b5061038c6004803603602081101561044357600080fd5b50356001600160a01b0316610d5d565b34801561045f57600080fd5b5061047d6004803603602081101561047657600080fd5b5035610d78565b005b34801561048b57600080fd5b5061047d600480360360408110156104a257600080fd5b50803590602001356001600160a01b0316610d8c565b3480156104c457600080fd5b506104cd610df8565b6040805160ff9092168252519081900360200190f35b3480156104ef57600080fd5b5061038c610e01565b34801561050457600080fd5b5061038c610e10565b34801561051957600080fd5b5061047d6004803603604081101561053057600080fd5b50803590602001356001600160a01b0316610e14565b34801561055257600080fd5b5061028a6004803603604081101561056957600080fd5b506001600160a01b038135169060200135610e75565b34801561058b57600080fd5b5061028a600480360360608110156105a257600080fd5b6001600160a01b03823516916020810135918101906060810160408201356401000000008111156105d257600080fd5b8201836020820111156105e457600080fd5b8035906020019184600183028401116401000000008311171561060657600080fd5b91908080601f016020809104026020016040519081016040528093929190818152602001838380828437600092019190915250929550610ec9945050505050565b34801561065357600080fd5b5061038c6004803603602081101561066a57600080fd5b50356001600160a01b0316610fa4565b34801561068657600080fd5b506106aa6004803603604081101561069d57600080fd5b5080359060200135610fbf565b604080516001600160a01b039092168252519081900360200190f35b3480156106d257600080fd5b5061028a600480360360408110156106e957600080fd5b50803590602001356001600160a01b0316610fe4565b34801561070b57600080fd5b506101dc611002565b34801561072057600080fd5b5061038c611063565b34801561073557600080fd5b5061038c611068565b34801561074a57600080fd5b5061028a6004803603604081101561076157600080fd5b506001600160a01b03813516906020013561108e565b34801561078357600080fd5b5061028a6004803603604081101561079a57600080fd5b506001600160a01b0381351690602001356110fc565b3480156107bc57600080fd5b5061038c600480360360208110156107d357600080fd5b5035611110565b3480156107e657600080fd5b5061047d600480360360408110156107fd57600080fd5b6001600160a01b03823516919081019060408101602082013564010000000081111561082857600080fd5b82018360208201111561083a57600080fd5b8035906020019184600183028401116401000000008311171561085c57600080fd5b509092509050611127565b34801561087357600080fd5b5061047d6004803603604081101561088a57600080fd5b50803590602001356001600160a01b031661121e565b3480156108ac57600080fd5b5061038c600480360360408110156108c357600080fd5b506001600160a01b0381358116916020013516611277565b60038054604080516020601f60026000196101006001881615020190951694909404938401819004810282018101909252828152606093909290918301828280156109675780601f1061093c57610100808354040283529160200191610967565b820191906000526020600020905b81548152906001019060200180831161094a57829003601f168201915b5050505050905090565b600061098561097e6112a2565b84846112b1565b5060015b92915050565b6060610999611e12565b50604080516060810182526001600160a01b0388166000818152600a6020908152908490205483528201529081018690526109d7878287878761139d565b610a125760405162461bcd60e51b8152600401808060200182810382526021815260200180611fdb6021913960400191505060405180910390fd5b6001600160a01b0387166000908152600a6020526040902054610a3c90600163ffffffff61147a16565b6001600160a01b0388166000818152600a602090815260408083209490945583519283523383820181905260609484018581528b51958501959095528a517f5845892132946850460bff5a0083f71031bc5bf9aadcd40f1de79423eac9b10b958d9592948d94919260808501928601918190849084905b83811015610acb578181015183820152602001610ab3565b50505050905090810190601f168015610af85780820380516001836020036101000a031916815260200191505b5094505050505060405180910390a160006060306001600160a01b0316888a6040516020018083805190602001908083835b60208310610b495780518252601f199092019160209182019101610b2a565b6001836020036101000a038019825116818451168082178552505050505050905001826001600160a01b03166001600160a01b031660601b8152601401925050506040516020818303038152906040526040518082805190602001908083835b60208310610bc85780518252601f199092019160209182019101610ba9565b6001836020036101000a0380198251168184511680821785525050505050509050019150506000604051808303816000865af19150503d8060008114610c2a576040519150601f19603f3d011682016040523d82523d6000602084013e610c2f565b606091505b509150915081610c86576040805162461bcd60e51b815260206004820152601c60248201527f46756e6374696f6e2063616c6c206e6f74207375636365737366756c00000000604482015290519081900360640190fd5b98975050505050505050565b604051806040016040528060018152602001603160f81b81525081565b60025490565b60095490565b6000610cc88484846114d4565b610d3e84610cd46112a2565b610d3985604051806060016040528060288152602001611fb3602891396001600160a01b038a16600090815260016020526040812090610d126112a2565b6001600160a01b03168152602081019190915260400160002054919063ffffffff61163b16565b6112b1565b5060019392505050565b60009081526006602052604090206002015490565b6001600160a01b03166000908152600a602052604090205490565b610d89610d836112a2565b826116d2565b50565b600082815260066020526040902060020154610daf90610daa6112a2565b610fe4565b610dea5760405162461bcd60e51b815260040180806020018281038252602f815260200180611e82602f913960400191505060405180910390fd5b610df482826117da565b5050565b60055460ff1690565b6a52b7d2dcc80cd2e400000081565b4690565b610e1c6112a2565b6001600160a01b0316816001600160a01b031614610e6b5760405162461bcd60e51b815260040180806020018281038252602f81526020018061208b602f913960400191505060405180910390fd5b610df48282611849565b6000610985610e826112a2565b84610d398560016000610e936112a2565b6001600160a01b03908116825260208083019390935260409182016000908120918c16815292529020549063ffffffff61147a16565b6000610ed584846110fc565b50836001600160a01b0316336001600160a01b03167f72db2339068fd324bbc28f2944e01064da539ac76064b6ce4a97a5f81de43dd685856040518083815260200180602001828103825283818151815260200191508051906020019080838360005b83811015610f50578181015183820152602001610f38565b50505050905090810190601f168015610f7d5780820380516001836020036101000a031916815260200191505b50935050505060405180910390a3610f94846118b8565b15610d3e57610d3e8484846118be565b6001600160a01b031660009081526020819052604090205490565b6000828152600660205260408120610fdd908363ffffffff61199816565b9392505050565b6000828152600660205260408120610fdd908363ffffffff6119a416565b60048054604080516020601f60026000196101006001881615020190951694909404938401819004810282018101909252828152606093909290918301828280156109675780601f1061093c57610100808354040283529160200191610967565b600081565b604080516d4445504f5349544f525f524f4c4560901b8152905190819003600e01902081565b600061098561109b6112a2565b84610d398560405180606001604052806025815260200161206660259139600160006110c56112a2565b6001600160a01b03908116825260208083019390935260409182016000908120918d1681529252902054919063ffffffff61163b16565b60006109856111096112a2565b84846114d4565b6000818152600660205260408120610989906119b9565b604080516d4445504f5349544f525f524f4c4560901b8152905190819003600e01902061115681610daa6112a2565b6007906111f65760405162461bcd60e51b81526020600482019081528254600260001961010060018416150201909116046024830181905290918291604490910190849080156111e75780601f106111bc576101008083540402835291602001916111e7565b820191906000526020600020905b8154815290600101906020018083116111ca57829003601f168201915b50509250505060405180910390fd5b5060008383602081101561120957600080fd5b5035905061121785826119c4565b5050505050565b60008281526006602052604090206002015461123c90610daa6112a2565b610e6b5760405162461bcd60e51b8152600401808060200182810382526030815260200180611f5e6030913960400191505060405180910390fd5b6001600160a01b03918216600090815260016020908152604080832093909416825291909152205490565b60006112ac611ac0565b905090565b6001600160a01b0383166112f65760405162461bcd60e51b81526004018080602001828103825260248152602001806120426024913960400191505060405180910390fd5b6001600160a01b03821661133b5760405162461bcd60e51b8152600401808060200182810382526022815260200180611f166022913960400191505060405180910390fd5b6001600160a01b03808416600081815260016020908152604080832094871680845294825291829020859055815185815291517f8c5be1e5ebec7d5bd14f71427d1e84f3dd0314c0f7b2291e5b200ac8c7c3b9259281900390910190a3505050565b60006001600160a01b0386166113e45760405162461bcd60e51b8152600401808060200182810382526025815260200180611f8e6025913960400191505060405180910390fd5b60016113f76113f287611b1e565b611baa565b83868660405160008152602001604052604051808581526020018460ff1660ff1681526020018381526020018281526020019450505050506020604051602081039080840390855afa158015611451573d6000803e3d6000fd5b505050602060405103516001600160a01b0316866001600160a01b031614905095945050505050565b600082820183811015610fdd576040805162461bcd60e51b815260206004820152601b60248201527f536166654d6174683a206164646974696f6e206f766572666c6f770000000000604482015290519081900360640190fd5b6001600160a01b0383166115195760405162461bcd60e51b815260040180806020018281038252602581526020018061201d6025913960400191505060405180910390fd5b6001600160a01b03821661155e5760405162461bcd60e51b8152600401808060200182810382526023815260200180611e5f6023913960400191505060405180910390fd5b611569838383611bf6565b6115ac81604051806060016040528060268152602001611f38602691396001600160a01b038616600090815260208190526040902054919063ffffffff61163b16565b6001600160a01b0380851660009081526020819052604080822093909355908416815220546115e1908263ffffffff61147a16565b6001600160a01b038084166000818152602081815260409182902094909455805185815290519193928716927fddf252ad1be2c89b69c2b068fc378daa952ba7f163c4a11628f55a4df523b3ef92918290030190a3505050565b600081848411156116ca5760405162461bcd60e51b81526004018080602001828103825283818151815260200191508051906020019080838360005b8381101561168f578181015183820152602001611677565b50505050905090810190601f1680156116bc5780820380516001836020036101000a031916815260200191505b509250505060405180910390fd5b505050900390565b6001600160a01b0382166117175760405162461bcd60e51b8152600401808060200182810382526021815260200180611ffc6021913960400191505060405180910390fd5b61172382600083611bf6565b61176681604051806060016040528060228152602001611eb1602291396001600160a01b038516600090815260208190526040902054919063ffffffff61163b16565b6001600160a01b038316600090815260208190526040902055600254611792908263ffffffff611bfb16565b6002556040805182815290516000916001600160a01b038516917fddf252ad1be2c89b69c2b068fc378daa952ba7f163c4a11628f55a4df523b3ef9181900360200190a35050565b60008281526006602052604090206117f8908263ffffffff611c5816565b15610df4576118056112a2565b6001600160a01b0316816001600160a01b0316837f2f8788117e7eff1d82e926ec794901d17c78024a50270940304540a733656f0d60405160405180910390a45050565b6000828152600660205260409020611867908263ffffffff611c6d16565b15610df4576118746112a2565b6001600160a01b0316816001600160a01b0316837ff6391f5c32d9c69d2a47ea670b442974b53935d1edc7fd64eb21e047a839171b60405160405180910390a45050565b3b151590565b604051635260769b60e11b815233600482018181526024830185905260606044840190815284516064850152845187946001600160a01b0386169463a4c0ed369490938993899360840190602085019080838360005b8381101561192c578181015183820152602001611914565b50505050905090810190601f1680156119595780820380516001836020036101000a031916815260200191505b50945050505050600060405180830381600087803b15801561197a57600080fd5b505af115801561198e573d6000803e3d6000fd5b5050505050505050565b6000610fdd8383611c82565b6000610fdd836001600160a01b038416611ce6565b600061098982611cfe565b6001600160a01b038216611a1f576040805162461bcd60e51b815260206004820152601f60248201527f45524332303a206d696e7420746f20746865207a65726f206164647265737300604482015290519081900360640190fd5b611a2b60008383611bf6565b600254611a3e908263ffffffff61147a16565b6002556001600160a01b038216600090815260208190526040902054611a6a908263ffffffff61147a16565b6001600160a01b0383166000818152602081815260408083209490945583518581529351929391927fddf252ad1be2c89b69c2b068fc378daa952ba7f163c4a11628f55a4df523b3ef9281900390910190a35050565b600033301415611b185760606000368080601f0160208091040260200160405190810160405280939291908181526020018383808284376000920191909152505050503601516001600160a01b03169150611b1b9050565b50335b90565b6000604051806080016040528060438152602001611ed360439139805190602001208260000151836020015184604001518051906020012060405160200180858152602001848152602001836001600160a01b03166001600160a01b03168152602001828152602001945050505050604051602081830303815290604052805190602001209050919050565b6000611bb4610cb5565b82604051602001808061190160f01b81525060020183815260200182815260200192505050604051602081830303815290604052805190602001209050919050565b505050565b600082821115611c52576040805162461bcd60e51b815260206004820152601e60248201527f536166654d6174683a207375627472616374696f6e206f766572666c6f770000604482015290519081900360640190fd5b50900390565b6000610fdd836001600160a01b038416611d02565b6000610fdd836001600160a01b038416611d4c565b81546000908210611cc45760405162461bcd60e51b8152600401808060200182810382526022815260200180611e3d6022913960400191505060405180910390fd5b826000018281548110611cd357fe5b9060005260206000200154905092915050565b60009081526001919091016020526040902054151590565b5490565b6000611d0e8383611ce6565b611d4457508154600181810184556000848152602080822090930184905584548482528286019093526040902091909155610989565b506000610989565b60008181526001830160205260408120548015611e085783546000198083019190810190600090879083908110611d7f57fe5b9060005260206000200154905080876000018481548110611d9c57fe5b600091825260208083209091019290925582815260018981019092526040902090840190558654879080611dcc57fe5b60019003818190600052602060002001600090559055866001016000878152602001908152602001600020600090556001945050505050610989565b6000915050610989565b60405180606001604052806000815260200160006001600160a01b0316815260200160608152509056fe456e756d657261626c655365743a20696e646578206f7574206f6620626f756e647345524332303a207472616e7366657220746f20746865207a65726f2061646472657373416363657373436f6e74726f6c3a2073656e646572206d75737420626520616e2061646d696e20746f206772616e7445524332303a206275726e20616d6f756e7420657863656564732062616c616e63654d6574615472616e73616374696f6e2875696e74323536206e6f6e63652c616464726573732066726f6d2c62797465732066756e6374696f6e5369676e61747572652945524332303a20617070726f766520746f20746865207a65726f206164647265737345524332303a207472616e7366657220616d6f756e7420657863656564732062616c616e6365416363657373436f6e74726f6c3a2073656e646572206d75737420626520616e2061646d696e20746f207265766f6b654e61746976654d6574615472616e73616374696f6e3a20494e56414c49445f5349474e455245524332303a207472616e7366657220616d6f756e74206578636565647320616c6c6f77616e63655369676e657220616e64207369676e617475726520646f206e6f74206d6174636845524332303a206275726e2066726f6d20746865207a65726f206164647265737345524332303a207472616e736665722066726f6d20746865207a65726f206164647265737345524332303a20617070726f76652066726f6d20746865207a65726f206164647265737345524332303a2064656372656173656420616c6c6f77616e63652062656c6f77207a65726f416363657373436f6e74726f6c3a2063616e206f6e6c792072656e6f756e636520726f6c657320666f722073656c66a2646970667358221220a75a0543d23f03464ed6a8361207bd2d6473dee8d0d63bb2f37fcebebbe3a4c664736f6c63430006060033454950373132446f6d61696e28737472696e67206e616d652c737472696e672076657273696f6e2c6164647265737320766572696679696e67436f6e74726163742c627974657333322073616c7429",
  "linkReferences": {},
  "deployedLinkReferences": {}
}