{
  "_format": "hh-sol-artifact-1",
  "contractName": "pMintysale",
  "sourceName": "contracts/sale/pSale.sol",
  "abi": [
    {
      "inputs": [
        {
          "internalType": "contract IERC20",
          "name": "_weth",
          "type": "address"
        },
        {
          "internalType": "address",
          "name": "wallet",
          "type": "address"
        },
        {
          "internalType": "uint256",
          "name": "_ownerPerMille",
          "type": "uint256"
        },
        {
          "internalType": "uint256",
          "name": "_creatorPerMille",
          "type": "uint256"
        },
        {
          "internalType": "uint256",
          "name": "_divisor",
          "type": "uint256"
        }
      ],
      "stateMutability": "nonpayable",
      "type": "constructor"
    },
    {
      "anonymous": false,
      "inputs": [
        {
          "indexed": false,
          "internalType": "address",
          "name": "bidder",
          "type": "address"
        },
        {
          "indexed": false,
          "internalType": "uint256",
          "name": "tokenId",
          "type": "uint256"
        },
        {
          "indexed": false,
          "internalType": "uint256",
          "name": "previous_bid",
          "type": "uint256"
        },
        {
          "indexed": false,
          "internalType": "uint256",
          "name": "this_bid",
          "type": "uint256"
        }
      ],
      "name": "BidIncreased",
      "type": "event"
    },
    {
      "anonymous": false,
      "inputs": [
        {
          "indexed": false,
          "internalType": "address",
          "name": "bidder",
          "type": "address"
        },
        {
          "indexed": false,
          "internalType": "uint256",
          "name": "tokenId",
          "type": "uint256"
        },
        {
          "indexed": false,
          "internalType": "uint256",
          "name": "bid",
          "type": "uint256"
        }
      ],
      "name": "BidReceived",
      "type": "event"
    },
    {
      "anonymous": false,
      "inputs": [
        {
          "indexed": false,
          "internalType": "uint256",
          "name": "tokenId",
          "type": "uint256"
        },
        {
          "indexed": false,
          "internalType": "address",
          "name": "owner",
          "type": "address"
        },
        {
          "indexed": false,
          "internalType": "uint256",
          "name": "price",
          "type": "uint256"
        },
        {
          "indexed": false,
          "internalType": "string",
          "name": "hash",
          "type": "string"
        }
      ],
      "name": "NewOffer",
      "type": "event"
    },
    {
      "anonymous": false,
      "inputs": [
        {
          "indexed": false,
          "internalType": "address",
          "name": "buyer",
          "type": "address"
        },
        {
          "indexed": false,
          "internalType": "uint256",
          "name": "tokenId",
          "type": "uint256"
        },
        {
          "indexed": false,
          "internalType": "uint256",
          "name": "price",
          "type": "uint256"
        }
      ],
      "name": "OfferAccepted",
      "type": "event"
    },
    {
      "anonymous": false,
      "inputs": [
        {
          "indexed": true,
          "internalType": "address",
          "name": "previousOwner",
          "type": "address"
        },
        {
          "indexed": true,
          "internalType": "address",
          "name": "newOwner",
          "type": "address"
        }
      ],
      "name": "OwnershipTransferred",
      "type": "event"
    },
    {
      "anonymous": false,
      "inputs": [
        {
          "indexed": false,
          "internalType": "address",
          "name": "wallet",
          "type": "address"
        },
        {
          "indexed": false,
          "internalType": "address",
          "name": "creator",
          "type": "address"
        },
        {
          "indexed": false,
          "internalType": "address",
          "name": "_owner",
          "type": "address"
        }
      ],
      "name": "Payment",
      "type": "event"
    },
    {
      "anonymous": false,
      "inputs": [
        {
          "indexed": false,
          "internalType": "uint256",
          "name": "tokenId",
          "type": "uint256"
        },
        {
          "indexed": false,
          "internalType": "address",
          "name": "owner",
          "type": "address"
        },
        {
          "indexed": false,
          "internalType": "uint256",
          "name": "price",
          "type": "uint256"
        }
      ],
      "name": "ResaleOffer",
      "type": "event"
    },
    {
      "anonymous": false,
      "inputs": [
        {
          "indexed": false,
          "internalType": "uint256",
          "name": "tokenId",
          "type": "uint256"
        },
        {
          "indexed": false,
          "internalType": "uint256",
          "name": "price",
          "type": "uint256"
        }
      ],
      "name": "SaleResubmitted",
      "type": "event"
    },
    {
      "anonymous": false,
      "inputs": [
        {
          "indexed": false,
          "internalType": "uint256",
          "name": "tokenId",
          "type": "uint256"
        }
      ],
      "name": "SaleRetracted",
      "type": "event"
    },
    {
      "anonymous": false,
      "inputs": [
        {
          "indexed": false,
          "internalType": "uint256",
          "name": "ownerShare",
          "type": "uint256"
        },
        {
          "indexed": false,
          "internalType": "uint256",
          "name": "creatorShare",
          "type": "uint256"
        },
        {
          "indexed": false,
          "internalType": "uint256",
          "name": "divisor",
          "type": "uint256"
        }
      ],
      "name": "SharesUpdated",
      "type": "event"
    },
    {
      "anonymous": false,
      "inputs": [
        {
          "indexed": true,
          "internalType": "address",
          "name": "previousWallet",
          "type": "address"
        },
        {
          "indexed": true,
          "internalType": "address",
          "name": "newWallet",
          "type": "address"
        }
      ],
      "name": "WalletTransferred",
      "type": "event"
    },
    {
      "inputs": [
        {
          "internalType": "uint256",
          "name": "tokenId",
          "type": "uint256"
        },
        {
          "internalType": "address",
          "name": "bidder",
          "type": "address"
        }
      ],
      "name": "acceptBid",
      "outputs": [],
      "stateMutability": "nonpayable",
      "type": "function"
    },
    {
      "inputs": [
        {
          "internalType": "uint256",
          "name": "tokenId",
          "type": "uint256"
        }
      ],
      "name": "acceptOffer",
      "outputs": [],
      "stateMutability": "nonpayable",
      "type": "function"
    },
    {
      "inputs": [
        {
          "internalType": "uint256",
          "name": "tokenId",
          "type": "uint256"
        }
      ],
      "name": "available",
      "outputs": [
        {
          "internalType": "bool",
          "name": "",
          "type": "bool"
        }
      ],
      "stateMutability": "view",
      "type": "function"
    },
    {
      "inputs": [
        {
          "internalType": "uint256",
          "name": "",
          "type": "uint256"
        },
        {
          "internalType": "address",
          "name": "",
          "type": "address"
        }
      ],
      "name": "bids",
      "outputs": [
        {
          "internalType": "uint256",
          "name": "",
          "type": "uint256"
        }
      ],
      "stateMutability": "view",
      "type": "function"
    },
    {
      "inputs": [
        {
          "internalType": "address",
          "name": "newWallet",
          "type": "address"
        }
      ],
      "name": "changeWallet",
      "outputs": [],
      "stateMutability": "nonpayable",
      "type": "function"
    },
    {
      "inputs": [],
      "name": "creatorPerMille",
      "outputs": [
        {
          "internalType": "uint256",
          "name": "",
          "type": "uint256"
        }
      ],
      "stateMutability": "view",
      "type": "function"
    },
    {
      "inputs": [],
      "name": "divisor",
      "outputs": [
        {
          "internalType": "uint256",
          "name": "",
          "type": "uint256"
        }
      ],
      "stateMutability": "view",
      "type": "function"
    },
    {
      "inputs": [
        {
          "internalType": "address",
          "name": "",
          "type": "address"
        }
      ],
      "name": "isMinter",
      "outputs": [
        {
          "internalType": "bool",
          "name": "",
          "type": "bool"
        }
      ],
      "stateMutability": "view",
      "type": "function"
    },
    {
      "inputs": [
        {
          "internalType": "uint256",
          "name": "",
          "type": "uint256"
        }
      ],
      "name": "items",
      "outputs": [
        {
          "internalType": "address",
          "name": "creator",
          "type": "address"
        },
        {
          "internalType": "string",
          "name": "itemHash",
          "type": "string"
        },
        {
          "internalType": "uint256",
          "name": "price",
          "type": "uint256"
        },
        {
          "internalType": "bool",
          "name": "available",
          "type": "bool"
        },
        {
          "internalType": "bool",
          "name": "minted",
          "type": "bool"
        }
      ],
      "stateMutability": "view",
      "type": "function"
    },
    {
      "inputs": [
        {
          "internalType": "uint256",
          "name": "tokenId",
          "type": "uint256"
        },
        {
          "internalType": "uint256",
          "name": "topup",
          "type": "uint256"
        }
      ],
      "name": "makeBid",
      "outputs": [],
      "stateMutability": "nonpayable",
      "type": "function"
    },
    {
      "inputs": [],
      "name": "minty",
      "outputs": [
        {
          "internalType": "address",
          "name": "",
          "type": "address"
        }
      ],
      "stateMutability": "view",
      "type": "function"
    },
    {
      "inputs": [],
      "name": "nextToken",
      "outputs": [
        {
          "internalType": "uint256",
          "name": "",
          "type": "uint256"
        }
      ],
      "stateMutability": "view",
      "type": "function"
    },
    {
      "inputs": [
        {
          "internalType": "uint256",
          "name": "tokenId",
          "type": "uint256"
        },
        {
          "internalType": "string",
          "name": "ipfsString",
          "type": "string"
        },
        {
          "internalType": "uint256",
          "name": "price",
          "type": "uint256"
        }
      ],
      "name": "offerNew",
      "outputs": [],
      "stateMutability": "nonpayable",
      "type": "function"
    },
    {
      "inputs": [
        {
          "internalType": "uint256",
          "name": "tokenId",
          "type": "uint256"
        },
        {
          "internalType": "uint256",
          "name": "price",
          "type": "uint256"
        }
      ],
      "name": "offerResale",
      "outputs": [],
      "stateMutability": "nonpayable",
      "type": "function"
    },
    {
      "inputs": [
        {
          "internalType": "uint256",
          "name": "tokenId",
          "type": "uint256"
        },
        {
          "internalType": "address",
          "name": "creator",
          "type": "address"
        },
        {
          "internalType": "string",
          "name": "ipfsString",
          "type": "string"
        },
        {
          "internalType": "uint256",
          "name": "price",
          "type": "uint256"
        }
      ],
      "name": "offerSpecial",
      "outputs": [],
      "stateMutability": "nonpayable",
      "type": "function"
    },
    {
      "inputs": [],
      "name": "owner",
      "outputs": [
        {
          "internalType": "address",
          "name": "",
          "type": "address"
        }
      ],
      "stateMutability": "view",
      "type": "function"
    },
    {
      "inputs": [],
      "name": "ownerPerMille",
      "outputs": [
        {
          "internalType": "uint256",
          "name": "",
          "type": "uint256"
        }
      ],
      "stateMutability": "view",
      "type": "function"
    },
    {
      "inputs": [
        {
          "internalType": "uint256",
          "name": "tokenId",
          "type": "uint256"
        },
        {
          "internalType": "uint256",
          "name": "price",
          "type": "uint256"
        }
      ],
      "name": "reSubmitOffer",
      "outputs": [],
      "stateMutability": "nonpayable",
      "type": "function"
    },
    {
      "inputs": [
        {
          "internalType": "uint256",
          "name": "tokenId",
          "type": "uint256"
        }
      ],
      "name": "retractOffer",
      "outputs": [],
      "stateMutability": "nonpayable",
      "type": "function"
    },
    {
      "inputs": [
        {
          "internalType": "address",
          "name": "minter",
          "type": "address"
        },
        {
          "internalType": "bool",
          "name": "status",
          "type": "bool"
        }
      ],
      "name": "setMinter",
      "outputs": [],
      "stateMutability": "nonpayable",
      "type": "function"
    },
    {
      "inputs": [
        {
          "internalType": "contract IMintyToken",
          "name": "m",
          "type": "address"
        }
      ],
      "name": "setMintyUnique",
      "outputs": [],
      "stateMutability": "nonpayable",
      "type": "function"
    },
    {
      "inputs": [],
      "name": "token",
      "outputs": [
        {
          "internalType": "contract IMintyToken",
          "name": "",
          "type": "address"
        }
      ],
      "stateMutability": "view",
      "type": "function"
    },
    {
      "inputs": [
        {
          "internalType": "address",
          "name": "newOwner",
          "type": "address"
        }
      ],
      "name": "transferOwnership",
      "outputs": [],
      "stateMutability": "nonpayable",
      "type": "function"
    },
    {
      "inputs": [
        {
          "internalType": "uint256",
          "name": "_ownerPerMille",
          "type": "uint256"
        },
        {
          "internalType": "uint256",
          "name": "_creatorPerMille",
          "type": "uint256"
        },
        {
          "internalType": "uint256",
          "name": "_divisor",
          "type": "uint256"
        }
      ],
      "name": "updateShares",
      "outputs": [],
      "stateMutability": "nonpayable",
      "type": "function"
    },
    {
      "inputs": [],
      "name": "weth",
      "outputs": [
        {
          "internalType": "contract IERC20",
          "name": "",
          "type": "address"
        }
      ],
      "stateMutability": "view",
      "type": "function"
    },
    {
      "inputs": [
        {
          "internalType": "uint256",
          "name": "tokenId",
          "type": "uint256"
        }
      ],
      "name": "withdrawBid",
      "outputs": [],
      "stateMutability": "nonpayable",
      "type": "function"
    }
  ],
  "bytecode": "0x6080604052600080546001600160a01b031916331790553480156200002357600080fd5b506040516200376138038062003761833981810160405260a08110156200004957600080fd5b508051602082015160408301516060840151608090940151929391929091906103e882840114620000ac5760405162461bcd60e51b81526004018080602001828103825260368152602001806200372b6036913960400191505060405180910390fd5b6103e881101562000104576040805162461bcd60e51b815260206004820152601960248201527f64697669736f72206973206c657373207468616e203130303000000000000000604482015290519081900360640190fd5b600280546001600160a01b038088166001600160a01b031992831617909255600a805492871692909116919091179055600783905560088290556009819055604080518481526020810184905280820183905290517ff81b1f9d8b5d36a5a67d13006a8b091a9b63e2a38b331d315d99c6daefd2ddcc9181900360600190a1505050505061359380620001986000396000f3fe608060405234801561001057600080fd5b506004361061018e5760003560e01c8063adfcdc11116100de578063cbfcab1d11610097578063e35263a711610071578063e35263a714610565578063f21d6afe14610614578063f2fde38b14610637578063fc0c546a1461065d5761018e565b8063cbfcab1d14610527578063ccb3eae81461052f578063cf456ae7146105375761018e565b8063adfcdc11146103bd578063b04baaa0146103e0578063bfb231d214610406578063c4c6c87d146104c4578063c815729d146104e1578063cb61b42d146104fe5761018e565b80633fc8cef31161014b5780639499ac54116101255780639499ac541461033857806396e494e81461034057806398b9a2dc14610371578063aa271e1a146103975761018e565b80633fc8cef31461024f5780634aad4e03146102735780638da5cb5b146103305761018e565b8063020686641461019357806307c6061c146101c15780630eaaf4c8146101e45780631f2dc5ef1461020157806320540adc1461021b5780633f1ffcec14610223575b600080fd5b6101bf600480360360408110156101a957600080fd5b50803590602001356001600160a01b0316610665565b005b6101bf600480360360408110156101d757600080fd5b5080359060200135610cae565b6101bf600480360360208110156101fa57600080fd5b5035610fc0565b610209611168565b60408051918252519081900360200190f35b61020961116e565b6102096004803603604081101561023957600080fd5b50803590602001356001600160a01b0316611174565b610257611191565b604080516001600160a01b039092168252519081900360200190f35b6101bf6004803603608081101561028957600080fd5b8135916001600160a01b03602082013516918101906060810160408201356401000000008111156102b957600080fd5b8201836020820111156102cb57600080fd5b803590602001918460018302840111640100000000831117156102ed57600080fd5b91908080601f01602080910402602001604051908101604052809392919081815260200183838082843760009201919091525092955050913592506111a0915050565b61025761141e565b61020961142d565b61035d6004803603602081101561035657600080fd5b5035611433565b604080519115158252519081900360200190f35b6101bf6004803603602081101561038757600080fd5b50356001600160a01b0316611709565b61035d600480360360208110156103ad57600080fd5b50356001600160a01b031661180e565b6101bf600480360360408110156103d357600080fd5b5080359060200135611823565b6101bf600480360360208110156103f657600080fd5b50356001600160a01b0316611b36565b6104236004803603602081101561041c57600080fd5b5035611ba6565b60405180866001600160a01b031681526020018060200185815260200184151581526020018315158152602001828103825286818151815260200191508051906020019080838360005b8381101561048557818101518382015260200161046d565b50505050905090810190601f1680156104b25780820380516001836020036101000a031916815260200191505b50965050505050505060405180910390f35b6101bf600480360360208110156104da57600080fd5b5035611c73565b6101bf600480360360208110156104f757600080fd5b5035611f75565b6101bf6004803603606081101561051457600080fd5b5080359060208101359060400135612059565b610257612196565b6102096121a5565b6101bf6004803603604081101561054d57600080fd5b506001600160a01b03813516906020013515156121ab565b6101bf6004803603606081101561057b57600080fd5b8135919081019060408101602082013564010000000081111561059d57600080fd5b8201836020820111156105af57600080fd5b803590602001918460018302840111640100000000831117156105d157600080fd5b91908080601f0160208091040260200160405190810160405280939291908181526020018383808284376000920191909152509295505091359250612224915050565b6101bf6004803603604081101561062a57600080fd5b508035906020013561258e565b6101bf6004803603602081101561064d57600080fd5b50356001600160a01b031661295a565b610257612a5e565b60065460609060ff16156106b7576040805162461bcd60e51b81526020600482015260146024820152734e6f207265656e7472616e637920706c6561736560601b604482015290519081900360640190fd5b6006805460ff191660011790556106cc6133a9565b600084815260046020908152604091829020825160a08101845281546001600160a01b03168152600180830180548651600261010094831615949094026000190190911692909204601f81018690048602830186019096528582529194929385810193919291908301828280156107845780601f1061075957610100808354040283529160200191610784565b820191906000526020600020905b81548152906001019060200180831161076757829003601f168201915b5050509183525050600282015460208083019190915260039092015460ff8082161515604080850191909152610100909204161515606090920191909152825160015482516331a9108f60e11b8152600481018a9052925194955090936000936001600160a01b0390921692636352211e926024808301939192829003018186803b15801561081257600080fd5b505afa158015610826573d6000803e3d6000fd5b505050506040513d602081101561083c57600080fd5b5051606084015190915061088c576040805162461bcd60e51b81526020600482015260126024820152714974656d206e6f7420617661696c61626c6560701b604482015290519081900360640190fd5b816001600160a01b0316816001600160a01b0316146108ee576040805162461bcd60e51b815260206004820152601960248201527824ba32b6903737ba1037bbb732b210313c9037b33332b932b960391b604482015290519081900360640190fd5b336001600160a01b03831614610943576040805162461bcd60e51b8152602060048201526015602482015274139bdd081e5bdd5c881a5d195b481d1bc81cd95b1b605a1b604482015290519081900360640190fd5b6000868152600b602090815260408083206001600160a01b038916845290915281208054919055608084015115610a6157600154604051635c46a7ef60e11b81526001600160a01b03858116600483019081528982166024840152604483018b9052608060648401908152895160848501528951929094169363b88d4fde9388938c938e938d939192909160a40190602085019080838360005b838110156109f55781810151838201526020016109dd565b50505050905090810190601f168015610a225780820380516001836020036101000a031916815260200191505b5095505050505050600060405180830381600087803b158015610a4457600080fd5b505af1158015610a58573d6000803e3d6000fd5b50505050610b70565b600160009054906101000a90046001600160a01b03166001600160a01b031663b85cbc798786600001518a88602001516040518563ffffffff1660e01b815260040180856001600160a01b03168152602001846001600160a01b0316815260200183815260200180602001828103825283818151815260200191508051906020019080838360005b83811015610b01578181015183820152602001610ae9565b50505050905090810190601f168015610b2e5780820380516001836020036101000a031916815260200191505b5095505050505050600060405180830381600087803b158015610b5057600080fd5b505af1158015610b64573d6000803e3d6000fd5b50506001608087015250505b600060608501819052878152600460209081526040909120855181546001600160a01b0319166001600160a01b039091161781558186015180518793610bbd9260018501929101906133e5565b5060408281015160028301556060808401516003909301805460809095015115156101000261ff001994151560ff19909616959095179390931693909317909155600a54865182516001600160a01b03928316815290821660208201529086168183015290517f8703df07b43faff82a32cfdce460e22eb4b029f946f61df422e57d5ef66f3962929181900390910190a18351610c5b908483612a6d565b6006805460ff19169055604080513381526020810189905280820183905290517f2e91b12fed89e8218510d4f7c38c6db746acd0984f09b436b69bd7db5e93da8b9181900360600190a150505050505050565b610cb66133a9565b600083815260046020908152604091829020825160a08101845281546001600160a01b03168152600180830180548651600261010094831615949094026000190190911692909204601f8101869004860283018601909652858252919492938581019391929190830182828015610d6e5780601f10610d4357610100808354040283529160200191610d6e565b820191906000526020600020905b815481529060010190602001808311610d5157829003601f168201915b5050509183525050600282015460208083019190915260039092015460ff80821615156040808501919091526101009092041615156060909201919091528251600154825162491fcf60e11b815260048101899052925194955090936001600160a01b039091169262923f9e9260248082019391829003018186803b158015610df657600080fd5b505afa158015610e0a573d6000803e3d6000fd5b505050506040513d6020811015610e2057600080fd5b505115610ea257600154604080516331a9108f60e11b81526004810187905290516001600160a01b0390921691636352211e91602480820192602092909190829003018186803b158015610e7357600080fd5b505afa158015610e87573d6000803e3d6000fd5b505050506040513d6020811015610e9d57600080fd5b505190505b6001600160a01b0381163314610eee576040805162461bcd60e51b815260206004820152600c60248201526b155b985d5d1a1bdc9a5cd95960a21b604482015290519081900360640190fd5b6001606083018190526040808401859052600086815260046020908152919020845181546001600160a01b0319166001600160a01b0390911617815581850151805186949293610f429385019201906133e5565b50604082810151600283015560608301516003909201805460809094015115156101000261ff001993151560ff19909516949094179290921692909217905580518581526020810185905281517fe36efdb123434f0d9dcc119c468c16b0d6de5fa64252b13e049b2c87dafc2a1e929181900390910190a150505050565b60065460ff161561100f576040805162461bcd60e51b81526020600482015260146024820152734e6f207265656e7472616e637920706c6561736560601b604482015290519081900360640190fd5b6006805460ff191660011790556000818152600b602090815260408083203384529091529020548061107e576040805162461bcd60e51b81526020600482015260136024820152726e6f7468696e6720746f20776974686472617760681b604482015290519081900360640190fd5b6000828152600b6020908152604080832033808552908352818420849055600254825163a9059cbb60e01b815260048101929092526024820186905291516001600160a01b039092169363a9059cbb9360448084019491939192918390030190829087803b1580156110ef57600080fd5b505af1158015611103573d6000803e3d6000fd5b505050506040513d602081101561111957600080fd5b505161115a576040805162461bcd60e51b815260206004820152601560248201526000805160206134e0833981519152604482015290519081900360640190fd5b50506006805460ff19169055565b60095481565b60075481565b600b60209081526000928352604080842090915290825290205481565b6002546001600160a01b031681565b6000546001600160a01b031633146111ee576040805162461bcd60e51b815260206004820152600c60248201526b1d5b985d5d1a1bdc9a5cd95960a21b604482015290519081900360640190fd5b6001546040805162491fcf60e11b81526004810187905290516001600160a01b039092169162923f9e91602480820192602092909190829003018186803b15801561123857600080fd5b505afa15801561124c573d6000803e3d6000fd5b505050506040513d602081101561126257600080fd5b5051156112a9576040805162461bcd60e51b815260206004820152601060248201526f125b9d985b1a59081d1bdad95b88125160821b604482015290519081900360640190fd5b6040805160a0810182526001600160a01b03858116825260208083018681528385018690526001606085018190526000608086018190528a81526004845295909520845181546001600160a01b0319169416939093178355518051939492936113199385019291909101906133e5565b5060408281015160028301556060808401516003909301805460809586015115156101000261ff001995151560ff1990921691909117949094169390931790925580518781526001600160a01b03871660208083019190915291810185905291820183815285519383019390935284517f3697349224444578adf7f32ac71b635cf39a0924633e5700169ed207bf91f7b49388938893879389939160a08401919085019080838360005b838110156113db5781810151838201526020016113c3565b50505050905090810190601f1680156114085780820380516001836020036101000a031916815260200191505b509550505050505060405180910390a150505050565b6000546001600160a01b031681565b60035481565b600061143d6133a9565b600083815260046020908152604091829020825160a08101845281546001600160a01b03168152600180830180548651600261010094831615949094026000190190911692909204601f81018690048602830186019096528582529194929385810193919291908301828280156114f55780601f106114ca576101008083540402835291602001916114f5565b820191906000526020600020905b8154815290600101906020018083116114d857829003601f168201915b50505091835250506002820154602082015260039091015460ff8082161515604084015261010090910416151560609182015281015190915061153c576000915050611704565b806080015161154f576001915050611704565b6000838152600460208181526040928390205460015484516331a9108f60e11b815293840188905293516001600160a01b039182169490911692636352211e926024808301939192829003018186803b1580156115ab57600080fd5b505afa1580156115bf573d6000803e3d6000fd5b505050506040513d60208110156115d557600080fd5b50516001600160a01b0316146115ef576000915050611704565b60015481516040805163e985e9c560e01b81526001600160a01b0392831660048201523060248201529051919092169163e985e9c5916044808301926020929190829003018186803b15801561164457600080fd5b505afa158015611658573d6000803e3d6000fd5b505050506040513d602081101561166e57600080fd5b50511561167f576001915050611704565b6001546040805163020604bf60e21b815260048101869052905130926001600160a01b03169163081812fc916024808301926020929190829003018186803b1580156116ca57600080fd5b505afa1580156116de573d6000803e3d6000fd5b505050506040513d60208110156116f457600080fd5b50516001600160a01b0316149150505b919050565b6000546001600160a01b03163314611757576040805162461bcd60e51b815260206004820152600c60248201526b1d5b985d5d1a1bdc9a5cd95960a21b604482015290519081900360640190fd5b6001600160a01b0381166117b2576040805162461bcd60e51b815260206004820152601a60248201527f446f206e6f742073657420746f2061646472657373207a65726f000000000000604482015290519081900360640190fd5b600a546040516001600160a01b038084169216907ff404d79dbd5d19bc2bf99a74f0e5affb6502b3d6012140f1d908ce3fcd0716d890600090a3600a80546001600160a01b0319166001600160a01b0392909216919091179055565b60056020526000908152604090205460ff1681565b600254604080516323b872dd60e01b81523360048201523060248201526044810184905290516001600160a01b03909216916323b872dd916064808201926020929091908290030181600087803b15801561187d57600080fd5b505af1158015611891573d6000803e3d6000fd5b505050506040513d60208110156118a757600080fd5b50516118e8576040805162461bcd60e51b815260206004820152601560248201526000805160206134e0833981519152604482015290519081900360640190fd5b6118f06133a9565b600083815260046020908152604091829020825160a08101845281546001600160a01b03168152600180830180548651600261010094831615949094026000190190911692909204601f81018690048602830186019096528582529194929385810193919291908301828280156119a85780601f1061197d576101008083540402835291602001916119a8565b820191906000526020600020905b81548152906001019060200180831161198b57829003601f168201915b50505091835250506002820154602082015260039091015460ff80821615156040840152610100909104161515606091820152810151909150611a27576040805162461bcd60e51b81526020600482015260126024820152714974656d206e6f7420617661696c61626c6560701b604482015290519081900360640190fd5b6000838152600b6020908152604080832033845290915290819020549082015190830190811115611a7d576000848152600b60209081526040808320338452909152812055611a768482612dc3565b5050611b32565b6000848152600b60209081526040808320338452909152902081905582811415611ae657604080513381526020810186905280820183905290517f7f06de72678b8f755d2b9cce42fb004f364fad13cafec8e3b43e8808d9db828c9181900360600190a1611b2f565b6040805133815260208101869052848303818301526060810185905290517f34762811225e202a6ffaa6152f171af086267130932de1c3951c1e36ff89b28a9181900360800190a15b50505b5050565b6000546001600160a01b03163314611b84576040805162461bcd60e51b815260206004820152600c60248201526b1d5b985d5d1a1bdc9a5cd95960a21b604482015290519081900360640190fd5b600180546001600160a01b0319166001600160a01b0392909216919091179055565b6004602090815260009182526040918290208054600180830180548651600261010094831615949094026000190190911692909204601f81018690048602830186019096528582526001600160a01b03909216949293909290830182828015611c505780601f10611c2557610100808354040283529160200191611c50565b820191906000526020600020905b815481529060010190602001808311611c3357829003601f168201915b50505050600283015460039093015491929160ff80821692506101009091041685565b611c7b6133a9565b600082815260046020908152604091829020825160a08101845281546001600160a01b03168152600180830180548651600261010094831615949094026000190190911692909204601f8101869004860283018601909652858252919492938581019391929190830182828015611d335780601f10611d0857610100808354040283529160200191611d33565b820191906000526020600020905b815481529060010190602001808311611d1657829003601f168201915b5050509183525050600282015460208083019190915260039092015460ff80821615156040808501919091526101009092041615156060909201919091528251600154825162491fcf60e11b815260048101889052925194955090936001600160a01b039091169262923f9e9260248082019391829003018186803b158015611dbb57600080fd5b505afa158015611dcf573d6000803e3d6000fd5b505050506040513d6020811015611de557600080fd5b505115611e6757600154604080516331a9108f60e11b81526004810186905290516001600160a01b0390921691636352211e91602480820192602092909190829003018186803b158015611e3857600080fd5b505afa158015611e4c573d6000803e3d6000fd5b505050506040513d6020811015611e6257600080fd5b505190505b6001600160a01b0381163314611eb3576040805162461bcd60e51b815260206004820152600c60248201526b155b985d5d1a1bdc9a5cd95960a21b604482015290519081900360640190fd5b600060608301819052838152600460209081526040909120835181546001600160a01b0319166001600160a01b039091161781558184015180518593611f009260018501929101906133e5565b50604082810151600283015560608301516003909201805460809094015115156101000261ff001993151560ff199095169490941792909216929092179055805184815290517f567b7c6ccef395faa0faf04e2da702ec06c19c0cff01cde647c3d285257a0bb09181900360200190a1505050565b6000818152600460208181526040808420600290810154905482516323b872dd60e01b8152339581019590955230602486015260448501829052915190946001600160a01b03909216936323b872dd936064808301949193928390030190829087803b158015611fe457600080fd5b505af1158015611ff8573d6000803e3d6000fd5b505050506040513d602081101561200e57600080fd5b505161204f576040805162461bcd60e51b815260206004820152601560248201526000805160206134e0833981519152604482015290519081900360640190fd5b611b328282612dc3565b6000546001600160a01b031633146120a7576040805162461bcd60e51b815260206004820152600c60248201526b1d5b985d5d1a1bdc9a5cd95960a21b604482015290519081900360640190fd5b8282016103e8146120e95760405162461bcd60e51b81526004018080602001828103825260368152602001806134876036913960400191505060405180910390fd5b6103e86009541015612142576040805162461bcd60e51b815260206004820152601960248201527f64697669736f72206973206c657373207468616e203130303000000000000000604482015290519081900360640190fd5b600783905560088290556009819055604080518481526020810184905280820183905290517ff81b1f9d8b5d36a5a67d13006a8b091a9b63e2a38b331d315d99c6daefd2ddcc9181900360600190a1505050565b600a546001600160a01b031681565b60085481565b6000546001600160a01b031633146121f9576040805162461bcd60e51b815260206004820152600c60248201526b1d5b985d5d1a1bdc9a5cd95960a21b604482015290519081900360640190fd5b6001600160a01b03919091166000908152600560205260409020805460ff1916911515919091179055565b6001546040805162491fcf60e11b81526004810186905290516001600160a01b039092169162923f9e91602480820192602092909190829003018186803b15801561226e57600080fd5b505afa158015612282573d6000803e3d6000fd5b505050506040513d602081101561229857600080fd5b5051156122df576040805162461bcd60e51b815260206004820152601060248201526f125b9d985b1a59081d1bdad95b88125160821b604482015290519081900360640190fd5b3360009081526005602052604090205460ff1661232d5760405162461bcd60e51b81526004018080602001828103825260278152602001806135006027913960400191505060405180910390fd5b6123356133a9565b600084815260046020908152604091829020825160a08101845281546001600160a01b03168152600180830180548651600261010094831615949094026000190190911692909204601f81018690048602830186019096528582529194929385810193919291908301828280156123ed5780601f106123c2576101008083540402835291602001916123ed565b820191906000526020600020905b8154815290600101906020018083116123d057829003601f168201915b50505091835250506002820154602082015260039091015460ff8082161515604084015261010090910416151560609091015280519091506001600160a01b03161561246a5760405162461bcd60e51b81526004018080602001828103825260238152602001806134bd6023913960400191505060405180910390fd5b6040805160a08101825233815260208082018681528284018690526001606084018190526000608085018190528981526004845294909420835181546001600160a01b0319166001600160a01b0390911617815590518051939491936124d8939285019291909101906133e5565b5060408281015160028301556060808401516003909301805460809586015115156101000261ff001995151560ff19909216919091179490941693909317909255805187815233602080830182905292820187905292810184815287519482019490945286517f3697349224444578adf7f32ac71b635cf39a0924633e5700169ed207bf91f7b49489949388938a9390929160a084019190850190808383600083156113db5781810151838201526020016113c3565b6001546040805162491fcf60e11b81526004810185905290516001600160a01b039092169162923f9e91602480820192602092909190829003018186803b1580156125d857600080fd5b505afa1580156125ec573d6000803e3d6000fd5b505050506040513d602081101561260257600080fd5b505161264d576040805162461bcd60e51b8152602060048201526015602482015274546f6b656e20646f6573206e6f742065786973742160581b604482015290519081900360640190fd5b600154604080516331a9108f60e11b81526004810185905290516001600160a01b0390921691636352211e91602480820192602092909190829003018186803b15801561269957600080fd5b505afa1580156126ad573d6000803e3d6000fd5b505050506040513d60208110156126c357600080fd5b50516001600160a01b03163314612721576040805162461bcd60e51b815260206004820152601960248201527f596f7520646f206e6f74206f776e207468697320746f6b656e00000000000000604482015290519081900360640190fd5b6001546040805163e985e9c560e01b815233600482015230602482015290516001600160a01b039092169163e985e9c591604480820192602092909190829003018186803b15801561277257600080fd5b505afa158015612786573d6000803e3d6000fd5b505050506040513d602081101561279c57600080fd5b50518061282657506001546040805163020604bf60e21b815260048101859052905130926001600160a01b03169163081812fc916024808301926020929190829003018186803b1580156127ef57600080fd5b505afa158015612803573d6000803e3d6000fd5b505050506040513d602081101561281957600080fd5b50516001600160a01b0316145b6128615760405162461bcd60e51b81526004018080602001828103825260378152602001806135276037913960400191505060405180910390fd5b6040805160a08101825233815281516020808201845260008083528184019283528385018690526001606085018190526080850181905287825260048352949020835181546001600160a01b0319166001600160a01b0390911617815591518051939492936128d79385019291909101906133e5565b5060408281015160028301556060808401516003909301805460809095015115156101000261ff001994151560ff19909616959095179390931693909317909155805184815233602082015280820184905290517febe4318722b948bede41b4decd121e3e2ab187f11ad89499eb7a586de7ffcd90929181900390910190a15050565b6000546001600160a01b031633146129a8576040805162461bcd60e51b815260206004820152600c60248201526b1d5b985d5d1a1bdc9a5cd95960a21b604482015290519081900360640190fd5b6001600160a01b038116612a03576040805162461bcd60e51b815260206004820152601a60248201527f446f206e6f742073657420746f2061646472657373207a65726f000000000000604482015290519081900360640190fd5b600080546040516001600160a01b03808516939216917f8be0079c531659141344cd1fd0a4f28419497f9722a3daafe3b4186f6b6457e091a3600080546001600160a01b0319166001600160a01b0392909216919091179055565b6001546001600160a01b031681565b6000600954600854830281612a7e57fe5b0490506000600954600754840281612a9257fe5b04905081810183036001600160a01b038681169086161415612b75576002546040805163a9059cbb60e01b81526001600160a01b03898116600483015285870160248301529151919092169163a9059cbb9160448083019260209291908290030181600087803b158015612b0557600080fd5b505af1158015612b19573d6000803e3d6000fd5b505050506040513d6020811015612b2f57600080fd5b5051612b70576040805162461bcd60e51b815260206004820152601560248201526000805160206134e0833981519152604482015290519081900360640190fd5b612cf7565b6002546040805163a9059cbb60e01b81526001600160a01b038981166004830152602482018790529151919092169163a9059cbb9160448083019260209291908290030181600087803b158015612bcb57600080fd5b505af1158015612bdf573d6000803e3d6000fd5b505050506040513d6020811015612bf557600080fd5b5051612c36576040805162461bcd60e51b815260206004820152601560248201526000805160206134e0833981519152604482015290519081900360640190fd5b6002546040805163a9059cbb60e01b81526001600160a01b038881166004830152602482018690529151919092169163a9059cbb9160448083019260209291908290030181600087803b158015612c8c57600080fd5b505af1158015612ca0573d6000803e3d6000fd5b505050506040513d6020811015612cb657600080fd5b5051612cf7576040805162461bcd60e51b815260206004820152601560248201526000805160206134e0833981519152604482015290519081900360640190fd5b600254600a546040805163a9059cbb60e01b81526001600160a01b039283166004820152602481018590529051919092169163a9059cbb9160448083019260209291908290030181600087803b158015612d5057600080fd5b505af1158015612d64573d6000803e3d6000fd5b505050506040513d6020811015612d7a57600080fd5b5051612dbb576040805162461bcd60e51b815260206004820152601560248201526000805160206134e0833981519152604482015290519081900360640190fd5b505050505050565b60065460ff1615612e12576040805162461bcd60e51b81526020600482015260146024820152734e6f207265656e7472616e637920706c6561736560601b604482015290519081900360640190fd5b6006805460ff191660011790556060612e296133a9565b600084815260046020908152604091829020825160a08101845281546001600160a01b03168152600180830180548651600261010094831615949094026000190190911692909204601f8101869004860283018601909652858252919492938581019391929190830182828015612ee15780601f10612eb657610100808354040283529160200191612ee1565b820191906000526020600020905b815481529060010190602001808311612ec457829003601f168201915b50505091835250506002820154602082015260039091015460ff8082161515604084015261010090910416151560609182015281519082015191925090612f64576040805162461bcd60e51b81526020600482015260126024820152714974656d206e6f7420617661696c61626c6560701b604482015290519081900360640190fd5b8160400151841015612fad576040805162461bcd60e51b815260206004820152600d60248201526c141c9a58d9481b9bdd081b595d609a1b604482015290519081900360640190fd5b81608001511561317957600154604080516331a9108f60e11b81526004810188905290516000926001600160a01b031691636352211e916024808301926020929190829003018186803b15801561300357600080fd5b505afa158015613017573d6000803e3d6000fd5b505050506040513d602081101561302d57600080fd5b505190506001600160a01b038082169083161461308d576040805162461bcd60e51b815260206004820152601960248201527824ba32b6903737ba1037bbb732b210313c9037b33332b932b960391b604482015290519081900360640190fd5b600154604051635c46a7ef60e11b81526001600160a01b03848116600483019081523360248401819052604484018b9052608060648501908152895160848601528951939095169463b88d4fde94889492938d938c93919260a40190602085019080838360005b8381101561310c5781810151838201526020016130f4565b50505050905090810190601f1680156131395780820380516001836020036101000a031916815260200191505b5095505050505050600060405180830381600087803b15801561315b57600080fd5b505af115801561316f573d6000803e3d6000fd5b505050505061326d565b600154825160208085015160405163b85cbc7960e01b815233600482018181526001600160a01b038681166024850152604484018d9052608060648501908152855160848601528551919098169763b85cbc7997939693958e959094919260a49091019185019080838360005b838110156131fe5781810151838201526020016131e6565b50505050905090810190601f16801561322b5780820380516001836020036101000a031916815260200191505b5095505050505050600060405180830381600087803b15801561324d57600080fd5b505af1158015613261573d6000803e3d6000fd5b50506001608085015250505b600060608301819052858152600460209081526040909120835181546001600160a01b0319166001600160a01b0390911617815581840151805185936132ba9260018501929101906133e5565b5060408281015160028301556060808401516003909301805460809095015115156101000261ff001994151560ff19909616959095179390931693909317909155600a54845182516001600160a01b03928316815290821660208201529084168183015290517f8703df07b43faff82a32cfdce460e22eb4b029f946f61df422e57d5ef66f3962929181900390910190a18151613358908286612a6d565b6006805460ff19169055604080513381526020810187905280820186905290517f2e91b12fed89e8218510d4f7c38c6db746acd0984f09b436b69bd7db5e93da8b9181900360600190a15050505050565b6040518060a0016040528060006001600160a01b0316815260200160608152602001600081526020016000151581526020016000151581525090565b828054600181600116156101000203166002900490600052602060002090601f01602090048101928261341b5760008555613461565b82601f1061343457805160ff1916838001178555613461565b82800160010185558215613461579182015b82811115613461578251825591602001919060010190613446565b5061346d929150613471565b5090565b5b8082111561346d576000815560010161347256fe73756d285f63726561746f725065724d696c6c65202b205f6f776e65725065724d696c6c6529206d75737420657175616c2031303030417474656d707420746f206d6f6469667920616e206578697374696e67206f6666657243616e6e6f74207472616e736665722066756e64730000000000000000000000596f7520617265206e6f7420616c6c6f77656420746f206d696e7420746f6b656e732068657265596f752068617665206e6f7420617070726f766564207468697320636f6e747261637420746f2073656c6c20796f757220746f6b656e73a2646970667358221220314fc1328cc519b6ec1a0d16e768a64b3feeb199c79c59cab7a1e482ab2efd0364736f6c6343000705003373756d285f63726561746f725065724d696c6c65202b205f6f776e65725065724d696c6c6529206d75737420657175616c2031303030",
  "linkReferences": {},
  "deployedLinkReferences": {}
}