{
  "_format": "hh-sol-artifact-1",
  "contractName": "pMintysale",
  "sourceName": "contracts/sale/pSale.sol",
  "abi": [
    {
      "inputs": [
        {
          "internalType": "contract IERC20",
          "name": "_weth",
          "type": "address"
        },
        {
          "internalType": "address",
          "name": "wallet",
          "type": "address"
        },
        {
          "internalType": "uint256",
          "name": "_ownerPerMille",
          "type": "uint256"
        },
        {
          "internalType": "uint256",
          "name": "_creatorPerMille",
          "type": "uint256"
        },
        {
          "internalType": "uint256",
          "name": "_divisor",
          "type": "uint256"
        }
      ],
      "stateMutability": "nonpayable",
      "type": "constructor"
    },
    {
      "anonymous": false,
      "inputs": [
        {
          "indexed": false,
          "internalType": "address",
          "name": "bidder",
          "type": "address"
        },
        {
          "indexed": false,
          "internalType": "uint256",
          "name": "tokenId",
          "type": "uint256"
        },
        {
          "indexed": false,
          "internalType": "uint256",
          "name": "previous_bid",
          "type": "uint256"
        },
        {
          "indexed": false,
          "internalType": "uint256",
          "name": "this_bid",
          "type": "uint256"
        }
      ],
      "name": "BidIncreased",
      "type": "event"
    },
    {
      "anonymous": false,
      "inputs": [
        {
          "indexed": false,
          "internalType": "address",
          "name": "bidder",
          "type": "address"
        },
        {
          "indexed": false,
          "internalType": "uint256",
          "name": "tokenId",
          "type": "uint256"
        },
        {
          "indexed": false,
          "internalType": "uint256",
          "name": "bid",
          "type": "uint256"
        }
      ],
      "name": "BidReceived",
      "type": "event"
    },
    {
      "anonymous": false,
      "inputs": [
        {
          "indexed": false,
          "internalType": "uint256",
          "name": "tokenId",
          "type": "uint256"
        },
        {
          "indexed": false,
          "internalType": "address",
          "name": "owner",
          "type": "address"
        },
        {
          "indexed": false,
          "internalType": "uint256",
          "name": "price",
          "type": "uint256"
        },
        {
          "indexed": false,
          "internalType": "string",
          "name": "hash",
          "type": "string"
        }
      ],
      "name": "NewOffer",
      "type": "event"
    },
    {
      "anonymous": false,
      "inputs": [
        {
          "indexed": false,
          "internalType": "address",
          "name": "buyer",
          "type": "address"
        },
        {
          "indexed": false,
          "internalType": "uint256",
          "name": "tokenId",
          "type": "uint256"
        },
        {
          "indexed": false,
          "internalType": "uint256",
          "name": "price",
          "type": "uint256"
        }
      ],
      "name": "OfferAccepted",
      "type": "event"
    },
    {
      "anonymous": false,
      "inputs": [
        {
          "indexed": false,
          "internalType": "address",
          "name": "wallet",
          "type": "address"
        },
        {
          "indexed": false,
          "internalType": "address",
          "name": "creator",
          "type": "address"
        },
        {
          "indexed": false,
          "internalType": "address",
          "name": "_owner",
          "type": "address"
        }
      ],
      "name": "Payment",
      "type": "event"
    },
    {
      "anonymous": false,
      "inputs": [
        {
          "indexed": false,
          "internalType": "uint256",
          "name": "tokenId",
          "type": "uint256"
        },
        {
          "indexed": false,
          "internalType": "address",
          "name": "owner",
          "type": "address"
        },
        {
          "indexed": false,
          "internalType": "uint256",
          "name": "price",
          "type": "uint256"
        }
      ],
      "name": "ResaleOffer",
      "type": "event"
    },
    {
      "anonymous": false,
      "inputs": [
        {
          "indexed": false,
          "internalType": "uint256",
          "name": "tokenId",
          "type": "uint256"
        },
        {
          "indexed": false,
          "internalType": "uint256",
          "name": "price",
          "type": "uint256"
        }
      ],
      "name": "SaleResubmitted",
      "type": "event"
    },
    {
      "anonymous": false,
      "inputs": [
        {
          "indexed": false,
          "internalType": "uint256",
          "name": "tokenId",
          "type": "uint256"
        }
      ],
      "name": "SaleRetracted",
      "type": "event"
    },
    {
      "anonymous": false,
      "inputs": [
        {
          "indexed": false,
          "internalType": "uint256",
          "name": "ownerShare",
          "type": "uint256"
        },
        {
          "indexed": false,
          "internalType": "uint256",
          "name": "creatorShare",
          "type": "uint256"
        },
        {
          "indexed": false,
          "internalType": "uint256",
          "name": "divisor",
          "type": "uint256"
        }
      ],
      "name": "SharesUpdated",
      "type": "event"
    },
    {
      "inputs": [
        {
          "internalType": "uint256",
          "name": "tokenId",
          "type": "uint256"
        },
        {
          "internalType": "address",
          "name": "bidder",
          "type": "address"
        }
      ],
      "name": "acceptBid",
      "outputs": [],
      "stateMutability": "nonpayable",
      "type": "function"
    },
    {
      "inputs": [
        {
          "internalType": "uint256",
          "name": "tokenId",
          "type": "uint256"
        }
      ],
      "name": "acceptOffer",
      "outputs": [],
      "stateMutability": "nonpayable",
      "type": "function"
    },
    {
      "inputs": [
        {
          "internalType": "uint256",
          "name": "tokenId",
          "type": "uint256"
        }
      ],
      "name": "available",
      "outputs": [
        {
          "internalType": "bool",
          "name": "",
          "type": "bool"
        }
      ],
      "stateMutability": "view",
      "type": "function"
    },
    {
      "inputs": [
        {
          "internalType": "uint256",
          "name": "",
          "type": "uint256"
        },
        {
          "internalType": "address",
          "name": "",
          "type": "address"
        }
      ],
      "name": "bids",
      "outputs": [
        {
          "internalType": "uint256",
          "name": "",
          "type": "uint256"
        }
      ],
      "stateMutability": "view",
      "type": "function"
    },
    {
      "inputs": [],
      "name": "creatorPerMille",
      "outputs": [
        {
          "internalType": "uint256",
          "name": "",
          "type": "uint256"
        }
      ],
      "stateMutability": "view",
      "type": "function"
    },
    {
      "inputs": [],
      "name": "divisor",
      "outputs": [
        {
          "internalType": "uint256",
          "name": "",
          "type": "uint256"
        }
      ],
      "stateMutability": "view",
      "type": "function"
    },
    {
      "inputs": [
        {
          "internalType": "address",
          "name": "",
          "type": "address"
        }
      ],
      "name": "isMinter",
      "outputs": [
        {
          "internalType": "bool",
          "name": "",
          "type": "bool"
        }
      ],
      "stateMutability": "view",
      "type": "function"
    },
    {
      "inputs": [
        {
          "internalType": "uint256",
          "name": "",
          "type": "uint256"
        }
      ],
      "name": "items",
      "outputs": [
        {
          "internalType": "address",
          "name": "creator",
          "type": "address"
        },
        {
          "internalType": "string",
          "name": "itemHash",
          "type": "string"
        },
        {
          "internalType": "uint256",
          "name": "price",
          "type": "uint256"
        },
        {
          "internalType": "bool",
          "name": "available",
          "type": "bool"
        },
        {
          "internalType": "bool",
          "name": "minted",
          "type": "bool"
        }
      ],
      "stateMutability": "view",
      "type": "function"
    },
    {
      "inputs": [
        {
          "internalType": "uint256",
          "name": "tokenId",
          "type": "uint256"
        },
        {
          "internalType": "uint256",
          "name": "topup",
          "type": "uint256"
        }
      ],
      "name": "makeBid",
      "outputs": [],
      "stateMutability": "nonpayable",
      "type": "function"
    },
    {
      "inputs": [],
      "name": "minty",
      "outputs": [
        {
          "internalType": "address",
          "name": "",
          "type": "address"
        }
      ],
      "stateMutability": "view",
      "type": "function"
    },
    {
      "inputs": [],
      "name": "nextToken",
      "outputs": [
        {
          "internalType": "uint256",
          "name": "",
          "type": "uint256"
        }
      ],
      "stateMutability": "view",
      "type": "function"
    },
    {
      "inputs": [
        {
          "internalType": "uint256",
          "name": "tokenId",
          "type": "uint256"
        },
        {
          "internalType": "string",
          "name": "ipfsString",
          "type": "string"
        },
        {
          "internalType": "uint256",
          "name": "price",
          "type": "uint256"
        }
      ],
      "name": "offerNew",
      "outputs": [],
      "stateMutability": "nonpayable",
      "type": "function"
    },
    {
      "inputs": [
        {
          "internalType": "uint256",
          "name": "tokenId",
          "type": "uint256"
        },
        {
          "internalType": "uint256",
          "name": "price",
          "type": "uint256"
        }
      ],
      "name": "offerResale",
      "outputs": [],
      "stateMutability": "nonpayable",
      "type": "function"
    },
    {
      "inputs": [
        {
          "internalType": "uint256",
          "name": "tokenId",
          "type": "uint256"
        },
        {
          "internalType": "address",
          "name": "creator",
          "type": "address"
        },
        {
          "internalType": "string",
          "name": "ipfsString",
          "type": "string"
        },
        {
          "internalType": "uint256",
          "name": "price",
          "type": "uint256"
        }
      ],
      "name": "offerSpecial",
      "outputs": [],
      "stateMutability": "nonpayable",
      "type": "function"
    },
    {
      "inputs": [],
      "name": "owner",
      "outputs": [
        {
          "internalType": "address",
          "name": "",
          "type": "address"
        }
      ],
      "stateMutability": "view",
      "type": "function"
    },
    {
      "inputs": [],
      "name": "ownerPerMille",
      "outputs": [
        {
          "internalType": "uint256",
          "name": "",
          "type": "uint256"
        }
      ],
      "stateMutability": "view",
      "type": "function"
    },
    {
      "inputs": [
        {
          "internalType": "uint256",
          "name": "tokenId",
          "type": "uint256"
        },
        {
          "internalType": "uint256",
          "name": "price",
          "type": "uint256"
        }
      ],
      "name": "reSubmitOffer",
      "outputs": [],
      "stateMutability": "nonpayable",
      "type": "function"
    },
    {
      "inputs": [
        {
          "internalType": "uint256",
          "name": "tokenId",
          "type": "uint256"
        }
      ],
      "name": "retractOffer",
      "outputs": [],
      "stateMutability": "nonpayable",
      "type": "function"
    },
    {
      "inputs": [
        {
          "internalType": "address",
          "name": "minter",
          "type": "address"
        },
        {
          "internalType": "bool",
          "name": "status",
          "type": "bool"
        }
      ],
      "name": "setMinter",
      "outputs": [],
      "stateMutability": "nonpayable",
      "type": "function"
    },
    {
      "inputs": [
        {
          "internalType": "contract IMintyToken",
          "name": "m",
          "type": "address"
        }
      ],
      "name": "setMintyUnique",
      "outputs": [],
      "stateMutability": "nonpayable",
      "type": "function"
    },
    {
      "inputs": [],
      "name": "token",
      "outputs": [
        {
          "internalType": "contract IMintyToken",
          "name": "",
          "type": "address"
        }
      ],
      "stateMutability": "view",
      "type": "function"
    },
    {
      "inputs": [
        {
          "internalType": "uint256",
          "name": "_ownerPerMille",
          "type": "uint256"
        },
        {
          "internalType": "uint256",
          "name": "_creatorPerMille",
          "type": "uint256"
        },
        {
          "internalType": "uint256",
          "name": "_divisor",
          "type": "uint256"
        }
      ],
      "name": "updateShares",
      "outputs": [],
      "stateMutability": "nonpayable",
      "type": "function"
    },
    {
      "inputs": [],
      "name": "weth",
      "outputs": [
        {
          "internalType": "contract IERC20",
          "name": "",
          "type": "address"
        }
      ],
      "stateMutability": "view",
      "type": "function"
    },
    {
      "inputs": [
        {
          "internalType": "uint256",
          "name": "tokenId",
          "type": "uint256"
        }
      ],
      "name": "withdrawBid",
      "outputs": [],
      "stateMutability": "nonpayable",
      "type": "function"
    }
  ],
  "bytecode": "0x6080604052600080546001600160a01b031916331790553480156200002357600080fd5b50604051620034d6380380620034d6833981810160405260a08110156200004957600080fd5b508051602082015160408301516060840151608090940151929391929091906103e882840114620000ac5760405162461bcd60e51b8152600401808060200182810382526036815260200180620034a06036913960400191505060405180910390fd5b6103e881101562000104576040805162461bcd60e51b815260206004820152601960248201527f64697669736f72206973206c657373207468616e203130303000000000000000604482015290519081900360640190fd5b600280546001600160a01b038088166001600160a01b031992831617909255600a805492871692909116919091179055600783905560088290556009819055604080518481526020810184905280820183905290517ff81b1f9d8b5d36a5a67d13006a8b091a9b63e2a38b331d315d99c6daefd2ddcc9181900360600190a1505050505061330880620001986000396000f3fe608060405234801561001057600080fd5b50600436106101585760003560e01c8063adfcdc11116100c3578063cbfcab1d1161007c578063cbfcab1d146104cb578063ccb3eae8146104d3578063cf456ae7146104db578063e35263a714610509578063f21d6afe146105b8578063fc0c546a146105db57610158565b8063adfcdc1114610361578063b04baaa014610384578063bfb231d2146103aa578063c4c6c87d14610468578063c815729d14610485578063cb61b42d146104a257610158565b80633fc8cef3116101155780633fc8cef3146102195780634aad4e031461023d5780638da5cb5b146102fa5780639499ac541461030257806396e494e81461030a578063aa271e1a1461033b57610158565b8063020686641461015d57806307c6061c1461018b5780630eaaf4c8146101ae5780631f2dc5ef146101cb57806320540adc146101e55780633f1ffcec146101ed575b600080fd5b6101896004803603604081101561017357600080fd5b50803590602001356001600160a01b03166105e3565b005b610189600480360360408110156101a157600080fd5b5080359060200135610c2c565b610189600480360360208110156101c457600080fd5b5035610f3e565b6101d36110e6565b60408051918252519081900360200190f35b6101d36110ec565b6101d36004803603604081101561020357600080fd5b50803590602001356001600160a01b03166110f2565b61022161110f565b604080516001600160a01b039092168252519081900360200190f35b6101896004803603608081101561025357600080fd5b8135916001600160a01b036020820135169181019060608101604082013564010000000081111561028357600080fd5b82018360208201111561029557600080fd5b803590602001918460018302840111640100000000831117156102b757600080fd5b91908080601f016020809104026020016040519081016040528093929190818152602001838380828437600092019190915250929550509135925061111e915050565b61022161139c565b6101d36113ab565b6103276004803603602081101561032057600080fd5b50356113b1565b604080519115158252519081900360200190f35b6103276004803603602081101561035157600080fd5b50356001600160a01b0316611687565b6101896004803603604081101561037757600080fd5b508035906020013561169c565b6101896004803603602081101561039a57600080fd5b50356001600160a01b03166119af565b6103c7600480360360208110156103c057600080fd5b5035611a1f565b60405180866001600160a01b031681526020018060200185815260200184151581526020018315158152602001828103825286818151815260200191508051906020019080838360005b83811015610429578181015183820152602001610411565b50505050905090810190601f1680156104565780820380516001836020036101000a031916815260200191505b50965050505050505060405180910390f35b6101896004803603602081101561047e57600080fd5b5035611aec565b6101896004803603602081101561049b57600080fd5b5035611dee565b610189600480360360608110156104b857600080fd5b5080359060208101359060400135611ed2565b61022161200f565b6101d361201e565b610189600480360360408110156104f157600080fd5b506001600160a01b0381351690602001351515612024565b6101896004803603606081101561051f57600080fd5b8135919081019060408101602082013564010000000081111561054157600080fd5b82018360208201111561055357600080fd5b8035906020019184600183028401116401000000008311171561057557600080fd5b91908080601f016020809104026020016040519081016040528093929190818152602001838380828437600092019190915250929550509135925061209d915050565b610189600480360360408110156105ce57600080fd5b5080359060200135612407565b6102216127d3565b60065460609060ff1615610635576040805162461bcd60e51b81526020600482015260146024820152734e6f207265656e7472616e637920706c6561736560601b604482015290519081900360640190fd5b6006805460ff1916600117905561064a61311e565b600084815260046020908152604091829020825160a08101845281546001600160a01b03168152600180830180548651600261010094831615949094026000190190911692909204601f81018690048602830186019096528582529194929385810193919291908301828280156107025780601f106106d757610100808354040283529160200191610702565b820191906000526020600020905b8154815290600101906020018083116106e557829003601f168201915b5050509183525050600282015460208083019190915260039092015460ff8082161515604080850191909152610100909204161515606090920191909152825160015482516331a9108f60e11b8152600481018a9052925194955090936000936001600160a01b0390921692636352211e926024808301939192829003018186803b15801561079057600080fd5b505afa1580156107a4573d6000803e3d6000fd5b505050506040513d60208110156107ba57600080fd5b5051606084015190915061080a576040805162461bcd60e51b81526020600482015260126024820152714974656d206e6f7420617661696c61626c6560701b604482015290519081900360640190fd5b816001600160a01b0316816001600160a01b03161461086c576040805162461bcd60e51b815260206004820152601960248201527824ba32b6903737ba1037bbb732b210313c9037b33332b932b960391b604482015290519081900360640190fd5b336001600160a01b038316146108c1576040805162461bcd60e51b8152602060048201526015602482015274139bdd081e5bdd5c881a5d195b481d1bc81cd95b1b605a1b604482015290519081900360640190fd5b6000868152600b602090815260408083206001600160a01b0389168452909152812080549190556080840151156109df57600154604051635c46a7ef60e11b81526001600160a01b03858116600483019081528982166024840152604483018b9052608060648401908152895160848501528951929094169363b88d4fde9388938c938e938d939192909160a40190602085019080838360005b8381101561097357818101518382015260200161095b565b50505050905090810190601f1680156109a05780820380516001836020036101000a031916815260200191505b5095505050505050600060405180830381600087803b1580156109c257600080fd5b505af11580156109d6573d6000803e3d6000fd5b50505050610aee565b600160009054906101000a90046001600160a01b03166001600160a01b031663b85cbc798786600001518a88602001516040518563ffffffff1660e01b815260040180856001600160a01b03168152602001846001600160a01b0316815260200183815260200180602001828103825283818151815260200191508051906020019080838360005b83811015610a7f578181015183820152602001610a67565b50505050905090810190601f168015610aac5780820380516001836020036101000a031916815260200191505b5095505050505050600060405180830381600087803b158015610ace57600080fd5b505af1158015610ae2573d6000803e3d6000fd5b50506001608087015250505b600060608501819052878152600460209081526040909120855181546001600160a01b0319166001600160a01b039091161781558186015180518793610b3b92600185019291019061315a565b5060408281015160028301556060808401516003909301805460809095015115156101000261ff001994151560ff19909616959095179390931693909317909155600a54865182516001600160a01b03928316815290821660208201529086168183015290517f8703df07b43faff82a32cfdce460e22eb4b029f946f61df422e57d5ef66f3962929181900390910190a18351610bd99084836127e2565b6006805460ff19169055604080513381526020810189905280820183905290517f2e91b12fed89e8218510d4f7c38c6db746acd0984f09b436b69bd7db5e93da8b9181900360600190a150505050505050565b610c3461311e565b600083815260046020908152604091829020825160a08101845281546001600160a01b03168152600180830180548651600261010094831615949094026000190190911692909204601f8101869004860283018601909652858252919492938581019391929190830182828015610cec5780601f10610cc157610100808354040283529160200191610cec565b820191906000526020600020905b815481529060010190602001808311610ccf57829003601f168201915b5050509183525050600282015460208083019190915260039092015460ff80821615156040808501919091526101009092041615156060909201919091528251600154825162491fcf60e11b815260048101899052925194955090936001600160a01b039091169262923f9e9260248082019391829003018186803b158015610d7457600080fd5b505afa158015610d88573d6000803e3d6000fd5b505050506040513d6020811015610d9e57600080fd5b505115610e2057600154604080516331a9108f60e11b81526004810187905290516001600160a01b0390921691636352211e91602480820192602092909190829003018186803b158015610df157600080fd5b505afa158015610e05573d6000803e3d6000fd5b505050506040513d6020811015610e1b57600080fd5b505190505b6001600160a01b0381163314610e6c576040805162461bcd60e51b815260206004820152600c60248201526b155b985d5d1a1bdc9a5cd95960a21b604482015290519081900360640190fd5b6001606083018190526040808401859052600086815260046020908152919020845181546001600160a01b0319166001600160a01b0390911617815581850151805186949293610ec093850192019061315a565b50604082810151600283015560608301516003909201805460809094015115156101000261ff001993151560ff19909516949094179290921692909217905580518581526020810185905281517fe36efdb123434f0d9dcc119c468c16b0d6de5fa64252b13e049b2c87dafc2a1e929181900390910190a150505050565b60065460ff1615610f8d576040805162461bcd60e51b81526020600482015260146024820152734e6f207265656e7472616e637920706c6561736560601b604482015290519081900360640190fd5b6006805460ff191660011790556000818152600b6020908152604080832033845290915290205480610ffc576040805162461bcd60e51b81526020600482015260136024820152726e6f7468696e6720746f20776974686472617760681b604482015290519081900360640190fd5b6000828152600b6020908152604080832033808552908352818420849055600254825163a9059cbb60e01b815260048101929092526024820186905291516001600160a01b039092169363a9059cbb9360448084019491939192918390030190829087803b15801561106d57600080fd5b505af1158015611081573d6000803e3d6000fd5b505050506040513d602081101561109757600080fd5b50516110d8576040805162461bcd60e51b81526020600482015260156024820152600080516020613255833981519152604482015290519081900360640190fd5b50506006805460ff19169055565b60095481565b60075481565b600b60209081526000928352604080842090915290825290205481565b6002546001600160a01b031681565b6000546001600160a01b0316331461116c576040805162461bcd60e51b815260206004820152600c60248201526b1d5b985d5d1a1bdc9a5cd95960a21b604482015290519081900360640190fd5b6001546040805162491fcf60e11b81526004810187905290516001600160a01b039092169162923f9e91602480820192602092909190829003018186803b1580156111b657600080fd5b505afa1580156111ca573d6000803e3d6000fd5b505050506040513d60208110156111e057600080fd5b505115611227576040805162461bcd60e51b815260206004820152601060248201526f125b9d985b1a59081d1bdad95b88125160821b604482015290519081900360640190fd5b6040805160a0810182526001600160a01b03858116825260208083018681528385018690526001606085018190526000608086018190528a81526004845295909520845181546001600160a01b03191694169390931783555180519394929361129793850192919091019061315a565b5060408281015160028301556060808401516003909301805460809586015115156101000261ff001995151560ff1990921691909117949094169390931790925580518781526001600160a01b03871660208083019190915291810185905291820183815285519383019390935284517f3697349224444578adf7f32ac71b635cf39a0924633e5700169ed207bf91f7b49388938893879389939160a08401919085019080838360005b83811015611359578181015183820152602001611341565b50505050905090810190601f1680156113865780820380516001836020036101000a031916815260200191505b509550505050505060405180910390a150505050565b6000546001600160a01b031681565b60035481565b60006113bb61311e565b600083815260046020908152604091829020825160a08101845281546001600160a01b03168152600180830180548651600261010094831615949094026000190190911692909204601f81018690048602830186019096528582529194929385810193919291908301828280156114735780601f1061144857610100808354040283529160200191611473565b820191906000526020600020905b81548152906001019060200180831161145657829003601f168201915b50505091835250506002820154602082015260039091015460ff808216151560408401526101009091041615156060918201528101519091506114ba576000915050611682565b80608001516114cd576001915050611682565b6000838152600460208181526040928390205460015484516331a9108f60e11b815293840188905293516001600160a01b039182169490911692636352211e926024808301939192829003018186803b15801561152957600080fd5b505afa15801561153d573d6000803e3d6000fd5b505050506040513d602081101561155357600080fd5b50516001600160a01b03161461156d576000915050611682565b60015481516040805163e985e9c560e01b81526001600160a01b0392831660048201523060248201529051919092169163e985e9c5916044808301926020929190829003018186803b1580156115c257600080fd5b505afa1580156115d6573d6000803e3d6000fd5b505050506040513d60208110156115ec57600080fd5b5051156115fd576001915050611682565b6001546040805163020604bf60e21b815260048101869052905130926001600160a01b03169163081812fc916024808301926020929190829003018186803b15801561164857600080fd5b505afa15801561165c573d6000803e3d6000fd5b505050506040513d602081101561167257600080fd5b50516001600160a01b0316149150505b919050565b60056020526000908152604090205460ff1681565b600254604080516323b872dd60e01b81523360048201523060248201526044810184905290516001600160a01b03909216916323b872dd916064808201926020929091908290030181600087803b1580156116f657600080fd5b505af115801561170a573d6000803e3d6000fd5b505050506040513d602081101561172057600080fd5b5051611761576040805162461bcd60e51b81526020600482015260156024820152600080516020613255833981519152604482015290519081900360640190fd5b61176961311e565b600083815260046020908152604091829020825160a08101845281546001600160a01b03168152600180830180548651600261010094831615949094026000190190911692909204601f81018690048602830186019096528582529194929385810193919291908301828280156118215780601f106117f657610100808354040283529160200191611821565b820191906000526020600020905b81548152906001019060200180831161180457829003601f168201915b50505091835250506002820154602082015260039091015460ff808216151560408401526101009091041615156060918201528101519091506118a0576040805162461bcd60e51b81526020600482015260126024820152714974656d206e6f7420617661696c61626c6560701b604482015290519081900360640190fd5b6000838152600b60209081526040808320338452909152908190205490820151908301908111156118f6576000848152600b602090815260408083203384529091528120556118ef8482612b38565b50506119ab565b6000848152600b6020908152604080832033845290915290208190558281141561195f57604080513381526020810186905280820183905290517f7f06de72678b8f755d2b9cce42fb004f364fad13cafec8e3b43e8808d9db828c9181900360600190a16119a8565b6040805133815260208101869052848303818301526060810185905290517f34762811225e202a6ffaa6152f171af086267130932de1c3951c1e36ff89b28a9181900360800190a15b50505b5050565b6000546001600160a01b031633146119fd576040805162461bcd60e51b815260206004820152600c60248201526b1d5b985d5d1a1bdc9a5cd95960a21b604482015290519081900360640190fd5b600180546001600160a01b0319166001600160a01b0392909216919091179055565b6004602090815260009182526040918290208054600180830180548651600261010094831615949094026000190190911692909204601f81018690048602830186019096528582526001600160a01b03909216949293909290830182828015611ac95780601f10611a9e57610100808354040283529160200191611ac9565b820191906000526020600020905b815481529060010190602001808311611aac57829003601f168201915b50505050600283015460039093015491929160ff80821692506101009091041685565b611af461311e565b600082815260046020908152604091829020825160a08101845281546001600160a01b03168152600180830180548651600261010094831615949094026000190190911692909204601f8101869004860283018601909652858252919492938581019391929190830182828015611bac5780601f10611b8157610100808354040283529160200191611bac565b820191906000526020600020905b815481529060010190602001808311611b8f57829003601f168201915b5050509183525050600282015460208083019190915260039092015460ff80821615156040808501919091526101009092041615156060909201919091528251600154825162491fcf60e11b815260048101889052925194955090936001600160a01b039091169262923f9e9260248082019391829003018186803b158015611c3457600080fd5b505afa158015611c48573d6000803e3d6000fd5b505050506040513d6020811015611c5e57600080fd5b505115611ce057600154604080516331a9108f60e11b81526004810186905290516001600160a01b0390921691636352211e91602480820192602092909190829003018186803b158015611cb157600080fd5b505afa158015611cc5573d6000803e3d6000fd5b505050506040513d6020811015611cdb57600080fd5b505190505b6001600160a01b0381163314611d2c576040805162461bcd60e51b815260206004820152600c60248201526b155b985d5d1a1bdc9a5cd95960a21b604482015290519081900360640190fd5b600060608301819052838152600460209081526040909120835181546001600160a01b0319166001600160a01b039091161781558184015180518593611d7992600185019291019061315a565b50604082810151600283015560608301516003909201805460809094015115156101000261ff001993151560ff199095169490941792909216929092179055805184815290517f567b7c6ccef395faa0faf04e2da702ec06c19c0cff01cde647c3d285257a0bb09181900360200190a1505050565b6000818152600460208181526040808420600290810154905482516323b872dd60e01b8152339581019590955230602486015260448501829052915190946001600160a01b03909216936323b872dd936064808301949193928390030190829087803b158015611e5d57600080fd5b505af1158015611e71573d6000803e3d6000fd5b505050506040513d6020811015611e8757600080fd5b5051611ec8576040805162461bcd60e51b81526020600482015260156024820152600080516020613255833981519152604482015290519081900360640190fd5b6119ab8282612b38565b6000546001600160a01b03163314611f20576040805162461bcd60e51b815260206004820152600c60248201526b1d5b985d5d1a1bdc9a5cd95960a21b604482015290519081900360640190fd5b8282016103e814611f625760405162461bcd60e51b81526004018080602001828103825260368152602001806131fc6036913960400191505060405180910390fd5b6103e86009541015611fbb576040805162461bcd60e51b815260206004820152601960248201527f64697669736f72206973206c657373207468616e203130303000000000000000604482015290519081900360640190fd5b600783905560088290556009819055604080518481526020810184905280820183905290517ff81b1f9d8b5d36a5a67d13006a8b091a9b63e2a38b331d315d99c6daefd2ddcc9181900360600190a1505050565b600a546001600160a01b031681565b60085481565b6000546001600160a01b03163314612072576040805162461bcd60e51b815260206004820152600c60248201526b1d5b985d5d1a1bdc9a5cd95960a21b604482015290519081900360640190fd5b6001600160a01b03919091166000908152600560205260409020805460ff1916911515919091179055565b6001546040805162491fcf60e11b81526004810186905290516001600160a01b039092169162923f9e91602480820192602092909190829003018186803b1580156120e757600080fd5b505afa1580156120fb573d6000803e3d6000fd5b505050506040513d602081101561211157600080fd5b505115612158576040805162461bcd60e51b815260206004820152601060248201526f125b9d985b1a59081d1bdad95b88125160821b604482015290519081900360640190fd5b3360009081526005602052604090205460ff166121a65760405162461bcd60e51b81526004018080602001828103825260278152602001806132756027913960400191505060405180910390fd5b6121ae61311e565b600084815260046020908152604091829020825160a08101845281546001600160a01b03168152600180830180548651600261010094831615949094026000190190911692909204601f81018690048602830186019096528582529194929385810193919291908301828280156122665780601f1061223b57610100808354040283529160200191612266565b820191906000526020600020905b81548152906001019060200180831161224957829003601f168201915b50505091835250506002820154602082015260039091015460ff8082161515604084015261010090910416151560609091015280519091506001600160a01b0316156122e35760405162461bcd60e51b81526004018080602001828103825260238152602001806132326023913960400191505060405180910390fd5b6040805160a08101825233815260208082018681528284018690526001606084018190526000608085018190528981526004845294909420835181546001600160a01b0319166001600160a01b0390911617815590518051939491936123519392850192919091019061315a565b5060408281015160028301556060808401516003909301805460809586015115156101000261ff001995151560ff19909216919091179490941693909317909255805187815233602080830182905292820187905292810184815287519482019490945286517f3697349224444578adf7f32ac71b635cf39a0924633e5700169ed207bf91f7b49489949388938a9390929160a08401919085019080838360008315611359578181015183820152602001611341565b6001546040805162491fcf60e11b81526004810185905290516001600160a01b039092169162923f9e91602480820192602092909190829003018186803b15801561245157600080fd5b505afa158015612465573d6000803e3d6000fd5b505050506040513d602081101561247b57600080fd5b50516124c6576040805162461bcd60e51b8152602060048201526015602482015274546f6b656e20646f6573206e6f742065786973742160581b604482015290519081900360640190fd5b600154604080516331a9108f60e11b81526004810185905290516001600160a01b0390921691636352211e91602480820192602092909190829003018186803b15801561251257600080fd5b505afa158015612526573d6000803e3d6000fd5b505050506040513d602081101561253c57600080fd5b50516001600160a01b0316331461259a576040805162461bcd60e51b815260206004820152601960248201527f596f7520646f206e6f74206f776e207468697320746f6b656e00000000000000604482015290519081900360640190fd5b6001546040805163e985e9c560e01b815233600482015230602482015290516001600160a01b039092169163e985e9c591604480820192602092909190829003018186803b1580156125eb57600080fd5b505afa1580156125ff573d6000803e3d6000fd5b505050506040513d602081101561261557600080fd5b50518061269f57506001546040805163020604bf60e21b815260048101859052905130926001600160a01b03169163081812fc916024808301926020929190829003018186803b15801561266857600080fd5b505afa15801561267c573d6000803e3d6000fd5b505050506040513d602081101561269257600080fd5b50516001600160a01b0316145b6126da5760405162461bcd60e51b815260040180806020018281038252603781526020018061329c6037913960400191505060405180910390fd5b6040805160a08101825233815281516020808201845260008083528184019283528385018690526001606085018190526080850181905287825260048352949020835181546001600160a01b0319166001600160a01b03909116178155915180519394929361275093850192919091019061315a565b5060408281015160028301556060808401516003909301805460809095015115156101000261ff001994151560ff19909616959095179390931693909317909155805184815233602082015280820184905290517febe4318722b948bede41b4decd121e3e2ab187f11ad89499eb7a586de7ffcd90929181900390910190a15050565b6001546001600160a01b031681565b60006009546008548302816127f357fe5b049050600060095460075484028161280757fe5b04905081810183036001600160a01b0386811690861614156128ea576002546040805163a9059cbb60e01b81526001600160a01b03898116600483015285870160248301529151919092169163a9059cbb9160448083019260209291908290030181600087803b15801561287a57600080fd5b505af115801561288e573d6000803e3d6000fd5b505050506040513d60208110156128a457600080fd5b50516128e5576040805162461bcd60e51b81526020600482015260156024820152600080516020613255833981519152604482015290519081900360640190fd5b612a6c565b6002546040805163a9059cbb60e01b81526001600160a01b038981166004830152602482018790529151919092169163a9059cbb9160448083019260209291908290030181600087803b15801561294057600080fd5b505af1158015612954573d6000803e3d6000fd5b505050506040513d602081101561296a57600080fd5b50516129ab576040805162461bcd60e51b81526020600482015260156024820152600080516020613255833981519152604482015290519081900360640190fd5b6002546040805163a9059cbb60e01b81526001600160a01b038881166004830152602482018690529151919092169163a9059cbb9160448083019260209291908290030181600087803b158015612a0157600080fd5b505af1158015612a15573d6000803e3d6000fd5b505050506040513d6020811015612a2b57600080fd5b5051612a6c576040805162461bcd60e51b81526020600482015260156024820152600080516020613255833981519152604482015290519081900360640190fd5b600254600a546040805163a9059cbb60e01b81526001600160a01b039283166004820152602481018590529051919092169163a9059cbb9160448083019260209291908290030181600087803b158015612ac557600080fd5b505af1158015612ad9573d6000803e3d6000fd5b505050506040513d6020811015612aef57600080fd5b5051612b30576040805162461bcd60e51b81526020600482015260156024820152600080516020613255833981519152604482015290519081900360640190fd5b505050505050565b60065460ff1615612b87576040805162461bcd60e51b81526020600482015260146024820152734e6f207265656e7472616e637920706c6561736560601b604482015290519081900360640190fd5b6006805460ff191660011790556060612b9e61311e565b600084815260046020908152604091829020825160a08101845281546001600160a01b03168152600180830180548651600261010094831615949094026000190190911692909204601f8101869004860283018601909652858252919492938581019391929190830182828015612c565780601f10612c2b57610100808354040283529160200191612c56565b820191906000526020600020905b815481529060010190602001808311612c3957829003601f168201915b50505091835250506002820154602082015260039091015460ff8082161515604084015261010090910416151560609182015281519082015191925090612cd9576040805162461bcd60e51b81526020600482015260126024820152714974656d206e6f7420617661696c61626c6560701b604482015290519081900360640190fd5b8160400151841015612d22576040805162461bcd60e51b815260206004820152600d60248201526c141c9a58d9481b9bdd081b595d609a1b604482015290519081900360640190fd5b816080015115612eee57600154604080516331a9108f60e11b81526004810188905290516000926001600160a01b031691636352211e916024808301926020929190829003018186803b158015612d7857600080fd5b505afa158015612d8c573d6000803e3d6000fd5b505050506040513d6020811015612da257600080fd5b505190506001600160a01b0380821690831614612e02576040805162461bcd60e51b815260206004820152601960248201527824ba32b6903737ba1037bbb732b210313c9037b33332b932b960391b604482015290519081900360640190fd5b600154604051635c46a7ef60e11b81526001600160a01b03848116600483019081523360248401819052604484018b9052608060648501908152895160848601528951939095169463b88d4fde94889492938d938c93919260a40190602085019080838360005b83811015612e81578181015183820152602001612e69565b50505050905090810190601f168015612eae5780820380516001836020036101000a031916815260200191505b5095505050505050600060405180830381600087803b158015612ed057600080fd5b505af1158015612ee4573d6000803e3d6000fd5b5050505050612fe2565b600154825160208085015160405163b85cbc7960e01b815233600482018181526001600160a01b038681166024850152604484018d9052608060648501908152855160848601528551919098169763b85cbc7997939693958e959094919260a49091019185019080838360005b83811015612f73578181015183820152602001612f5b565b50505050905090810190601f168015612fa05780820380516001836020036101000a031916815260200191505b5095505050505050600060405180830381600087803b158015612fc257600080fd5b505af1158015612fd6573d6000803e3d6000fd5b50506001608085015250505b600060608301819052858152600460209081526040909120835181546001600160a01b0319166001600160a01b03909116178155818401518051859361302f92600185019291019061315a565b5060408281015160028301556060808401516003909301805460809095015115156101000261ff001994151560ff19909616959095179390931693909317909155600a54845182516001600160a01b03928316815290821660208201529084168183015290517f8703df07b43faff82a32cfdce460e22eb4b029f946f61df422e57d5ef66f3962929181900390910190a181516130cd9082866127e2565b6006805460ff19169055604080513381526020810187905280820186905290517f2e91b12fed89e8218510d4f7c38c6db746acd0984f09b436b69bd7db5e93da8b9181900360600190a15050505050565b6040518060a0016040528060006001600160a01b0316815260200160608152602001600081526020016000151581526020016000151581525090565b828054600181600116156101000203166002900490600052602060002090601f01602090048101928261319057600085556131d6565b82601f106131a957805160ff19168380011785556131d6565b828001600101855582156131d6579182015b828111156131d65782518255916020019190600101906131bb565b506131e29291506131e6565b5090565b5b808211156131e257600081556001016131e756fe73756d285f63726561746f725065724d696c6c65202b205f6f776e65725065724d696c6c6529206d75737420657175616c2031303030417474656d707420746f206d6f6469667920616e206578697374696e67206f6666657243616e6e6f74207472616e736665722066756e64730000000000000000000000596f7520617265206e6f7420616c6c6f77656420746f206d696e7420746f6b656e732068657265596f752068617665206e6f7420617070726f766564207468697320636f6e747261637420746f2073656c6c20796f757220746f6b656e73a2646970667358221220d9625179fde4dbe65e6dc9c9cac6486e0b14a55de2932f8de794fbbeedf0a05264736f6c6343000705003373756d285f63726561746f725065724d696c6c65202b205f6f776e65725065724d696c6c6529206d75737420657175616c2031303030",
  "linkReferences": {},
  "deployedLinkReferences": {}
}