{
  "_format": "hh-sol-artifact-1",
  "contractName": "pMintyMultiToken",
  "sourceName": "contracts/mintyMultiToken/pMintyMultiToken.sol",
  "abi": [
    {
      "inputs": [
        {
          "internalType": "address",
          "name": "_owner",
          "type": "address"
        },
        {
          "internalType": "address",
          "name": "saleContract",
          "type": "address"
        },
        {
          "internalType": "contract locking[]",
          "name": "_locs",
          "type": "address[]"
        },
        {
          "internalType": "string",
          "name": "_lockError",
          "type": "string"
        },
        {
          "internalType": "uint256",
          "name": "_royaltyPerMille",
          "type": "uint256"
        },
        {
          "components": [
            {
              "internalType": "address",
              "name": "beneficiary",
              "type": "address"
            },
            {
              "internalType": "uint256",
              "name": "share",
              "type": "uint256"
            }
          ],
          "internalType": "struct PoolEntry[]",
          "name": "_initialEntries",
          "type": "tuple[]"
        },
        {
          "components": [
            {
              "internalType": "address",
              "name": "beneficiary",
              "type": "address"
            },
            {
              "internalType": "uint256",
              "name": "share",
              "type": "uint256"
            }
          ],
          "internalType": "struct PoolEntry[]",
          "name": "_resaleEntries",
          "type": "tuple[]"
        },
        {
          "internalType": "string",
          "name": "_poolName",
          "type": "string"
        }
      ],
      "stateMutability": "nonpayable",
      "type": "constructor"
    },
    {
      "anonymous": false,
      "inputs": [
        {
          "indexed": true,
          "internalType": "address",
          "name": "account",
          "type": "address"
        },
        {
          "indexed": true,
          "internalType": "address",
          "name": "operator",
          "type": "address"
        },
        {
          "indexed": false,
          "internalType": "bool",
          "name": "approved",
          "type": "bool"
        }
      ],
      "name": "ApprovalForAll",
      "type": "event"
    },
    {
      "anonymous": false,
      "inputs": [
        {
          "indexed": false,
          "internalType": "address",
          "name": "operator",
          "type": "address"
        },
        {
          "indexed": false,
          "internalType": "bool",
          "name": "enabled",
          "type": "bool"
        }
      ],
      "name": "OperatorSet",
      "type": "event"
    },
    {
      "anonymous": false,
      "inputs": [
        {
          "indexed": false,
          "internalType": "uint256",
          "name": "poolId",
          "type": "uint256"
        },
        {
          "indexed": false,
          "internalType": "string",
          "name": "poolName",
          "type": "string"
        }
      ],
      "name": "PoolAdded",
      "type": "event"
    },
    {
      "anonymous": false,
      "inputs": [
        {
          "indexed": true,
          "internalType": "address",
          "name": "operator",
          "type": "address"
        },
        {
          "indexed": true,
          "internalType": "address",
          "name": "from",
          "type": "address"
        },
        {
          "indexed": true,
          "internalType": "address",
          "name": "to",
          "type": "address"
        },
        {
          "indexed": false,
          "internalType": "uint256[]",
          "name": "ids",
          "type": "uint256[]"
        },
        {
          "indexed": false,
          "internalType": "uint256[]",
          "name": "values",
          "type": "uint256[]"
        }
      ],
      "name": "TransferBatch",
      "type": "event"
    },
    {
      "anonymous": false,
      "inputs": [
        {
          "indexed": true,
          "internalType": "address",
          "name": "operator",
          "type": "address"
        },
        {
          "indexed": true,
          "internalType": "address",
          "name": "from",
          "type": "address"
        },
        {
          "indexed": true,
          "internalType": "address",
          "name": "to",
          "type": "address"
        },
        {
          "indexed": false,
          "internalType": "uint256",
          "name": "id",
          "type": "uint256"
        },
        {
          "indexed": false,
          "internalType": "uint256",
          "name": "value",
          "type": "uint256"
        }
      ],
      "name": "TransferSingle",
      "type": "event"
    },
    {
      "anonymous": false,
      "inputs": [
        {
          "indexed": false,
          "internalType": "string",
          "name": "value",
          "type": "string"
        },
        {
          "indexed": true,
          "internalType": "uint256",
          "name": "id",
          "type": "uint256"
        }
      ],
      "name": "URI",
      "type": "event"
    },
    {
      "inputs": [
        {
          "components": [
            {
              "internalType": "address",
              "name": "beneficiary",
              "type": "address"
            },
            {
              "internalType": "uint256",
              "name": "share",
              "type": "uint256"
            }
          ],
          "internalType": "struct PoolEntry[]",
          "name": "_initialEntries",
          "type": "tuple[]"
        },
        {
          "components": [
            {
              "internalType": "address",
              "name": "beneficiary",
              "type": "address"
            },
            {
              "internalType": "uint256",
              "name": "share",
              "type": "uint256"
            }
          ],
          "internalType": "struct PoolEntry[]",
          "name": "_resaleEntries",
          "type": "tuple[]"
        },
        {
          "internalType": "string",
          "name": "_poolName",
          "type": "string"
        }
      ],
      "name": "addPools",
      "outputs": [],
      "stateMutability": "nonpayable",
      "type": "function"
    },
    {
      "inputs": [
        {
          "internalType": "address",
          "name": "account",
          "type": "address"
        },
        {
          "internalType": "uint256",
          "name": "id",
          "type": "uint256"
        }
      ],
      "name": "balanceOf",
      "outputs": [
        {
          "internalType": "uint256",
          "name": "",
          "type": "uint256"
        }
      ],
      "stateMutability": "view",
      "type": "function"
    },
    {
      "inputs": [
        {
          "internalType": "address[]",
          "name": "accounts",
          "type": "address[]"
        },
        {
          "internalType": "uint256[]",
          "name": "ids",
          "type": "uint256[]"
        }
      ],
      "name": "balanceOfBatch",
      "outputs": [
        {
          "internalType": "uint256[]",
          "name": "",
          "type": "uint256[]"
        }
      ],
      "stateMutability": "view",
      "type": "function"
    },
    {
      "inputs": [],
      "name": "contractURI",
      "outputs": [
        {
          "internalType": "string",
          "name": "",
          "type": "string"
        }
      ],
      "stateMutability": "view",
      "type": "function"
    },
    {
      "inputs": [
        {
          "internalType": "uint256",
          "name": "saleNumber",
          "type": "uint256"
        },
        {
          "internalType": "uint256",
          "name": "tokenId",
          "type": "uint256"
        }
      ],
      "name": "getRoyalties",
      "outputs": [
        {
          "components": [
            {
              "internalType": "address",
              "name": "beneficiary",
              "type": "address"
            },
            {
              "internalType": "uint256",
              "name": "share",
              "type": "uint256"
            }
          ],
          "internalType": "struct PoolEntry[]",
          "name": "",
          "type": "tuple[]"
        }
      ],
      "stateMutability": "view",
      "type": "function"
    },
    {
      "inputs": [
        {
          "internalType": "uint256",
          "name": "",
          "type": "uint256"
        },
        {
          "internalType": "uint256",
          "name": "",
          "type": "uint256"
        }
      ],
      "name": "initialPools",
      "outputs": [
        {
          "internalType": "address",
          "name": "beneficiary",
          "type": "address"
        },
        {
          "internalType": "uint256",
          "name": "share",
          "type": "uint256"
        }
      ],
      "stateMutability": "view",
      "type": "function"
    },
    {
      "inputs": [
        {
          "internalType": "address",
          "name": "account",
          "type": "address"
        },
        {
          "internalType": "address",
          "name": "operator",
          "type": "address"
        }
      ],
      "name": "isApprovedForAll",
      "outputs": [
        {
          "internalType": "bool",
          "name": "",
          "type": "bool"
        }
      ],
      "stateMutability": "view",
      "type": "function"
    },
    {
      "inputs": [],
      "name": "lockError",
      "outputs": [
        {
          "internalType": "string",
          "name": "",
          "type": "string"
        }
      ],
      "stateMutability": "view",
      "type": "function"
    },
    {
      "inputs": [
        {
          "internalType": "uint256",
          "name": "",
          "type": "uint256"
        }
      ],
      "name": "locs",
      "outputs": [
        {
          "internalType": "contract locking",
          "name": "",
          "type": "address"
        }
      ],
      "stateMutability": "view",
      "type": "function"
    },
    {
      "inputs": [
        {
          "internalType": "uint256",
          "name": "tokenId",
          "type": "uint256"
        },
        {
          "internalType": "uint256",
          "name": "quantity",
          "type": "uint256"
        },
        {
          "internalType": "string",
          "name": "hash",
          "type": "string"
        },
        {
          "internalType": "uint256",
          "name": "poolId",
          "type": "uint256"
        }
      ],
      "name": "mint",
      "outputs": [],
      "stateMutability": "nonpayable",
      "type": "function"
    },
    {
      "inputs": [
        {
          "internalType": "uint256[]",
          "name": "tokenIds",
          "type": "uint256[]"
        },
        {
          "internalType": "uint256[]",
          "name": "quantities",
          "type": "uint256[]"
        },
        {
          "internalType": "string[]",
          "name": "hashes",
          "type": "string[]"
        },
        {
          "internalType": "uint256",
          "name": "poolId",
          "type": "uint256"
        }
      ],
      "name": "mintBatch",
      "outputs": [],
      "stateMutability": "nonpayable",
      "type": "function"
    },
    {
      "inputs": [
        {
          "internalType": "uint256",
          "name": "",
          "type": "uint256"
        }
      ],
      "name": "minted",
      "outputs": [
        {
          "internalType": "bool",
          "name": "",
          "type": "bool"
        }
      ],
      "stateMutability": "view",
      "type": "function"
    },
    {
      "inputs": [],
      "name": "numPools",
      "outputs": [
        {
          "internalType": "uint256",
          "name": "",
          "type": "uint256"
        }
      ],
      "stateMutability": "view",
      "type": "function"
    },
    {
      "inputs": [],
      "name": "owner",
      "outputs": [
        {
          "internalType": "address",
          "name": "",
          "type": "address"
        }
      ],
      "stateMutability": "view",
      "type": "function"
    },
    {
      "inputs": [
        {
          "internalType": "uint256",
          "name": "",
          "type": "uint256"
        }
      ],
      "name": "poolByTokenId",
      "outputs": [
        {
          "internalType": "uint256",
          "name": "",
          "type": "uint256"
        }
      ],
      "stateMutability": "view",
      "type": "function"
    },
    {
      "inputs": [
        {
          "internalType": "uint256",
          "name": "",
          "type": "uint256"
        }
      ],
      "name": "poolNames",
      "outputs": [
        {
          "internalType": "string",
          "name": "",
          "type": "string"
        }
      ],
      "stateMutability": "view",
      "type": "function"
    },
    {
      "inputs": [
        {
          "internalType": "uint256",
          "name": "",
          "type": "uint256"
        },
        {
          "internalType": "uint256",
          "name": "",
          "type": "uint256"
        }
      ],
      "name": "resalePools",
      "outputs": [
        {
          "internalType": "address",
          "name": "beneficiary",
          "type": "address"
        },
        {
          "internalType": "uint256",
          "name": "share",
          "type": "uint256"
        }
      ],
      "stateMutability": "view",
      "type": "function"
    },
    {
      "inputs": [],
      "name": "royaltyPerMille",
      "outputs": [
        {
          "internalType": "uint256",
          "name": "",
          "type": "uint256"
        }
      ],
      "stateMutability": "view",
      "type": "function"
    },
    {
      "inputs": [
        {
          "internalType": "address",
          "name": "from",
          "type": "address"
        },
        {
          "internalType": "address",
          "name": "to",
          "type": "address"
        },
        {
          "internalType": "uint256[]",
          "name": "ids",
          "type": "uint256[]"
        },
        {
          "internalType": "uint256[]",
          "name": "amounts",
          "type": "uint256[]"
        },
        {
          "internalType": "bytes",
          "name": "data",
          "type": "bytes"
        }
      ],
      "name": "safeBatchTransferFrom",
      "outputs": [],
      "stateMutability": "nonpayable",
      "type": "function"
    },
    {
      "inputs": [
        {
          "internalType": "address",
          "name": "from",
          "type": "address"
        },
        {
          "internalType": "address",
          "name": "to",
          "type": "address"
        },
        {
          "internalType": "uint256",
          "name": "id",
          "type": "uint256"
        },
        {
          "internalType": "uint256",
          "name": "amount",
          "type": "uint256"
        },
        {
          "internalType": "bytes",
          "name": "data",
          "type": "bytes"
        }
      ],
      "name": "safeTransferFrom",
      "outputs": [],
      "stateMutability": "nonpayable",
      "type": "function"
    },
    {
      "inputs": [
        {
          "internalType": "address",
          "name": "operator",
          "type": "address"
        },
        {
          "internalType": "bool",
          "name": "approved",
          "type": "bool"
        }
      ],
      "name": "setApprovalForAll",
      "outputs": [],
      "stateMutability": "nonpayable",
      "type": "function"
    },
    {
      "inputs": [
        {
          "internalType": "address",
          "name": "operator",
          "type": "address"
        },
        {
          "internalType": "bool",
          "name": "enabled",
          "type": "bool"
        }
      ],
      "name": "setAuth",
      "outputs": [],
      "stateMutability": "nonpayable",
      "type": "function"
    },
    {
      "inputs": [
        {
          "internalType": "string",
          "name": "_base",
          "type": "string"
        }
      ],
      "name": "setBase",
      "outputs": [],
      "stateMutability": "nonpayable",
      "type": "function"
    },
    {
      "inputs": [
        {
          "internalType": "string",
          "name": "_uri",
          "type": "string"
        }
      ],
      "name": "setContractURI",
      "outputs": [],
      "stateMutability": "nonpayable",
      "type": "function"
    },
    {
      "inputs": [
        {
          "internalType": "bytes4",
          "name": "interfaceId",
          "type": "bytes4"
        }
      ],
      "name": "supportsInterface",
      "outputs": [
        {
          "internalType": "bool",
          "name": "",
          "type": "bool"
        }
      ],
      "stateMutability": "view",
      "type": "function"
    },
    {
      "inputs": [
        {
          "internalType": "uint256",
          "name": "tokenId",
          "type": "uint256"
        }
      ],
      "name": "uri",
      "outputs": [
        {
          "internalType": "string",
          "name": "",
          "type": "string"
        }
      ],
      "stateMutability": "view",
      "type": "function"
    },
    {
      "inputs": [
        {
          "internalType": "address",
          "name": "buyer",
          "type": "address"
        }
      ],
      "name": "validateBuyer",
      "outputs": [],
      "stateMutability": "nonpayable",
      "type": "function"
    }
  ],
  "bytecode": "0x60806040523480156200001157600080fd5b5060405162003566380380620035668339810160408190526200003491620006ca565b604080516020810190915260008152620000556301ffc9a760e01b6200017f565b620000608162000204565b62000072636cdb3d1360e11b6200017f565b620000846303a24d0760e21b6200017f565b50600780546001600160a01b0319166001600160a01b038a811691909117909155871660009081526008602052604090819020805460ff1916600190811790915590517f1a594081ae893ab78e67d9b9e843547318164322d32c65369d78a96172d9dc8f91620000f7918a9190620007d5565b60405180910390a185516200011490600a906020890190620003fa565b5084516200012a90600b90602088019062000464565b50604051806060016040528060228152602001620035446022913980516200015b9160069160209091019062000464565b50600c8490556000620001708484846200021d565b50505050505050505062000928565b6001600160e01b03198082161415620001df576040805162461bcd60e51b815260206004820152601c60248201527f4552433136353a20696e76616c696420696e7465726661636520696400000000604482015290519081900360640190fd5b6001600160e01b0319166000908152602081905260409020805460ff19166001179055565b80516200021990600390602084019062000464565b5050565b600d8054600181019091556000805b8551811015620002b55762000240620004e7565b8682815181106200024d57fe5b6020908102919091018101516000868152600e83526040812080546001808201835591835291849020835160029093020180546001600160a01b0319166001600160a01b0390931692909217825591909201519181018290559301929190910190506200022c565b50806103e814620002e35760405162461bcd60e51b8152600401620002da9062000827565b60405180910390fd5b6000805b85518110156200037057620002fb620004e7565b8682815181106200030857fe5b6020908102919091018101516000878152600f83526040812080546001808201835591835291849020835160029093020180546001600160a01b0319166001600160a01b039093169290921782559190920151918101829055930192919091019050620002e7565b50806103e814620003955760405162461bcd60e51b8152600401620002da90620007f0565b60008381526010602090815260409091208551620003b69287019062000464565b507f150cb369f834b70a4f343956659b1f84cd37d44352b9a76ff77ac59552ef4aa08385604051620003ea9291906200085e565b60405180910390a1505050505050565b82805482825590600052602060002090810192821562000452579160200282015b828111156200045257825182546001600160a01b0319166001600160a01b039091161782556020909201916001909101906200041b565b5062000460929150620004fe565b5090565b828054600181600116156101000203166002900490600052602060002090601f0160209004810192826200049c576000855562000452565b82601f10620004b757805160ff191683800117855562000452565b8280016001018555821562000452579182015b8281111562000452578251825591602001919060010190620004ca565b604080518082019091526000808252602082015290565b5b80821115620004605760008155600101620004ff565b805162000522816200090f565b919050565b600082601f83011262000538578081fd5b81516200054f6200054982620008be565b6200089a565b8181529150602080830190848101818402860182018710156200057157600080fd5b60005b848110156200059d5781516200058a816200090f565b8452928201929082019060010162000574565b505050505092915050565b600082601f830112620005b9578081fd5b8151620005ca6200054982620008be565b8181529150602080830190848101604080850287018301881015620005ee57600080fd5b6000805b86811015620006515782848b0312156200060a578182fd5b82518084016001600160401b03811182821017156200062557fe5b8452845162000634816200090f565b8152848601518682015286529484019492820192600101620005f2565b5050505050505092915050565b600082601f8301126200066f578081fd5b81516001600160401b038111156200068357fe5b62000698601f8201601f19166020016200089a565b9150808252836020828501011115620006b057600080fd5b620006c3816020840160208601620008dc565b5092915050565b600080600080600080600080610100898b031215620006e7578384fd5b620006f28962000515565b97506200070260208a0162000515565b60408a01519097506001600160401b03808211156200071f578586fd5b6200072d8c838d0162000527565b975060608b015191508082111562000743578586fd5b620007518c838d016200065e565b965060808b0151955060a08b01519150808211156200076e578485fd5b6200077c8c838d01620005a8565b945060c08b015191508082111562000792578384fd5b620007a08c838d01620005a8565b935060e08b0151915080821115620007b6578283fd5b50620007c58b828c016200065e565b9150509295985092959890939650565b6001600160a01b039290921682521515602082015260400190565b6020808252601b908201527f526573616c652073686172657320646f206e6f74206164642075700000000000604082015260600190565b6020808252601c908201527f496e697469616c2073686172657320646f206e6f742061646420757000000000604082015260600190565b600083825260406020830152825180604084015262000885816060850160208701620008dc565b601f01601f1916919091016060019392505050565b6040518181016001600160401b0381118282101715620008b657fe5b604052919050565b60006001600160401b03821115620008d257fe5b5060209081020190565b60005b83811015620008f9578181015183820152602001620008df565b8381111562000909576000848401525b50505050565b6001600160a01b03811681146200092557600080fd5b50565b612c0c80620009386000396000f3fe608060405234801561001057600080fd5b50600436106101a85760003560e01c8063733b05e2116100f9578063b7f5f26811610097578063e8a3d48511610071578063e8a3d485146103a8578063e8f3359f146103b0578063e985e9c5146103b8578063f242432a146103cb576101a8565b8063b7f5f26814610362578063cf2ed32e14610375578063e03650b914610388576101a8565b806388e485c7116100d357806388e485c71461032c5780638da5cb5b14610334578063938e3d7b1461033c578063a22cb4651461034f576101a8565b8063733b05e2146102e657806379f3ca18146102f95780637dc0bf3f14610319576101a8565b80632eb2c2d6116101665780634e5f467c116101405780634e5f467c1461028c5780635773bd071461029f5780635e68e7f8146102b2578063664aa26b146102d3576101a8565b80632eb2c2d61461025157806335c62bc2146102645780634e1273f41461026c576101a8565b8062fdd58e146101ad57806301ffc9a7146101d65780630b44a218146101f65780630e89341c1461020b5780631cce3f401461022b5780632a637d5c1461023e575b600080fd5b6101c06101bb366004612235565b6103de565b6040516101cd91906128b4565b60405180910390f35b6101e96101e4366004612494565b610450565b6040516101cd9190612715565b6102096102043660046121ff565b610473565b005b61021e6102193660046124f6565b610522565b6040516101cd9190612720565b61020961023936600461231e565b6105ec565b61020961024c3660046123a1565b610640565b61020961025f3660046120f8565b6107b5565b6101c0610aae565b61027f61027a36600461225e565b610ab4565b6040516101cd91906126d1565b6101c061029a3660046124f6565b610b9f565b6102096102ad3660046120ac565b610bb1565b6102c56102c036600461250e565b610c98565b6040516101cd929190612660565b6102096102e13660046124bc565b610cde565b61021e6102f43660046124f6565b610d35565b61030c6103073660046124f6565b610dd0565b6040516101cd9190612631565b6101e96103273660046124f6565b610dfa565b61021e610e0f565b61030c610e6a565b61020961034a3660046124bc565b610e79565b61020961035d3660046121ff565b610ed0565b6102c561037036600461250e565b610fbf565b61020961038336600461252f565b610fdb565b61039b61039636600461250e565b6110ae565b6040516101cd9190612679565b61021e6111c0565b6101c061121b565b6101e96103c63660046120c6565b611221565b6102096103d936600461219d565b61124f565b60006001600160a01b0383166104255760405162461bcd60e51b815260040180806020018281038252602b815260200180612a67602b913960400191505060405180910390fd5b5060008181526001602090815260408083206001600160a01b03861684529091529020545b92915050565b6001600160e01b0319811660009081526020819052604090205460ff165b919050565b3360009081526008602052604090205460ff168061049b57506007546001600160a01b031633145b6104c05760405162461bcd60e51b81526004016104b7906127bc565b60405180910390fd5b6001600160a01b03821660009081526008602052604090819020805460ff1916831515179055517f1a594081ae893ab78e67d9b9e843547318164322d32c65369d78a96172d9dc8f906105169084908490612645565b60405180910390a15050565b6000818152600560209081526040918290208054835160026001831615610100026000190190921691909104601f810184900484028201840190945283815260609384939192918301828280156105ba5780601f1061058f576101008083540402835291602001916105ba565b820191906000526020600020905b81548152906001019060200180831161059d57829003601f168201915b505050505090506006816040516020016105d59291906125b0565b604051602081830303815290604052915050919050565b3360009081526008602052604090205460ff168061061457506007546001600160a01b031633145b6106305760405162461bcd60e51b81526004016104b7906127bc565b61063b83838361141a565b505050565b3360009081526008602052604090205460ff168061066857506007546001600160a01b031633145b6106845760405162461bcd60e51b81526004016104b7906127bc565b606082518551146106a75760405162461bcd60e51b81526004016104b790612850565b600d5482106106c85760405162461bcd60e51b81526004016104b790612887565b60005b8551811015610795578381815181106106e057fe5b6020026020010151600560008884815181106106f857fe5b602002602001015181526020019081526020016000209080519060200190610721929190611e60565b5060016004600088848151811061073457fe5b6020026020010151815260200190815260200160002060006101000a81548160ff021916908315150217905550826011600088848151811061077257fe5b6020908102919091018101518252810191909152604001600020556001016106cb565b506007546107ae906001600160a01b03168686846115da565b5050505050565b81518351146107f55760405162461bcd60e51b8152600401808060200182810382526028815260200180612b8e6028913960400191505060405180910390fd5b6001600160a01b03841661083a5760405162461bcd60e51b8152600401808060200182810382526025815260200180612abb6025913960400191505060405180910390fd5b610842611828565b6001600160a01b0316856001600160a01b031614806108685750610868856103c6611828565b6108a35760405162461bcd60e51b8152600401808060200182810382526032815260200180612ae06032913960400191505060405180910390fd5b60006108ad611828565b90506108bd818787878787610aa6565b60005b84518110156109be5760008582815181106108d757fe5b6020026020010151905060008583815181106108ef57fe5b6020026020010151905061095c816040518060600160405280602a8152602001612b12602a91396001600086815260200190815260200160002060008d6001600160a01b03166001600160a01b031681526020019081526020016000205461182d9092919063ffffffff16565b60008381526001602090815260408083206001600160a01b038e811685529252808320939093558a168152205461099390826118c4565b60009283526001602081815260408086206001600160a01b038d1687529091529093205550016108c0565b50846001600160a01b0316866001600160a01b0316826001600160a01b03167f4a39dc06d4c0dbc64b70af90fd698a233a518aa5d07e595d983b8c0526c8f7fb8787604051808060200180602001838103835285818151815260200191508051906020019060200280838360005b83811015610a44578181015183820152602001610a2c565b50505050905001838103825284818151815260200191508051906020019060200280838360005b83811015610a83578181015183820152602001610a6b565b5050505090500194505050505060405180910390a4610aa6818787878787611925565b505050505050565b600d5481565b60608151835114610af65760405162461bcd60e51b8152600401808060200182810382526029815260200180612b656029913960400191505060405180910390fd5b606083516001600160401b0381118015610b0f57600080fd5b50604051908082528060200260200182016040528015610b39578160200160208202803683370190505b50905060005b8451811015610b9757610b78858281518110610b5757fe5b6020026020010151858381518110610b6b57fe5b60200260200101516103de565b828281518110610b8457fe5b6020908102919091010152600101610b3f565b509392505050565b60116020526000908152604090205481565b60005b600a54811015610c6e576000600a8281548110610bcd57fe5b600091825260209091200154604051631293efbb60e21b81526001600160a01b0390911690634a4fbeec90610c06908690600401612631565b60206040518083038186803b158015610c1e57600080fd5b505afa158015610c32573d6000803e3d6000fd5b505050506040513d601f19601f82011682018060405250810190610c569190612478565b90508015610c65575050610c95565b50600101610bb4565b50600a54600b9015610c935760405162461bcd60e51b81526004016104b79190612733565b505b50565b600e6020528160005260406000208181548110610cb457600080fd5b6000918252602090912060029091020180546001909101546001600160a01b039091169250905082565b3360009081526008602052604090205460ff1680610d0657506007546001600160a01b031633145b610d225760405162461bcd60e51b81526004016104b7906127bc565b8051610c93906006906020840190611e60565b60106020908152600091825260409182902080548351601f600260001961010060018616150201909316929092049182018490048402810184019094528084529091830182828015610dc85780601f10610d9d57610100808354040283529160200191610dc8565b820191906000526020600020905b815481529060010190602001808311610dab57829003601f168201915b505050505081565b600a8181548110610de057600080fd5b6000918252602090912001546001600160a01b0316905081565b60046020526000908152604090205460ff1681565b600b805460408051602060026001851615610100026000190190941693909304601f81018490048402820184019092528181529291830182828015610dc85780601f10610d9d57610100808354040283529160200191610dc8565b6007546001600160a01b031681565b3360009081526008602052604090205460ff1680610ea157506007546001600160a01b031633145b610ebd5760405162461bcd60e51b81526004016104b7906127bc565b8051610c93906009906020840190611e60565b816001600160a01b0316610ee2611828565b6001600160a01b03161415610f285760405162461bcd60e51b8152600401808060200182810382526029815260200180612b3c6029913960400191505060405180910390fd5b8060026000610f35611828565b6001600160a01b03908116825260208083019390935260409182016000908120918716808252919093529120805460ff191692151592909217909155610f79611828565b6001600160a01b03167f17307eab39ab6107e8899845ad3d59bd9653f200f220920489ca2b5937696c318360405180821515815260200191505060405180910390a35050565b600f6020528160005260406000208181548110610cb457600080fd5b3360009081526008602052604090205460ff168061100357506007546001600160a01b031633145b61101f5760405162461bcd60e51b81526004016104b7906127bc565b600d5481106110405760405162461bcd60e51b81526004016104b790612887565b60008481526005602090815260409091208351606092611064929190860190611e60565b506000858152600460205260409020805460ff19166001179055600754611096906001600160a01b0316868684611ba4565b50600093845260116020526040909320929092555050565b60008181526011602052604090205460609083611142576000818152600e6020908152604080832080548251818502810185019093528083529193909284015b82821015611136576000848152602090819020604080518082019091526002850290910180546001600160a01b031682526001908101548284015290835290920191016110ee565b5050505091505061044a565b6000818152600f6020908152604080832080548251818502810185019093528083529193909284015b828210156111b3576000848152602090819020604080518082019091526002850290910180546001600160a01b0316825260019081015482840152908352909201910161116b565b5050505091505092915050565b6009805460408051602060026001851615610100026000190190941693909304601f81018490048402820184019092528181529291830182828015610dc85780601f10610d9d57610100808354040283529160200191610dc8565b600c5481565b6001600160a01b03918216600090815260026020908152604080832093909416825291909152205460ff1690565b6001600160a01b0384166112945760405162461bcd60e51b8152600401808060200182810382526025815260200180612abb6025913960400191505060405180910390fd5b61129c611828565b6001600160a01b0316856001600160a01b031614806112c257506112c2856103c6611828565b6112fd5760405162461bcd60e51b8152600401808060200182810382526029815260200180612a926029913960400191505060405180910390fd5b6000611307611828565b905061132781878761131888611ca5565b61132188611ca5565b87610aa6565b61136e836040518060600160405280602a8152602001612b12602a913960008781526001602090815260408083206001600160a01b038d168452909152902054919061182d565b60008581526001602090815260408083206001600160a01b038b811685529252808320939093558716815220546113a590846118c4565b60008581526001602090815260408083206001600160a01b03808b168086529184529382902094909455805188815291820187905280518a8416938616927fc3d58168c5ae7397731d063d5bbf3d657854427343f4c083240f7aacaa2d0f6292908290030190a4610aa6818787878787611ce9565b600d8054600181019091556000805b85518110156114ad5761143a611eec565b86828151811061144657fe5b6020908102919091018101516000868152600e83526040812080546001808201835591835291849020835160029093020180546001600160a01b0319166001600160a01b039093169290921782559190920151918101829055930192919091019050611429565b50806103e8146114cf5760405162461bcd60e51b81526004016104b790612819565b6000805b8551811015611557576114e4611eec565b8682815181106114f057fe5b6020908102919091018101516000878152600f83526040812080546001808201835591835291849020835160029093020180546001600160a01b0319166001600160a01b0390931692909217825591909201519181018290559301929190910190506114d3565b50806103e8146115795760405162461bcd60e51b81526004016104b7906127e2565b6000838152601060209081526040909120855161159892870190611e60565b507f150cb369f834b70a4f343956659b1f84cd37d44352b9a76ff77ac59552ef4aa083856040516115ca9291906128bd565b60405180910390a1505050505050565b6001600160a01b03841661161f5760405162461bcd60e51b8152600401808060200182810382526021815260200180612bb66021913960400191505060405180910390fd5b815183511461165f5760405162461bcd60e51b8152600401808060200182810382526028815260200180612b8e6028913960400191505060405180910390fd5b6000611669611828565b905061167a81600087878787610aa6565b60005b845181101561173e576116f56001600087848151811061169957fe5b602002602001015181526020019081526020016000206000886001600160a01b03166001600160a01b03168152602001908152602001600020548583815181106116df57fe5b60200260200101516118c490919063ffffffff16565b6001600087848151811061170557fe5b602090810291909101810151825281810192909252604090810160009081206001600160a01b038b16825290925290205560010161167d565b50846001600160a01b031660006001600160a01b0316826001600160a01b03167f4a39dc06d4c0dbc64b70af90fd698a233a518aa5d07e595d983b8c0526c8f7fb8787604051808060200180602001838103835285818151815260200191508051906020019060200280838360005b838110156117c55781810151838201526020016117ad565b50505050905001838103825284818151815260200191508051906020019060200280838360005b838110156118045781810151838201526020016117ec565b5050505090500194505050505060405180910390a46107ae81600087878787611925565b335b90565b600081848411156118bc5760405162461bcd60e51b81526004018080602001828103825283818151815260200191508051906020019080838360005b83811015611881578181015183820152602001611869565b50505050905090810190601f1680156118ae5780820380516001836020036101000a031916815260200191505b509250505060405180910390fd5b505050900390565b60008282018381101561191e576040805162461bcd60e51b815260206004820152601b60248201527f536166654d6174683a206164646974696f6e206f766572666c6f770000000000604482015290519081900360640190fd5b9392505050565b611937846001600160a01b0316611e5a565b15610aa657836001600160a01b031663bc197c8187878686866040518663ffffffff1660e01b815260040180866001600160a01b03168152602001856001600160a01b03168152602001806020018060200180602001848103845287818151815260200191508051906020019060200280838360005b838110156119c55781810151838201526020016119ad565b50505050905001848103835286818151815260200191508051906020019060200280838360005b83811015611a045781810151838201526020016119ec565b50505050905001848103825285818151815260200191508051906020019080838360005b83811015611a40578181015183820152602001611a28565b50505050905090810190601f168015611a6d5780820380516001836020036101000a031916815260200191505b5098505050505050505050602060405180830381600087803b158015611a9257600080fd5b505af1925050508015611ab757506040513d6020811015611ab257600080fd5b505160015b611b4c57611ac3612958565b80611ace5750611b15565b60405162461bcd60e51b8152602060048201818152835160248401528351849391928392604401919085019080838360008315611881578181015183820152602001611869565b60405162461bcd60e51b8152600401808060200182810382526034815260200180612a0b6034913960400191505060405180910390fd5b6001600160e01b0319811663bc197c8160e01b14611b9b5760405162461bcd60e51b8152600401808060200182810382526028815260200180612a3f6028913960400191505060405180910390fd5b50505050505050565b6001600160a01b038416611be95760405162461bcd60e51b8152600401808060200182810382526021815260200180612bb66021913960400191505060405180910390fd5b6000611bf3611828565b9050611c058160008761131888611ca5565b60008481526001602090815260408083206001600160a01b0389168452909152902054611c3290846118c4565b60008581526001602090815260408083206001600160a01b03808b16808652918452828520959095558151898152928301889052815190948616927fc3d58168c5ae7397731d063d5bbf3d657854427343f4c083240f7aacaa2d0f6292908290030190a46107ae81600087878787611ce9565b604080516001808252818301909252606091829190602080830190803683370190505090508281600081518110611cd857fe5b602090810291909101015292915050565b611cfb846001600160a01b0316611e5a565b15610aa657836001600160a01b031663f23a6e6187878686866040518663ffffffff1660e01b815260040180866001600160a01b03168152602001856001600160a01b0316815260200184815260200183815260200180602001828103825283818151815260200191508051906020019080838360005b83811015611d8a578181015183820152602001611d72565b50505050905090810190601f168015611db75780820380516001836020036101000a031916815260200191505b509650505050505050602060405180830381600087803b158015611dda57600080fd5b505af1925050508015611dff57506040513d6020811015611dfa57600080fd5b505160015b611e0b57611ac3612958565b6001600160e01b0319811663f23a6e6160e01b14611b9b5760405162461bcd60e51b8152600401808060200182810382526028815260200180612a3f6028913960400191505060405180910390fd5b3b151590565b828054600181600116156101000203166002900490600052602060002090601f016020900481019282611e965760008555611edc565b82601f10611eaf57805160ff1916838001178555611edc565b82800160010185558215611edc579182015b82811115611edc578251825591602001919060010190611ec1565b50611ee8929150611f03565b5090565b604080518082019091526000808252602082015290565b5b80821115611ee85760008155600101611f04565b80356001600160a01b038116811461046e57600080fd5b600082601f830112611f3f578081fd5b8135611f52611f4d826128f9565b6128d6565b8181529150602080830190848101604080850287018301881015611f7557600080fd5b6000805b86811015611fd05782848b031215611f8f578182fd5b82518381018181106001600160401b0382111715611fa957fe5b8452611fb485611f18565b8152848601358682015286529484019492820192600101611f79565b5050505050505092915050565b600082601f830112611fed578081fd5b8135611ffb611f4d826128f9565b81815291506020808301908481018184028601820187101561201c57600080fd5b60005b8481101561203b5781358452928201929082019060010161201f565b505050505092915050565b600082601f830112612056578081fd5b81356001600160401b0381111561206957fe5b61207c601f8201601f19166020016128d6565b915080825283602082850101111561209357600080fd5b8060208401602084013760009082016020015292915050565b6000602082840312156120bd578081fd5b61191e82611f18565b600080604083850312156120d8578081fd5b6120e183611f18565b91506120ef60208401611f18565b90509250929050565b600080600080600060a0868803121561210f578081fd5b61211886611f18565b945061212660208701611f18565b935060408601356001600160401b0380821115612141578283fd5b61214d89838a01611fdd565b94506060880135915080821115612162578283fd5b61216e89838a01611fdd565b93506080880135915080821115612183578283fd5b5061219088828901612046565b9150509295509295909350565b600080600080600060a086880312156121b4578081fd5b6121bd86611f18565b94506121cb60208701611f18565b9350604086013592506060860135915060808601356001600160401b038111156121f3578182fd5b61219088828901612046565b60008060408385031215612211578182fd5b61221a83611f18565b9150602083013561222a816129fc565b809150509250929050565b60008060408385031215612247578182fd5b61225083611f18565b946020939093013593505050565b60008060408385031215612270578182fd5b82356001600160401b0380821115612286578384fd5b818501915085601f830112612299578384fd5b81356122a7611f4d826128f9565b80828252602080830192508086018a8283870289010111156122c7578889fd5b8896505b848710156122f0576122dc81611f18565b8452600196909601959281019281016122cb565b509096508701359350505080821115612307578283fd5b5061231485828601611fdd565b9150509250929050565b600080600060608486031215612332578081fd5b83356001600160401b0380821115612348578283fd5b61235487838801611f2f565b94506020860135915080821115612369578283fd5b61237587838801611f2f565b9350604086013591508082111561238a578283fd5b5061239786828701612046565b9150509250925092565b600080600080608085870312156123b6578182fd5b84356001600160401b03808211156123cc578384fd5b6123d888838901611fdd565b95506020915081870135818111156123ee578485fd5b6123fa89828a01611fdd565b95505060408701358181111561240e578485fd5b87019050601f81018813612420578384fd5b803561242e611f4d826128f9565b81815283810190838501875b84811015612463576124518d888435890101612046565b8452928601929086019060010161243a565b50989b979a5098606001359750505050505050565b600060208284031215612489578081fd5b815161191e816129fc565b6000602082840312156124a5578081fd5b81356001600160e01b03198116811461191e578182fd5b6000602082840312156124cd578081fd5b81356001600160401b038111156124e2578182fd5b6124ee84828501612046565b949350505050565b600060208284031215612507578081fd5b5035919050565b60008060408385031215612520578182fd5b50508035926020909101359150565b60008060008060808587031215612544578182fd5b843593506020850135925060408501356001600160401b03811115612567578283fd5b61257387828801612046565b949793965093946060013593505050565b6000815180845261259c816020860160208601612922565b601f01601f19169290920160200192915050565b60008084546001808216600081146125cf57600181146125e657612615565b60ff198316865260028304607f1686019350612615565b600283048886526020808720875b8381101561260d5781548a8201529085019082016125f4565b505050860193505b5050508351612628818360208801612922565b01949350505050565b6001600160a01b0391909116815260200190565b6001600160a01b039290921682521515602082015260400190565b6001600160a01b03929092168252602082015260400190565b602080825282518282018190526000919060409081850190868401855b828110156126c457815180516001600160a01b03168552860151868501529284019290850190600101612696565b5091979650505050505050565b6020808252825182820181905260009190848201906040850190845b81811015612709578351835292840192918401916001016126ed565b50909695505050505050565b901515815260200190565b60006020825261191e6020830184612584565b6000602080830181845282855460018082166000811461275a5760018114612778576126c4565b60028304607f16855260ff19831660408901526060880193506126c4565b600283048086526127888a612916565b885b828110156127a65781548b82016040015290840190880161278a565b8a01604001955050505091979650505050505050565b6020808252600c908201526b1d5b985d5d1a1bdc9a5cd95960a21b604082015260600190565b6020808252601b908201527f526573616c652073686172657320646f206e6f74206164642075700000000000604082015260600190565b6020808252601c908201527f496e697469616c2073686172657320646f206e6f742061646420757000000000604082015260600190565b6020808252601a908201527f6172726179206c656e6774687320646f206e6f74206d61746368000000000000604082015260600190565b60208082526013908201527224b73b30b634b2102837b7b610273ab6b132b960691b604082015260600190565b90815260200190565b6000838252604060208301526124ee6040830184612584565b6040518181016001600160401b03811182821017156128f157fe5b604052919050565b60006001600160401b0382111561290c57fe5b5060209081020190565b60009081526020902090565b60005b8381101561293d578181015183820152602001612925565b8381111561294c576000848401525b50505050565b60e01c90565b600060443d10156129685761182a565b600481823e6308c379a061297c8251612952565b146129865761182a565b6040513d600319016004823e80513d6001600160401b0381602484011181841117156129b5575050505061182a565b828401925082519150808211156129cf575050505061182a565b503d830160208284010111156129e75750505061182a565b601f01601f1916810160200160405291505090565b8015158114610c9557600080fdfe455243313135353a207472616e7366657220746f206e6f6e2045524331313535526563656976657220696d706c656d656e746572455243313135353a204552433131353552656365697665722072656a656374656420746f6b656e73455243313135353a2062616c616e636520717565727920666f7220746865207a65726f2061646472657373455243313135353a2063616c6c6572206973206e6f74206f776e6572206e6f7220617070726f766564455243313135353a207472616e7366657220746f20746865207a65726f2061646472657373455243313135353a207472616e736665722063616c6c6572206973206e6f74206f776e6572206e6f7220617070726f766564455243313135353a20696e73756666696369656e742062616c616e636520666f72207472616e73666572455243313135353a2073657474696e6720617070726f76616c2073746174757320666f722073656c66455243313135353a206163636f756e747320616e6420696473206c656e677468206d69736d61746368455243313135353a2069647320616e6420616d6f756e7473206c656e677468206d69736d61746368455243313135353a206d696e7420746f20746865207a65726f2061646472657373a26469706673582212204d73fe0b2a3284e3469cdaefb794bbbbacc8bd8008c66d2667c18e1c87d10df964736f6c6343000705003368747470733a2f2f6d696e74792e6d7970696e6174612e636c6f75642f697066732f",
  "linkReferences": {},
  "deployedLinkReferences": {}
}