{
  "_format": "hh-sol-artifact-1",
  "contractName": "pMintyMultiToken",
  "sourceName": "contracts/mintyMultiToken/pMintyMultiToken.sol",
  "abi": [
    {
      "inputs": [
        {
          "internalType": "address",
          "name": "_owner",
          "type": "address"
        },
        {
          "internalType": "address",
          "name": "saleContract",
          "type": "address"
        },
        {
          "internalType": "contract locking[]",
          "name": "_locs",
          "type": "address[]"
        },
        {
          "internalType": "string",
          "name": "_lockError",
          "type": "string"
        },
        {
          "internalType": "uint256",
          "name": "_royaltyPerMille",
          "type": "uint256"
        },
        {
          "components": [
            {
              "internalType": "address",
              "name": "beneficiary",
              "type": "address"
            },
            {
              "internalType": "uint256",
              "name": "share",
              "type": "uint256"
            }
          ],
          "internalType": "struct PoolEntry[]",
          "name": "_initialEntries",
          "type": "tuple[]"
        },
        {
          "components": [
            {
              "internalType": "address",
              "name": "beneficiary",
              "type": "address"
            },
            {
              "internalType": "uint256",
              "name": "share",
              "type": "uint256"
            }
          ],
          "internalType": "struct PoolEntry[]",
          "name": "_resaleEntries",
          "type": "tuple[]"
        },
        {
          "internalType": "string",
          "name": "_poolName",
          "type": "string"
        }
      ],
      "stateMutability": "nonpayable",
      "type": "constructor"
    },
    {
      "anonymous": false,
      "inputs": [
        {
          "indexed": true,
          "internalType": "address",
          "name": "account",
          "type": "address"
        },
        {
          "indexed": true,
          "internalType": "address",
          "name": "operator",
          "type": "address"
        },
        {
          "indexed": false,
          "internalType": "bool",
          "name": "approved",
          "type": "bool"
        }
      ],
      "name": "ApprovalForAll",
      "type": "event"
    },
    {
      "anonymous": false,
      "inputs": [
        {
          "indexed": false,
          "internalType": "address",
          "name": "operator",
          "type": "address"
        },
        {
          "indexed": false,
          "internalType": "bool",
          "name": "enabled",
          "type": "bool"
        }
      ],
      "name": "OperatorSet",
      "type": "event"
    },
    {
      "anonymous": false,
      "inputs": [
        {
          "indexed": false,
          "internalType": "uint256",
          "name": "poolId",
          "type": "uint256"
        },
        {
          "indexed": false,
          "internalType": "string",
          "name": "poolName",
          "type": "string"
        }
      ],
      "name": "PoolAdded",
      "type": "event"
    },
    {
      "anonymous": false,
      "inputs": [
        {
          "indexed": true,
          "internalType": "address",
          "name": "operator",
          "type": "address"
        },
        {
          "indexed": true,
          "internalType": "address",
          "name": "from",
          "type": "address"
        },
        {
          "indexed": true,
          "internalType": "address",
          "name": "to",
          "type": "address"
        },
        {
          "indexed": false,
          "internalType": "uint256[]",
          "name": "ids",
          "type": "uint256[]"
        },
        {
          "indexed": false,
          "internalType": "uint256[]",
          "name": "values",
          "type": "uint256[]"
        }
      ],
      "name": "TransferBatch",
      "type": "event"
    },
    {
      "anonymous": false,
      "inputs": [
        {
          "indexed": true,
          "internalType": "address",
          "name": "operator",
          "type": "address"
        },
        {
          "indexed": true,
          "internalType": "address",
          "name": "from",
          "type": "address"
        },
        {
          "indexed": true,
          "internalType": "address",
          "name": "to",
          "type": "address"
        },
        {
          "indexed": false,
          "internalType": "uint256",
          "name": "id",
          "type": "uint256"
        },
        {
          "indexed": false,
          "internalType": "uint256",
          "name": "value",
          "type": "uint256"
        }
      ],
      "name": "TransferSingle",
      "type": "event"
    },
    {
      "anonymous": false,
      "inputs": [
        {
          "indexed": false,
          "internalType": "string",
          "name": "value",
          "type": "string"
        },
        {
          "indexed": true,
          "internalType": "uint256",
          "name": "id",
          "type": "uint256"
        }
      ],
      "name": "URI",
      "type": "event"
    },
    {
      "inputs": [
        {
          "components": [
            {
              "internalType": "address",
              "name": "beneficiary",
              "type": "address"
            },
            {
              "internalType": "uint256",
              "name": "share",
              "type": "uint256"
            }
          ],
          "internalType": "struct PoolEntry[]",
          "name": "_initialEntries",
          "type": "tuple[]"
        },
        {
          "components": [
            {
              "internalType": "address",
              "name": "beneficiary",
              "type": "address"
            },
            {
              "internalType": "uint256",
              "name": "share",
              "type": "uint256"
            }
          ],
          "internalType": "struct PoolEntry[]",
          "name": "_resaleEntries",
          "type": "tuple[]"
        },
        {
          "internalType": "string",
          "name": "_poolName",
          "type": "string"
        }
      ],
      "name": "addPools",
      "outputs": [],
      "stateMutability": "nonpayable",
      "type": "function"
    },
    {
      "inputs": [
        {
          "internalType": "address",
          "name": "account",
          "type": "address"
        },
        {
          "internalType": "uint256",
          "name": "id",
          "type": "uint256"
        }
      ],
      "name": "balanceOf",
      "outputs": [
        {
          "internalType": "uint256",
          "name": "",
          "type": "uint256"
        }
      ],
      "stateMutability": "view",
      "type": "function"
    },
    {
      "inputs": [
        {
          "internalType": "address[]",
          "name": "accounts",
          "type": "address[]"
        },
        {
          "internalType": "uint256[]",
          "name": "ids",
          "type": "uint256[]"
        }
      ],
      "name": "balanceOfBatch",
      "outputs": [
        {
          "internalType": "uint256[]",
          "name": "",
          "type": "uint256[]"
        }
      ],
      "stateMutability": "view",
      "type": "function"
    },
    {
      "inputs": [],
      "name": "contractURI",
      "outputs": [
        {
          "internalType": "string",
          "name": "",
          "type": "string"
        }
      ],
      "stateMutability": "view",
      "type": "function"
    },
    {
      "inputs": [],
      "name": "deployer",
      "outputs": [
        {
          "internalType": "address",
          "name": "",
          "type": "address"
        }
      ],
      "stateMutability": "view",
      "type": "function"
    },
    {
      "inputs": [
        {
          "internalType": "uint256",
          "name": "saleNumber",
          "type": "uint256"
        },
        {
          "internalType": "uint256",
          "name": "tokenId",
          "type": "uint256"
        }
      ],
      "name": "getRoyalties",
      "outputs": [
        {
          "components": [
            {
              "internalType": "address",
              "name": "beneficiary",
              "type": "address"
            },
            {
              "internalType": "uint256",
              "name": "share",
              "type": "uint256"
            }
          ],
          "internalType": "struct PoolEntry[]",
          "name": "",
          "type": "tuple[]"
        }
      ],
      "stateMutability": "view",
      "type": "function"
    },
    {
      "inputs": [
        {
          "internalType": "uint256",
          "name": "",
          "type": "uint256"
        },
        {
          "internalType": "uint256",
          "name": "",
          "type": "uint256"
        }
      ],
      "name": "initialPools",
      "outputs": [
        {
          "internalType": "address",
          "name": "beneficiary",
          "type": "address"
        },
        {
          "internalType": "uint256",
          "name": "share",
          "type": "uint256"
        }
      ],
      "stateMutability": "view",
      "type": "function"
    },
    {
      "inputs": [
        {
          "internalType": "address",
          "name": "account",
          "type": "address"
        },
        {
          "internalType": "address",
          "name": "operator",
          "type": "address"
        }
      ],
      "name": "isApprovedForAll",
      "outputs": [
        {
          "internalType": "bool",
          "name": "",
          "type": "bool"
        }
      ],
      "stateMutability": "view",
      "type": "function"
    },
    {
      "inputs": [],
      "name": "lockError",
      "outputs": [
        {
          "internalType": "string",
          "name": "",
          "type": "string"
        }
      ],
      "stateMutability": "view",
      "type": "function"
    },
    {
      "inputs": [
        {
          "internalType": "uint256",
          "name": "",
          "type": "uint256"
        }
      ],
      "name": "locs",
      "outputs": [
        {
          "internalType": "contract locking",
          "name": "",
          "type": "address"
        }
      ],
      "stateMutability": "view",
      "type": "function"
    },
    {
      "inputs": [
        {
          "internalType": "uint256",
          "name": "tokenId",
          "type": "uint256"
        },
        {
          "internalType": "uint256",
          "name": "quantity",
          "type": "uint256"
        },
        {
          "internalType": "string",
          "name": "hash",
          "type": "string"
        },
        {
          "internalType": "uint256",
          "name": "poolId",
          "type": "uint256"
        }
      ],
      "name": "mint",
      "outputs": [],
      "stateMutability": "nonpayable",
      "type": "function"
    },
    {
      "inputs": [
        {
          "internalType": "uint256[]",
          "name": "tokenIds",
          "type": "uint256[]"
        },
        {
          "internalType": "uint256[]",
          "name": "quantities",
          "type": "uint256[]"
        },
        {
          "internalType": "string[]",
          "name": "hashes",
          "type": "string[]"
        },
        {
          "internalType": "uint256",
          "name": "poolId",
          "type": "uint256"
        }
      ],
      "name": "mintBatch",
      "outputs": [],
      "stateMutability": "nonpayable",
      "type": "function"
    },
    {
      "inputs": [
        {
          "internalType": "uint256",
          "name": "",
          "type": "uint256"
        }
      ],
      "name": "minted",
      "outputs": [
        {
          "internalType": "bool",
          "name": "",
          "type": "bool"
        }
      ],
      "stateMutability": "view",
      "type": "function"
    },
    {
      "inputs": [],
      "name": "numPools",
      "outputs": [
        {
          "internalType": "uint256",
          "name": "",
          "type": "uint256"
        }
      ],
      "stateMutability": "view",
      "type": "function"
    },
    {
      "inputs": [],
      "name": "owner",
      "outputs": [
        {
          "internalType": "address",
          "name": "",
          "type": "address"
        }
      ],
      "stateMutability": "view",
      "type": "function"
    },
    {
      "inputs": [
        {
          "internalType": "uint256",
          "name": "",
          "type": "uint256"
        }
      ],
      "name": "poolByTokenId",
      "outputs": [
        {
          "internalType": "uint256",
          "name": "",
          "type": "uint256"
        }
      ],
      "stateMutability": "view",
      "type": "function"
    },
    {
      "inputs": [
        {
          "internalType": "uint256",
          "name": "",
          "type": "uint256"
        }
      ],
      "name": "poolNames",
      "outputs": [
        {
          "internalType": "string",
          "name": "",
          "type": "string"
        }
      ],
      "stateMutability": "view",
      "type": "function"
    },
    {
      "inputs": [
        {
          "internalType": "uint256",
          "name": "",
          "type": "uint256"
        },
        {
          "internalType": "uint256",
          "name": "",
          "type": "uint256"
        }
      ],
      "name": "resalePools",
      "outputs": [
        {
          "internalType": "address",
          "name": "beneficiary",
          "type": "address"
        },
        {
          "internalType": "uint256",
          "name": "share",
          "type": "uint256"
        }
      ],
      "stateMutability": "view",
      "type": "function"
    },
    {
      "inputs": [],
      "name": "royaltyPerMille",
      "outputs": [
        {
          "internalType": "uint256",
          "name": "",
          "type": "uint256"
        }
      ],
      "stateMutability": "view",
      "type": "function"
    },
    {
      "inputs": [
        {
          "internalType": "address",
          "name": "from",
          "type": "address"
        },
        {
          "internalType": "address",
          "name": "to",
          "type": "address"
        },
        {
          "internalType": "uint256[]",
          "name": "ids",
          "type": "uint256[]"
        },
        {
          "internalType": "uint256[]",
          "name": "amounts",
          "type": "uint256[]"
        },
        {
          "internalType": "bytes",
          "name": "data",
          "type": "bytes"
        }
      ],
      "name": "safeBatchTransferFrom",
      "outputs": [],
      "stateMutability": "nonpayable",
      "type": "function"
    },
    {
      "inputs": [
        {
          "internalType": "address",
          "name": "from",
          "type": "address"
        },
        {
          "internalType": "address",
          "name": "to",
          "type": "address"
        },
        {
          "internalType": "uint256",
          "name": "id",
          "type": "uint256"
        },
        {
          "internalType": "uint256",
          "name": "amount",
          "type": "uint256"
        },
        {
          "internalType": "bytes",
          "name": "data",
          "type": "bytes"
        }
      ],
      "name": "safeTransferFrom",
      "outputs": [],
      "stateMutability": "nonpayable",
      "type": "function"
    },
    {
      "inputs": [
        {
          "internalType": "address",
          "name": "operator",
          "type": "address"
        },
        {
          "internalType": "bool",
          "name": "approved",
          "type": "bool"
        }
      ],
      "name": "setApprovalForAll",
      "outputs": [],
      "stateMutability": "nonpayable",
      "type": "function"
    },
    {
      "inputs": [
        {
          "internalType": "address",
          "name": "operator",
          "type": "address"
        },
        {
          "internalType": "bool",
          "name": "enabled",
          "type": "bool"
        }
      ],
      "name": "setAuth",
      "outputs": [],
      "stateMutability": "nonpayable",
      "type": "function"
    },
    {
      "inputs": [
        {
          "internalType": "string",
          "name": "_base",
          "type": "string"
        }
      ],
      "name": "setBase",
      "outputs": [],
      "stateMutability": "nonpayable",
      "type": "function"
    },
    {
      "inputs": [
        {
          "internalType": "string",
          "name": "_uri",
          "type": "string"
        }
      ],
      "name": "setContractURI",
      "outputs": [],
      "stateMutability": "nonpayable",
      "type": "function"
    },
    {
      "inputs": [
        {
          "internalType": "bytes4",
          "name": "interfaceId",
          "type": "bytes4"
        }
      ],
      "name": "supportsInterface",
      "outputs": [
        {
          "internalType": "bool",
          "name": "",
          "type": "bool"
        }
      ],
      "stateMutability": "view",
      "type": "function"
    },
    {
      "inputs": [
        {
          "internalType": "uint256",
          "name": "tokenId",
          "type": "uint256"
        }
      ],
      "name": "uri",
      "outputs": [
        {
          "internalType": "string",
          "name": "",
          "type": "string"
        }
      ],
      "stateMutability": "view",
      "type": "function"
    },
    {
      "inputs": [
        {
          "internalType": "address",
          "name": "buyer",
          "type": "address"
        }
      ],
      "name": "validateBuyer",
      "outputs": [],
      "stateMutability": "nonpayable",
      "type": "function"
    }
  ],
  "bytecode": "0x6080604052600c80546001600160a01b031916331790553480156200002357600080fd5b50604051620035e5380380620035e58339810160408190526200004691620006dc565b604080516020810190915260008152620000676301ffc9a760e01b62000191565b620000728162000216565b62000084636cdb3d1360e11b62000191565b620000966303a24d0760e21b62000191565b50600780546001600160a01b0319166001600160a01b038a811691909117909155871660009081526008602052604090819020805460ff1916600190811790915590517f1a594081ae893ab78e67d9b9e843547318164322d32c65369d78a96172d9dc8f9162000109918a9190620007e7565b60405180910390a185516200012690600a9060208901906200040c565b5084516200013c90600b90602088019062000476565b50604051806060016040528060228152602001620035c36022913980516200016d9160069160209091019062000476565b50600d8490556000620001828484846200022f565b5050505050505050506200093a565b6001600160e01b03198082161415620001f1576040805162461bcd60e51b815260206004820152601c60248201527f4552433136353a20696e76616c696420696e7465726661636520696400000000604482015290519081900360640190fd5b6001600160e01b0319166000908152602081905260409020805460ff19166001179055565b80516200022b90600390602084019062000476565b5050565b600e8054600181019091556000805b8551811015620002c75762000252620004f9565b8682815181106200025f57fe5b6020908102919091018101516000868152600f83526040812080546001808201835591835291849020835160029093020180546001600160a01b0319166001600160a01b0390931692909217825591909201519181018290559301929190910190506200023e565b50806103e814620002f55760405162461bcd60e51b8152600401620002ec9062000839565b60405180910390fd5b6000805b855181101562000382576200030d620004f9565b8682815181106200031a57fe5b6020908102919091018101516000878152601083526040812080546001808201835591835291849020835160029093020180546001600160a01b0319166001600160a01b039093169290921782559190920151918101829055930192919091019050620002f9565b50806103e814620003a75760405162461bcd60e51b8152600401620002ec9062000802565b60008381526011602090815260409091208551620003c89287019062000476565b507f150cb369f834b70a4f343956659b1f84cd37d44352b9a76ff77ac59552ef4aa08385604051620003fc92919062000870565b60405180910390a1505050505050565b82805482825590600052602060002090810192821562000464579160200282015b828111156200046457825182546001600160a01b0319166001600160a01b039091161782556020909201916001909101906200042d565b506200047292915062000510565b5090565b828054600181600116156101000203166002900490600052602060002090601f016020900481019282620004ae576000855562000464565b82601f10620004c957805160ff191683800117855562000464565b8280016001018555821562000464579182015b8281111562000464578251825591602001919060010190620004dc565b604080518082019091526000808252602082015290565b5b8082111562000472576000815560010162000511565b8051620005348162000921565b919050565b600082601f8301126200054a578081fd5b8151620005616200055b82620008d0565b620008ac565b8181529150602080830190848101818402860182018710156200058357600080fd5b60005b84811015620005af5781516200059c8162000921565b8452928201929082019060010162000586565b505050505092915050565b600082601f830112620005cb578081fd5b8151620005dc6200055b82620008d0565b81815291506020808301908481016040808502870183018810156200060057600080fd5b6000805b86811015620006635782848b0312156200061c578182fd5b82518084016001600160401b03811182821017156200063757fe5b84528451620006468162000921565b815284860151868201528652948401949282019260010162000604565b5050505050505092915050565b600082601f83011262000681578081fd5b81516001600160401b038111156200069557fe5b620006aa601f8201601f1916602001620008ac565b9150808252836020828501011115620006c257600080fd5b620006d5816020840160208601620008ee565b5092915050565b600080600080600080600080610100898b031215620006f9578384fd5b620007048962000527565b97506200071460208a0162000527565b60408a01519097506001600160401b038082111562000731578586fd5b6200073f8c838d0162000539565b975060608b015191508082111562000755578586fd5b620007638c838d0162000670565b965060808b0151955060a08b015191508082111562000780578485fd5b6200078e8c838d01620005ba565b945060c08b0151915080821115620007a4578384fd5b620007b28c838d01620005ba565b935060e08b0151915080821115620007c8578283fd5b50620007d78b828c0162000670565b9150509295985092959890939650565b6001600160a01b039290921682521515602082015260400190565b6020808252601b908201527f526573616c652073686172657320646f206e6f74206164642075700000000000604082015260600190565b6020808252601c908201527f496e697469616c2073686172657320646f206e6f742061646420757000000000604082015260600190565b600083825260406020830152825180604084015262000897816060850160208701620008ee565b601f01601f1916919091016060019392505050565b6040518181016001600160401b0381118282101715620008c857fe5b604052919050565b60006001600160401b03821115620008e457fe5b5060209081020190565b60005b838110156200090b578181015183820152602001620008f1565b838111156200091b576000848401525b50505050565b6001600160a01b03811681146200093757600080fd5b50565b612c79806200094a6000396000f3fe608060405234801561001057600080fd5b50600436106101c35760003560e01c806379f3ca18116100f9578063cf2ed32e11610097578063e8a3d48511610071578063e8a3d485146103cb578063e8f3359f146103d3578063e985e9c5146103db578063f242432a146103ee576101c3565b8063cf2ed32e14610390578063d5f39488146103a3578063e03650b9146103ab576101c3565b80638da5cb5b116100d35780638da5cb5b1461034f578063938e3d7b14610357578063a22cb4651461036a578063b7f5f2681461037d576101c3565b806379f3ca18146103145780637dc0bf3f1461033457806388e485c714610347576101c3565b806335c62bc2116101665780635773bd07116101405780635773bd07146102ba5780635e68e7f8146102cd578063664aa26b146102ee578063733b05e214610301576101c3565b806335c62bc21461027f5780634e1273f4146102875780634e5f467c146102a7576101c3565b80630e89341c116101a25780630e89341c146102265780631cce3f40146102465780632a637d5c146102595780632eb2c2d61461026c576101c3565b8062fdd58e146101c857806301ffc9a7146101f15780630b44a21814610211575b600080fd5b6101db6101d636600461227c565b610401565b6040516101e89190612921565b60405180910390f35b6102046101ff3660046124db565b610473565b6040516101e8919061275c565b61022461021f366004612246565b610496565b005b61023961023436600461253d565b610545565b6040516101e89190612767565b610224610254366004612365565b61060f565b6102246102673660046123e8565b610678565b61022461027a36600461213f565b6107ed565b6101db610ae6565b61029a6102953660046122a5565b610aec565b6040516101e89190612718565b6101db6102b536600461253d565b610bd7565b6102246102c83660046120f3565b610be9565b6102e06102db366004612555565b610cd0565b6040516101e89291906126a7565b6102246102fc366004612503565b610d16565b61023961030f36600461253d565b610d6d565b61032761032236600461253d565b610e08565b6040516101e89190612678565b61020461034236600461253d565b610e32565b610239610e47565b610327610ea2565b610224610365366004612503565b610eb1565b610224610378366004612246565b610f08565b6102e061038b366004612555565b610ff7565b61022461039e366004612576565b611013565b6103276110e6565b6103be6103b9366004612555565b6110f5565b6040516101e891906126c0565b610239611207565b6101db611262565b6102046103e936600461210d565b611268565b6102246103fc3660046121e4565b611296565b60006001600160a01b0383166104485760405162461bcd60e51b815260040180806020018281038252602b815260200180612ad4602b913960400191505060405180910390fd5b5060008181526001602090815260408083206001600160a01b03861684529091529020545b92915050565b6001600160e01b0319811660009081526020819052604090205460ff165b919050565b3360009081526008602052604090205460ff16806104be57506007546001600160a01b031633145b6104e35760405162461bcd60e51b81526004016104da90612803565b60405180910390fd5b6001600160a01b03821660009081526008602052604090819020805460ff1916831515179055517f1a594081ae893ab78e67d9b9e843547318164322d32c65369d78a96172d9dc8f90610539908490849061268c565b60405180910390a15050565b6000818152600560209081526040918290208054835160026001831615610100026000190190921691909104601f810184900484028201840190945283815260609384939192918301828280156105dd5780601f106105b2576101008083540402835291602001916105dd565b820191906000526020600020905b8154815290600101906020018083116105c057829003601f168201915b505050505090506006816040516020016105f89291906125f7565b604051602081830303815290604052915050919050565b600c546001600160a01b031633148061063757503360009081526008602052604090205460ff165b8061064c57506007546001600160a01b031633145b6106685760405162461bcd60e51b81526004016104da90612860565b610673838383611461565b505050565b3360009081526008602052604090205460ff16806106a057506007546001600160a01b031633145b6106bc5760405162461bcd60e51b81526004016104da90612803565b606082518551146106df5760405162461bcd60e51b81526004016104da906128bd565b600e5482106107005760405162461bcd60e51b81526004016104da906128f4565b60005b85518110156107cd5783818151811061071857fe5b60200260200101516005600088848151811061073057fe5b602002602001015181526020019081526020016000209080519060200190610759929190611ea7565b5060016004600088848151811061076c57fe5b6020026020010151815260200190815260200160002060006101000a81548160ff02191690831515021790555082601260008884815181106107aa57fe5b602090810291909101810151825281019190915260400160002055600101610703565b506007546107e6906001600160a01b0316868684611621565b5050505050565b815183511461082d5760405162461bcd60e51b8152600401808060200182810382526028815260200180612bfb6028913960400191505060405180910390fd5b6001600160a01b0384166108725760405162461bcd60e51b8152600401808060200182810382526025815260200180612b286025913960400191505060405180910390fd5b61087a61186f565b6001600160a01b0316856001600160a01b031614806108a057506108a0856103e961186f565b6108db5760405162461bcd60e51b8152600401808060200182810382526032815260200180612b4d6032913960400191505060405180910390fd5b60006108e561186f565b90506108f5818787878787610ade565b60005b84518110156109f657600085828151811061090f57fe5b60200260200101519050600085838151811061092757fe5b60200260200101519050610994816040518060600160405280602a8152602001612b7f602a91396001600086815260200190815260200160002060008d6001600160a01b03166001600160a01b03168152602001908152602001600020546118749092919063ffffffff16565b60008381526001602090815260408083206001600160a01b038e811685529252808320939093558a16815220546109cb908261190b565b60009283526001602081815260408086206001600160a01b038d1687529091529093205550016108f8565b50846001600160a01b0316866001600160a01b0316826001600160a01b03167f4a39dc06d4c0dbc64b70af90fd698a233a518aa5d07e595d983b8c0526c8f7fb8787604051808060200180602001838103835285818151815260200191508051906020019060200280838360005b83811015610a7c578181015183820152602001610a64565b50505050905001838103825284818151815260200191508051906020019060200280838360005b83811015610abb578181015183820152602001610aa3565b5050505090500194505050505060405180910390a4610ade81878787878761196c565b505050505050565b600e5481565b60608151835114610b2e5760405162461bcd60e51b8152600401808060200182810382526029815260200180612bd26029913960400191505060405180910390fd5b606083516001600160401b0381118015610b4757600080fd5b50604051908082528060200260200182016040528015610b71578160200160208202803683370190505b50905060005b8451811015610bcf57610bb0858281518110610b8f57fe5b6020026020010151858381518110610ba357fe5b6020026020010151610401565b828281518110610bbc57fe5b6020908102919091010152600101610b77565b509392505050565b60126020526000908152604090205481565b60005b600a54811015610ca6576000600a8281548110610c0557fe5b600091825260209091200154604051631293efbb60e21b81526001600160a01b0390911690634a4fbeec90610c3e908690600401612678565b60206040518083038186803b158015610c5657600080fd5b505afa158015610c6a573d6000803e3d6000fd5b505050506040513d601f19601f82011682018060405250810190610c8e91906124bf565b90508015610c9d575050610ccd565b50600101610bec565b50600a54600b9015610ccb5760405162461bcd60e51b81526004016104da919061277a565b505b50565b600f6020528160005260406000208181548110610cec57600080fd5b6000918252602090912060029091020180546001909101546001600160a01b039091169250905082565b3360009081526008602052604090205460ff1680610d3e57506007546001600160a01b031633145b610d5a5760405162461bcd60e51b81526004016104da90612803565b8051610ccb906006906020840190611ea7565b60116020908152600091825260409182902080548351601f600260001961010060018616150201909316929092049182018490048402810184019094528084529091830182828015610e005780601f10610dd557610100808354040283529160200191610e00565b820191906000526020600020905b815481529060010190602001808311610de357829003601f168201915b505050505081565b600a8181548110610e1857600080fd5b6000918252602090912001546001600160a01b0316905081565b60046020526000908152604090205460ff1681565b600b805460408051602060026001851615610100026000190190941693909304601f81018490048402820184019092528181529291830182828015610e005780601f10610dd557610100808354040283529160200191610e00565b6007546001600160a01b031681565b3360009081526008602052604090205460ff1680610ed957506007546001600160a01b031633145b610ef55760405162461bcd60e51b81526004016104da90612803565b8051610ccb906009906020840190611ea7565b816001600160a01b0316610f1a61186f565b6001600160a01b03161415610f605760405162461bcd60e51b8152600401808060200182810382526029815260200180612ba96029913960400191505060405180910390fd5b8060026000610f6d61186f565b6001600160a01b03908116825260208083019390935260409182016000908120918716808252919093529120805460ff191692151592909217909155610fb161186f565b6001600160a01b03167f17307eab39ab6107e8899845ad3d59bd9653f200f220920489ca2b5937696c318360405180821515815260200191505060405180910390a35050565b60106020528160005260406000208181548110610cec57600080fd5b3360009081526008602052604090205460ff168061103b57506007546001600160a01b031633145b6110575760405162461bcd60e51b81526004016104da90612803565b600e5481106110785760405162461bcd60e51b81526004016104da906128f4565b6000848152600560209081526040909120835160609261109c929190860190611ea7565b506000858152600460205260409020805460ff191660011790556007546110ce906001600160a01b0316868684611beb565b50600093845260126020526040909320929092555050565b600c546001600160a01b031681565b60008181526012602052604090205460609083611189576000818152600f6020908152604080832080548251818502810185019093528083529193909284015b8282101561117d576000848152602090819020604080518082019091526002850290910180546001600160a01b03168252600190810154828401529083529092019101611135565b5050505091505061046d565b600081815260106020908152604080832080548251818502810185019093528083529193909284015b828210156111fa576000848152602090819020604080518082019091526002850290910180546001600160a01b031682526001908101548284015290835290920191016111b2565b5050505091505092915050565b6009805460408051602060026001851615610100026000190190941693909304601f81018490048402820184019092528181529291830182828015610e005780601f10610dd557610100808354040283529160200191610e00565b600d5481565b6001600160a01b03918216600090815260026020908152604080832093909416825291909152205460ff1690565b6001600160a01b0384166112db5760405162461bcd60e51b8152600401808060200182810382526025815260200180612b286025913960400191505060405180910390fd5b6112e361186f565b6001600160a01b0316856001600160a01b031614806113095750611309856103e961186f565b6113445760405162461bcd60e51b8152600401808060200182810382526029815260200180612aff6029913960400191505060405180910390fd5b600061134e61186f565b905061136e81878761135f88611cec565b61136888611cec565b87610ade565b6113b5836040518060600160405280602a8152602001612b7f602a913960008781526001602090815260408083206001600160a01b038d1684529091529020549190611874565b60008581526001602090815260408083206001600160a01b038b811685529252808320939093558716815220546113ec908461190b565b60008581526001602090815260408083206001600160a01b03808b168086529184529382902094909455805188815291820187905280518a8416938616927fc3d58168c5ae7397731d063d5bbf3d657854427343f4c083240f7aacaa2d0f6292908290030190a4610ade818787878787611d30565b600e8054600181019091556000805b85518110156114f457611481611f33565b86828151811061148d57fe5b6020908102919091018101516000868152600f83526040812080546001808201835591835291849020835160029093020180546001600160a01b0319166001600160a01b039093169290921782559190920151918101829055930192919091019050611470565b50806103e8146115165760405162461bcd60e51b81526004016104da90612886565b6000805b855181101561159e5761152b611f33565b86828151811061153757fe5b6020908102919091018101516000878152601083526040812080546001808201835591835291849020835160029093020180546001600160a01b0319166001600160a01b03909316929092178255919092015191810182905593019291909101905061151a565b50806103e8146115c05760405162461bcd60e51b81526004016104da90612829565b600083815260116020908152604090912085516115df92870190611ea7565b507f150cb369f834b70a4f343956659b1f84cd37d44352b9a76ff77ac59552ef4aa0838560405161161192919061292a565b60405180910390a1505050505050565b6001600160a01b0384166116665760405162461bcd60e51b8152600401808060200182810382526021815260200180612c236021913960400191505060405180910390fd5b81518351146116a65760405162461bcd60e51b8152600401808060200182810382526028815260200180612bfb6028913960400191505060405180910390fd5b60006116b061186f565b90506116c181600087878787610ade565b60005b84518110156117855761173c600160008784815181106116e057fe5b602002602001015181526020019081526020016000206000886001600160a01b03166001600160a01b031681526020019081526020016000205485838151811061172657fe5b602002602001015161190b90919063ffffffff16565b6001600087848151811061174c57fe5b602090810291909101810151825281810192909252604090810160009081206001600160a01b038b1682529092529020556001016116c4565b50846001600160a01b031660006001600160a01b0316826001600160a01b03167f4a39dc06d4c0dbc64b70af90fd698a233a518aa5d07e595d983b8c0526c8f7fb8787604051808060200180602001838103835285818151815260200191508051906020019060200280838360005b8381101561180c5781810151838201526020016117f4565b50505050905001838103825284818151815260200191508051906020019060200280838360005b8381101561184b578181015183820152602001611833565b5050505090500194505050505060405180910390a46107e68160008787878761196c565b335b90565b600081848411156119035760405162461bcd60e51b81526004018080602001828103825283818151815260200191508051906020019080838360005b838110156118c85781810151838201526020016118b0565b50505050905090810190601f1680156118f55780820380516001836020036101000a031916815260200191505b509250505060405180910390fd5b505050900390565b600082820183811015611965576040805162461bcd60e51b815260206004820152601b60248201527f536166654d6174683a206164646974696f6e206f766572666c6f770000000000604482015290519081900360640190fd5b9392505050565b61197e846001600160a01b0316611ea1565b15610ade57836001600160a01b031663bc197c8187878686866040518663ffffffff1660e01b815260040180866001600160a01b03168152602001856001600160a01b03168152602001806020018060200180602001848103845287818151815260200191508051906020019060200280838360005b83811015611a0c5781810151838201526020016119f4565b50505050905001848103835286818151815260200191508051906020019060200280838360005b83811015611a4b578181015183820152602001611a33565b50505050905001848103825285818151815260200191508051906020019080838360005b83811015611a87578181015183820152602001611a6f565b50505050905090810190601f168015611ab45780820380516001836020036101000a031916815260200191505b5098505050505050505050602060405180830381600087803b158015611ad957600080fd5b505af1925050508015611afe57506040513d6020811015611af957600080fd5b505160015b611b9357611b0a6129c5565b80611b155750611b5c565b60405162461bcd60e51b81526020600482018181528351602484015283518493919283926044019190850190808383600083156118c85781810151838201526020016118b0565b60405162461bcd60e51b8152600401808060200182810382526034815260200180612a786034913960400191505060405180910390fd5b6001600160e01b0319811663bc197c8160e01b14611be25760405162461bcd60e51b8152600401808060200182810382526028815260200180612aac6028913960400191505060405180910390fd5b50505050505050565b6001600160a01b038416611c305760405162461bcd60e51b8152600401808060200182810382526021815260200180612c236021913960400191505060405180910390fd5b6000611c3a61186f565b9050611c4c8160008761135f88611cec565b60008481526001602090815260408083206001600160a01b0389168452909152902054611c79908461190b565b60008581526001602090815260408083206001600160a01b03808b16808652918452828520959095558151898152928301889052815190948616927fc3d58168c5ae7397731d063d5bbf3d657854427343f4c083240f7aacaa2d0f6292908290030190a46107e681600087878787611d30565b604080516001808252818301909252606091829190602080830190803683370190505090508281600081518110611d1f57fe5b602090810291909101015292915050565b611d42846001600160a01b0316611ea1565b15610ade57836001600160a01b031663f23a6e6187878686866040518663ffffffff1660e01b815260040180866001600160a01b03168152602001856001600160a01b0316815260200184815260200183815260200180602001828103825283818151815260200191508051906020019080838360005b83811015611dd1578181015183820152602001611db9565b50505050905090810190601f168015611dfe5780820380516001836020036101000a031916815260200191505b509650505050505050602060405180830381600087803b158015611e2157600080fd5b505af1925050508015611e4657506040513d6020811015611e4157600080fd5b505160015b611e5257611b0a6129c5565b6001600160e01b0319811663f23a6e6160e01b14611be25760405162461bcd60e51b8152600401808060200182810382526028815260200180612aac6028913960400191505060405180910390fd5b3b151590565b828054600181600116156101000203166002900490600052602060002090601f016020900481019282611edd5760008555611f23565b82601f10611ef657805160ff1916838001178555611f23565b82800160010185558215611f23579182015b82811115611f23578251825591602001919060010190611f08565b50611f2f929150611f4a565b5090565b604080518082019091526000808252602082015290565b5b80821115611f2f5760008155600101611f4b565b80356001600160a01b038116811461049157600080fd5b600082601f830112611f86578081fd5b8135611f99611f9482612966565b612943565b8181529150602080830190848101604080850287018301881015611fbc57600080fd5b6000805b868110156120175782848b031215611fd6578182fd5b82518381018181106001600160401b0382111715611ff057fe5b8452611ffb85611f5f565b8152848601358682015286529484019492820192600101611fc0565b5050505050505092915050565b600082601f830112612034578081fd5b8135612042611f9482612966565b81815291506020808301908481018184028601820187101561206357600080fd5b60005b8481101561208257813584529282019290820190600101612066565b505050505092915050565b600082601f83011261209d578081fd5b81356001600160401b038111156120b057fe5b6120c3601f8201601f1916602001612943565b91508082528360208285010111156120da57600080fd5b8060208401602084013760009082016020015292915050565b600060208284031215612104578081fd5b61196582611f5f565b6000806040838503121561211f578081fd5b61212883611f5f565b915061213660208401611f5f565b90509250929050565b600080600080600060a08688031215612156578081fd5b61215f86611f5f565b945061216d60208701611f5f565b935060408601356001600160401b0380821115612188578283fd5b61219489838a01612024565b945060608801359150808211156121a9578283fd5b6121b589838a01612024565b935060808801359150808211156121ca578283fd5b506121d78882890161208d565b9150509295509295909350565b600080600080600060a086880312156121fb578081fd5b61220486611f5f565b945061221260208701611f5f565b9350604086013592506060860135915060808601356001600160401b0381111561223a578182fd5b6121d78882890161208d565b60008060408385031215612258578182fd5b61226183611f5f565b9150602083013561227181612a69565b809150509250929050565b6000806040838503121561228e578182fd5b61229783611f5f565b946020939093013593505050565b600080604083850312156122b7578182fd5b82356001600160401b03808211156122cd578384fd5b818501915085601f8301126122e0578384fd5b81356122ee611f9482612966565b80828252602080830192508086018a82838702890101111561230e578889fd5b8896505b848710156123375761232381611f5f565b845260019690960195928101928101612312565b50909650870135935050508082111561234e578283fd5b5061235b85828601612024565b9150509250929050565b600080600060608486031215612379578081fd5b83356001600160401b038082111561238f578283fd5b61239b87838801611f76565b945060208601359150808211156123b0578283fd5b6123bc87838801611f76565b935060408601359150808211156123d1578283fd5b506123de8682870161208d565b9150509250925092565b600080600080608085870312156123fd578182fd5b84356001600160401b0380821115612413578384fd5b61241f88838901612024565b9550602091508187013581811115612435578485fd5b61244189828a01612024565b955050604087013581811115612455578485fd5b87019050601f81018813612467578384fd5b8035612475611f9482612966565b81815283810190838501875b848110156124aa576124988d88843589010161208d565b84529286019290860190600101612481565b50989b979a5098606001359750505050505050565b6000602082840312156124d0578081fd5b815161196581612a69565b6000602082840312156124ec578081fd5b81356001600160e01b031981168114611965578182fd5b600060208284031215612514578081fd5b81356001600160401b03811115612529578182fd5b6125358482850161208d565b949350505050565b60006020828403121561254e578081fd5b5035919050565b60008060408385031215612567578182fd5b50508035926020909101359150565b6000806000806080858703121561258b578182fd5b843593506020850135925060408501356001600160401b038111156125ae578283fd5b6125ba8782880161208d565b949793965093946060013593505050565b600081518084526125e381602086016020860161298f565b601f01601f19169290920160200192915050565b6000808454600180821660008114612616576001811461262d5761265c565b60ff198316865260028304607f168601935061265c565b600283048886526020808720875b838110156126545781548a82015290850190820161263b565b505050860193505b505050835161266f81836020880161298f565b01949350505050565b6001600160a01b0391909116815260200190565b6001600160a01b039290921682521515602082015260400190565b6001600160a01b03929092168252602082015260400190565b602080825282518282018190526000919060409081850190868401855b8281101561270b57815180516001600160a01b031685528601518685015292840192908501906001016126dd565b5091979650505050505050565b6020808252825182820181905260009190848201906040850190845b8181101561275057835183529284019291840191600101612734565b50909695505050505050565b901515815260200190565b60006020825261196560208301846125cb565b600060208083018184528285546001808216600081146127a157600181146127bf5761270b565b60028304607f16855260ff198316604089015260608801935061270b565b600283048086526127cf8a612983565b885b828110156127ed5781548b8201604001529084019088016127d1565b8a01604001955050505091979650505050505050565b6020808252600c908201526b1d5b985d5d1a1bdc9a5cd95960a21b604082015260600190565b6020808252601b908201527f526573616c652073686172657320646f206e6f74206164642075700000000000604082015260600190565b6020808252600c908201526b155b985d5d1a1bdc9a5cd95960a21b604082015260600190565b6020808252601c908201527f496e697469616c2073686172657320646f206e6f742061646420757000000000604082015260600190565b6020808252601a908201527f6172726179206c656e6774687320646f206e6f74206d61746368000000000000604082015260600190565b60208082526013908201527224b73b30b634b2102837b7b610273ab6b132b960691b604082015260600190565b90815260200190565b60008382526040602083015261253560408301846125cb565b6040518181016001600160401b038111828210171561295e57fe5b604052919050565b60006001600160401b0382111561297957fe5b5060209081020190565b60009081526020902090565b60005b838110156129aa578181015183820152602001612992565b838111156129b9576000848401525b50505050565b60e01c90565b600060443d10156129d557611871565b600481823e6308c379a06129e982516129bf565b146129f357611871565b6040513d600319016004823e80513d6001600160401b038160248401118184111715612a225750505050611871565b82840192508251915080821115612a3c5750505050611871565b503d83016020828401011115612a5457505050611871565b601f01601f1916810160200160405291505090565b8015158114610ccd57600080fdfe455243313135353a207472616e7366657220746f206e6f6e2045524331313535526563656976657220696d706c656d656e746572455243313135353a204552433131353552656365697665722072656a656374656420746f6b656e73455243313135353a2062616c616e636520717565727920666f7220746865207a65726f2061646472657373455243313135353a2063616c6c6572206973206e6f74206f776e6572206e6f7220617070726f766564455243313135353a207472616e7366657220746f20746865207a65726f2061646472657373455243313135353a207472616e736665722063616c6c6572206973206e6f74206f776e6572206e6f7220617070726f766564455243313135353a20696e73756666696369656e742062616c616e636520666f72207472616e73666572455243313135353a2073657474696e6720617070726f76616c2073746174757320666f722073656c66455243313135353a206163636f756e747320616e6420696473206c656e677468206d69736d61746368455243313135353a2069647320616e6420616d6f756e7473206c656e677468206d69736d61746368455243313135353a206d696e7420746f20746865207a65726f2061646472657373a26469706673582212202828d2be9ad067363cb840df92b0b96dd19b0125ca68d30d333071f7cd2a41d864736f6c6343000705003368747470733a2f2f6d696e74792e6d7970696e6174612e636c6f75642f697066732f",
  "linkReferences": {},
  "deployedLinkReferences": {}
}