{
  "_format": "hh-sol-artifact-1",
  "contractName": "pMintyMultiToken",
  "sourceName": "contracts/mintyMultiToken/pMintyMultiToken.sol",
  "abi": [
    {
      "inputs": [
        {
          "internalType": "address",
          "name": "_owner",
          "type": "address"
        },
        {
          "internalType": "address",
          "name": "saleContract",
          "type": "address"
        },
        {
          "internalType": "contract locking[]",
          "name": "_locs",
          "type": "address[]"
        },
        {
          "internalType": "string",
          "name": "_lockError",
          "type": "string"
        },
        {
          "internalType": "uint256",
          "name": "_royaltyPerMille",
          "type": "uint256"
        },
        {
          "components": [
            {
              "internalType": "address",
              "name": "beneficiary",
              "type": "address"
            },
            {
              "internalType": "uint256",
              "name": "share",
              "type": "uint256"
            }
          ],
          "internalType": "struct PoolEntry[]",
          "name": "_initialEntries",
          "type": "tuple[]"
        },
        {
          "components": [
            {
              "internalType": "address",
              "name": "beneficiary",
              "type": "address"
            },
            {
              "internalType": "uint256",
              "name": "share",
              "type": "uint256"
            }
          ],
          "internalType": "struct PoolEntry[]",
          "name": "_resaleEntries",
          "type": "tuple[]"
        }
      ],
      "stateMutability": "nonpayable",
      "type": "constructor"
    },
    {
      "anonymous": false,
      "inputs": [
        {
          "indexed": true,
          "internalType": "address",
          "name": "account",
          "type": "address"
        },
        {
          "indexed": true,
          "internalType": "address",
          "name": "operator",
          "type": "address"
        },
        {
          "indexed": false,
          "internalType": "bool",
          "name": "approved",
          "type": "bool"
        }
      ],
      "name": "ApprovalForAll",
      "type": "event"
    },
    {
      "anonymous": false,
      "inputs": [
        {
          "indexed": false,
          "internalType": "address",
          "name": "operator",
          "type": "address"
        },
        {
          "indexed": false,
          "internalType": "bool",
          "name": "enabled",
          "type": "bool"
        }
      ],
      "name": "OperatorSet",
      "type": "event"
    },
    {
      "anonymous": false,
      "inputs": [
        {
          "indexed": true,
          "internalType": "address",
          "name": "operator",
          "type": "address"
        },
        {
          "indexed": true,
          "internalType": "address",
          "name": "from",
          "type": "address"
        },
        {
          "indexed": true,
          "internalType": "address",
          "name": "to",
          "type": "address"
        },
        {
          "indexed": false,
          "internalType": "uint256[]",
          "name": "ids",
          "type": "uint256[]"
        },
        {
          "indexed": false,
          "internalType": "uint256[]",
          "name": "values",
          "type": "uint256[]"
        }
      ],
      "name": "TransferBatch",
      "type": "event"
    },
    {
      "anonymous": false,
      "inputs": [
        {
          "indexed": true,
          "internalType": "address",
          "name": "operator",
          "type": "address"
        },
        {
          "indexed": true,
          "internalType": "address",
          "name": "from",
          "type": "address"
        },
        {
          "indexed": true,
          "internalType": "address",
          "name": "to",
          "type": "address"
        },
        {
          "indexed": false,
          "internalType": "uint256",
          "name": "id",
          "type": "uint256"
        },
        {
          "indexed": false,
          "internalType": "uint256",
          "name": "value",
          "type": "uint256"
        }
      ],
      "name": "TransferSingle",
      "type": "event"
    },
    {
      "anonymous": false,
      "inputs": [
        {
          "indexed": false,
          "internalType": "string",
          "name": "value",
          "type": "string"
        },
        {
          "indexed": true,
          "internalType": "uint256",
          "name": "id",
          "type": "uint256"
        }
      ],
      "name": "URI",
      "type": "event"
    },
    {
      "inputs": [
        {
          "internalType": "address",
          "name": "account",
          "type": "address"
        },
        {
          "internalType": "uint256",
          "name": "id",
          "type": "uint256"
        }
      ],
      "name": "balanceOf",
      "outputs": [
        {
          "internalType": "uint256",
          "name": "",
          "type": "uint256"
        }
      ],
      "stateMutability": "view",
      "type": "function"
    },
    {
      "inputs": [
        {
          "internalType": "address[]",
          "name": "accounts",
          "type": "address[]"
        },
        {
          "internalType": "uint256[]",
          "name": "ids",
          "type": "uint256[]"
        }
      ],
      "name": "balanceOfBatch",
      "outputs": [
        {
          "internalType": "uint256[]",
          "name": "",
          "type": "uint256[]"
        }
      ],
      "stateMutability": "view",
      "type": "function"
    },
    {
      "inputs": [],
      "name": "contractURI",
      "outputs": [
        {
          "internalType": "string",
          "name": "",
          "type": "string"
        }
      ],
      "stateMutability": "view",
      "type": "function"
    },
    {
      "inputs": [
        {
          "internalType": "uint256",
          "name": "saleNumber",
          "type": "uint256"
        }
      ],
      "name": "getRoyalties",
      "outputs": [
        {
          "components": [
            {
              "internalType": "address",
              "name": "beneficiary",
              "type": "address"
            },
            {
              "internalType": "uint256",
              "name": "share",
              "type": "uint256"
            }
          ],
          "internalType": "struct PoolEntry[]",
          "name": "",
          "type": "tuple[]"
        }
      ],
      "stateMutability": "view",
      "type": "function"
    },
    {
      "inputs": [
        {
          "internalType": "uint256",
          "name": "",
          "type": "uint256"
        }
      ],
      "name": "initialPool",
      "outputs": [
        {
          "internalType": "address",
          "name": "beneficiary",
          "type": "address"
        },
        {
          "internalType": "uint256",
          "name": "share",
          "type": "uint256"
        }
      ],
      "stateMutability": "view",
      "type": "function"
    },
    {
      "inputs": [
        {
          "internalType": "address",
          "name": "account",
          "type": "address"
        },
        {
          "internalType": "address",
          "name": "operator",
          "type": "address"
        }
      ],
      "name": "isApprovedForAll",
      "outputs": [
        {
          "internalType": "bool",
          "name": "",
          "type": "bool"
        }
      ],
      "stateMutability": "view",
      "type": "function"
    },
    {
      "inputs": [],
      "name": "lockError",
      "outputs": [
        {
          "internalType": "string",
          "name": "",
          "type": "string"
        }
      ],
      "stateMutability": "view",
      "type": "function"
    },
    {
      "inputs": [
        {
          "internalType": "uint256",
          "name": "",
          "type": "uint256"
        }
      ],
      "name": "locs",
      "outputs": [
        {
          "internalType": "contract locking",
          "name": "",
          "type": "address"
        }
      ],
      "stateMutability": "view",
      "type": "function"
    },
    {
      "inputs": [
        {
          "internalType": "uint256",
          "name": "tokenId",
          "type": "uint256"
        },
        {
          "internalType": "uint256",
          "name": "quantity",
          "type": "uint256"
        },
        {
          "internalType": "string",
          "name": "hash",
          "type": "string"
        }
      ],
      "name": "mint",
      "outputs": [],
      "stateMutability": "nonpayable",
      "type": "function"
    },
    {
      "inputs": [
        {
          "internalType": "uint256[]",
          "name": "tokenIds",
          "type": "uint256[]"
        },
        {
          "internalType": "uint256[]",
          "name": "quantities",
          "type": "uint256[]"
        },
        {
          "internalType": "string[]",
          "name": "hashes",
          "type": "string[]"
        }
      ],
      "name": "mintBatch",
      "outputs": [],
      "stateMutability": "nonpayable",
      "type": "function"
    },
    {
      "inputs": [
        {
          "internalType": "uint256",
          "name": "",
          "type": "uint256"
        }
      ],
      "name": "minted",
      "outputs": [
        {
          "internalType": "bool",
          "name": "",
          "type": "bool"
        }
      ],
      "stateMutability": "view",
      "type": "function"
    },
    {
      "inputs": [],
      "name": "owner",
      "outputs": [
        {
          "internalType": "address",
          "name": "",
          "type": "address"
        }
      ],
      "stateMutability": "view",
      "type": "function"
    },
    {
      "inputs": [
        {
          "internalType": "uint256",
          "name": "",
          "type": "uint256"
        }
      ],
      "name": "resalePool",
      "outputs": [
        {
          "internalType": "address",
          "name": "beneficiary",
          "type": "address"
        },
        {
          "internalType": "uint256",
          "name": "share",
          "type": "uint256"
        }
      ],
      "stateMutability": "view",
      "type": "function"
    },
    {
      "inputs": [],
      "name": "royaltyPerMille",
      "outputs": [
        {
          "internalType": "uint256",
          "name": "",
          "type": "uint256"
        }
      ],
      "stateMutability": "view",
      "type": "function"
    },
    {
      "inputs": [
        {
          "internalType": "address",
          "name": "from",
          "type": "address"
        },
        {
          "internalType": "address",
          "name": "to",
          "type": "address"
        },
        {
          "internalType": "uint256[]",
          "name": "ids",
          "type": "uint256[]"
        },
        {
          "internalType": "uint256[]",
          "name": "amounts",
          "type": "uint256[]"
        },
        {
          "internalType": "bytes",
          "name": "data",
          "type": "bytes"
        }
      ],
      "name": "safeBatchTransferFrom",
      "outputs": [],
      "stateMutability": "nonpayable",
      "type": "function"
    },
    {
      "inputs": [
        {
          "internalType": "address",
          "name": "from",
          "type": "address"
        },
        {
          "internalType": "address",
          "name": "to",
          "type": "address"
        },
        {
          "internalType": "uint256",
          "name": "id",
          "type": "uint256"
        },
        {
          "internalType": "uint256",
          "name": "amount",
          "type": "uint256"
        },
        {
          "internalType": "bytes",
          "name": "data",
          "type": "bytes"
        }
      ],
      "name": "safeTransferFrom",
      "outputs": [],
      "stateMutability": "nonpayable",
      "type": "function"
    },
    {
      "inputs": [
        {
          "internalType": "address",
          "name": "operator",
          "type": "address"
        },
        {
          "internalType": "bool",
          "name": "approved",
          "type": "bool"
        }
      ],
      "name": "setApprovalForAll",
      "outputs": [],
      "stateMutability": "nonpayable",
      "type": "function"
    },
    {
      "inputs": [
        {
          "internalType": "address",
          "name": "operator",
          "type": "address"
        },
        {
          "internalType": "bool",
          "name": "enabled",
          "type": "bool"
        }
      ],
      "name": "setAuth",
      "outputs": [],
      "stateMutability": "nonpayable",
      "type": "function"
    },
    {
      "inputs": [
        {
          "internalType": "string",
          "name": "_base",
          "type": "string"
        }
      ],
      "name": "setBase",
      "outputs": [],
      "stateMutability": "nonpayable",
      "type": "function"
    },
    {
      "inputs": [
        {
          "internalType": "string",
          "name": "_uri",
          "type": "string"
        }
      ],
      "name": "setContractURI",
      "outputs": [],
      "stateMutability": "nonpayable",
      "type": "function"
    },
    {
      "inputs": [
        {
          "internalType": "bytes4",
          "name": "interfaceId",
          "type": "bytes4"
        }
      ],
      "name": "supportsInterface",
      "outputs": [
        {
          "internalType": "bool",
          "name": "",
          "type": "bool"
        }
      ],
      "stateMutability": "view",
      "type": "function"
    },
    {
      "inputs": [
        {
          "internalType": "uint256",
          "name": "tokenId",
          "type": "uint256"
        }
      ],
      "name": "uri",
      "outputs": [
        {
          "internalType": "string",
          "name": "",
          "type": "string"
        }
      ],
      "stateMutability": "view",
      "type": "function"
    },
    {
      "inputs": [
        {
          "internalType": "address",
          "name": "buyer",
          "type": "address"
        }
      ],
      "name": "validateBuyer",
      "outputs": [],
      "stateMutability": "nonpayable",
      "type": "function"
    }
  ],
  "bytecode": "0x60806040523480156200001157600080fd5b5060405162002ec938038062002ec98339810160408190526200003491620006e0565b604080516020810190915260008152620000556301ffc9a760e01b62000351565b6200006081620003d6565b62000072636cdb3d1360e11b62000351565b620000846303a24d0760e21b62000351565b50600780546001600160a01b0319166001600160a01b0389811691909117909155861660009081526008602052604090819020805460ff1916600190811790915590517f1a594081ae893ab78e67d9b9e843547318164322d32c65369d78a96172d9dc8f91620000f791899190620007c4565b60405180910390a184516200011490600a906020880190620003ef565b5083516200012a90600b90602087019062000459565b5060405180606001604052806022815260200162002ea76022913980516200015b9160069160209091019062000459565b50600c8390556000805b8351811015620002285762000179620004dc565b8482815181106200018657fe5b602090810291909101810151600d80546001808201835560009290925282517fd7b6990105719101dabeb77144f2a3385c8033acd3af97e9423a695e81ad1eb5600290920291820180546001600160a01b0319166001600160a01b0390921691909117905591909201517fd7b6990105719101dabeb77144f2a3385c8033acd3af97e9423a695e81ad1eb6909101819055939093019291909101905062000165565b50806103e814620002565760405162461bcd60e51b81526004016200024d9062000816565b60405180910390fd5b6000805b83518110156200031d576200026e620004dc565b8482815181106200027b57fe5b602090810291909101810151600e80546001808201835560009290925282517fbb7b4a454dc3493923482f07822329ed19e8244eff582cc204f8554c3620c3fd600290920291820180546001600160a01b0319166001600160a01b0390921691909117905591909201517fbb7b4a454dc3493923482f07822329ed19e8244eff582cc204f8554c3620c3fe90910181905593909301929190910190506200025a565b50806103e814620003425760405162461bcd60e51b81526004016200024d90620007df565b505050505050505050620008a8565b6001600160e01b03198082161415620003b1576040805162461bcd60e51b815260206004820152601c60248201527f4552433136353a20696e76616c696420696e7465726661636520696400000000604482015290519081900360640190fd5b6001600160e01b0319166000908152602081905260409020805460ff19166001179055565b8051620003eb90600390602084019062000459565b5050565b82805482825590600052602060002090810192821562000447579160200282015b828111156200044757825182546001600160a01b0319166001600160a01b0390911617825560209092019160019091019062000410565b5062000455929150620004f3565b5090565b828054600181600116156101000203166002900490600052602060002090601f01602090048101928262000491576000855562000447565b82601f10620004ac57805160ff191683800117855562000447565b8280016001018555821562000447579182015b8281111562000447578251825591602001919060010190620004bf565b604080518082019091526000808252602082015290565b5b80821115620004555760008155600101620004f4565b805162000517816200088f565b919050565b600082601f8301126200052d578081fd5b8151620005446200053e8262000871565b6200084d565b8181529150602080830190848101818402860182018710156200056657600080fd5b60005b84811015620005925781516200057f816200088f565b8452928201929082019060010162000569565b505050505092915050565b600082601f830112620005ae578081fd5b8151620005bf6200053e8262000871565b8181529150602080830190848101604080850287018301881015620005e357600080fd5b6000805b86811015620006465782848b031215620005ff578182fd5b82518084016001600160401b03811182821017156200061a57fe5b8452845162000629816200088f565b8152848601518682015286529484019492820192600101620005e7565b5050505050505092915050565b600082601f83011262000664578081fd5b81516001600160401b038111156200067857fe5b60206200068e601f8301601f191682016200084d565b92508183528481838601011115620006a557600080fd5b60005b82811015620006c5578481018201518482018301528101620006a8565b82811115620006d75760008284860101525b50505092915050565b600080600080600080600060e0888a031215620006fb578283fd5b62000706886200050a565b965062000716602089016200050a565b60408901519096506001600160401b038082111562000733578485fd5b620007418b838c016200051c565b965060608a015191508082111562000757578485fd5b620007658b838c0162000653565b955060808a0151945060a08a015191508082111562000782578384fd5b620007908b838c016200059d565b935060c08a0151915080821115620007a6578283fd5b50620007b58a828b016200059d565b91505092959891949750929550565b6001600160a01b039290921682521515602082015260400190565b6020808252601b908201527f526573616c652073686172657320646f206e6f74206164642075700000000000604082015260600190565b6020808252601c908201527f496e697469616c2073686172657320646f206e6f742061646420757000000000604082015260600190565b6040518181016001600160401b03811182821017156200086957fe5b604052919050565b60006001600160401b038211156200088557fe5b5060209081020190565b6001600160a01b0381168114620008a557600080fd5b50565b6125ef80620008b86000396000f3fe608060405234801561001057600080fd5b506004361061014c5760003560e01c806388e485c7116100c3578063c6e64e531161007c578063c6e64e53146102e5578063e8a3d485146102f8578063e8f3359f14610300578063e985e9c514610308578063f242432a1461031b578063f637e0191461032e5761014c565b806388e485c71461027c5780638da5cb5b14610284578063938e3d7b1461028c578063a22cb4651461029f578063bb3bafd6146102b2578063c51bb6dc146102d25761014c565b806343bc59021161011557806343bc5902146101e25780634e1273f4146102035780635773bd0714610223578063664aa26b1461023657806379f3ca18146102495780637dc0bf3f146102695761014c565b8062fdd58e1461015157806301ffc9a71461017a5780630b44a2181461019a5780630e89341c146101af5780632eb2c2d6146101cf575b600080fd5b61016461015f366004611d86565b610341565b60405161017191906122b1565b60405180910390f35b61018d610188366004611f5f565b6103b0565b604051610171919061218d565b6101ad6101a8366004611d50565b6103d3565b005b6101c26101bd366004611fc2565b610482565b6040516101719190612198565b6101ad6101dd366004611c47565b61054c565b6101f56101f0366004611fc2565b610845565b6040516101719291906120d8565b610216610211366004611daf565b61087d565b6040516101719190612149565b6101ad610231366004611bfb565b610969565b6101ad610244366004611f87565b610a50565b61025c610257366004611fc2565b610aa7565b60405161017191906120a9565b61018d610277366004611fc2565b610ad1565b6101c2610ae6565b61025c610b74565b6101ad61029a366004611f87565b610b83565b6101ad6102ad366004611d50565b610bda565b6102c56102c0366004611fc2565b610cc9565b60405161017191906120f1565b6101ad6102e0366004611e70565b610dba565b6101ad6102f3366004611fda565b610edd565b6101c2610f77565b610164610fd2565b61018d610316366004611c15565b610fd8565b6101ad610329366004611ced565b611006565b6101f561033c366004611fc2565b6111d1565b60006001600160a01b0383166103885760405162461bcd60e51b815260040180806020018281038252602b81526020018061244a602b913960400191505060405180910390fd5b5060009081526001602090815260408083206001600160a01b03949094168352929052205490565b6001600160e01b0319811660009081526020819052604090205460ff165b919050565b3360009081526008602052604090205460ff16806103fb57506007546001600160a01b031633145b6104205760405162461bcd60e51b815260040161041790612254565b60405180910390fd5b6001600160a01b03821660009081526008602052604090819020805460ff1916831515179055517f1a594081ae893ab78e67d9b9e843547318164322d32c65369d78a96172d9dc8f9061047690849084906120bd565b60405180910390a15050565b6000818152600560209081526040918290208054835160026001831615610100026000190190921691909104601f8101849004840282018401909452838152606093849391929183018282801561051a5780601f106104ef5761010080835404028352916020019161051a565b820191906000526020600020905b8154815290600101906020018083116104fd57829003601f168201915b50505050509050600681604051602001610535929190612028565b604051602081830303815290604052915050919050565b815183511461058c5760405162461bcd60e51b81526004018080602001828103825260288152602001806125716028913960400191505060405180910390fd5b6001600160a01b0384166105d15760405162461bcd60e51b815260040180806020018281038252602581526020018061249e6025913960400191505060405180910390fd5b6105d96111e1565b6001600160a01b0316856001600160a01b031614806105ff57506105ff856103166111e1565b61063a5760405162461bcd60e51b81526004018080602001828103825260328152602001806124c36032913960400191505060405180910390fd5b60006106446111e1565b905061065481878787878761083d565b60005b845181101561075557600085828151811061066e57fe5b60200260200101519050600085838151811061068657fe5b602002602001015190506106f3816040518060600160405280602a81526020016124f5602a91396001600086815260200190815260200160002060008d6001600160a01b03166001600160a01b03168152602001908152602001600020546111e69092919063ffffffff16565b60008381526001602090815260408083206001600160a01b038e811685529252808320939093558a168152205461072a908261127d565b60009283526001602081815260408086206001600160a01b038d168752909152909320555001610657565b50846001600160a01b0316866001600160a01b0316826001600160a01b03167f4a39dc06d4c0dbc64b70af90fd698a233a518aa5d07e595d983b8c0526c8f7fb8787604051808060200180602001838103835285818151815260200191508051906020019060200280838360005b838110156107db5781810151838201526020016107c3565b50505050905001838103825284818151815260200191508051906020019060200280838360005b8381101561081a578181015183820152602001610802565b5050505090500194505050505060405180910390a461083d8187878787876112de565b505050505050565b600e818154811061085557600080fd5b6000918252602090912060029091020180546001909101546001600160a01b03909116915082565b606081518351146108bf5760405162461bcd60e51b81526004018080602001828103825260298152602001806125486029913960400191505060405180910390fd5b6060835167ffffffffffffffff811180156108d957600080fd5b50604051908082528060200260200182016040528015610903578160200160208202803683370190505b50905060005b84518110156109615761094285828151811061092157fe5b602002602001015185838151811061093557fe5b6020026020010151610341565b82828151811061094e57fe5b6020908102919091010152600101610909565b509392505050565b60005b600a54811015610a26576000600a828154811061098557fe5b600091825260209091200154604051631293efbb60e21b81526001600160a01b0390911690634a4fbeec906109be9086906004016120a9565b60206040518083038186803b1580156109d657600080fd5b505afa1580156109ea573d6000803e3d6000fd5b505050506040513d601f19601f82011682018060405250810190610a0e9190611f43565b90508015610a1d575050610a4d565b5060010161096c565b50600a54600b9015610a4b5760405162461bcd60e51b815260040161041791906121cb565b505b50565b3360009081526008602052604090205460ff1680610a7857506007546001600160a01b031633145b610a945760405162461bcd60e51b815260040161041790612254565b8051610a4b906006906020840190611a6e565b600a8181548110610ab757600080fd5b6000918252602090912001546001600160a01b0316905081565b60046020526000908152604090205460ff1681565b600b805460408051602060026001851615610100026000190190941693909304601f81018490048402820184019092528181529291830182828015610b6c5780601f10610b4157610100808354040283529160200191610b6c565b820191906000526020600020905b815481529060010190602001808311610b4f57829003601f168201915b505050505081565b6007546001600160a01b031681565b3360009081526008602052604090205460ff1680610bab57506007546001600160a01b031633145b610bc75760405162461bcd60e51b815260040161041790612254565b8051610a4b906009906020840190611a6e565b816001600160a01b0316610bec6111e1565b6001600160a01b03161415610c325760405162461bcd60e51b815260040180806020018281038252602981526020018061251f6029913960400191505060405180910390fd5b8060026000610c3f6111e1565b6001600160a01b03908116825260208083019390935260409182016000908120918716808252919093529120805460ff191692151592909217909155610c836111e1565b6001600160a01b03167f17307eab39ab6107e8899845ad3d59bd9653f200f220920489ca2b5937696c318360405180821515815260200191505060405180910390a35050565b606081610d4557600d805480602002602001604051908101604052809291908181526020016000905b82821015610d3a576000848152602090819020604080518082019091526002850290910180546001600160a01b03168252600190810154828401529083529092019101610cf2565b5050505090506103ce565b600e805480602002602001604051908101604052809291908181526020016000905b82821015610daf576000848152602090819020604080518082019091526002850290910180546001600160a01b03168252600190810154828401529083529092019101610d67565b505050509050919050565b3360009081526008602052604090205460ff1680610de257506007546001600160a01b031633145b610dfe5760405162461bcd60e51b815260040161041790612254565b60608151845114610e215760405162461bcd60e51b81526004016104179061227a565b60005b8451811015610ebe57828181518110610e3957fe5b602002602001015160056000878481518110610e5157fe5b602002602001015181526020019081526020016000209080519060200190610e7a929190611a6e565b50600160046000878481518110610e8d57fe5b6020908102919091018101518252810191909152604001600020805460ff1916911515919091179055600101610e24565b50600754610ed7906001600160a01b031685858461155d565b50505050565b3360009081526008602052604090205460ff1680610f0557506007546001600160a01b031633145b610f215760405162461bcd60e51b815260040161041790612254565b60008381526005602090815260409091208251606092610f45929190850190611a6e565b506000848152600460205260409020805460ff19166001179055600754610ed7906001600160a01b03168585846117b2565b6009805460408051602060026001851615610100026000190190941693909304601f81018490048402820184019092528181529291830182828015610b6c5780601f10610b4157610100808354040283529160200191610b6c565b600c5481565b6001600160a01b03918216600090815260026020908152604080832093909416825291909152205460ff1690565b6001600160a01b03841661104b5760405162461bcd60e51b815260040180806020018281038252602581526020018061249e6025913960400191505060405180910390fd5b6110536111e1565b6001600160a01b0316856001600160a01b031614806110795750611079856103166111e1565b6110b45760405162461bcd60e51b81526004018080602001828103825260298152602001806124756029913960400191505060405180910390fd5b60006110be6111e1565b90506110de8187876110cf886118b3565b6110d8886118b3565b8761083d565b611125836040518060600160405280602a81526020016124f5602a913960008781526001602090815260408083206001600160a01b038d16845290915290205491906111e6565b60008581526001602090815260408083206001600160a01b038b8116855292528083209390935587168152205461115c908461127d565b60008581526001602090815260408083206001600160a01b03808b168086529184529382902094909455805188815291820187905280518a8416938616927fc3d58168c5ae7397731d063d5bbf3d657854427343f4c083240f7aacaa2d0f6292908290030190a461083d8187878787876118f7565b600d818154811061085557600080fd5b335b90565b600081848411156112755760405162461bcd60e51b81526004018080602001828103825283818151815260200191508051906020019080838360005b8381101561123a578181015183820152602001611222565b50505050905090810190601f1680156112675780820380516001836020036101000a031916815260200191505b509250505060405180910390fd5b505050900390565b6000828201838110156112d7576040805162461bcd60e51b815260206004820152601b60248201527f536166654d6174683a206164646974696f6e206f766572666c6f770000000000604482015290519081900360640190fd5b9392505050565b6112f0846001600160a01b0316611a68565b1561083d57836001600160a01b031663bc197c8187878686866040518663ffffffff1660e01b815260040180866001600160a01b03168152602001856001600160a01b03168152602001806020018060200180602001848103845287818151815260200191508051906020019060200280838360005b8381101561137e578181015183820152602001611366565b50505050905001848103835286818151815260200191508051906020019060200280838360005b838110156113bd5781810151838201526020016113a5565b50505050905001848103825285818151815260200191508051906020019080838360005b838110156113f95781810151838201526020016113e1565b50505050905090810190601f1680156114265780820380516001836020036101000a031916815260200191505b5098505050505050505050602060405180830381600087803b15801561144b57600080fd5b505af192505050801561147057506040513d602081101561146b57600080fd5b505160015b6115055761147c61233a565b8061148757506114ce565b60405162461bcd60e51b815260206004820181815283516024840152835184939192839260440191908501908083836000831561123a578181015183820152602001611222565b60405162461bcd60e51b81526004018080602001828103825260348152602001806123ee6034913960400191505060405180910390fd5b6001600160e01b0319811663bc197c8160e01b146115545760405162461bcd60e51b81526004018080602001828103825260288152602001806124226028913960400191505060405180910390fd5b50505050505050565b6001600160a01b0384166115a25760405162461bcd60e51b81526004018080602001828103825260218152602001806125996021913960400191505060405180910390fd5b81518351146115e25760405162461bcd60e51b81526004018080602001828103825260288152602001806125716028913960400191505060405180910390fd5b60006115ec6111e1565b90506115fd8160008787878761083d565b60005b84518110156116c1576116786001600087848151811061161c57fe5b602002602001015181526020019081526020016000206000886001600160a01b03166001600160a01b031681526020019081526020016000205485838151811061166257fe5b602002602001015161127d90919063ffffffff16565b6001600087848151811061168857fe5b602090810291909101810151825281810192909252604090810160009081206001600160a01b038b168252909252902055600101611600565b50846001600160a01b031660006001600160a01b0316826001600160a01b03167f4a39dc06d4c0dbc64b70af90fd698a233a518aa5d07e595d983b8c0526c8f7fb8787604051808060200180602001838103835285818151815260200191508051906020019060200280838360005b83811015611748578181015183820152602001611730565b50505050905001838103825284818151815260200191508051906020019060200280838360005b8381101561178757818101518382015260200161176f565b5050505090500194505050505060405180910390a46117ab816000878787876112de565b5050505050565b6001600160a01b0384166117f75760405162461bcd60e51b81526004018080602001828103825260218152602001806125996021913960400191505060405180910390fd5b60006118016111e1565b9050611813816000876110cf886118b3565b60008481526001602090815260408083206001600160a01b0389168452909152902054611840908461127d565b60008581526001602090815260408083206001600160a01b03808b16808652918452828520959095558151898152928301889052815190948616927fc3d58168c5ae7397731d063d5bbf3d657854427343f4c083240f7aacaa2d0f6292908290030190a46117ab816000878787876118f7565b6040805160018082528183019092526060918291906020808301908036833701905050905082816000815181106118e657fe5b602090810291909101015292915050565b611909846001600160a01b0316611a68565b1561083d57836001600160a01b031663f23a6e6187878686866040518663ffffffff1660e01b815260040180866001600160a01b03168152602001856001600160a01b0316815260200184815260200183815260200180602001828103825283818151815260200191508051906020019080838360005b83811015611998578181015183820152602001611980565b50505050905090810190601f1680156119c55780820380516001836020036101000a031916815260200191505b509650505050505050602060405180830381600087803b1580156119e857600080fd5b505af1925050508015611a0d57506040513d6020811015611a0857600080fd5b505160015b611a195761147c61233a565b6001600160e01b0319811663f23a6e6160e01b146115545760405162461bcd60e51b81526004018080602001828103825260288152602001806124226028913960400191505060405180910390fd5b3b151590565b828054600181600116156101000203166002900490600052602060002090601f016020900481019282611aa45760008555611aea565b82601f10611abd57805160ff1916838001178555611aea565b82800160010185558215611aea579182015b82811115611aea578251825591602001919060010190611acf565b50611af6929150611afa565b5090565b5b80821115611af65760008155600101611afb565b80356001600160a01b03811681146103ce57600080fd5b600082601f830112611b36578081fd5b8135611b49611b44826122de565b6122ba565b818152915060208083019084810181840286018201871015611b6a57600080fd5b60005b84811015611b8957813584529282019290820190600101611b6d565b505050505092915050565b600082601f830112611ba4578081fd5b813567ffffffffffffffff811115611bb857fe5b611bcb601f8201601f19166020016122ba565b9150808252836020828501011115611be257600080fd5b8060208401602084013760009082016020015292915050565b600060208284031215611c0c578081fd5b6112d782611b0f565b60008060408385031215611c27578081fd5b611c3083611b0f565b9150611c3e60208401611b0f565b90509250929050565b600080600080600060a08688031215611c5e578081fd5b611c6786611b0f565b9450611c7560208701611b0f565b9350604086013567ffffffffffffffff80821115611c91578283fd5b611c9d89838a01611b26565b94506060880135915080821115611cb2578283fd5b611cbe89838a01611b26565b93506080880135915080821115611cd3578283fd5b50611ce088828901611b94565b9150509295509295909350565b600080600080600060a08688031215611d04578081fd5b611d0d86611b0f565b9450611d1b60208701611b0f565b93506040860135925060608601359150608086013567ffffffffffffffff811115611d44578182fd5b611ce088828901611b94565b60008060408385031215611d62578182fd5b611d6b83611b0f565b91506020830135611d7b816123df565b809150509250929050565b60008060408385031215611d98578182fd5b611da183611b0f565b946020939093013593505050565b60008060408385031215611dc1578182fd5b823567ffffffffffffffff80821115611dd8578384fd5b818501915085601f830112611deb578384fd5b8135611df9611b44826122de565b80828252602080830192508086018a828387028901011115611e19578889fd5b8896505b84871015611e4257611e2e81611b0f565b845260019690960195928101928101611e1d565b509096508701359350505080821115611e59578283fd5b50611e6685828601611b26565b9150509250929050565b600080600060608486031215611e84578283fd5b833567ffffffffffffffff80821115611e9b578485fd5b611ea787838801611b26565b9450602091508186013581811115611ebd578485fd5b611ec988828901611b26565b945050604086013581811115611edd578384fd5b86019050601f81018713611eef578283fd5b8035611efd611b44826122de565b81815283810190838501865b84811015611f3257611f208c888435890101611b94565b84529286019290860190600101611f09565b505080955050505050509250925092565b600060208284031215611f54578081fd5b81516112d7816123df565b600060208284031215611f70578081fd5b81356001600160e01b0319811681146112d7578182fd5b600060208284031215611f98578081fd5b813567ffffffffffffffff811115611fae578182fd5b611fba84828501611b94565b949350505050565b600060208284031215611fd3578081fd5b5035919050565b600080600060608486031215611fee578081fd5b8335925060208401359150604084013567ffffffffffffffff811115612012578182fd5b61201e86828701611b94565b9150509250925092565b6000808454600180821660008114612047576001811461205e5761208d565b60ff198316865260028304607f168601935061208d565b600283048886526020808720875b838110156120855781548a82015290850190820161206c565b505050860193505b50505083516120a0818360208801612308565b01949350505050565b6001600160a01b0391909116815260200190565b6001600160a01b039290921682521515602082015260400190565b6001600160a01b03929092168252602082015260400190565b602080825282518282018190526000919060409081850190868401855b8281101561213c57815180516001600160a01b0316855286015186850152928401929085019060010161210e565b5091979650505050505050565b6020808252825182820181905260009190848201906040850190845b8181101561218157835183529284019291840191600101612165565b50909695505050505050565b901515815260200190565b60006020825282518060208401526121b7816040850160208701612308565b601f01601f19169190910160400192915050565b600060208083018184528285546001808216600081146121f257600181146122105761213c565b60028304607f16855260ff198316604089015260608801935061213c565b600283048086526122208a6122fc565b885b8281101561223e5781548b820160400152908401908801612222565b8a01604001955050505091979650505050505050565b6020808252600c908201526b1d5b985d5d1a1bdc9a5cd95960a21b604082015260600190565b6020808252601a908201527f6172726179206c656e6774687320646f206e6f74206d61746368000000000000604082015260600190565b90815260200190565b60405181810167ffffffffffffffff811182821017156122d657fe5b604052919050565b600067ffffffffffffffff8211156122f257fe5b5060209081020190565b60009081526020902090565b60005b8381101561232357818101518382015260200161230b565b83811115610ed75750506000910152565b60e01c90565b600060443d101561234a576111e3565b600481823e6308c379a061235e8251612334565b14612368576111e3565b6040513d600319016004823e80513d67ffffffffffffffff816024840111818411171561239857505050506111e3565b828401925082519150808211156123b257505050506111e3565b503d830160208284010111156123ca575050506111e3565b601f01601f1916810160200160405291505090565b8015158114610a4d57600080fdfe455243313135353a207472616e7366657220746f206e6f6e2045524331313535526563656976657220696d706c656d656e746572455243313135353a204552433131353552656365697665722072656a656374656420746f6b656e73455243313135353a2062616c616e636520717565727920666f7220746865207a65726f2061646472657373455243313135353a2063616c6c6572206973206e6f74206f776e6572206e6f7220617070726f766564455243313135353a207472616e7366657220746f20746865207a65726f2061646472657373455243313135353a207472616e736665722063616c6c6572206973206e6f74206f776e6572206e6f7220617070726f766564455243313135353a20696e73756666696369656e742062616c616e636520666f72207472616e73666572455243313135353a2073657474696e6720617070726f76616c2073746174757320666f722073656c66455243313135353a206163636f756e747320616e6420696473206c656e677468206d69736d61746368455243313135353a2069647320616e6420616d6f756e7473206c656e677468206d69736d61746368455243313135353a206d696e7420746f20746865207a65726f2061646472657373a2646970667358221220d12210d9e0b358d1d705ad04a7bd42272378e6d49260cf58d203954f2dc40cf764736f6c6343000705003368747470733a2f2f6d696e74792e6d7970696e6174612e636c6f75642f697066732f",
  "linkReferences": {},
  "deployedLinkReferences": {}
}