{
  "_format": "hh-sol-artifact-1",
  "contractName": "locking",
  "sourceName": "contracts/locking/locking.sol",
  "abi": [
    {
      "inputs": [
        {
          "internalType": "contract IERC20",
          "name": "_baseToken",
          "type": "address"
        },
        {
          "internalType": "uint256",
          "name": "_amountToken",
          "type": "uint256"
        }
      ],
      "stateMutability": "nonpayable",
      "type": "constructor"
    },
    {
      "anonymous": false,
      "inputs": [
        {
          "indexed": false,
          "internalType": "address",
          "name": "owner",
          "type": "address"
        },
        {
          "indexed": false,
          "internalType": "uint256",
          "name": "amount",
          "type": "uint256"
        }
      ],
      "name": "LockedBaseToken",
      "type": "event"
    },
    {
      "anonymous": false,
      "inputs": [
        {
          "indexed": false,
          "internalType": "uint256",
          "name": "amountTokenP",
          "type": "uint256"
        }
      ],
      "name": "SetLockAmount",
      "type": "event"
    },
    {
      "anonymous": false,
      "inputs": [
        {
          "indexed": false,
          "internalType": "address",
          "name": "owner",
          "type": "address"
        }
      ],
      "name": "UnlockCancelled",
      "type": "event"
    },
    {
      "anonymous": false,
      "inputs": [
        {
          "indexed": false,
          "internalType": "address",
          "name": "owner",
          "type": "address"
        }
      ],
      "name": "UnlockRequested",
      "type": "event"
    },
    {
      "anonymous": false,
      "inputs": [
        {
          "indexed": false,
          "internalType": "address",
          "name": "owner",
          "type": "address"
        },
        {
          "indexed": false,
          "internalType": "uint256",
          "name": "amount",
          "type": "uint256"
        }
      ],
      "name": "WithdrawBaseTokens",
      "type": "event"
    },
    {
      "inputs": [
        {
          "internalType": "address",
          "name": "",
          "type": "address"
        }
      ],
      "name": "LockData",
      "outputs": [
        {
          "internalType": "uint256",
          "name": "releaseRequest",
          "type": "uint256"
        },
        {
          "internalType": "uint256",
          "name": "amount",
          "type": "uint256"
        },
        {
          "internalType": "bool",
          "name": "locked",
          "type": "bool"
        }
      ],
      "stateMutability": "view",
      "type": "function"
    },
    {
      "inputs": [],
      "name": "amountToken",
      "outputs": [
        {
          "internalType": "uint256",
          "name": "",
          "type": "uint256"
        }
      ],
      "stateMutability": "view",
      "type": "function"
    },
    {
      "inputs": [],
      "name": "baseToken",
      "outputs": [
        {
          "internalType": "contract IERC20",
          "name": "",
          "type": "address"
        }
      ],
      "stateMutability": "view",
      "type": "function"
    },
    {
      "inputs": [],
      "name": "contractOwner",
      "outputs": [
        {
          "internalType": "address",
          "name": "",
          "type": "address"
        }
      ],
      "stateMutability": "view",
      "type": "function"
    },
    {
      "inputs": [
        {
          "internalType": "contract IERC20",
          "name": "token",
          "type": "address"
        }
      ],
      "name": "drain",
      "outputs": [],
      "stateMutability": "nonpayable",
      "type": "function"
    },
    {
      "inputs": [
        {
          "internalType": "address",
          "name": "owner",
          "type": "address"
        }
      ],
      "name": "isLocked",
      "outputs": [
        {
          "internalType": "bool",
          "name": "",
          "type": "bool"
        }
      ],
      "stateMutability": "view",
      "type": "function"
    },
    {
      "inputs": [],
      "name": "lock",
      "outputs": [],
      "stateMutability": "nonpayable",
      "type": "function"
    },
    {
      "inputs": [
        {
          "internalType": "address",
          "name": "_sender",
          "type": "address"
        },
        {
          "internalType": "uint256",
          "name": "_value",
          "type": "uint256"
        },
        {
          "internalType": "bytes",
          "name": "",
          "type": "bytes"
        }
      ],
      "name": "onTokenTransfer",
      "outputs": [],
      "stateMutability": "nonpayable",
      "type": "function"
    },
    {
      "inputs": [
        {
          "internalType": "address",
          "name": "owner",
          "type": "address"
        }
      ],
      "name": "timeToWithdraw",
      "outputs": [
        {
          "internalType": "uint256",
          "name": "",
          "type": "uint256"
        }
      ],
      "stateMutability": "view",
      "type": "function"
    },
    {
      "inputs": [],
      "name": "unlock",
      "outputs": [],
      "stateMutability": "nonpayable",
      "type": "function"
    },
    {
      "inputs": [
        {
          "internalType": "uint256",
          "name": "_amountToken",
          "type": "uint256"
        }
      ],
      "name": "updateLockAmount",
      "outputs": [],
      "stateMutability": "nonpayable",
      "type": "function"
    }
  ],
  "bytecode": "0x608060405234801561001057600080fd5b50604051610e00380380610e008339818101604052604081101561003357600080fd5b50805160209091015160008054336001600160a01b031991821617909155600180549091166001600160a01b03841617905561006e81610075565b505061010f565b6000546001600160a01b031633146100d4576040805162461bcd60e51b815260206004820152601360248201527f556e617574686f72697365642061636365737300000000000000000000000000604482015290519081900360640190fd5b60028190556040805182815290517f97e0c5afc28fab93c1626222b791d272e9d38ca5e480e54ce8cbb7aeb615f4a59181900360200190a150565b610ce28061011e6000396000f3fe608060405234801561001057600080fd5b50600436106100a95760003560e01c8063a4c0ed3611610071578063a4c0ed361461018d578063a69df4b514610248578063c55dae6314610250578063ce606ee014610274578063ece531321461027c578063f83d08ba146102a2576100a9565b8063102ff0b3146100ae5780633c37db63146100c857806349dcc4eb146100e75780634a4fbeec1461010d5780636ecb9d5014610147575b600080fd5b6100b66102aa565b60408051918252519081900360200190f35b6100e5600480360360208110156100de57600080fd5b50356102b0565b005b6100b6600480360360208110156100fd57600080fd5b50356001600160a01b0316610340565b6101336004803603602081101561012357600080fd5b50356001600160a01b0316610420565b604080519115158252519081900360200190f35b61016d6004803603602081101561015d57600080fd5b50356001600160a01b0316610467565b604080519384526020840192909252151582820152519081900360600190f35b6100e5600480360360608110156101a357600080fd5b6001600160a01b03823516916020810135918101906060810160408201356401000000008111156101d357600080fd5b8201836020820111156101e557600080fd5b8035906020019184600183028401116401000000008311171561020757600080fd5b91908080601f01602080910402602001604051908101604052809392919081815260200183838082843760009201919091525092955061048b945050505050565b6100e561053c565b6102586107a0565b604080516001600160a01b039092168252519081900360200190f35b6102586107af565b6100e56004803603602081101561029257600080fd5b50356001600160a01b03166107be565b6100e56109c1565b60025481565b6000546001600160a01b03163314610305576040805162461bcd60e51b8152602060048201526013602482015272556e617574686f72697365642061636365737360681b604482015290519081900360640190fd5b60028190556040805182815290517f97e0c5afc28fab93c1626222b791d272e9d38ca5e480e54ce8cbb7aeb615f4a59181900360200190a150565b6001600160a01b03811660009081526003602052604081206002015460ff166103b0576040805162461bcd60e51b815260206004820152601960248201527f4f776e657220686173206e6f2066756e6473206c6f636b656400000000000000604482015290519081900360640190fd5b6001600160a01b038216600090815260036020526040902054806104055760405162461bcd60e51b8152600401808060200182810382526025815260200180610c886025913960400191505060405180910390fd5b42811061041657600091505061041b565b420390505b919050565b6001600160a01b03811660009081526003602052604081206002015460ff16801561046157506001600160a01b038216600090815260036020526040902054155b92915050565b60036020526000908152604090208054600182015460029092015490919060ff1683565b6001546001600160a01b031633146104e0576040805162461bcd60e51b8152602060048201526013602482015272556e617574686f726973656420736f7572636560681b604482015290519081900360640190fd5b600254821461052d576040805162461bcd60e51b8152602060048201526014602482015273125b98dbdc9c9958dd081d985b1d59481cd95b9d60621b604482015290519081900360640190fd5b6105378383610af4565b505050565b610544610c1b565b50336000908152600360209081526040918290208251606081018452815481526001820154928101929092526002015460ff161515918101829052906105d1576040805162461bcd60e51b815260206004820152601d60248201527f596f7520646f206e6f742068617665206c6f636b656420746f6b656e73000000604482015290519081900360640190fd5b602081015161061b576040805162461bcd60e51b81526020600482015260116024820152704e6f7468696e6720746f20756e6c6f636b60781b604482015290519081900360640190fd5b8051801561074f57428111156106625760405162461bcd60e51b8152600401808060200182810382526027815260200180610c3f6027913960400191505060405180910390fd5b6001546020808401516040805163a9059cbb60e01b81523360048201526024810192909252516001600160a01b039093169263a9059cbb926044808401939192918290030181600087803b1580156106b957600080fd5b505af11580156106cd573d6000803e3d6000fd5b505050506040513d60208110156106e357600080fd5b505033600081815260036020908152604080832083815560018101939093556002909201805460ff191690558481015182519384529083015280517ffe3b7acaad2fd3b2a0c954f99523de4322c0792bcfa0051a3e284e05e8530e4c9281900390910190a1505061079e565b336000818152600360209081526040918290206206978042019055815192835290517f9626a556bdcacf287e1acddc78733a299483d4511693e5211ffaacad062137bc9281900390910190a150505b565b6001546001600160a01b031681565b6000546001600160a01b031681565b6000546001600160a01b0316331461080c576040805162461bcd60e51b815260206004820152600c60248201526b155b985d5d1a1bdc9a5cd95960a21b604482015290519081900360640190fd5b6001600160a01b03811661085a57600080546040516001600160a01b03909116914780156108fc02929091818181858888f19350505050158015610854573d6000803e3d6000fd5b506109be565b6001546001600160a01b03828116911614156108a75760405162461bcd60e51b8152600401808060200182810382526022815260200180610c666022913960400191505060405180910390fd5b806001600160a01b031663a9059cbb60008054906101000a90046001600160a01b0316836001600160a01b03166370a08231306040518263ffffffff1660e01b815260040180826001600160a01b03168152602001915050602060405180830381600087803b15801561091957600080fd5b505af115801561092d573d6000803e3d6000fd5b505050506040513d602081101561094357600080fd5b5051604080516001600160e01b031960e086901b1681526001600160a01b03909316600484015260248301919091525160448083019260209291908290030181600087803b15801561099457600080fd5b505af11580156109a8573d6000803e3d6000fd5b505050506040513d602081101561053757600080fd5b50565b3360009081526003602052604090205415610a225733600081815260036020908152604080832092909255815192835290517ffa044b7b93a40365dc68049797c2eb06918523d694e5d56e406cac3eb35578e59281900390910190a161079e565b600254600154604080516323b872dd60e01b81523360048201523060248201526044810184905290516001600160a01b03909216916323b872dd916064808201926020929091908290030181600087803b158015610a7f57600080fd5b505af1158015610a93573d6000803e3d6000fd5b505050506040513d6020811015610aa957600080fd5b5051610aee576040805162461bcd60e51b815260206004820152600f60248201526e1d1c985b9cd9995c8819985a5b1959608a1b604482015290519081900360640190fd5b6109be33825b610afc610c1b565b506001600160a01b0382166000908152600360209081526040918290208251606081018452815481526001820154928101929092526002015460ff161580159282019290925290610b94576040805162461bcd60e51b815260206004820152601e60248201527f596f7520616c72656164792068617665206c6f636b656420746f6b656e730000604482015290519081900360640190fd5b6001604082810182815260208085018681526001600160a01b0388166000818152600384528590208751815591519582019590955591516002909201805460ff1916921515929092179091558151928352820184905280517fb00e71ae128757f10a89bed65c351adc01e3a28456245a1e31f738f364bf24919281900390910190a1505050565b60405180606001604052806000815260200160008152602001600015158152509056fe72656c6561736520616c72656164792072657175657374656420627574206e6f74207265616479596f752063616e6e6f7420776974686472617720746865206261736520746f6b656e4f776e657220686173206e6f74207265717565737465642066756e64732072656c65617365a2646970667358221220b84c4bd37bceaaf8f0fd98a9bc33729057a313372005bc05ad4d31dff175a72764736f6c63430007050033",
  "linkReferences": {},
  "deployedLinkReferences": {}
}