{
  "_format": "hh-sol-artifact-1",
  "contractName": "mintyMultiSale",
  "sourceName": "contracts/sale2M/mintyMultiSale.sol",
  "abi": [
    {
      "inputs": [
        {
          "internalType": "address payable",
          "name": "wallet",
          "type": "address"
        },
        {
          "internalType": "uint256",
          "name": "opm",
          "type": "uint256"
        },
        {
          "internalType": "uint256",
          "name": "cpm",
          "type": "uint256"
        }
      ],
      "stateMutability": "nonpayable",
      "type": "constructor"
    },
    {
      "anonymous": false,
      "inputs": [
        {
          "indexed": false,
          "internalType": "address",
          "name": "bidder",
          "type": "address"
        },
        {
          "indexed": false,
          "internalType": "contract IMintyMultiToken",
          "name": "token",
          "type": "address"
        },
        {
          "indexed": false,
          "internalType": "uint256",
          "name": "tokenId",
          "type": "uint256"
        },
        {
          "indexed": false,
          "internalType": "uint256",
          "name": "previous_bid",
          "type": "uint256"
        },
        {
          "indexed": false,
          "internalType": "uint256",
          "name": "this_bid",
          "type": "uint256"
        }
      ],
      "name": "BidIncreased",
      "type": "event"
    },
    {
      "anonymous": false,
      "inputs": [
        {
          "indexed": false,
          "internalType": "address",
          "name": "bidder",
          "type": "address"
        },
        {
          "indexed": false,
          "internalType": "contract IMintyMultiToken",
          "name": "token",
          "type": "address"
        },
        {
          "indexed": false,
          "internalType": "uint256",
          "name": "tokenId",
          "type": "uint256"
        },
        {
          "indexed": false,
          "internalType": "uint256",
          "name": "bid",
          "type": "uint256"
        }
      ],
      "name": "BidReceived",
      "type": "event"
    },
    {
      "anonymous": false,
      "inputs": [
        {
          "indexed": false,
          "internalType": "contract IMintyMultiToken",
          "name": "token",
          "type": "address"
        },
        {
          "indexed": false,
          "internalType": "uint256",
          "name": "tokenId",
          "type": "uint256"
        }
      ],
      "name": "BidWithdrawn",
      "type": "event"
    },
    {
      "anonymous": false,
      "inputs": [
        {
          "indexed": false,
          "internalType": "contract IMintyMultiToken",
          "name": "token",
          "type": "address"
        },
        {
          "indexed": false,
          "internalType": "uint256",
          "name": "tokenId",
          "type": "uint256"
        },
        {
          "indexed": false,
          "internalType": "address",
          "name": "owner",
          "type": "address"
        },
        {
          "indexed": false,
          "internalType": "uint256",
          "name": "quantity",
          "type": "uint256"
        },
        {
          "indexed": false,
          "internalType": "uint256",
          "name": "price",
          "type": "uint256"
        },
        {
          "indexed": false,
          "internalType": "string",
          "name": "hash",
          "type": "string"
        }
      ],
      "name": "NewOffer",
      "type": "event"
    },
    {
      "anonymous": false,
      "inputs": [
        {
          "indexed": false,
          "internalType": "address",
          "name": "buyer",
          "type": "address"
        },
        {
          "indexed": false,
          "internalType": "contract IMintyMultiToken",
          "name": "token",
          "type": "address"
        },
        {
          "indexed": false,
          "internalType": "uint256",
          "name": "tokenId",
          "type": "uint256"
        },
        {
          "indexed": false,
          "internalType": "uint256",
          "name": "pos",
          "type": "uint256"
        },
        {
          "indexed": false,
          "internalType": "uint256",
          "name": "quantity",
          "type": "uint256"
        },
        {
          "indexed": false,
          "internalType": "uint256",
          "name": "price",
          "type": "uint256"
        }
      ],
      "name": "OfferAccepted",
      "type": "event"
    },
    {
      "anonymous": false,
      "inputs": [
        {
          "indexed": false,
          "internalType": "contract IMintyMultiToken",
          "name": "token",
          "type": "address"
        },
        {
          "indexed": false,
          "internalType": "uint256",
          "name": "tokenId",
          "type": "uint256"
        }
      ],
      "name": "OfferWithdrawn",
      "type": "event"
    },
    {
      "anonymous": false,
      "inputs": [
        {
          "indexed": false,
          "internalType": "address",
          "name": "wallet",
          "type": "address"
        },
        {
          "indexed": false,
          "internalType": "address",
          "name": "creator",
          "type": "address"
        },
        {
          "indexed": false,
          "internalType": "address",
          "name": "_owner",
          "type": "address"
        },
        {
          "indexed": false,
          "internalType": "uint256",
          "name": "amount",
          "type": "uint256"
        }
      ],
      "name": "Payment",
      "type": "event"
    },
    {
      "anonymous": false,
      "inputs": [
        {
          "indexed": false,
          "internalType": "contract IMintyMultiToken",
          "name": "token",
          "type": "address"
        },
        {
          "indexed": false,
          "internalType": "uint256",
          "name": "tokenId",
          "type": "uint256"
        },
        {
          "indexed": false,
          "internalType": "uint256",
          "name": "quantity",
          "type": "uint256"
        },
        {
          "indexed": false,
          "internalType": "address",
          "name": "owner",
          "type": "address"
        },
        {
          "indexed": false,
          "internalType": "uint256",
          "name": "price",
          "type": "uint256"
        },
        {
          "indexed": false,
          "internalType": "uint256",
          "name": "position",
          "type": "uint256"
        }
      ],
      "name": "ResaleOffer",
      "type": "event"
    },
    {
      "anonymous": false,
      "inputs": [
        {
          "indexed": false,
          "internalType": "contract IMintyMultiToken",
          "name": "token",
          "type": "address"
        },
        {
          "indexed": false,
          "internalType": "uint256",
          "name": "tokenId",
          "type": "uint256"
        },
        {
          "indexed": false,
          "internalType": "uint256",
          "name": "pos",
          "type": "uint256"
        },
        {
          "indexed": false,
          "internalType": "uint256",
          "name": "price",
          "type": "uint256"
        },
        {
          "indexed": false,
          "internalType": "address",
          "name": "owner",
          "type": "address"
        }
      ],
      "name": "SaleRepriced",
      "type": "event"
    },
    {
      "anonymous": false,
      "inputs": [
        {
          "indexed": false,
          "internalType": "contract IMintyMultiToken",
          "name": "token",
          "type": "address"
        },
        {
          "indexed": false,
          "internalType": "uint256",
          "name": "tokenId",
          "type": "uint256"
        },
        {
          "indexed": false,
          "internalType": "uint256",
          "name": "pos",
          "type": "uint256"
        },
        {
          "indexed": false,
          "internalType": "address",
          "name": "owner",
          "type": "address"
        }
      ],
      "name": "SaleRetracted",
      "type": "event"
    },
    {
      "anonymous": false,
      "inputs": [
        {
          "indexed": false,
          "internalType": "uint256",
          "name": "ownerShare",
          "type": "uint256"
        },
        {
          "indexed": false,
          "internalType": "uint256",
          "name": "creatorShare",
          "type": "uint256"
        }
      ],
      "name": "SharesUpdated",
      "type": "event"
    },
    {
      "inputs": [
        {
          "internalType": "contract IMintyMultiToken",
          "name": "token",
          "type": "address"
        },
        {
          "internalType": "uint256",
          "name": "tokenId",
          "type": "uint256"
        },
        {
          "internalType": "uint256",
          "name": "pos",
          "type": "uint256"
        },
        {
          "internalType": "uint256",
          "name": "quantity",
          "type": "uint256"
        }
      ],
      "name": "acceptOffer",
      "outputs": [],
      "stateMutability": "payable",
      "type": "function"
    },
    {
      "inputs": [
        {
          "internalType": "contract IMintyMultiToken",
          "name": "token",
          "type": "address"
        },
        {
          "internalType": "uint256",
          "name": "tokenId",
          "type": "uint256"
        },
        {
          "internalType": "uint256",
          "name": "offerId",
          "type": "uint256"
        }
      ],
      "name": "available",
      "outputs": [
        {
          "internalType": "uint256",
          "name": "",
          "type": "uint256"
        }
      ],
      "stateMutability": "view",
      "type": "function"
    },
    {
      "inputs": [],
      "name": "creatorPerMille",
      "outputs": [
        {
          "internalType": "uint256",
          "name": "",
          "type": "uint256"
        }
      ],
      "stateMutability": "view",
      "type": "function"
    },
    {
      "inputs": [
        {
          "internalType": "contract IMintyMultiToken",
          "name": "",
          "type": "address"
        },
        {
          "internalType": "uint256",
          "name": "",
          "type": "uint256"
        },
        {
          "internalType": "uint256",
          "name": "",
          "type": "uint256"
        }
      ],
      "name": "items",
      "outputs": [
        {
          "internalType": "address",
          "name": "creator",
          "type": "address"
        },
        {
          "internalType": "uint256",
          "name": "quantity",
          "type": "uint256"
        },
        {
          "internalType": "string",
          "name": "itemHash",
          "type": "string"
        },
        {
          "internalType": "uint256",
          "name": "unitPrice",
          "type": "uint256"
        }
      ],
      "stateMutability": "view",
      "type": "function"
    },
    {
      "inputs": [],
      "name": "minty",
      "outputs": [
        {
          "internalType": "address payable",
          "name": "",
          "type": "address"
        }
      ],
      "stateMutability": "view",
      "type": "function"
    },
    {
      "inputs": [
        {
          "internalType": "contract IMintyMultiToken",
          "name": "",
          "type": "address"
        }
      ],
      "name": "multiTokenOwners",
      "outputs": [
        {
          "internalType": "address",
          "name": "",
          "type": "address"
        }
      ],
      "stateMutability": "view",
      "type": "function"
    },
    {
      "inputs": [
        {
          "internalType": "contract IMintyMultiToken",
          "name": "token",
          "type": "address"
        },
        {
          "internalType": "uint256",
          "name": "tokenId",
          "type": "uint256"
        }
      ],
      "name": "numberOfOffers",
      "outputs": [
        {
          "internalType": "uint256",
          "name": "",
          "type": "uint256"
        }
      ],
      "stateMutability": "view",
      "type": "function"
    },
    {
      "inputs": [
        {
          "internalType": "contract IMintyMultiToken",
          "name": "token",
          "type": "address"
        },
        {
          "internalType": "uint256",
          "name": "tokenId",
          "type": "uint256"
        },
        {
          "internalType": "string",
          "name": "ipfsString",
          "type": "string"
        },
        {
          "internalType": "uint256",
          "name": "quantity",
          "type": "uint256"
        },
        {
          "internalType": "uint256",
          "name": "price",
          "type": "uint256"
        }
      ],
      "name": "offerNew",
      "outputs": [],
      "stateMutability": "nonpayable",
      "type": "function"
    },
    {
      "inputs": [
        {
          "internalType": "contract IMintyMultiToken",
          "name": "token",
          "type": "address"
        },
        {
          "internalType": "uint256[]",
          "name": "tokenIds",
          "type": "uint256[]"
        },
        {
          "internalType": "string[]",
          "name": "ipfsStrings",
          "type": "string[]"
        },
        {
          "internalType": "uint256[]",
          "name": "quantities",
          "type": "uint256[]"
        },
        {
          "internalType": "uint256[]",
          "name": "prices",
          "type": "uint256[]"
        }
      ],
      "name": "offerNewBatch",
      "outputs": [],
      "stateMutability": "nonpayable",
      "type": "function"
    },
    {
      "inputs": [
        {
          "internalType": "contract IMintyMultiToken",
          "name": "token",
          "type": "address"
        },
        {
          "internalType": "uint256",
          "name": "tokenId",
          "type": "uint256"
        },
        {
          "internalType": "uint256",
          "name": "quantity",
          "type": "uint256"
        },
        {
          "internalType": "uint256",
          "name": "price",
          "type": "uint256"
        }
      ],
      "name": "offerResale",
      "outputs": [],
      "stateMutability": "nonpayable",
      "type": "function"
    },
    {
      "inputs": [],
      "name": "owner",
      "outputs": [
        {
          "internalType": "address",
          "name": "",
          "type": "address"
        }
      ],
      "stateMutability": "view",
      "type": "function"
    },
    {
      "inputs": [],
      "name": "ownerPerMille",
      "outputs": [
        {
          "internalType": "uint256",
          "name": "",
          "type": "uint256"
        }
      ],
      "stateMutability": "view",
      "type": "function"
    },
    {
      "inputs": [
        {
          "internalType": "contract IMintyMultiToken",
          "name": "token",
          "type": "address"
        },
        {
          "internalType": "uint256",
          "name": "tokenId",
          "type": "uint256"
        },
        {
          "internalType": "uint256",
          "name": "offerId",
          "type": "uint256"
        }
      ],
      "name": "price",
      "outputs": [
        {
          "internalType": "uint256",
          "name": "",
          "type": "uint256"
        }
      ],
      "stateMutability": "view",
      "type": "function"
    },
    {
      "inputs": [
        {
          "internalType": "contract IMintyMultiToken",
          "name": "token",
          "type": "address"
        },
        {
          "internalType": "uint256",
          "name": "tokenId",
          "type": "uint256"
        },
        {
          "internalType": "uint256",
          "name": "pos",
          "type": "uint256"
        },
        {
          "internalType": "uint256",
          "name": "price",
          "type": "uint256"
        }
      ],
      "name": "reSubmitOffer",
      "outputs": [],
      "stateMutability": "nonpayable",
      "type": "function"
    },
    {
      "inputs": [
        {
          "internalType": "contract IMintyMultiToken",
          "name": "token",
          "type": "address"
        },
        {
          "internalType": "uint256",
          "name": "tokenId",
          "type": "uint256"
        },
        {
          "internalType": "uint256",
          "name": "pos",
          "type": "uint256"
        }
      ],
      "name": "retractRemainingOffer",
      "outputs": [],
      "stateMutability": "nonpayable",
      "type": "function"
    },
    {
      "inputs": [
        {
          "internalType": "uint256",
          "name": "opm",
          "type": "uint256"
        },
        {
          "internalType": "uint256",
          "name": "cpm",
          "type": "uint256"
        }
      ],
      "name": "updateShares",
      "outputs": [],
      "stateMutability": "nonpayable",
      "type": "function"
    }
  ],
  "bytecode": "0x6080604052600280546001600160a01b031916331790553480156200002357600080fd5b5060405162002a4838038062002a488339810160408190526200004691620000b0565b600580546001600160a01b0319166001600160a01b038516179055600382905560048190556040517fe5a0c91086f91c001ad2bce018f8c7818182156e1fd1d3b81788aadd4b2b3021906200009f9084908490620000f3565b60405180910390a150505062000101565b600080600060608486031215620000c5578283fd5b83516001600160a01b0381168114620000dc578384fd5b602085015160409095015190969495509392505050565b918252602082015260400190565b61293780620001116000396000f3fe6080604052600436106100f35760003560e01c80637d5c72171161008a578063cbfcab1d11610059578063cbfcab1d1461028a578063ccb3eae81461029f578063eac54d98146102b4578063ecf13ef4146102d4576100f3565b80637d5c7217146102155780638da5cb5b14610235578063a3f7a5f81461024a578063c319b7ba1461026a576100f3565b80634e900c02116100c65780634e900c021461019257806364790208146101b25780636d873c5d146101d25780636dd043d714610202576100f3565b806320540adc146100f85780632e2ce2471461012357806335b4511a146101455780633a06daa214610172575b600080fd5b34801561010457600080fd5b5061010d6102f4565b60405161011a9190612823565b60405180910390f35b34801561012f57600080fd5b5061014361013e366004611fe8565b6102fa565b005b34801561015157600080fd5b50610165610160366004611fcc565b610778565b60405161011a9190612308565b34801561017e57600080fd5b5061010d61018d366004612188565b610793565b34801561019e57600080fd5b506101436101ad3660046121bc565b61097c565b3480156101be57600080fd5b506101436101cd366004612281565b610bdd565b3480156101de57600080fd5b506101f26101ed366004612188565b610c4f565b60405161011a94939291906123e9565b6101436102103660046121bc565b610d3d565b34801561022157600080fd5b506101436102303660046121bc565b610d50565b34801561024157600080fd5b50610165610fee565b34801561025657600080fd5b5061010d6102653660046120f4565b610ffd565b34801561027657600080fd5b5061014361028536600461211f565b611026565b34801561029657600080fd5b5061016561136c565b3480156102ab57600080fd5b5061010d61137b565b3480156102c057600080fd5b5061010d6102cf366004612188565b611381565b3480156102e057600080fd5b506101436102ef366004612188565b6115f7565b60035481565b60405163e985e9c560e01b81526001600160a01b0386169063e985e9c590610328903390309060040161231c565b60206040518083038186803b15801561034057600080fd5b505afa158015610354573d6000803e3d6000fd5b505050506040513d601f19601f820116820180604052508101906103789190611fac565b61039d5760405162461bcd60e51b815260040161039490612783565b60405180910390fd5b336001600160a01b0316856001600160a01b0316638da5cb5b6040518163ffffffff1660e01b815260040160206040518083038186803b1580156103e057600080fd5b505afa1580156103f4573d6000803e3d6000fd5b505050506040513d601f19601f820116820180604052508101906104189190611f90565b6001600160a01b03161461043e5760405162461bcd60e51b815260040161039490612706565b60005b845181101561070e57856001600160a01b0316637dc0bf3f86838151811061046557fe5b60200260200101516040518263ffffffff1660e01b81526004016104899190612823565b60206040518083038186803b1580156104a157600080fd5b505afa1580156104b5573d6000803e3d6000fd5b505050506040513d601f19601f820116820180604052508101906104d99190611fac565b156104f65760405162461bcd60e51b81526004016103949061268e565b600080876001600160a01b03166001600160a01b03168152602001908152602001600020600086838151811061052857fe5b60200260200101518152602001908152602001600020805490506000146105615760405162461bcd60e51b81526004016103949061263b565b600080876001600160a01b03166001600160a01b03168152602001908152602001600020600086838151811061059357fe5b602002602001015181526020019081526020016000206040518060800160405280336001600160a01b031681526020018584815181106105cf57fe5b602002602001015181526020018684815181106105e857fe5b6020026020010151815260200184848151811061060157fe5b602090810291909101810151909152825460018082018555600094855293829020835160049092020180546001600160a01b0319166001600160a01b0390921691909117815582820151938101939093556040820151805192939261066c9260028501920190611e02565b506060820151816003015550507f10575dae8255319b2807b08ada1038743fd34f2a06f1fba49e9407e7aa91f8f6868683815181106106a757fe5b6020026020010151338685815181106106bc57fe5b60200260200101518686815181106106d057fe5b60200260200101518987815181106106e457fe5b60200260200101516040516106fe969594939291906124a5565b60405180910390a1600101610441565b50604051633146edb760e21b81526001600160a01b0386169063c51bb6dc9061073f90879086908890600401612421565b600060405180830381600087803b15801561075957600080fd5b505af115801561076d573d6000803e3d6000fd5b505050505050505050565b6001602052600090815260409020546001600160a01b031681565b6001600160a01b03831660009081526020818152604080832085845290915281205482106107d35760405162461bcd60e51b815260040161039490612583565b6107db611e8e565b6001600160a01b038516600090815260208181526040808320878452909152902080548490811061080857fe5b60009182526020918290206040805160808101825260049390930290910180546001600160a01b03168352600180820154848601526002808301805485516101009482161594909402600019011691909104601f81018790048702830187018552808352949592949386019391929091908301828280156108ca5780601f1061089f576101008083540402835291602001916108ca565b820191906000526020600020905b8154815290600101906020018083116108ad57829003601f168201915b505050918352505060039190910154602090910152805160405163e985e9c560e01b81529192506001600160a01b0387169163e985e9c59161091091309060040161231c565b60206040518083038186803b15801561092857600080fd5b505afa15801561093c573d6000803e3d6000fd5b505050506040513d601f19601f820116820180604052508101906109609190611fac565b61096e576000915050610975565b6060015190505b9392505050565b6001600160a01b03841660009081526020818152604080832086845290915290205482106109bc5760405162461bcd60e51b81526004016103949061272c565b6109c4611e8e565b6001600160a01b03851660009081526020818152604080832087845290915290208054849081106109f157fe5b60009182526020918290206040805160808101825260049390930290910180546001600160a01b03168352600180820154848601526002808301805485516101009482161594909402600019011691909104601f8101879004870283018701855280835294959294938601939192909190830182828015610ab35780601f10610a8857610100808354040283529160200191610ab3565b820191906000526020600020905b815481529060010190602001808311610a9657829003601f168201915b50505050508152602001600382015481525050905080600001516001600160a01b0316336001600160a01b031614610afd5760405162461bcd60e51b8152600401610394906125dc565b606081018290526001600160a01b0385166000908152602081815260408083208784529091529020805482919085908110610b3457fe5b600091825260209182902083516004929092020180546001600160a01b0319166001600160a01b03909216919091178155828201516001820155604083015180519192610b8992600285019290910190611e02565b50606082015181600301559050507f0365ed613ce46864c2596157898bfc904a905c87c70c265de1473f51eedb1b778585858533604051610bce959493929190612553565b60405180910390a15050505050565b6002546001600160a01b03163314610c075760405162461bcd60e51b815260040161039490612668565b600382905560048190556040517fe5a0c91086f91c001ad2bce018f8c7818182156e1fd1d3b81788aadd4b2b302190610c43908490849061282c565b60405180910390a15050565b60006020528260005260406000206020528160005260406000208181548110610c7757600080fd5b6000918252602091829020600491909102018054600180830154600280850180546040805161010096831615969096026000190190911692909204601f81018890048802850188019092528184526001600160a01b03909416985090965092945092909190830182828015610d2d5780601f10610d0257610100808354040283529160200191610d2d565b820191906000526020600020905b815481529060010190602001808311610d1057829003601f168201915b5050505050908060030154905084565b610d4a8484848434611853565b50505050565b604051627eeac760e11b81526001600160a01b0385169062fdd58e90610d7c9033908790600401612396565b60206040518083038186803b158015610d9457600080fd5b505afa158015610da8573d6000803e3d6000fd5b505050506040513d601f19601f82011682018060405250810190610dcc9190612269565b8211158015610ddb5750600082115b610df75760405162461bcd60e51b8152600401610394906127e0565b60405163e985e9c560e01b81526001600160a01b0385169063e985e9c590610e25903390309060040161231c565b60206040518083038186803b158015610e3d57600080fd5b505afa158015610e51573d6000803e3d6000fd5b505050506040513d601f19601f82011682018060405250810190610e759190611fac565b610e915760405162461bcd60e51b815260040161039490612783565b6001600160a01b0384166000818152602081815260408083208784528252918290208054835160808101855233815292830187905283516303a24d0760e21b81529094919383019190630e89341c90610eee908a90600401612823565b60006040518083038186803b158015610f0657600080fd5b505afa158015610f1a573d6000803e3d6000fd5b505050506040513d6000823e601f3d908101601f19168201604052610f4291908101906121f6565b81526020908101859052825460018082018555600094855293829020835160049092020180546001600160a01b0319166001600160a01b03909216919091178155828201519381019390935560408201518051929392610fa89260028501920190611e02565b506060820151816003015550507f0df75d277ebbb180db8152f8c392e8bf6ba2720b35f9f98456eca3557b91182e858585338686604051610bce96959493929190612519565b6002546001600160a01b031681565b6001600160a01b0382166000908152602081815260408083208484529091529020545b92915050565b60405163e985e9c560e01b81526001600160a01b0386169063e985e9c590611054903390309060040161231c565b60206040518083038186803b15801561106c57600080fd5b505afa158015611080573d6000803e3d6000fd5b505050506040513d601f19601f820116820180604052508101906110a49190611fac565b6110c05760405162461bcd60e51b815260040161039490612783565b604051637dc0bf3f60e01b81526001600160a01b03861690637dc0bf3f906110ec908790600401612823565b60206040518083038186803b15801561110457600080fd5b505afa158015611118573d6000803e3d6000fd5b505050506040513d601f19601f8201168201806040525081019061113c9190611fac565b156111595760405162461bcd60e51b81526004016103949061268e565b336001600160a01b0316856001600160a01b0316638da5cb5b6040518163ffffffff1660e01b815260040160206040518083038186803b15801561119c57600080fd5b505afa1580156111b0573d6000803e3d6000fd5b505050506040513d601f19601f820116820180604052508101906111d49190611f90565b6001600160a01b0316146111fa5760405162461bcd60e51b815260040161039490612706565b6001600160a01b038516600090815260208181526040808320878452909152902054156112395760405162461bcd60e51b81526004016103949061263b565b60405163c6e64e5360e01b81526001600160a01b0386169063c6e64e53906112699087908690889060040161283a565b600060405180830381600087803b15801561128357600080fd5b505af1158015611297573d6000803e3d6000fd5b505050506001600160a01b03858116600090815260208181526040808320888452825280832081516080810183523381528084018881529281018981526060820188905282546001808201855593875295859020825160049097020180546001600160a01b03191696909716959095178655915190850155915180519293926113269260028501920190611e02565b506060820151816003015550507f10575dae8255319b2807b08ada1038743fd34f2a06f1fba49e9407e7aa91f8f6858533858588604051610bce969594939291906124a5565b6005546001600160a01b031681565b60045481565b6001600160a01b03831660009081526020818152604080832085845290915281205482106113c15760405162461bcd60e51b815260040161039490612583565b6113c9611e8e565b6001600160a01b03851660009081526020818152604080832087845290915290208054849081106113f657fe5b60009182526020918290206040805160808101825260049390930290910180546001600160a01b03168352600180820154848601526002808301805485516101009482161594909402600019011691909104601f81018790048702830187018552808352949592949386019391929091908301828280156114b85780601f1061148d576101008083540402835291602001916114b8565b820191906000526020600020905b81548152906001019060200180831161149b57829003601f168201915b505050918352505060039190910154602090910152805160405163e985e9c560e01b81529192506001600160a01b0387169163e985e9c5916114fe91309060040161231c565b60206040518083038186803b15801561151657600080fd5b505afa15801561152a573d6000803e3d6000fd5b505050506040513d601f19601f8201168201806040525081019061154e9190611fac565b61155c576000915050610975565b60208101518151604051627eeac760e11b81526000916001600160a01b0389169162fdd58e91611590918a90600401612396565b60206040518083038186803b1580156115a857600080fd5b505afa1580156115bc573d6000803e3d6000fd5b505050506040513d601f19601f820116820180604052508101906115e09190612269565b90506115ec8282611caa565b979650505050505050565b6001600160a01b03831660009081526020818152604080832085845290915290205481106116375760405162461bcd60e51b81526004016103949061272c565b61163f611e8e565b6001600160a01b038416600090815260208181526040808320868452909152902080548390811061166c57fe5b60009182526020918290206040805160808101825260049390930290910180546001600160a01b03168352600180820154848601526002808301805485516101009482161594909402600019011691909104601f810187900487028301870185528083529495929493860193919290919083018282801561172e5780601f106117035761010080835404028352916020019161172e565b820191906000526020600020905b81548152906001019060200180831161171157829003601f168201915b50505050508152602001600382015481525050905080600001516001600160a01b0316336001600160a01b0316146117785760405162461bcd60e51b8152600401610394906125dc565b600060208083018290526001600160a01b0386168252818152604080832086845290915290208054829190849081106117ad57fe5b600091825260209182902083516004929092020180546001600160a01b0319166001600160a01b0390921691909117815582820151600182015560408301518051919261180292600285019290910190611e02565b50606082015181600301559050507f74ee16c30acdc0986deebeda1b36d871a7ebf1dc7e2fd327dc7628617c37726d8484843360405161184594939291906124ee565b60405180910390a150505050565b600254600160a01b900460ff161561187d5760405162461bcd60e51b8152600401610394906125ae565b826118e157604051635773bd0760e01b81526001600160a01b03861690635773bd07906118ae903390600401612308565b600060405180830381600087803b1580156118c857600080fd5b505af11580156118dc573d6000803e3d6000fd5b505050505b6002805460ff60a01b1916600160a01b17905560606118fe611e8e565b6001600160a01b038716600090815260208181526040808320898452909152902080548690811061192b57fe5b60009182526020918290206040805160808101825260049390930290910180546001600160a01b03168352600180820154848601526002808301805485516101009482161594909402600019011691909104601f81018790048702830187018552808352949592949386019391929091908301828280156119ed5780601f106119c2576101008083540402835291602001916119ed565b820191906000526020600020905b8154815290600101906020018083116119d057829003601f168201915b5050505050815260200160038201548152505090506000816000015190508482602001511015611a2f5760405162461bcd60e51b815260040161039490612604565b611a3d826060015186611cc1565b841015611a5c5760405162461bcd60e51b81526004016103949061275c565b604051627eeac760e11b815285906001600160a01b038a169062fdd58e90611a8a9085908c90600401612396565b60206040518083038186803b158015611aa257600080fd5b505afa158015611ab6573d6000803e3d6000fd5b505050506040513d601f19601f82011682018060405250810190611ada9190612269565b1015611af85760405162461bcd60e51b8152600401610394906126c5565b604051637921219560e11b81526001600160a01b0389169063f242432a90611b2c90849033908c908b908a906004016123af565b600060405180830381600087803b158015611b4657600080fd5b505af1158015611b5a573d6000803e3d6000fd5b5050506020808401805188900390526001600160a01b038a16600090815280825260408082208b835290925220805484925088908110611b9657fe5b600091825260209182902083516004929092020180546001600160a01b0319166001600160a01b03909216919091178155828201516001820155604083015180519192611beb92600285019290910190611e02565b506060919091015160039091015560055482516040517f0913aa4718e76655dbdbde41862a88aba8459d8721849484c97f53af3b5028e692611c3c926001600160a01b039091169185908990612336565b60405180910390a18151611c51908286611ce6565b6002805460ff60a01b191690556040517faf47c9ab14ff5ce679b4cb416be29684283e7b30fcfe405bfdebcc135f4b1e6f90611c989033908b908b908b908b908b90612360565b60405180910390a15050505050505050565b600081831015611cbb575081611020565b50919050565b600082611cd057506000611020565b5081810281838281611cde57fe5b041461102057fe5b60006103e8600454830281611cf757fe5b0490508082036001600160a01b038581169085161415611d4e576040516001600160a01b0386169082840180156108fc02916000818181858888f19350505050158015611d48573d6000803e3d6000fd5b50611dbd565b6040516001600160a01b0386169083156108fc029084906000818181858888f19350505050158015611d84573d6000803e3d6000fd5b506040516001600160a01b0385169082156108fc029083906000818181858888f19350505050158015611dbb573d6000803e3d6000fd5b505b6005546040516001600160a01b0390911690838301850380156108fc02916000818181858888f19350505050158015611dfa573d6000803e3d6000fd5b505050505050565b828054600181600116156101000203166002900490600052602060002090601f016020900481019282611e385760008555611e7e565b82601f10611e5157805160ff1916838001178555611e7e565b82800160010185558215611e7e579182015b82811115611e7e578251825591602001919060010190611e63565b50611e8a929150611ebf565b5090565b604051806080016040528060006001600160a01b031681526020016000815260200160608152602001600081525090565b5b80821115611e8a5760008155600101611ec0565b600082601f830112611ee4578081fd5b8135611ef7611ef28261287d565b612859565b818152915060208083019084810181840286018201871015611f1857600080fd5b60005b84811015611f3757813584529282019290820190600101611f1b565b505050505092915050565b600082601f830112611f52578081fd5b8135611f60611ef28261289b565b9150808252836020828501011115611f7757600080fd5b8060208401602084013760009082016020015292915050565b600060208284031215611fa1578081fd5b8151610975816128e9565b600060208284031215611fbd578081fd5b81518015158114610975578182fd5b600060208284031215611fdd578081fd5b8135610975816128e9565b600080600080600060a08688031215611fff578081fd5b853561200a816128e9565b945060208681013567ffffffffffffffff80821115612027578384fd5b6120338a838b01611ed4565b96506040890135915080821115612048578384fd5b818901915089601f83011261205b578384fd5b8135612069611ef28261287d565b81815284810190848601875b8481101561209e5761208c8f8984358a0101611f42565b84529287019290870190600101612075565b5090985050505060608901359250808311156120b8578384fd5b6120c48a848b01611ed4565b945060808901359250808311156120d9578384fd5b50506120e788828901611ed4565b9150509295509295909350565b60008060408385031215612106578182fd5b8235612111816128e9565b946020939093013593505050565b600080600080600060a08688031215612136578081fd5b8535612141816128e9565b945060208601359350604086013567ffffffffffffffff811115612163578182fd5b61216f88828901611f42565b9598949750949560608101359550608001359392505050565b60008060006060848603121561219c578283fd5b83356121a7816128e9565b95602085013595506040909401359392505050565b600080600080608085870312156121d1578384fd5b84356121dc816128e9565b966020860135965060408601359560600135945092505050565b600060208284031215612207578081fd5b815167ffffffffffffffff81111561221d578182fd5b8201601f8101841361222d578182fd5b805161223b611ef28261289b565b81815285602083850101111561224f578384fd5b6122608260208301602086016128bd565b95945050505050565b60006020828403121561227a578081fd5b5051919050565b60008060408385031215612293578182fd5b50508035926020909101359150565b6000815180845260208085019450808401835b838110156122d1578151875295820195908201906001016122b5565b509495945050505050565b600081518084526122f48160208601602086016128bd565b601f01601f19169290920160200192915050565b6001600160a01b0391909116815260200190565b6001600160a01b0392831681529116602082015260400190565b6001600160a01b039485168152928416602084015292166040820152606081019190915260800190565b6001600160a01b03968716815294909516602085015260408401929092526060830152608082015260a081019190915260c00190565b6001600160a01b03929092168252602082015260400190565b6001600160a01b03868116825285166020820152604081018490526060810183905260a0608082018190526000906115ec908301846122dc565b600060018060a01b03861682528460208301526080604083015261241060808301856122dc565b905082606083015295945050505050565b60006060825261243460608301866122a2565b60208382038185015261244782876122a2565b848103604086015285518082529092508183019082810284018301838801865b8381101561249557601f198784030185526124838383516122dc565b94860194925090850190600101612467565b50909a9950505050505050505050565b600060018060a01b03808916835287602084015280871660408401525084606083015283608083015260c060a08301526124e260c08301846122dc565b98975050505050505050565b6001600160a01b03948516815260208101939093526040830191909152909116606082015260800190565b6001600160a01b0396871681526020810195909552604085019390935293166060830152608082019290925260a081019190915260c00190565b6001600160a01b039586168152602081019490945260408401929092526060830152909116608082015260a00190565b60208082526011908201527013d999995c9251081b9bdd081d985b1a59607a1b604082015260600190565b6020808252601490820152734e6f207265656e7472616e637920706c6561736560601b604082015260600190565b6020808252600e908201526d3737ba103cb7bab91037b33332b960911b604082015260600190565b6020808252601a908201527f6e6f7420656e6f756768206974656d7320617661696c61626c65000000000000604082015260600190565b602080825260139082015272556e61626c6520746f206f66666572206e657760681b604082015260600190565b6020808252600c908201526b1d5b985d5d1a1bdc9a5cd95960a21b604082015260600190565b60208082526017908201527f546f6b656e20494420616c7265616479206d696e746564000000000000000000604082015260600190565b60208082526021908201527f6e6f7420656e6f756768206974656d73206f776e6564206279206f66666572656040820152603960f91b606082015260800190565b6020808252600c908201526b155b985d5d1a1bdc9a5cd95960a21b604082015260600190565b60208082526016908201527534b73b30b634b21037b33332b9103837b9b4ba34b7b760511b604082015260600190565b6020808252600d908201526c141c9a58d9481b9bdd081b595d609a1b604082015260600190565b60208082526037908201527f596f752068617665206e6f7420617070726f766564207468697320636f6e747260408201527f61637420746f2073656c6c20796f757220746f6b656e73000000000000000000606082015260800190565b60208082526023908201527f596f7520646f206e6f74206f776e20656e6f756768206f66207468697320746f60408201526235b2b760e91b606082015260800190565b90815260200190565b918252602082015260400190565b60008482528360208301526060604083015261226060608301846122dc565b60405181810167ffffffffffffffff8111828210171561287557fe5b604052919050565b600067ffffffffffffffff82111561289157fe5b5060209081020190565b600067ffffffffffffffff8211156128af57fe5b50601f01601f191660200190565b60005b838110156128d85781810151838201526020016128c0565b83811115610d4a5750506000910152565b6001600160a01b03811681146128fe57600080fd5b5056fea264697066735822122051eda09a5a267f93147a9cf41307649c5b4e55b356e210e13642bf5cfed38c8a64736f6c63430007050033",
  "linkReferences": {},
  "deployedLinkReferences": {}
}