{
  "_format": "hh-sol-artifact-1",
  "contractName": "Minty",
  "sourceName": "contracts/Minty/minty.sol",
  "abi": [
    {
      "inputs": [
        {
          "internalType": "address",
          "name": "mintysig",
          "type": "address"
        }
      ],
      "stateMutability": "nonpayable",
      "type": "constructor"
    },
    {
      "anonymous": false,
      "inputs": [
        {
          "indexed": true,
          "internalType": "address",
          "name": "owner",
          "type": "address"
        },
        {
          "indexed": true,
          "internalType": "address",
          "name": "spender",
          "type": "address"
        },
        {
          "indexed": false,
          "internalType": "uint256",
          "name": "value",
          "type": "uint256"
        }
      ],
      "name": "Approval",
      "type": "event"
    },
    {
      "anonymous": false,
      "inputs": [
        {
          "indexed": true,
          "internalType": "address",
          "name": "from",
          "type": "address"
        },
        {
          "indexed": true,
          "internalType": "address",
          "name": "to",
          "type": "address"
        },
        {
          "indexed": false,
          "internalType": "uint256",
          "name": "value",
          "type": "uint256"
        },
        {
          "indexed": false,
          "internalType": "bytes",
          "name": "data",
          "type": "bytes"
        }
      ],
      "name": "ERC677Transfer",
      "type": "event"
    },
    {
      "anonymous": false,
      "inputs": [
        {
          "indexed": true,
          "internalType": "address",
          "name": "from",
          "type": "address"
        },
        {
          "indexed": true,
          "internalType": "address",
          "name": "to",
          "type": "address"
        },
        {
          "indexed": false,
          "internalType": "uint256",
          "name": "value",
          "type": "uint256"
        }
      ],
      "name": "Transfer",
      "type": "event"
    },
    {
      "inputs": [],
      "name": "MAX_SUPPLY",
      "outputs": [
        {
          "internalType": "uint256",
          "name": "",
          "type": "uint256"
        }
      ],
      "stateMutability": "view",
      "type": "function"
    },
    {
      "inputs": [
        {
          "internalType": "address",
          "name": "owner",
          "type": "address"
        },
        {
          "internalType": "address",
          "name": "spender",
          "type": "address"
        }
      ],
      "name": "allowance",
      "outputs": [
        {
          "internalType": "uint256",
          "name": "",
          "type": "uint256"
        }
      ],
      "stateMutability": "view",
      "type": "function"
    },
    {
      "inputs": [
        {
          "internalType": "address",
          "name": "spender",
          "type": "address"
        },
        {
          "internalType": "uint256",
          "name": "amount",
          "type": "uint256"
        }
      ],
      "name": "approve",
      "outputs": [
        {
          "internalType": "bool",
          "name": "",
          "type": "bool"
        }
      ],
      "stateMutability": "nonpayable",
      "type": "function"
    },
    {
      "inputs": [
        {
          "internalType": "address",
          "name": "account",
          "type": "address"
        }
      ],
      "name": "balanceOf",
      "outputs": [
        {
          "internalType": "uint256",
          "name": "",
          "type": "uint256"
        }
      ],
      "stateMutability": "view",
      "type": "function"
    },
    {
      "inputs": [],
      "name": "decimals",
      "outputs": [
        {
          "internalType": "uint8",
          "name": "",
          "type": "uint8"
        }
      ],
      "stateMutability": "view",
      "type": "function"
    },
    {
      "inputs": [
        {
          "internalType": "address",
          "name": "spender",
          "type": "address"
        },
        {
          "internalType": "uint256",
          "name": "subtractedValue",
          "type": "uint256"
        }
      ],
      "name": "decreaseAllowance",
      "outputs": [
        {
          "internalType": "bool",
          "name": "",
          "type": "bool"
        }
      ],
      "stateMutability": "nonpayable",
      "type": "function"
    },
    {
      "inputs": [
        {
          "internalType": "address",
          "name": "spender",
          "type": "address"
        },
        {
          "internalType": "uint256",
          "name": "addedValue",
          "type": "uint256"
        }
      ],
      "name": "increaseAllowance",
      "outputs": [
        {
          "internalType": "bool",
          "name": "",
          "type": "bool"
        }
      ],
      "stateMutability": "nonpayable",
      "type": "function"
    },
    {
      "inputs": [],
      "name": "minting",
      "outputs": [
        {
          "internalType": "bool",
          "name": "",
          "type": "bool"
        }
      ],
      "stateMutability": "view",
      "type": "function"
    },
    {
      "inputs": [],
      "name": "name",
      "outputs": [
        {
          "internalType": "string",
          "name": "",
          "type": "string"
        }
      ],
      "stateMutability": "view",
      "type": "function"
    },
    {
      "inputs": [
        {
          "internalType": "address",
          "name": "",
          "type": "address"
        }
      ],
      "name": "operators",
      "outputs": [
        {
          "internalType": "bool",
          "name": "",
          "type": "bool"
        }
      ],
      "stateMutability": "view",
      "type": "function"
    },
    {
      "inputs": [],
      "name": "symbol",
      "outputs": [
        {
          "internalType": "string",
          "name": "",
          "type": "string"
        }
      ],
      "stateMutability": "view",
      "type": "function"
    },
    {
      "inputs": [],
      "name": "totalSupply",
      "outputs": [
        {
          "internalType": "uint256",
          "name": "",
          "type": "uint256"
        }
      ],
      "stateMutability": "view",
      "type": "function"
    },
    {
      "inputs": [
        {
          "internalType": "address",
          "name": "recipient",
          "type": "address"
        },
        {
          "internalType": "uint256",
          "name": "amount",
          "type": "uint256"
        }
      ],
      "name": "transfer",
      "outputs": [
        {
          "internalType": "bool",
          "name": "",
          "type": "bool"
        }
      ],
      "stateMutability": "nonpayable",
      "type": "function"
    },
    {
      "inputs": [
        {
          "internalType": "address",
          "name": "_to",
          "type": "address"
        },
        {
          "internalType": "uint256",
          "name": "_value",
          "type": "uint256"
        },
        {
          "internalType": "bytes",
          "name": "_data",
          "type": "bytes"
        }
      ],
      "name": "transferAndCall",
      "outputs": [
        {
          "internalType": "bool",
          "name": "success",
          "type": "bool"
        }
      ],
      "stateMutability": "nonpayable",
      "type": "function"
    },
    {
      "inputs": [
        {
          "internalType": "address",
          "name": "sender",
          "type": "address"
        },
        {
          "internalType": "address",
          "name": "recipient",
          "type": "address"
        },
        {
          "internalType": "uint256",
          "name": "amount",
          "type": "uint256"
        }
      ],
      "name": "transferFrom",
      "outputs": [
        {
          "internalType": "bool",
          "name": "",
          "type": "bool"
        }
      ],
      "stateMutability": "nonpayable",
      "type": "function"
    }
  ],
  "bytecode": "0x60806040526005805461ff0019166101001790553480156200002057600080fd5b506040516200102738038062001027833981810160405260208110156200004657600080fd5b50516040805180820182526009815268135a5b9d1e48105c9d60ba1b6020828101918252835180850190945260058452644d494e545960d81b908401528151919291620000969160039162000250565b508051620000ac90600490602084019062000250565b50506005805460ff1916601217905550620000d3816a52b7d2dcc80cd2e4000000620000da565b50620002fc565b6001600160a01b03821662000136576040805162461bcd60e51b815260206004820152601f60248201527f45524332303a206d696e7420746f20746865207a65726f206164647265737300604482015290519081900360640190fd5b6200014460008383620001e9565b6200016081600254620001ee60201b620007bc1790919060201c565b6002556001600160a01b0382166000908152602081815260409091205462000193918390620007bc620001ee821b17901c565b6001600160a01b0383166000818152602081815260408083209490945583518581529351929391927fddf252ad1be2c89b69c2b068fc378daa952ba7f163c4a11628f55a4df523b3ef9281900390910190a35050565b505050565b60008282018381101562000249576040805162461bcd60e51b815260206004820152601b60248201527f536166654d6174683a206164646974696f6e206f766572666c6f770000000000604482015290519081900360640190fd5b9392505050565b828054600181600116156101000203166002900490600052602060002090601f016020900481019282620002885760008555620002d3565b82601f10620002a357805160ff1916838001178555620002d3565b82800160010185558215620002d3579182015b82811115620002d3578251825591602001919060010190620002b6565b50620002e1929150620002e5565b5090565b5b80821115620002e15760008155600101620002e6565b610d1b806200030c6000396000f3fe608060405234801561001057600080fd5b50600436106100f55760003560e01c8063395093511161009757806395d89b411161006657806395d89b4114610368578063a457c2d714610370578063a9059cbb1461039c578063dd62ed3e146103c8576100f5565b806339509351146102535780634000aea01461027f57806370a082311461033a5780637dc2268c14610360576100f5565b806318160ddd116100d357806318160ddd146101dd57806323b872dd146101f7578063313ce5671461022d57806332cb6b0c1461024b576100f5565b806306fdde03146100fa578063095ea7b31461017757806313e7c9d8146101b7575b600080fd5b6101026103f6565b6040805160208082528351818301528351919283929083019185019080838360005b8381101561013c578181015183820152602001610124565b50505050905090810190601f1680156101695780820380516001836020036101000a031916815260200191505b509250505060405180910390f35b6101a36004803603604081101561018d57600080fd5b506001600160a01b03813516906020013561048c565b604080519115158252519081900360200190f35b6101a3600480360360208110156101cd57600080fd5b50356001600160a01b03166104a9565b6101e56104be565b60408051918252519081900360200190f35b6101a36004803603606081101561020d57600080fd5b506001600160a01b038135811691602081013590911690604001356104c4565b61023561054b565b6040805160ff9092168252519081900360200190f35b6101e5610554565b6101a36004803603604081101561026957600080fd5b506001600160a01b038135169060200135610562565b6101a36004803603606081101561029557600080fd5b6001600160a01b03823516916020810135918101906060810160408201356401000000008111156102c557600080fd5b8201836020820111156102d757600080fd5b803590602001918460018302840111640100000000831117156102f957600080fd5b91908080601f0160208091040260200160405190810160405280939291908181526020018383808284376000920191909152509295506105b0945050505050565b6101e56004803603602081101561035057600080fd5b50356001600160a01b031661068b565b6101a36106a6565b6101026106b4565b6101a36004803603604081101561038657600080fd5b506001600160a01b038135169060200135610715565b6101a3600480360360408110156103b257600080fd5b506001600160a01b03813516906020013561077d565b6101e5600480360360408110156103de57600080fd5b506001600160a01b0381358116916020013516610791565b60038054604080516020601f60026000196101006001881615020190951694909404938401819004810282018101909252828152606093909290918301828280156104825780601f1061045757610100808354040283529160200191610482565b820191906000526020600020905b81548152906001019060200180831161046557829003601f168201915b5050505050905090565b60006104a061049961081d565b8484610821565b50600192915050565b60066020526000908152604090205460ff1681565b60025490565b60006104d184848461090d565b610541846104dd61081d565b61053c85604051806060016040528060288152602001610c50602891396001600160a01b038a1660009081526001602052604081209061051b61081d565b6001600160a01b031681526020810191909152604001600020549190610a68565b610821565b5060019392505050565b60055460ff1690565b69d3c21bcecceda100000081565b60006104a061056f61081d565b8461053c856001600061058061081d565b6001600160a01b03908116825260208083019390935260409182016000908120918c1681529252902054906107bc565b60006105bc848461077d565b50836001600160a01b0316336001600160a01b03167f72db2339068fd324bbc28f2944e01064da539ac76064b6ce4a97a5f81de43dd685856040518083815260200180602001828103825283818151815260200191508051906020019080838360005b8381101561063757818101518382015260200161061f565b50505050905090810190601f1680156106645780820380516001836020036101000a031916815260200191505b50935050505060405180910390a361067b84610aff565b1561054157610541848484610b05565b6001600160a01b031660009081526020819052604090205490565b600554610100900460ff1681565b60048054604080516020601f60026000196101006001881615020190951694909404938401819004810282018101909252828152606093909290918301828280156104825780601f1061045757610100808354040283529160200191610482565b60006104a061072261081d565b8461053c85604051806060016040528060258152602001610cc1602591396001600061074c61081d565b6001600160a01b03908116825260208083019390935260409182016000908120918d16815292529020549190610a68565b60006104a061078a61081d565b848461090d565b6001600160a01b03918216600090815260016020908152604080832093909416825291909152205490565b600082820183811015610816576040805162461bcd60e51b815260206004820152601b60248201527f536166654d6174683a206164646974696f6e206f766572666c6f770000000000604482015290519081900360640190fd5b9392505050565b3390565b6001600160a01b0383166108665760405162461bcd60e51b8152600401808060200182810382526024815260200180610c9d6024913960400191505060405180910390fd5b6001600160a01b0382166108ab5760405162461bcd60e51b8152600401808060200182810382526022815260200180610c086022913960400191505060405180910390fd5b6001600160a01b03808416600081815260016020908152604080832094871680845294825291829020859055815185815291517f8c5be1e5ebec7d5bd14f71427d1e84f3dd0314c0f7b2291e5b200ac8c7c3b9259281900390910190a3505050565b6001600160a01b0383166109525760405162461bcd60e51b8152600401808060200182810382526025815260200180610c786025913960400191505060405180910390fd5b6001600160a01b0382166109975760405162461bcd60e51b8152600401808060200182810382526023815260200180610be56023913960400191505060405180910390fd5b6109a2838383610bdf565b6109df81604051806060016040528060268152602001610c2a602691396001600160a01b0386166000908152602081905260409020549190610a68565b6001600160a01b038085166000908152602081905260408082209390935590841681522054610a0e90826107bc565b6001600160a01b038084166000818152602081815260409182902094909455805185815290519193928716927fddf252ad1be2c89b69c2b068fc378daa952ba7f163c4a11628f55a4df523b3ef92918290030190a3505050565b60008184841115610af75760405162461bcd60e51b81526004018080602001828103825283818151815260200191508051906020019080838360005b83811015610abc578181015183820152602001610aa4565b50505050905090810190601f168015610ae95780820380516001836020036101000a031916815260200191505b509250505060405180910390fd5b505050900390565b3b151590565b604051635260769b60e11b815233600482018181526024830185905260606044840190815284516064850152845187946001600160a01b0386169463a4c0ed369490938993899360840190602085019080838360005b83811015610b73578181015183820152602001610b5b565b50505050905090810190601f168015610ba05780820380516001836020036101000a031916815260200191505b50945050505050600060405180830381600087803b158015610bc157600080fd5b505af1158015610bd5573d6000803e3d6000fd5b5050505050505050565b50505056fe45524332303a207472616e7366657220746f20746865207a65726f206164647265737345524332303a20617070726f766520746f20746865207a65726f206164647265737345524332303a207472616e7366657220616d6f756e7420657863656564732062616c616e636545524332303a207472616e7366657220616d6f756e74206578636565647320616c6c6f77616e636545524332303a207472616e736665722066726f6d20746865207a65726f206164647265737345524332303a20617070726f76652066726f6d20746865207a65726f206164647265737345524332303a2064656372656173656420616c6c6f77616e63652062656c6f77207a65726fa2646970667358221220e84f82cc4e3a1ccfac062d2f3ebfb19e122805b0f35269b816fa708846d7ad0c64736f6c63430007050033",
  "linkReferences": {},
  "deployedLinkReferences": {}
}