{
  "_format": "hh-sol-artifact-1",
  "contractName": "mintysale",
  "sourceName": "contracts/sale/sale.sol",
  "abi": [
    {
      "inputs": [
        {
          "internalType": "contract IMintyToken",
          "name": "m",
          "type": "address"
        },
        {
          "internalType": "address payable",
          "name": "wallet",
          "type": "address"
        },
        {
          "internalType": "uint256",
          "name": "opm",
          "type": "uint256"
        },
        {
          "internalType": "uint256",
          "name": "cpm",
          "type": "uint256"
        }
      ],
      "stateMutability": "nonpayable",
      "type": "constructor"
    },
    {
      "anonymous": false,
      "inputs": [
        {
          "indexed": false,
          "internalType": "address",
          "name": "bidder",
          "type": "address"
        },
        {
          "indexed": false,
          "internalType": "uint256",
          "name": "tokenId",
          "type": "uint256"
        },
        {
          "indexed": false,
          "internalType": "uint256",
          "name": "previous_bid",
          "type": "uint256"
        },
        {
          "indexed": false,
          "internalType": "uint256",
          "name": "this_bid",
          "type": "uint256"
        }
      ],
      "name": "BidIncreased",
      "type": "event"
    },
    {
      "anonymous": false,
      "inputs": [
        {
          "indexed": false,
          "internalType": "address",
          "name": "bidder",
          "type": "address"
        },
        {
          "indexed": false,
          "internalType": "uint256",
          "name": "tokenId",
          "type": "uint256"
        },
        {
          "indexed": false,
          "internalType": "uint256",
          "name": "bid",
          "type": "uint256"
        }
      ],
      "name": "BidReceived",
      "type": "event"
    },
    {
      "anonymous": false,
      "inputs": [
        {
          "indexed": false,
          "internalType": "uint256",
          "name": "tokenId",
          "type": "uint256"
        },
        {
          "indexed": false,
          "internalType": "address",
          "name": "owner",
          "type": "address"
        },
        {
          "indexed": false,
          "internalType": "uint256",
          "name": "price",
          "type": "uint256"
        },
        {
          "indexed": false,
          "internalType": "string",
          "name": "hash",
          "type": "string"
        }
      ],
      "name": "NewOffer",
      "type": "event"
    },
    {
      "anonymous": false,
      "inputs": [
        {
          "indexed": false,
          "internalType": "address",
          "name": "buyer",
          "type": "address"
        },
        {
          "indexed": false,
          "internalType": "uint256",
          "name": "tokenId",
          "type": "uint256"
        },
        {
          "indexed": false,
          "internalType": "uint256",
          "name": "price",
          "type": "uint256"
        }
      ],
      "name": "OfferAccepted",
      "type": "event"
    },
    {
      "anonymous": false,
      "inputs": [
        {
          "indexed": false,
          "internalType": "address",
          "name": "wallet",
          "type": "address"
        },
        {
          "indexed": false,
          "internalType": "address",
          "name": "creator",
          "type": "address"
        },
        {
          "indexed": false,
          "internalType": "address",
          "name": "_owner",
          "type": "address"
        }
      ],
      "name": "Payment",
      "type": "event"
    },
    {
      "anonymous": false,
      "inputs": [
        {
          "indexed": false,
          "internalType": "uint256",
          "name": "tokenId",
          "type": "uint256"
        },
        {
          "indexed": false,
          "internalType": "address",
          "name": "owner",
          "type": "address"
        },
        {
          "indexed": false,
          "internalType": "uint256",
          "name": "price",
          "type": "uint256"
        }
      ],
      "name": "ResaleOffer",
      "type": "event"
    },
    {
      "anonymous": false,
      "inputs": [
        {
          "indexed": false,
          "internalType": "uint256",
          "name": "tokenId",
          "type": "uint256"
        },
        {
          "indexed": false,
          "internalType": "uint256",
          "name": "price",
          "type": "uint256"
        }
      ],
      "name": "SaleResubmitted",
      "type": "event"
    },
    {
      "anonymous": false,
      "inputs": [
        {
          "indexed": false,
          "internalType": "uint256",
          "name": "tokenId",
          "type": "uint256"
        }
      ],
      "name": "SaleRetracted",
      "type": "event"
    },
    {
      "anonymous": false,
      "inputs": [
        {
          "indexed": false,
          "internalType": "uint256",
          "name": "ownerShare",
          "type": "uint256"
        },
        {
          "indexed": false,
          "internalType": "uint256",
          "name": "creatorShare",
          "type": "uint256"
        }
      ],
      "name": "SharesUpdated",
      "type": "event"
    },
    {
      "inputs": [
        {
          "internalType": "uint256",
          "name": "tokenId",
          "type": "uint256"
        },
        {
          "internalType": "address",
          "name": "bidder",
          "type": "address"
        }
      ],
      "name": "acceptBid",
      "outputs": [],
      "stateMutability": "nonpayable",
      "type": "function"
    },
    {
      "inputs": [
        {
          "internalType": "uint256",
          "name": "tokenId",
          "type": "uint256"
        }
      ],
      "name": "acceptOffer",
      "outputs": [],
      "stateMutability": "payable",
      "type": "function"
    },
    {
      "inputs": [
        {
          "internalType": "uint256",
          "name": "tokenId",
          "type": "uint256"
        }
      ],
      "name": "available",
      "outputs": [
        {
          "internalType": "bool",
          "name": "",
          "type": "bool"
        }
      ],
      "stateMutability": "view",
      "type": "function"
    },
    {
      "inputs": [
        {
          "internalType": "uint256",
          "name": "",
          "type": "uint256"
        },
        {
          "internalType": "address",
          "name": "",
          "type": "address"
        }
      ],
      "name": "bids",
      "outputs": [
        {
          "internalType": "uint256",
          "name": "",
          "type": "uint256"
        }
      ],
      "stateMutability": "view",
      "type": "function"
    },
    {
      "inputs": [],
      "name": "creatorPerMille",
      "outputs": [
        {
          "internalType": "uint256",
          "name": "",
          "type": "uint256"
        }
      ],
      "stateMutability": "view",
      "type": "function"
    },
    {
      "inputs": [
        {
          "internalType": "uint256",
          "name": "",
          "type": "uint256"
        }
      ],
      "name": "items",
      "outputs": [
        {
          "internalType": "address",
          "name": "creator",
          "type": "address"
        },
        {
          "internalType": "string",
          "name": "itemHash",
          "type": "string"
        },
        {
          "internalType": "uint256",
          "name": "price",
          "type": "uint256"
        },
        {
          "internalType": "bool",
          "name": "available",
          "type": "bool"
        },
        {
          "internalType": "bool",
          "name": "minted",
          "type": "bool"
        }
      ],
      "stateMutability": "view",
      "type": "function"
    },
    {
      "inputs": [
        {
          "internalType": "uint256",
          "name": "tokenId",
          "type": "uint256"
        }
      ],
      "name": "makeBid",
      "outputs": [],
      "stateMutability": "payable",
      "type": "function"
    },
    {
      "inputs": [],
      "name": "minty",
      "outputs": [
        {
          "internalType": "address payable",
          "name": "",
          "type": "address"
        }
      ],
      "stateMutability": "view",
      "type": "function"
    },
    {
      "inputs": [],
      "name": "nextToken",
      "outputs": [
        {
          "internalType": "uint256",
          "name": "",
          "type": "uint256"
        }
      ],
      "stateMutability": "view",
      "type": "function"
    },
    {
      "inputs": [
        {
          "internalType": "uint256",
          "name": "tokenId",
          "type": "uint256"
        },
        {
          "internalType": "string",
          "name": "ipfsString",
          "type": "string"
        },
        {
          "internalType": "uint256",
          "name": "price",
          "type": "uint256"
        }
      ],
      "name": "offerNew",
      "outputs": [],
      "stateMutability": "nonpayable",
      "type": "function"
    },
    {
      "inputs": [
        {
          "internalType": "uint256",
          "name": "tokenId",
          "type": "uint256"
        },
        {
          "internalType": "uint256",
          "name": "price",
          "type": "uint256"
        }
      ],
      "name": "offerResale",
      "outputs": [],
      "stateMutability": "nonpayable",
      "type": "function"
    },
    {
      "inputs": [
        {
          "internalType": "uint256",
          "name": "tokenId",
          "type": "uint256"
        },
        {
          "internalType": "address",
          "name": "creator",
          "type": "address"
        },
        {
          "internalType": "string",
          "name": "ipfsString",
          "type": "string"
        },
        {
          "internalType": "uint256",
          "name": "price",
          "type": "uint256"
        }
      ],
      "name": "offerSpecial",
      "outputs": [],
      "stateMutability": "nonpayable",
      "type": "function"
    },
    {
      "inputs": [],
      "name": "owner",
      "outputs": [
        {
          "internalType": "address",
          "name": "",
          "type": "address"
        }
      ],
      "stateMutability": "view",
      "type": "function"
    },
    {
      "inputs": [],
      "name": "ownerPerMille",
      "outputs": [
        {
          "internalType": "uint256",
          "name": "",
          "type": "uint256"
        }
      ],
      "stateMutability": "view",
      "type": "function"
    },
    {
      "inputs": [
        {
          "internalType": "uint256",
          "name": "tokenId",
          "type": "uint256"
        },
        {
          "internalType": "uint256",
          "name": "price",
          "type": "uint256"
        }
      ],
      "name": "reSubmitOffer",
      "outputs": [],
      "stateMutability": "nonpayable",
      "type": "function"
    },
    {
      "inputs": [
        {
          "internalType": "uint256",
          "name": "tokenId",
          "type": "uint256"
        }
      ],
      "name": "retractOffer",
      "outputs": [],
      "stateMutability": "nonpayable",
      "type": "function"
    },
    {
      "inputs": [],
      "name": "token",
      "outputs": [
        {
          "internalType": "contract IMintyToken",
          "name": "",
          "type": "address"
        }
      ],
      "stateMutability": "view",
      "type": "function"
    },
    {
      "inputs": [
        {
          "internalType": "uint256",
          "name": "opm",
          "type": "uint256"
        },
        {
          "internalType": "uint256",
          "name": "cpm",
          "type": "uint256"
        }
      ],
      "name": "updateShares",
      "outputs": [],
      "stateMutability": "nonpayable",
      "type": "function"
    },
    {
      "inputs": [
        {
          "internalType": "uint256",
          "name": "tokenId",
          "type": "uint256"
        },
        {
          "internalType": "address",
          "name": "bidder",
          "type": "address"
        },
        {
          "internalType": "uint256",
          "name": "amount",
          "type": "uint256"
        }
      ],
      "name": "withdrawBid",
      "outputs": [],
      "stateMutability": "nonpayable",
      "type": "function"
    }
  ],
  "bytecode": "0x6080604052600080546001600160a01b0319163317905534801561002257600080fd5b50604051612ce9380380612ce98339818101604052608081101561004557600080fd5b508051602080830151604080850151606090950151600180546001600160a01b038088166001600160a01b0319928316179092556007805492861692909116919091179055600586905560068190558151868152938401819052815194959294929390927fe5a0c91086f91c001ad2bce018f8c7818182156e1fd1d3b81788aadd4b2b3021929181900390910190a150505050612c02806100e76000396000f3fe6080604052600436106101145760003560e01c806396e494e8116100a0578063ccb3eae811610064578063ccb3eae8146104a6578063e35263a7146104bb578063ec00a41f14610577578063f21d6afe146105b6578063fc0c546a146105e657610114565b806396e494e814610341578063bfb231d21461037f578063c4c6c87d1461044a578063c815729d14610474578063cbfcab1d1461049157610114565b80633f1ffcec116100e75780633f1ffcec146101c85780634aad4e031461020157806364790208146102cb5780638da5cb5b146102fb5780639499ac541461032c57610114565b8063020686641461011957806307c6061c14610154578063175b23041461018457806320540adc146101a1575b600080fd5b34801561012557600080fd5b506101526004803603604081101561013c57600080fd5b50803590602001356001600160a01b03166105fb565b005b34801561016057600080fd5b506101526004803603604081101561017757600080fd5b5080359060200135610c44565b6101526004803603602081101561019a57600080fd5b5035610f56565b3480156101ad57600080fd5b506101b66111a3565b60408051918252519081900360200190f35b3480156101d457600080fd5b506101b6600480360360408110156101eb57600080fd5b50803590602001356001600160a01b03166111a9565b34801561020d57600080fd5b506101526004803603608081101561022457600080fd5b8135916001600160a01b036020820135169181019060608101604082013564010000000081111561025457600080fd5b82018360208201111561026657600080fd5b8035906020019184600183028401116401000000008311171561028857600080fd5b91908080601f01602080910402602001604051908101604052809392919081815260200183838082843760009201919091525092955050913592506111c6915050565b3480156102d757600080fd5b50610152600480360360408110156102ee57600080fd5b5080359060200135611455565b34801561030757600080fd5b506103106114ec565b604080516001600160a01b039092168252519081900360200190f35b34801561033857600080fd5b506101b66114fb565b34801561034d57600080fd5b5061036b6004803603602081101561036457600080fd5b5035611501565b604080519115158252519081900360200190f35b34801561038b57600080fd5b506103a9600480360360208110156103a257600080fd5b50356117d7565b60405180866001600160a01b031681526020018060200185815260200184151581526020018315158152602001828103825286818151815260200191508051906020019080838360005b8381101561040b5781810151838201526020016103f3565b50505050905090810190601f1680156104385780820380516001836020036101000a031916815260200191505b50965050505050505060405180910390f35b34801561045657600080fd5b506101526004803603602081101561046d57600080fd5b50356118a4565b6101526004803603602081101561048a57600080fd5b5035611ba6565b34801561049d57600080fd5b50610310611bb0565b3480156104b257600080fd5b506101b6611bbf565b3480156104c757600080fd5b50610152600480360360608110156104de57600080fd5b8135919081019060408101602082013564010000000081111561050057600080fd5b82018360208201111561051257600080fd5b8035906020019184600183028401116401000000008311171561053457600080fd5b91908080601f0160208091040260200160405190810160405280939291908181526020018383808284376000920191909152509295505091359250611bc5915050565b34801561058357600080fd5b506101526004803603606081101561059a57600080fd5b508035906001600160a01b036020820135169060400135611ee1565b3480156105c257600080fd5b50610152600480360360408110156105d957600080fd5b5080359060200135611fb8565b3480156105f257600080fd5b50610310612384565b60045460609060ff161561064d576040805162461bcd60e51b81526020600482015260146024820152734e6f207265656e7472616e637920706c6561736560601b604482015290519081900360640190fd5b6004805460ff19166001179055610662612a95565b600084815260036020908152604091829020825160a08101845281546001600160a01b03168152600180830180548651600261010094831615949094026000190190911692909204601f810186900486028301860190965285825291949293858101939192919083018282801561071a5780601f106106ef5761010080835404028352916020019161071a565b820191906000526020600020905b8154815290600101906020018083116106fd57829003601f168201915b5050509183525050600282015460208083019190915260039092015460ff8082161515604080850191909152610100909204161515606090920191909152825160015482516331a9108f60e11b8152600481018a9052925194955090936000936001600160a01b0390921692636352211e926024808301939192829003018186803b1580156107a857600080fd5b505afa1580156107bc573d6000803e3d6000fd5b505050506040513d60208110156107d257600080fd5b50516060840151909150610822576040805162461bcd60e51b81526020600482015260126024820152714974656d206e6f7420617661696c61626c6560701b604482015290519081900360640190fd5b816001600160a01b0316816001600160a01b031614610884576040805162461bcd60e51b815260206004820152601960248201527824ba32b6903737ba1037bbb732b210313c9037b33332b932b960391b604482015290519081900360640190fd5b336001600160a01b038316146108d9576040805162461bcd60e51b8152602060048201526015602482015274139bdd081e5bdd5c881a5d195b481d1bc81cd95b1b605a1b604482015290519081900360640190fd5b60008681526008602090815260408083206001600160a01b0389168452909152812080549190556080840151156109f757600154604051635c46a7ef60e11b81526001600160a01b03858116600483019081528982166024840152604483018b9052608060648401908152895160848501528951929094169363b88d4fde9388938c938e938d939192909160a40190602085019080838360005b8381101561098b578181015183820152602001610973565b50505050905090810190601f1680156109b85780820380516001836020036101000a031916815260200191505b5095505050505050600060405180830381600087803b1580156109da57600080fd5b505af11580156109ee573d6000803e3d6000fd5b50505050610b06565b600160009054906101000a90046001600160a01b03166001600160a01b031663b85cbc798786600001518a88602001516040518563ffffffff1660e01b815260040180856001600160a01b03168152602001846001600160a01b0316815260200183815260200180602001828103825283818151815260200191508051906020019080838360005b83811015610a97578181015183820152602001610a7f565b50505050905090810190601f168015610ac45780820380516001836020036101000a031916815260200191505b5095505050505050600060405180830381600087803b158015610ae657600080fd5b505af1158015610afa573d6000803e3d6000fd5b50506001608087015250505b600060608501819052878152600360209081526040909120855181546001600160a01b0319166001600160a01b039091161781558186015180518793610b53926001850192910190612ad1565b5060408281015160028301556060808401516003909301805460809095015115156101000261ff001994151560ff19909616959095179390931693909317909155600754865182516001600160a01b03928316815290821660208201529086168183015290517f8703df07b43faff82a32cfdce460e22eb4b029f946f61df422e57d5ef66f3962929181900390910190a18351610bf1908483612393565b6004805460ff19169055604080513381526020810189905280820183905290517f2e91b12fed89e8218510d4f7c38c6db746acd0984f09b436b69bd7db5e93da8b9181900360600190a150505050505050565b610c4c612a95565b600083815260036020908152604091829020825160a08101845281546001600160a01b03168152600180830180548651600261010094831615949094026000190190911692909204601f8101869004860283018601909652858252919492938581019391929190830182828015610d045780601f10610cd957610100808354040283529160200191610d04565b820191906000526020600020905b815481529060010190602001808311610ce757829003601f168201915b5050509183525050600282015460208083019190915260039092015460ff80821615156040808501919091526101009092041615156060909201919091528251600154825162491fcf60e11b815260048101899052925194955090936001600160a01b039091169262923f9e9260248082019391829003018186803b158015610d8c57600080fd5b505afa158015610da0573d6000803e3d6000fd5b505050506040513d6020811015610db657600080fd5b505115610e3857600154604080516331a9108f60e11b81526004810187905290516001600160a01b0390921691636352211e91602480820192602092909190829003018186803b158015610e0957600080fd5b505afa158015610e1d573d6000803e3d6000fd5b505050506040513d6020811015610e3357600080fd5b505190505b6001600160a01b0381163314610e84576040805162461bcd60e51b815260206004820152600c60248201526b155b985d5d1a1bdc9a5cd95960a21b604482015290519081900360640190fd5b6001606083018190526040808401859052600086815260036020908152919020845181546001600160a01b0319166001600160a01b0390911617815581850151805186949293610ed8938501920190612ad1565b50604082810151600283015560608301516003909201805460809094015115156101000261ff001993151560ff19909516949094179290921692909217905580518581526020810185905281517fe36efdb123434f0d9dcc119c468c16b0d6de5fa64252b13e049b2c87dafc2a1e929181900390910190a150505050565b610f5e612a95565b600082815260036020908152604091829020825160a08101845281546001600160a01b03168152600180830180548651600261010094831615949094026000190190911692909204601f81018690048602830186019096528582529194929385810193919291908301828280156110165780601f10610feb57610100808354040283529160200191611016565b820191906000526020600020905b815481529060010190602001808311610ff957829003601f168201915b50505091835250506002820154602082015260039091015460ff80821615156040840152610100909104161515606091820152810151909150611095576040805162461bcd60e51b81526020600482015260126024820152714974656d206e6f7420617661696c61626c6560701b604482015290519081900360640190fd5b600082815260086020908152604080832033845290915290819020549082015134909101908111156110ec5760008381526008602090815260408083203384529091528120556110e583826124af565b50506111a0565b600083815260086020908152604080832033845290915290208190553481141561115557604080513381526020810185905280820183905290517f7f06de72678b8f755d2b9cce42fb004f364fad13cafec8e3b43e8808d9db828c9181900360600190a161119d565b60408051338152602081018590523480840382840152606082015290517f34762811225e202a6ffaa6152f171af086267130932de1c3951c1e36ff89b28a9181900360800190a15b50505b50565b60055481565b600860209081526000928352604080842090915290825290205481565b6000546001600160a01b03163314611225576040805162461bcd60e51b815260206004820152601e60248201527f5370656369616c2066756e6374696f6e2c20756e617574686f72697365640000604482015290519081900360640190fd5b6001546040805162491fcf60e11b81526004810187905290516001600160a01b039092169162923f9e91602480820192602092909190829003018186803b15801561126f57600080fd5b505afa158015611283573d6000803e3d6000fd5b505050506040513d602081101561129957600080fd5b5051156112e0576040805162461bcd60e51b815260206004820152601060248201526f125b9d985b1a59081d1bdad95b88125160821b604482015290519081900360640190fd5b6040805160a0810182526001600160a01b03858116825260208083018681528385018690526001606085018190526000608086018190528a81526003845295909520845181546001600160a01b031916941693909317835551805193949293611350938501929190910190612ad1565b5060408281015160028301556060808401516003909301805460809586015115156101000261ff001995151560ff1990921691909117949094169390931790925580518781526001600160a01b03871660208083019190915291810185905291820183815285519383019390935284517f3697349224444578adf7f32ac71b635cf39a0924633e5700169ed207bf91f7b49388938893879389939160a08401919085019080838360005b838110156114125781810151838201526020016113fa565b50505050905090810190601f16801561143f5780820380516001836020036101000a031916815260200191505b509550505050505060405180910390a150505050565b6000546001600160a01b031633146114a3576040805162461bcd60e51b815260206004820152600c60248201526b1d5b985d5d1a1bdc9a5cd95960a21b604482015290519081900360640190fd5b60058290556006819055604080518381526020810183905281517fe5a0c91086f91c001ad2bce018f8c7818182156e1fd1d3b81788aadd4b2b3021929181900390910190a15050565b6000546001600160a01b031681565b60025481565b600061150b612a95565b600083815260036020908152604091829020825160a08101845281546001600160a01b03168152600180830180548651600261010094831615949094026000190190911692909204601f81018690048602830186019096528582529194929385810193919291908301828280156115c35780601f10611598576101008083540402835291602001916115c3565b820191906000526020600020905b8154815290600101906020018083116115a657829003601f168201915b50505091835250506002820154602082015260039091015460ff8082161515604084015261010090910416151560609182015281015190915061160a5760009150506117d2565b806080015161161d5760019150506117d2565b6000838152600360209081526040918290205460015483516331a9108f60e11b81526004810188905293516001600160a01b03928316949190921692636352211e92602480840193829003018186803b15801561167957600080fd5b505afa15801561168d573d6000803e3d6000fd5b505050506040513d60208110156116a357600080fd5b50516001600160a01b0316146116bd5760009150506117d2565b60015481516040805163e985e9c560e01b81526001600160a01b0392831660048201523060248201529051919092169163e985e9c5916044808301926020929190829003018186803b15801561171257600080fd5b505afa158015611726573d6000803e3d6000fd5b505050506040513d602081101561173c57600080fd5b50511561174d5760019150506117d2565b6001546040805163020604bf60e21b815260048101869052905130926001600160a01b03169163081812fc916024808301926020929190829003018186803b15801561179857600080fd5b505afa1580156117ac573d6000803e3d6000fd5b505050506040513d60208110156117c257600080fd5b50516001600160a01b0316149150505b919050565b6003602090815260009182526040918290208054600180830180548651600261010094831615949094026000190190911692909204601f81018690048602830186019096528582526001600160a01b039092169492939092908301828280156118815780601f1061185657610100808354040283529160200191611881565b820191906000526020600020905b81548152906001019060200180831161186457829003601f168201915b50505050600283015460039093015491929160ff80821692506101009091041685565b6118ac612a95565b600082815260036020908152604091829020825160a08101845281546001600160a01b03168152600180830180548651600261010094831615949094026000190190911692909204601f81018690048602830186019096528582529194929385810193919291908301828280156119645780601f1061193957610100808354040283529160200191611964565b820191906000526020600020905b81548152906001019060200180831161194757829003601f168201915b5050509183525050600282015460208083019190915260039092015460ff80821615156040808501919091526101009092041615156060909201919091528251600154825162491fcf60e11b815260048101889052925194955090936001600160a01b039091169262923f9e9260248082019391829003018186803b1580156119ec57600080fd5b505afa158015611a00573d6000803e3d6000fd5b505050506040513d6020811015611a1657600080fd5b505115611a9857600154604080516331a9108f60e11b81526004810186905290516001600160a01b0390921691636352211e91602480820192602092909190829003018186803b158015611a6957600080fd5b505afa158015611a7d573d6000803e3d6000fd5b505050506040513d6020811015611a9357600080fd5b505190505b6001600160a01b0381163314611ae4576040805162461bcd60e51b815260206004820152600c60248201526b155b985d5d1a1bdc9a5cd95960a21b604482015290519081900360640190fd5b600060608301819052838152600360209081526040909120835181546001600160a01b0319166001600160a01b039091161781558184015180518593611b31926001850192910190612ad1565b50604082810151600283015560608301516003909201805460809094015115156101000261ff001993151560ff199095169490941792909216929092179055805184815290517f567b7c6ccef395faa0faf04e2da702ec06c19c0cff01cde647c3d285257a0bb09181900360200190a1505050565b6111a081346124af565b6007546001600160a01b031681565b60065481565b6001546040805162491fcf60e11b81526004810186905290516001600160a01b039092169162923f9e91602480820192602092909190829003018186803b158015611c0f57600080fd5b505afa158015611c23573d6000803e3d6000fd5b505050506040513d6020811015611c3957600080fd5b505115611c80576040805162461bcd60e51b815260206004820152601060248201526f125b9d985b1a59081d1bdad95b88125160821b604482015290519081900360640190fd5b611c88612a95565b600084815260036020908152604091829020825160a08101845281546001600160a01b03168152600180830180548651600261010094831615949094026000190190911692909204601f8101869004860283018601909652858252919492938581019391929190830182828015611d405780601f10611d1557610100808354040283529160200191611d40565b820191906000526020600020905b815481529060010190602001808311611d2357829003601f168201915b50505091835250506002820154602082015260039091015460ff8082161515604084015261010090910416151560609091015280519091506001600160a01b031615611dbd5760405162461bcd60e51b8152600401808060200182810382526023815260200180612b736023913960400191505060405180910390fd5b6040805160a08101825233815260208082018681528284018690526001606084018190526000608085018190528981526003845294909420835181546001600160a01b0319166001600160a01b039091161781559051805193949193611e2b93928501929190910190612ad1565b5060408281015160028301556060808401516003909301805460809586015115156101000261ff001995151560ff19909216919091179490941693909317909255805187815233602080830182905292820187905292810184815287519482019490945286517f3697349224444578adf7f32ac71b635cf39a0924633e5700169ed207bf91f7b49489949388938a9390929160a084019190850190808383600083156114125781810151838201526020016113fa565b60045460ff1615611f30576040805162461bcd60e51b81526020600482015260146024820152734e6f207265656e7472616e637920706c6561736560601b604482015290519081900360640190fd5b6004805460ff1916600117905560008381526008602090815260408083206001600160a01b038616845290915290205481811015611fa8576040805162461bcd60e51b815260206004820152601060248201526f189a59081a5b9cdd59999a58da595b9d60821b604482015290519081900360640190fd5b50506004805460ff191690555050565b6001546040805162491fcf60e11b81526004810185905290516001600160a01b039092169162923f9e91602480820192602092909190829003018186803b15801561200257600080fd5b505afa158015612016573d6000803e3d6000fd5b505050506040513d602081101561202c57600080fd5b5051612077576040805162461bcd60e51b8152602060048201526015602482015274546f6b656e20646f6573206e6f742065786973742160581b604482015290519081900360640190fd5b600154604080516331a9108f60e11b81526004810185905290516001600160a01b0390921691636352211e91602480820192602092909190829003018186803b1580156120c357600080fd5b505afa1580156120d7573d6000803e3d6000fd5b505050506040513d60208110156120ed57600080fd5b50516001600160a01b0316331461214b576040805162461bcd60e51b815260206004820152601960248201527f596f7520646f206e6f74206f776e207468697320746f6b656e00000000000000604482015290519081900360640190fd5b6001546040805163e985e9c560e01b815233600482015230602482015290516001600160a01b039092169163e985e9c591604480820192602092909190829003018186803b15801561219c57600080fd5b505afa1580156121b0573d6000803e3d6000fd5b505050506040513d60208110156121c657600080fd5b50518061225057506001546040805163020604bf60e21b815260048101859052905130926001600160a01b03169163081812fc916024808301926020929190829003018186803b15801561221957600080fd5b505afa15801561222d573d6000803e3d6000fd5b505050506040513d602081101561224357600080fd5b50516001600160a01b0316145b61228b5760405162461bcd60e51b8152600401808060200182810382526037815260200180612b966037913960400191505060405180910390fd5b6040805160a08101825233815281516020808201845260008083528184019283528385018690526001606085018190526080850181905287825260038352949020835181546001600160a01b0319166001600160a01b039091161781559151805193949293612301938501929190910190612ad1565b5060408281015160028301556060808401516003909301805460809095015115156101000261ff001994151560ff19909616959095179390931693909317909155805184815233602082015280820184905290517febe4318722b948bede41b4decd121e3e2ab187f11ad89499eb7a586de7ffcd90929181900390910190a15050565b6001546001600160a01b031681565b60006103e86006548302816123a457fe5b0490508082036001600160a01b0385811690851614156123fb576040516001600160a01b0386169082840180156108fc02916000818181858888f193505050501580156123f5573d6000803e3d6000fd5b5061246a565b6040516001600160a01b0386169083156108fc029084906000818181858888f19350505050158015612431573d6000803e3d6000fd5b506040516001600160a01b0385169082156108fc029083906000818181858888f19350505050158015612468573d6000803e3d6000fd5b505b6007546040516001600160a01b0390911690838301850380156108fc02916000818181858888f193505050501580156124a7573d6000803e3d6000fd5b505050505050565b60045460ff16156124fe576040805162461bcd60e51b81526020600482015260146024820152734e6f207265656e7472616e637920706c6561736560601b604482015290519081900360640190fd5b6004805460ff191660011790556060612515612a95565b600084815260036020908152604091829020825160a08101845281546001600160a01b03168152600180830180548651600261010094831615949094026000190190911692909204601f81018690048602830186019096528582529194929385810193919291908301828280156125cd5780601f106125a2576101008083540402835291602001916125cd565b820191906000526020600020905b8154815290600101906020018083116125b057829003601f168201915b50505091835250506002820154602082015260039091015460ff8082161515604084015261010090910416151560609182015281519082015191925090612650576040805162461bcd60e51b81526020600482015260126024820152714974656d206e6f7420617661696c61626c6560701b604482015290519081900360640190fd5b8160400151841015612699576040805162461bcd60e51b815260206004820152600d60248201526c141c9a58d9481b9bdd081b595d609a1b604482015290519081900360640190fd5b81608001511561286557600154604080516331a9108f60e11b81526004810188905290516000926001600160a01b031691636352211e916024808301926020929190829003018186803b1580156126ef57600080fd5b505afa158015612703573d6000803e3d6000fd5b505050506040513d602081101561271957600080fd5b505190506001600160a01b0380821690831614612779576040805162461bcd60e51b815260206004820152601960248201527824ba32b6903737ba1037bbb732b210313c9037b33332b932b960391b604482015290519081900360640190fd5b600154604051635c46a7ef60e11b81526001600160a01b03848116600483019081523360248401819052604484018b9052608060648501908152895160848601528951939095169463b88d4fde94889492938d938c93919260a40190602085019080838360005b838110156127f85781810151838201526020016127e0565b50505050905090810190601f1680156128255780820380516001836020036101000a031916815260200191505b5095505050505050600060405180830381600087803b15801561284757600080fd5b505af115801561285b573d6000803e3d6000fd5b5050505050612959565b600154825160208085015160405163b85cbc7960e01b815233600482018181526001600160a01b038681166024850152604484018d9052608060648501908152855160848601528551919098169763b85cbc7997939693958e959094919260a49091019185019080838360005b838110156128ea5781810151838201526020016128d2565b50505050905090810190601f1680156129175780820380516001836020036101000a031916815260200191505b5095505050505050600060405180830381600087803b15801561293957600080fd5b505af115801561294d573d6000803e3d6000fd5b50506001608085015250505b600060608301819052858152600360209081526040909120835181546001600160a01b0319166001600160a01b0390911617815581840151805185936129a6926001850192910190612ad1565b5060408281015160028301556060808401516003909301805460809095015115156101000261ff001994151560ff19909616959095179390931693909317909155600754845182516001600160a01b03928316815290821660208201529084168183015290517f8703df07b43faff82a32cfdce460e22eb4b029f946f61df422e57d5ef66f3962929181900390910190a18151612a44908286612393565b6004805460ff19169055604080513381526020810187905280820186905290517f2e91b12fed89e8218510d4f7c38c6db746acd0984f09b436b69bd7db5e93da8b9181900360600190a15050505050565b6040518060a0016040528060006001600160a01b0316815260200160608152602001600081526020016000151581526020016000151581525090565b828054600181600116156101000203166002900490600052602060002090601f016020900481019282612b075760008555612b4d565b82601f10612b2057805160ff1916838001178555612b4d565b82800160010185558215612b4d579182015b82811115612b4d578251825591602001919060010190612b32565b50612b59929150612b5d565b5090565b5b80821115612b595760008155600101612b5e56fe417474656d707420746f206d6f6469667920616e206578697374696e67206f66666572596f752068617665206e6f7420617070726f766564207468697320636f6e747261637420746f2073656c6c20796f757220746f6b656e73a2646970667358221220a3636c455b854d6a655af3dd0d2dcda82007f9f6e47d756dbca4e3c56c8c11eb64736f6c63430007050033",
  "linkReferences": {},
  "deployedLinkReferences": {}
}