{
  "_format": "hh-sol-artifact-1",
  "contractName": "pMintyUnique",
  "sourceName": "contracts/MintyUnique/pMintyUnique.sol",
  "abi": [
    {
      "inputs": [
        {
          "internalType": "address",
          "name": "saleContract",
          "type": "address"
        }
      ],
      "stateMutability": "nonpayable",
      "type": "constructor"
    },
    {
      "anonymous": false,
      "inputs": [
        {
          "indexed": true,
          "internalType": "address",
          "name": "owner",
          "type": "address"
        },
        {
          "indexed": true,
          "internalType": "address",
          "name": "approved",
          "type": "address"
        },
        {
          "indexed": true,
          "internalType": "uint256",
          "name": "tokenId",
          "type": "uint256"
        }
      ],
      "name": "Approval",
      "type": "event"
    },
    {
      "anonymous": false,
      "inputs": [
        {
          "indexed": true,
          "internalType": "address",
          "name": "owner",
          "type": "address"
        },
        {
          "indexed": true,
          "internalType": "address",
          "name": "operator",
          "type": "address"
        },
        {
          "indexed": false,
          "internalType": "bool",
          "name": "approved",
          "type": "bool"
        }
      ],
      "name": "ApprovalForAll",
      "type": "event"
    },
    {
      "anonymous": false,
      "inputs": [
        {
          "indexed": false,
          "internalType": "address",
          "name": "operator",
          "type": "address"
        },
        {
          "indexed": false,
          "internalType": "bool",
          "name": "enabled",
          "type": "bool"
        }
      ],
      "name": "OperatorSet",
      "type": "event"
    },
    {
      "anonymous": false,
      "inputs": [
        {
          "indexed": true,
          "internalType": "address",
          "name": "previousOwner",
          "type": "address"
        },
        {
          "indexed": true,
          "internalType": "address",
          "name": "newOwner",
          "type": "address"
        }
      ],
      "name": "OwnershipTransferred",
      "type": "event"
    },
    {
      "anonymous": false,
      "inputs": [
        {
          "indexed": true,
          "internalType": "address",
          "name": "from",
          "type": "address"
        },
        {
          "indexed": true,
          "internalType": "address",
          "name": "to",
          "type": "address"
        },
        {
          "indexed": true,
          "internalType": "uint256",
          "name": "tokenId",
          "type": "uint256"
        }
      ],
      "name": "Transfer",
      "type": "event"
    },
    {
      "inputs": [
        {
          "internalType": "address",
          "name": "to",
          "type": "address"
        },
        {
          "internalType": "uint256",
          "name": "tokenId",
          "type": "uint256"
        }
      ],
      "name": "approve",
      "outputs": [],
      "stateMutability": "nonpayable",
      "type": "function"
    },
    {
      "inputs": [
        {
          "internalType": "uint256",
          "name": "",
          "type": "uint256"
        }
      ],
      "name": "artist",
      "outputs": [
        {
          "internalType": "address",
          "name": "",
          "type": "address"
        }
      ],
      "stateMutability": "view",
      "type": "function"
    },
    {
      "inputs": [
        {
          "internalType": "address",
          "name": "owner",
          "type": "address"
        }
      ],
      "name": "balanceOf",
      "outputs": [
        {
          "internalType": "uint256",
          "name": "",
          "type": "uint256"
        }
      ],
      "stateMutability": "view",
      "type": "function"
    },
    {
      "inputs": [],
      "name": "baseURI",
      "outputs": [
        {
          "internalType": "string",
          "name": "",
          "type": "string"
        }
      ],
      "stateMutability": "view",
      "type": "function"
    },
    {
      "inputs": [],
      "name": "contractURI",
      "outputs": [
        {
          "internalType": "string",
          "name": "",
          "type": "string"
        }
      ],
      "stateMutability": "view",
      "type": "function"
    },
    {
      "inputs": [
        {
          "internalType": "uint256",
          "name": "tokenId",
          "type": "uint256"
        }
      ],
      "name": "getApproved",
      "outputs": [
        {
          "internalType": "address",
          "name": "",
          "type": "address"
        }
      ],
      "stateMutability": "view",
      "type": "function"
    },
    {
      "inputs": [
        {
          "internalType": "address",
          "name": "owner",
          "type": "address"
        },
        {
          "internalType": "address",
          "name": "operator",
          "type": "address"
        }
      ],
      "name": "isApprovedForAll",
      "outputs": [
        {
          "internalType": "bool",
          "name": "",
          "type": "bool"
        }
      ],
      "stateMutability": "view",
      "type": "function"
    },
    {
      "inputs": [
        {
          "internalType": "address",
          "name": "_owner",
          "type": "address"
        },
        {
          "internalType": "address",
          "name": "_artist",
          "type": "address"
        },
        {
          "internalType": "uint256",
          "name": "tokenId",
          "type": "uint256"
        },
        {
          "internalType": "string",
          "name": "_tokenURI",
          "type": "string"
        }
      ],
      "name": "mint",
      "outputs": [],
      "stateMutability": "nonpayable",
      "type": "function"
    },
    {
      "inputs": [],
      "name": "name",
      "outputs": [
        {
          "internalType": "string",
          "name": "",
          "type": "string"
        }
      ],
      "stateMutability": "view",
      "type": "function"
    },
    {
      "inputs": [],
      "name": "nextToken",
      "outputs": [
        {
          "internalType": "uint256",
          "name": "",
          "type": "uint256"
        }
      ],
      "stateMutability": "view",
      "type": "function"
    },
    {
      "inputs": [
        {
          "internalType": "address",
          "name": "",
          "type": "address"
        }
      ],
      "name": "operators",
      "outputs": [
        {
          "internalType": "bool",
          "name": "",
          "type": "bool"
        }
      ],
      "stateMutability": "view",
      "type": "function"
    },
    {
      "inputs": [],
      "name": "owner",
      "outputs": [
        {
          "internalType": "address",
          "name": "",
          "type": "address"
        }
      ],
      "stateMutability": "view",
      "type": "function"
    },
    {
      "inputs": [
        {
          "internalType": "uint256",
          "name": "tokenId",
          "type": "uint256"
        }
      ],
      "name": "ownerOf",
      "outputs": [
        {
          "internalType": "address",
          "name": "",
          "type": "address"
        }
      ],
      "stateMutability": "view",
      "type": "function"
    },
    {
      "inputs": [],
      "name": "renounceOwnership",
      "outputs": [],
      "stateMutability": "nonpayable",
      "type": "function"
    },
    {
      "inputs": [
        {
          "internalType": "address",
          "name": "from",
          "type": "address"
        },
        {
          "internalType": "address",
          "name": "to",
          "type": "address"
        },
        {
          "internalType": "uint256",
          "name": "tokenId",
          "type": "uint256"
        }
      ],
      "name": "safeTransferFrom",
      "outputs": [],
      "stateMutability": "nonpayable",
      "type": "function"
    },
    {
      "inputs": [
        {
          "internalType": "address",
          "name": "from",
          "type": "address"
        },
        {
          "internalType": "address",
          "name": "to",
          "type": "address"
        },
        {
          "internalType": "uint256",
          "name": "tokenId",
          "type": "uint256"
        },
        {
          "internalType": "bytes",
          "name": "_data",
          "type": "bytes"
        }
      ],
      "name": "safeTransferFrom",
      "outputs": [],
      "stateMutability": "nonpayable",
      "type": "function"
    },
    {
      "inputs": [
        {
          "internalType": "address",
          "name": "operator",
          "type": "address"
        },
        {
          "internalType": "bool",
          "name": "approved",
          "type": "bool"
        }
      ],
      "name": "setApprovalForAll",
      "outputs": [],
      "stateMutability": "nonpayable",
      "type": "function"
    },
    {
      "inputs": [
        {
          "internalType": "address",
          "name": "_op",
          "type": "address"
        },
        {
          "internalType": "bool",
          "name": "status",
          "type": "bool"
        }
      ],
      "name": "setAuth",
      "outputs": [],
      "stateMutability": "nonpayable",
      "type": "function"
    },
    {
      "inputs": [
        {
          "internalType": "string",
          "name": "_uri",
          "type": "string"
        }
      ],
      "name": "setBaseURI",
      "outputs": [],
      "stateMutability": "nonpayable",
      "type": "function"
    },
    {
      "inputs": [
        {
          "internalType": "string",
          "name": "_uri",
          "type": "string"
        }
      ],
      "name": "setContractURI",
      "outputs": [],
      "stateMutability": "nonpayable",
      "type": "function"
    },
    {
      "inputs": [
        {
          "internalType": "bytes4",
          "name": "interfaceId",
          "type": "bytes4"
        }
      ],
      "name": "supportsInterface",
      "outputs": [
        {
          "internalType": "bool",
          "name": "",
          "type": "bool"
        }
      ],
      "stateMutability": "view",
      "type": "function"
    },
    {
      "inputs": [],
      "name": "symbol",
      "outputs": [
        {
          "internalType": "string",
          "name": "",
          "type": "string"
        }
      ],
      "stateMutability": "view",
      "type": "function"
    },
    {
      "inputs": [
        {
          "internalType": "uint256",
          "name": "index",
          "type": "uint256"
        }
      ],
      "name": "tokenByIndex",
      "outputs": [
        {
          "internalType": "uint256",
          "name": "",
          "type": "uint256"
        }
      ],
      "stateMutability": "view",
      "type": "function"
    },
    {
      "inputs": [
        {
          "internalType": "uint256",
          "name": "tokenId",
          "type": "uint256"
        }
      ],
      "name": "tokenExists",
      "outputs": [
        {
          "internalType": "bool",
          "name": "",
          "type": "bool"
        }
      ],
      "stateMutability": "view",
      "type": "function"
    },
    {
      "inputs": [
        {
          "internalType": "address",
          "name": "owner",
          "type": "address"
        },
        {
          "internalType": "uint256",
          "name": "index",
          "type": "uint256"
        }
      ],
      "name": "tokenOfOwnerByIndex",
      "outputs": [
        {
          "internalType": "uint256",
          "name": "",
          "type": "uint256"
        }
      ],
      "stateMutability": "view",
      "type": "function"
    },
    {
      "inputs": [
        {
          "internalType": "uint256",
          "name": "tokenId",
          "type": "uint256"
        }
      ],
      "name": "tokenURI",
      "outputs": [
        {
          "internalType": "string",
          "name": "",
          "type": "string"
        }
      ],
      "stateMutability": "view",
      "type": "function"
    },
    {
      "inputs": [],
      "name": "totalSupply",
      "outputs": [
        {
          "internalType": "uint256",
          "name": "",
          "type": "uint256"
        }
      ],
      "stateMutability": "view",
      "type": "function"
    },
    {
      "inputs": [
        {
          "internalType": "address",
          "name": "from",
          "type": "address"
        },
        {
          "internalType": "address",
          "name": "to",
          "type": "address"
        },
        {
          "internalType": "uint256",
          "name": "tokenId",
          "type": "uint256"
        }
      ],
      "name": "transferFrom",
      "outputs": [],
      "stateMutability": "nonpayable",
      "type": "function"
    },
    {
      "inputs": [
        {
          "internalType": "address",
          "name": "newOwner",
          "type": "address"
        }
      ],
      "name": "transferOwnership",
      "outputs": [],
      "stateMutability": "nonpayable",
      "type": "function"
    }
  ],
  "bytecode": "0x60806040526001600c553480156200001657600080fd5b506040516200288e3803806200288e833981810160405260208110156200003c57600080fd5b5051604080518082018252601081526f135a5b9d1e48155b9a5c5d594813919560821b6020828101919091528251808401909352600683526513539513919560d21b9083015290620000956301ffc9a760e01b620001b5565b8151620000aa90600690602085019062000257565b508051620000c090600790602084019062000257565b50620000d36380ac58cd60e01b620001b5565b620000e5635b5e139f60e01b620001b5565b620000f763780e9d6360e01b620001b5565b5060009050620001066200023a565b600a80546001600160a01b0319166001600160a01b038316908117909155604051919250906000907f8be0079c531659141344cd1fd0a4f28419497f9722a3daafe3b4186f6b6457e0908290a350620001786040518060600160405280602281526020016200286c602291396200023e565b336000908152600b60205260408082208054600160ff1991821681179092556001600160a01b039490941683529120805490921617905562000303565b6001600160e01b0319808216141562000215576040805162461bcd60e51b815260206004820152601c60248201527f4552433136353a20696e76616c696420696e7465726661636520696400000000604482015290519081900360640190fd5b6001600160e01b0319166000908152602081905260409020805460ff19166001179055565b3390565b80516200025390600990602084019062000257565b5050565b828054600181600116156101000203166002900490600052602060002090601f0160209004810192826200028f5760008555620002da565b82601f10620002aa57805160ff1916838001178555620002da565b82800160010185558215620002da579182015b82811115620002da578251825591602001919060010190620002bd565b50620002e8929150620002ec565b5090565b5b80821115620002e85760008155600101620002ed565b61255980620003136000396000f3fe608060405234801561001057600080fd5b50600436106101ce5760003560e01c80636352211e1161010457806395d89b41116100a2578063c87b56dd11610071578063c87b56dd146107b8578063e8a3d485146107d5578063e985e9c5146107dd578063f2fde38b1461080b576101ce565b806395d89b41146105fa578063a22cb46514610602578063b85cbc7914610630578063b88d4fde146106f4576101ce565b8063715018a6116100de578063715018a61461053e5780638da5cb5b14610546578063938e3d7b1461054e5780639499ac54146105f2576101ce565b80636352211e146104f35780636c0360eb1461051057806370a0823114610518576101ce565b806318160ddd1161017157806342842e0e1161014b57806342842e0e146103df5780634b1b7b84146104155780634f6ccce71461043257806355f804b31461044f576101ce565b806318160ddd1461036357806323b872dd1461037d5780632f745c59146103b3576101ce565b8063081812fc116101ad578063081812fc146102a8578063095ea7b3146102e15780630b44a2181461030f57806313e7c9d81461033d576101ce565b8062923f9e146101d357806301ffc9a71461020457806306fdde031461022b575b600080fd5b6101f0600480360360208110156101e957600080fd5b5035610831565b604080519115158252519081900360200190f35b6101f06004803603602081101561021a57600080fd5b50356001600160e01b031916610844565b610233610863565b6040805160208082528351818301528351919283929083019185019080838360005b8381101561026d578181015183820152602001610255565b50505050905090810190601f16801561029a5780820380516001836020036101000a031916815260200191505b509250505060405180910390f35b6102c5600480360360208110156102be57600080fd5b50356108f9565b604080516001600160a01b039092168252519081900360200190f35b61030d600480360360408110156102f757600080fd5b506001600160a01b03813516906020013561095b565b005b61030d6004803603604081101561032557600080fd5b506001600160a01b0381351690602001351515610a36565b6101f06004803603602081101561035357600080fd5b50356001600160a01b0316610afc565b61036b610b11565b60408051918252519081900360200190f35b61030d6004803603606081101561039357600080fd5b506001600160a01b03813581169160208101359091169060400135610b22565b61036b600480360360408110156103c957600080fd5b506001600160a01b038135169060200135610b79565b61030d600480360360608110156103f557600080fd5b506001600160a01b03813581169160208101359091169060400135610ba4565b6102c56004803603602081101561042b57600080fd5b5035610bbf565b61036b6004803603602081101561044857600080fd5b5035610bda565b61030d6004803603602081101561046557600080fd5b810190602081018135600160201b81111561047f57600080fd5b82018360208201111561049157600080fd5b803590602001918460018302840111600160201b831117156104b257600080fd5b91908080601f016020809104026020016040519081016040528093929190818152602001838380828437600092019190915250929550610bf0945050505050565b6102c56004803603602081101561050957600080fd5b5035610c5e565b610233610c86565b61036b6004803603602081101561052e57600080fd5b50356001600160a01b0316610ce7565b61030d610d4f565b6102c5610dfb565b61030d6004803603602081101561056457600080fd5b810190602081018135600160201b81111561057e57600080fd5b82018360208201111561059057600080fd5b803590602001918460018302840111600160201b831117156105b157600080fd5b91908080601f016020809104026020016040519081016040528093929190818152602001838380828437600092019190915250929550610e0a945050505050565b61036b610e83565b610233610e89565b61030d6004803603604081101561061857600080fd5b506001600160a01b0381351690602001351515610eea565b61030d6004803603608081101561064657600080fd5b6001600160a01b03823581169260208101359091169160408201359190810190608081016060820135600160201b81111561068057600080fd5b82018360208201111561069257600080fd5b803590602001918460018302840111600160201b831117156106b357600080fd5b91908080601f016020809104026020016040519081016040528093929190818152602001838380828437600092019190915250929550610fef945050505050565b61030d6004803603608081101561070a57600080fd5b6001600160a01b03823581169260208101359091169160408201359190810190608081016060820135600160201b81111561074457600080fd5b82018360208201111561075657600080fd5b803590602001918460018302840111600160201b8311171561077757600080fd5b91908080601f0160208091040260200160405190810160405280939291908181526020018383808284376000920191909152509295506110e6945050505050565b610233600480360360208110156107ce57600080fd5b503561113e565b6102336113c1565b6101f0600480360360408110156107f357600080fd5b506001600160a01b0381358116916020013516611422565b61030d6004803603602081101561082157600080fd5b50356001600160a01b0316611450565b600061083c82611553565b90505b919050565b6001600160e01b03191660009081526020819052604090205460ff1690565b60068054604080516020601f60026000196101006001881615020190951694909404938401819004810282018101909252828152606093909290918301828280156108ef5780601f106108c4576101008083540402835291602001916108ef565b820191906000526020600020905b8154815290600101906020018083116108d257829003601f168201915b5050505050905090565b600061090482611553565b61093f5760405162461bcd60e51b815260040180806020018281038252602c815260200180612402602c913960400191505060405180910390fd5b506000908152600460205260409020546001600160a01b031690565b600061096682610c5e565b9050806001600160a01b0316836001600160a01b031614156109b95760405162461bcd60e51b81526004018080602001828103825260218152602001806124d26021913960400191505060405180910390fd5b806001600160a01b03166109cb611560565b6001600160a01b031614806109ec57506109ec816109e7611560565b611422565b610a275760405162461bcd60e51b81526004018080602001828103825260388152602001806123556038913960400191505060405180910390fd5b610a318383611564565b505050565b610a3e611560565b6001600160a01b0316610a4f610dfb565b6001600160a01b031614610a98576040805162461bcd60e51b8152602060048201819052602482015260008051602061245a833981519152604482015290519081900360640190fd5b6001600160a01b0382166000818152600b6020908152604091829020805460ff191685151590811790915582519384529083015280517f1a594081ae893ab78e67d9b9e843547318164322d32c65369d78a96172d9dc8f9281900390910190a15050565b600b6020526000908152604090205460ff1681565b6000610b1d60026115d2565b905090565b610b33610b2d611560565b826115dd565b610b6e5760405162461bcd60e51b81526004018080602001828103825260318152602001806124f36031913960400191505060405180910390fd5b610a31838383611681565b6001600160a01b0382166000908152600160205260408120610b9b90836117cd565b90505b92915050565b610a31838383604051806020016040528060008152506110e6565b600d602052600090815260409020546001600160a01b031681565b600080610be86002846117d9565b509392505050565b610bf8611560565b6001600160a01b0316610c09610dfb565b6001600160a01b031614610c52576040805162461bcd60e51b8152602060048201819052602482015260008051602061245a833981519152604482015290519081900360640190fd5b610c5b816117f5565b50565b600061083c826040518060600160405280602981526020016123b76029913960029190611808565b60098054604080516020601f60026000196101006001881615020190951694909404938401819004810282018101909252828152606093909290918301828280156108ef5780601f106108c4576101008083540402835291602001916108ef565b60006001600160a01b038216610d2e5760405162461bcd60e51b815260040180806020018281038252602a81526020018061238d602a913960400191505060405180910390fd5b6001600160a01b038216600090815260016020526040902061083c906115d2565b610d57611560565b6001600160a01b0316610d68610dfb565b6001600160a01b031614610db1576040805162461bcd60e51b8152602060048201819052602482015260008051602061245a833981519152604482015290519081900360640190fd5b600a546040516000916001600160a01b0316907f8be0079c531659141344cd1fd0a4f28419497f9722a3daafe3b4186f6b6457e0908390a3600a80546001600160a01b0319169055565b600a546001600160a01b031690565b610e12611560565b6001600160a01b0316610e23610dfb565b6001600160a01b031614610e6c576040805162461bcd60e51b8152602060048201819052602482015260008051602061245a833981519152604482015290519081900360640190fd5b8051610e7f90600e9060208401906121e9565b5050565b600c5481565b60078054604080516020601f60026000196101006001881615020190951694909404938401819004810282018101909252828152606093909290918301828280156108ef5780601f106108c4576101008083540402835291602001916108ef565b610ef2611560565b6001600160a01b0316826001600160a01b03161415610f58576040805162461bcd60e51b815260206004820152601960248201527f4552433732313a20617070726f766520746f2063616c6c657200000000000000604482015290519081900360640190fd5b8060056000610f65611560565b6001600160a01b03908116825260208083019390935260409182016000908120918716808252919093529120805460ff191692151592909217909155610fa9611560565b6001600160a01b03167f17307eab39ab6107e8899845ad3d59bd9653f200f220920489ca2b5937696c318360405180821515815260200191505060405180910390a35050565b336000908152600b602052604090205460ff16611053576040805162461bcd60e51b815260206004820152601a60248201527f6f6e6c794f70657261746f723a20756e617574686f7269736564000000000000604482015290519081900360640190fd5b61105c82611553565b156110a5576040805162461bcd60e51b8152602060048201526014602482015273546f6b656e20616c72656164792065786973747360601b604482015290519081900360640190fd5b6000828152600d6020526040902080546001600160a01b0319166001600160a01b0385161790556110d6848361181f565b6110e08282611839565b50505050565b6110f76110f1611560565b836115dd565b6111325760405162461bcd60e51b81526004018080602001828103825260318152602001806124f36031913960400191505060405180910390fd5b6110e08484848461189c565b606061114982611553565b6111845760405162461bcd60e51b815260040180806020018281038252602f8152602001806124a3602f913960400191505060405180910390fd5b60008281526008602090815260409182902080548351601f60026000196101006001861615020190931692909204918201849004840281018401909452808452606093928301828280156112195780601f106111ee57610100808354040283529160200191611219565b820191906000526020600020905b8154815290600101906020018083116111fc57829003601f168201915b50505050509050606061122a610c86565b905080516000141561123e5750905061083f565b8151156112ff5780826040516020018083805190602001908083835b602083106112795780518252601f19909201916020918201910161125a565b51815160209384036101000a600019018019909216911617905285519190930192850191508083835b602083106112c15780518252601f1990920191602091820191016112a2565b6001836020036101000a038019825116818451168082178552505050505050905001925050506040516020818303038152906040529250505061083f565b80611309856118ee565b6040516020018083805190602001908083835b6020831061133b5780518252601f19909201916020918201910161131c565b51815160209384036101000a600019018019909216911617905285519190930192850191508083835b602083106113835780518252601f199092019160209182019101611364565b6001836020036101000a0380198251168184511680821785525050505050509050019250505060405160208183030381529060405292505050919050565b600e8054604080516020601f60026000196101006001881615020190951694909404938401819004810282018101909252828152606093909290918301828280156108ef5780601f106108c4576101008083540402835291602001916108ef565b6001600160a01b03918216600090815260056020908152604080832093909416825291909152205460ff1690565b611458611560565b6001600160a01b0316611469610dfb565b6001600160a01b0316146114b2576040805162461bcd60e51b8152602060048201819052602482015260008051602061245a833981519152604482015290519081900360640190fd5b6001600160a01b0381166114f75760405162461bcd60e51b81526004018080602001828103825260268152602001806122df6026913960400191505060405180910390fd5b600a546040516001600160a01b038084169216907f8be0079c531659141344cd1fd0a4f28419497f9722a3daafe3b4186f6b6457e090600090a3600a80546001600160a01b0319166001600160a01b0392909216919091179055565b600061083c6002836119c9565b3390565b600081815260046020526040902080546001600160a01b0319166001600160a01b038416908117909155819061159982610c5e565b6001600160a01b03167f8c5be1e5ebec7d5bd14f71427d1e84f3dd0314c0f7b2291e5b200ac8c7c3b92560405160405180910390a45050565b600061083c826119d5565b60006115e882611553565b6116235760405162461bcd60e51b815260040180806020018281038252602c815260200180612329602c913960400191505060405180910390fd5b600061162e83610c5e565b9050806001600160a01b0316846001600160a01b031614806116695750836001600160a01b031661165e846108f9565b6001600160a01b0316145b8061167957506116798185611422565b949350505050565b826001600160a01b031661169482610c5e565b6001600160a01b0316146116d95760405162461bcd60e51b815260040180806020018281038252602981526020018061247a6029913960400191505060405180910390fd5b6001600160a01b03821661171e5760405162461bcd60e51b81526004018080602001828103825260248152602001806123056024913960400191505060405180910390fd5b611729838383610a31565b611734600082611564565b6001600160a01b038316600090815260016020526040902061175690826119d9565b506001600160a01b038216600090815260016020526040902061177990826119e5565b50611786600282846119f1565b5080826001600160a01b0316846001600160a01b03167fddf252ad1be2c89b69c2b068fc378daa952ba7f163c4a11628f55a4df523b3ef60405160405180910390a4505050565b6000610b9b8383611a07565b60008080806117e88686611a6b565b9097909650945050505050565b8051610e7f9060099060208401906121e9565b6000611815848484611ae6565b90505b9392505050565b610e7f828260405180602001604052806000815250611bb0565b61184282611553565b61187d5760405162461bcd60e51b815260040180806020018281038252602c81526020018061242e602c913960400191505060405180910390fd5b60008281526008602090815260409091208251610a31928401906121e9565b6118a7848484611681565b6118b384848484611c02565b6110e05760405162461bcd60e51b81526004018080602001828103825260328152602001806122ad6032913960400191505060405180910390fd5b60608161191357506040805180820190915260018152600360fc1b602082015261083f565b8160005b811561192b57600101600a82049150611917565b60608167ffffffffffffffff8111801561194457600080fd5b506040519080825280601f01601f19166020018201604052801561196f576020820181803683370190505b50859350905060001982015b83156119c057600a840660300160f81b8282806001900393508151811061199e57fe5b60200101906001600160f81b031916908160001a905350600a8404935061197b565b50949350505050565b6000610b9b8383611d6a565b5490565b6000610b9b8383611d82565b6000610b9b8383611e48565b600061181584846001600160a01b038516611e92565b81546000908210611a495760405162461bcd60e51b815260040180806020018281038252602281526020018061228b6022913960400191505060405180910390fd5b826000018281548110611a5857fe5b9060005260206000200154905092915050565b815460009081908310611aaf5760405162461bcd60e51b81526004018080602001828103825260228152602001806123e06022913960400191505060405180910390fd5b6000846000018481548110611ac057fe5b906000526020600020906002020190508060000154816001015492509250509250929050565b60008281526001840160205260408120548281611b815760405162461bcd60e51b81526004018080602001828103825283818151815260200191508051906020019080838360005b83811015611b46578181015183820152602001611b2e565b50505050905090810190601f168015611b735780820380516001836020036101000a031916815260200191505b509250505060405180910390fd5b50846000016001820381548110611b9457fe5b9060005260206000209060020201600101549150509392505050565b611bba8383611f29565b611bc76000848484611c02565b610a315760405162461bcd60e51b81526004018080602001828103825260328152602001806122ad6032913960400191505060405180910390fd5b6000611c16846001600160a01b0316612057565b611c2257506001611679565b6060611d30630a85bd0160e11b611c37611560565b88878760405160240180856001600160a01b03168152602001846001600160a01b0316815260200183815260200180602001828103825283818151815260200191508051906020019080838360005b83811015611c9e578181015183820152602001611c86565b50505050905090810190601f168015611ccb5780820380516001836020036101000a031916815260200191505b5095505050505050604051602081830303815290604052906001600160e01b0319166020820180516001600160e01b0383818316178352505050506040518060600160405280603281526020016122ad603291396001600160a01b038816919061205d565b90506000818060200190516020811015611d4957600080fd5b50516001600160e01b031916630a85bd0160e11b1492505050949350505050565b60009081526001919091016020526040902054151590565b60008181526001830160205260408120548015611e3e5783546000198083019190810190600090879083908110611db557fe5b9060005260206000200154905080876000018481548110611dd257fe5b600091825260208083209091019290925582815260018981019092526040902090840190558654879080611e0257fe5b60019003818190600052602060002001600090559055866001016000878152602001908152602001600020600090556001945050505050610b9e565b6000915050610b9e565b6000611e548383611d6a565b611e8a57508154600181810184556000848152602080822090930184905584548482528286019093526040902091909155610b9e565b506000610b9e565b600082815260018401602052604081205480611ef7575050604080518082018252838152602080820184815286546001818101895560008981528481209551600290930290950191825591519082015586548684528188019092529290912055611818565b82856000016001830381548110611f0a57fe5b9060005260206000209060020201600101819055506000915050611818565b6001600160a01b038216611f84576040805162461bcd60e51b815260206004820181905260248201527f4552433732313a206d696e7420746f20746865207a65726f2061646472657373604482015290519081900360640190fd5b611f8d81611553565b15611fdf576040805162461bcd60e51b815260206004820152601c60248201527f4552433732313a20746f6b656e20616c7265616479206d696e74656400000000604482015290519081900360640190fd5b611feb60008383610a31565b6001600160a01b038216600090815260016020526040902061200d90826119e5565b5061201a600282846119f1565b5060405181906001600160a01b038416906000907fddf252ad1be2c89b69c2b068fc378daa952ba7f163c4a11628f55a4df523b3ef908290a45050565b3b151590565b606061181584846000858561207185612057565b6120c2576040805162461bcd60e51b815260206004820152601d60248201527f416464726573733a2063616c6c20746f206e6f6e2d636f6e7472616374000000604482015290519081900360640190fd5b60006060866001600160a01b031685876040518082805190602001908083835b602083106121015780518252601f1990920191602091820191016120e2565b6001836020036101000a03801982511681845116808217855250505050505090500191505060006040518083038185875af1925050503d8060008114612163576040519150601f19603f3d011682016040523d82523d6000602084013e612168565b606091505b5091509150612178828286612183565b979650505050505050565b60608315612192575081611818565b8251156121a25782518084602001fd5b60405162461bcd60e51b8152602060048201818152845160248401528451859391928392604401919085019080838360008315611b46578181015183820152602001611b2e565b828054600181600116156101000203166002900490600052602060002090601f01602090048101928261221f5760008555612265565b82601f1061223857805160ff1916838001178555612265565b82800160010185558215612265579182015b8281111561226557825182559160200191906001019061224a565b50612271929150612275565b5090565b5b80821115612271576000815560010161227656fe456e756d657261626c655365743a20696e646578206f7574206f6620626f756e64734552433732313a207472616e7366657220746f206e6f6e20455243373231526563656976657220696d706c656d656e7465724f776e61626c653a206e6577206f776e657220697320746865207a65726f20616464726573734552433732313a207472616e7366657220746f20746865207a65726f20616464726573734552433732313a206f70657261746f7220717565727920666f72206e6f6e6578697374656e7420746f6b656e4552433732313a20617070726f76652063616c6c6572206973206e6f74206f776e6572206e6f7220617070726f76656420666f7220616c6c4552433732313a2062616c616e636520717565727920666f7220746865207a65726f20616464726573734552433732313a206f776e657220717565727920666f72206e6f6e6578697374656e7420746f6b656e456e756d657261626c654d61703a20696e646578206f7574206f6620626f756e64734552433732313a20617070726f76656420717565727920666f72206e6f6e6578697374656e7420746f6b656e4552433732314d657461646174613a2055524920736574206f66206e6f6e6578697374656e7420746f6b656e4f776e61626c653a2063616c6c6572206973206e6f7420746865206f776e65724552433732313a207472616e73666572206f6620746f6b656e2074686174206973206e6f74206f776e4552433732314d657461646174613a2055524920717565727920666f72206e6f6e6578697374656e7420746f6b656e4552433732313a20617070726f76616c20746f2063757272656e74206f776e65724552433732313a207472616e736665722063616c6c6572206973206e6f74206f776e6572206e6f7220617070726f766564a264697066735822122047cb13a2ab7555c454d55b90b609b210cffcd921acb1e5e41d3c64d8fb35d23f64736f6c6343000705003368747470733a2f2f6d696e74792e6d7970696e6174612e636c6f75642f697066732f",
  "linkReferences": {},
  "deployedLinkReferences": {}
}